:100000000C9412030C943A030C943A030C943A03A4
:100010000C943A030C943A030C943A030C943A036C
:100020000C943A030C943A030C943A030C943A035C
:100030000C943A030C943A030C943A030C943A034C
:100040000C9445140C943A030C9426170C945817EE
:100050000C943A030C943A030C943A030C943A032C
:100060000C943A030C943A0300000000003E5B4FEE
:100070005B3E3E6B4F6B3E1C3E7C3E1C183C7E3C08
:10008000181C577D571C1C5E7F5E1C00183C180016
:10009000FFE7C3E7FF0018241800FFE7DBE7FF30A6
:1000A000483A060E2629792926407F050507407F14
:1000B00005253F5A3CE73C5A7F3E1C1C08081C1C87
:1000C0003E7F14227F22145F5F005F5F06097F017D
:1000D0007F006689956A606060606094A2FFA29468
:1000E00008047E040810207E201008082A1C080836
:1000F0001C2A08081E101010100C1E0C1E0C303884
:100100003E3830060E3E0E06000000000000005F84
:1001100000000007000700147F147F14242A7F2AA0
:100120001223130864623649562050000807030062
:10013000001C2241000041221C002A1C7F1C2A08AE
:10014000083E080800807030000808080808000011
:1001500060600020100804023E5149453E00427F85
:10016000400072494949462141494D331814127FD4
:100170001027454545393C4A494931412111090774
:100180003649494936464949291E000014000000F5
:1001900040340000000814224114141414140041C7
:1001A00022140802015909063E415D594E7C121184
:1001B000127C7F494949363E414141227F414141BC
:1001C0003E7F494949417F090909013E4141517337
:1001D0007F0808087F00417F41002040413F017FA8
:1001E000081422417F404040407F021C027F7F0470
:1001F00008107F3E4141413E7F090909063E4151B9
:10020000215E7F09192946264949493203017F01A8
:10021000033F4040403F1F2040201F3F4038403FA9
:10022000631408146303047804036159494D4300BF
:100230007F4141410204081020004141417F0402F6
:10024000010204404040404000030708002054548D
:1002500078407F284444383844444428384444286B
:100260007F385454541800087E090218A4A49C78BE
:100270007F0804047800447D40002040403D007F1A
:100280001028440000417F40007C047804787C08FA
:100290000404783844444438FC18242418182424CE
:1002A00018FC7C08040408485454542404043F44B3
:1002B000243C4040207C1C2040201C3C4030403CE2
:1002C00044281028444C9090907C4464544C440042
:1002D00008364100000077000000413608000201A6
:1002E0000204023C2623263C1EA1A161123A404092
:1002F000207A385454555921555579412154547810
:1003000041215554784020545579400C1E527212A8
:100310003955555559395454545939555454580030
:1003200000457C410002457D420001457C40F029AA
:100330002429F0F0282528F07C54554500205454F9
:100340007C547C0A097F493249494932324848483D
:1003500032324A4848303A4141217A3A4240207884
:10036000009DA0A07D39444444393D4040403D3C7F
:1003700024FF2424487E4943662B2FFC2F2BFF09A2
:1003800029F620C0887E0903205454794100004496
:100390007D413048484A32384040227A007A0A0A81
:1003A000727D0D19317D2629292F282629292926F4
:1003B00030484D4020380808080808080808382F39
:1003C00010C8ACBA2F102834FA00007B00000814C3
:1003D0002A142222142A1408AA005500AAAA55AAEF
:1003E00055AA000000FF00101010FF00141414FFA5
:1003F000001010FF00FF1010F010F0141414FC0097
:100400001414F700FF0000FF00FF1414F404FC14A0
:100410001417101F10101F101F1414141F00101099
:1004200010F0000000001F101010101F101010100E
:10043000F010000000FF101010101010101010FF2E
:1004400010000000FF140000FF00FF00001F101745
:100450000000FC04F414141710171414F404F4002E
:1004600000FF00F714141414141414F700F71414F4
:1004700014171410101F101F141414F4141010F07B
:1004800010F000001F101F0000001F14000000FCEF
:10049000140000F010F01010FF10FF141414FF14DB
:1004A0001010101F00000000F010FFFFFFFFFFF012
:1004B000F0F0F0F0FFFFFF0000000000FFFF0F0F63
:1004C0000F0F0F38444438447C2A2A3E147E02021F
:1004D0000606027E027E0263554941633844443C6D
:1004E00004407E201E2006027E020299A5E7A599FF
:1004F0001C2A492A1C4C7201724C304A4D4D303036
:1005000048784830BC625A463D3E494949007E0120
:1005100001017E2A2A2A2A2A44445F444440514A3F
:10052000444040444A51400000FF0103E080FF0086
:100530000008086B6B083612362436060F090F06C2
:10054000000018180000001010003040FF010100EA
:100550001F01011E00191D1712003C3C3C3C00000D
:1005600000000013018032118064260104B1020BE7
:1005700014C0020800C10105C5024130C701C1EC29
:10058000011B3A8155642A040000007F2B040000FF
:10059000009F3601C8B70100F20100E08F28242235
:1005A000312B0E53A5421618121A140332E18F177D
:1005B0001B1D0E14112CA53D09272D252B3C321394
:1005C000800A2980FF0000000800020100000304E7
:1005D0000700000000000000000102040810204095
:1005E0008001020408102001020408102004040401
:1005F00004040404040202020202020303030303CC
:100600000300000000230026002900000000002550
:100610000028002B0000000000240027002A000012
:100620002F04881711241FBECFEFD8E0DEBFCDBF47
:1006300012E0A0E0B1E0E6ECFEE302C005900D920E
:10064000AE35B107D9F725E0AEE5B2E001C01D92A5
:10065000A63CB207E1F716E0C4E2D6E004C0229758
:10066000FE010E94C31CC032D107C9F70E947F1B44
:100670000C94611F0C94000020E840E860E889ECCD
:1006800094E00E94800B61E089EC94E00E94640B8E
:1006900020E030E040E050E06FE171E089EC94E070
:1006A0000E94940B20E130E040E050E06EE271E007
:1006B00089EC94E00E94940B20E230E040E050E0AE
:1006C00067E371E089EC94E00E94940B20E330E052
:1006D00040E050E063E471E089EC94E00E94940B08
:1006E00020E330E047E650E061E571E089EC94E01A
:1006F0000E94940B28E330E040E050E066E571E0B2
:1007000089EC94E00E94940B28E330E047E650E047
:1007100061E571E089EC94E00E94940B20E440E4F0
:1007200060E489EC94E00E94800B2AE430E040E031
:1007300050E061E671E089EC94E00E94940B24E5BE
:1007400030E040E050E068E771E089EC94E00E941E
:10075000940B2EE530E040E050E06FE871E089EC6A
:1007600094E00E94940B28E630E040E050E066EA16
:1007700071E089EC94E00E94940B22E730E040E0C5
:1007800050E06DEB71E089EC94E00E94940B28E757
:1007900030E040E050E064ED71E089EC94E00E94CC
:1007A000940B20E840E860E889EC94E00E94800B1C
:1007B00062E089EC94E00E94640B20E130E047E6BF
:1007C00050E066ED71E089EC94E00E94940B20E229
:1007D00030E047E650E06AED71E089EC94E00C947B
:1007E000940BEF92FF920F931F93E0901401F090FF
:1007F00015010091160110911701209118013091F7
:10080000190140910E0150910F01609110017091FA
:10081000110180911201909113010E94211426E090
:1008200040E855E260E070E085E295E00E94C41681
:1008300089EC94E00E94780820E040E060E089ECD8
:1008400094E00E94710B0E943C0360ED77E080E031
:1008500090E01F910F91FF90EF900C94BE1429E04F
:1008600048E06AE089EC94E00C946408AF92BF928F
:10087000CF92DF92EF92FF920F931F93CF93DF936C
:10088000CDB7DEB7EC970FB6F894DEBF0FBECDBF85
:1008900064E08CEB94E00E943611892BE1F46091C6
:1008A000C0047091C1048091C2049091C3040E945D
:1008B0008F1B7093B9046093B8046091BC0470916D
:1008C000BD048091BE049091BF040E948F1B709361
:1008D000BB046093BA046091BA047091BB044AE00F
:1008E000CE01C7960E945B1A6091B8047091B9045A
:1008F0004AE0CE01C1960E945B1A20E030E043E05E
:1009000050E06EEA74E0CE01C7960E94521B20E0D0
:1009100030E043E050E061EB74E0CE01C1960E940C
:10092000521B85E295E00E94E115181619060CF09D
:1009300082C04AE065E275E0CE0107960E94301958
:100940006EED71E0CE0101960E940D1ABE016F5F3F
:100950007F4FCE0107960E94431B182FCE010196B0
:100960000E949F19112309F461C041E060E070E02A
:1009700085E295E00E94C0187093190160931801F8
:1009800041E060E070E085E295E00E94C01870935D
:1009900017016093160141E060E070E085E295E0A8
:1009A0000E94C018709315016093140141E060E04B
:1009B00070E085E295E00E94C01870931301609387
:1009C000120141E060E070E085E295E00E94C0180D
:1009D000709311016093100141E060E070E085E2E6
:1009E00095E00E94C01870930F0160930E01209152
:1009F0001801309119014091760450917704241721
:100A00003507A1F0E0901401F09015010091160156
:100A100010911701E0911001F0911101AB01BF019C
:100A200080911201909113010E942114CE0107962A
:100A30000E949F1976CF0E941D144AE0BC01CE018E
:100A40008B960E945B1A0E9415148C01BE01655D95
:100A50007F4FCE0101960E943A1A64E571E0CE0103
:100A600001960E94F71AB8010E94111BBC01CE0129
:100A700085960E943A1ACE0101960E949F190E9403
:100A80000D148C01BE016B5D7F4FCE0101960E945B
:100A90003A1A64E571E0CE0101960E94F71AB80196
:100AA0000E94111BBC01CE014F960E943A1ACE0142
:100AB00001960E949F190E94F5134AE0BC01CE01E5
:100AC00049960E945B1A0E94FD138C01BE01675E6D
:100AD0007F4FCE0101960E943A1A62EE71E0CE017C
:100AE00001960E94F71AB8010E94111BBC01CE01A9
:100AF00043960E943A1ACE0101960E949F190E94C5
:100B000005148C01BE016D5E7F4FCE0101960E94DF
:100B10003A1A62EE71E0CE0101960E94F71AB8010E
:100B20000E94111BBC01CE010D960E943A1ACE0103
:100B300001960E949F1920E030E04BE050E063EA0C
:100B400074E0CE014F960E94521B20E030E049E055
:100B500050E06AE974E0CE010D960E94521B61E0FC
:100B600089EC94E00E94640B2091180130911901E6
:100B700080917604909177042817390781F120E05D
:100B800040E060E089EC94E00E94800B28E030E0D7
:100B900040E050E063E874E089EC94E00E94940B3C
:100BA00020E04FEF6FEF89EC94E00E94800B28E08B
:100BB00030E040E050E063EA74E089EC94E00E94A9
:100BC000940B809118019091190190937704809370
:100BD000760463EA74E083E894E00E94C61E0E94F3
:100BE000051420917804309179048217930771F1EC
:100BF00020E040E060E089EC94E00E94800B28E077
:100C000030E042E450E06AE774E089EC94E00E944E
:100C1000940B20E04FEF6FEF89EC94E00E94800B83
:100C200028E030E042E450E06AE974E089EC94E0C6
:100C30000E94940B0E940514909379048093780489
:100C40006AE974E08AE794E00E94C61E62E089ECDB
:100C500094E00E94640B2091BA043091BB0480910F
:100C6000B6049091B7042817390781F120E040E0DD
:100C700060E089EC94E00E94800B20E130E04CE4DD
:100C800050E064E974E089EC94E00E94940B20E069
:100C90004FEF60E089EC94E00E94800B20E130E0AF
:100CA0004CE450E06EEA74E089EC94E00E94940B0E
:100CB0008091BA049091BB049093B7048093B604DA
:100CC0006EEA74E084E994E00E94C61E2091B804A4
:100CD0003091B9048091B4049091B5042817390774
:100CE000B1F120E040E060E089EC94E00E94800BEC
:100CF00020E230E04CE450E06EE874E089EC94E0EF
:100D00000E94940B20E040E06FEF89EC94E00E9499
:100D1000800B20E230E04CE450E061EB74E089ECC1
:100D200094E00E94940B61EB74E085E295E00E94F0
:100D30000F188091B8049091B9049093B5048093F2
:100D4000B40461EB74E08EE894E00E94C61E61E09A
:100D500089EC94E00E94640B80910A010E942C159A
:100D60009093730280937202BC01882777FD80956F
:100D7000982F1F921F921F922FE12F93A12CB12C1D
:100D80006501A394EE24EA9413E0F12E00E010E054
:100D900020E030E0A9010E9458197093710260931D
:100DA00070024AE0CE0107960E945B1A20E030E014
:100DB00043E050E06BE672E0CE0107960E94521BC2
:100DC00060917002709171027695762F6627779503
:100DD00067954AE0CE0101960E945B1A20E030E060
:100DE00045E050E063E672E0CE0101960E94521B9E
:100DF0000F900F900F900F90209170023091710220
:100E000080916E0290916F022817390709F44AC049
:100E100020E040E060E089EC94E00E94800B20E359
:100E200030E048E550E068E672E089EC94E00E942A
:100E3000940B28E330E04CE450E06EE572E089EC7E
:100E400094E00E94940B2FEF40E060E089EC94E086
:100E50000E94800B20E330E048E550E06BE672E052
:100E600089EC94E00E94940B28E330E04CE450E0DD
:100E700063E672E089EC94E00E94940B809170022A
:100E80009091710290936F0280936E026BE672E014
:100E900088E692E00E94C61E63E672E08EE592E06C
:100EA0000E94C61E0E94FD1320910C0130910D017D
:100EB0008217930759F00E94FD13609170027091A0
:100EC00071020E94361C892B09F43FC06CE271E06C
:100ED00080E090E00E94BE14CE0101960E949F190E
:100EE000CE0107960E949F19CE010D960E949F1970
:100EF000CE0143960E949F19CE0149960E949F19E8
:100F0000CE014F960E949F19CE0185960E949F198F
:100F1000CE018B960E949F19CE01C1960E949F1907
:100F2000CE01C7960E949F19EC960FB6F894DEBFCB
:100F30000FBECDBFDF91CF911F910F91FF90EF902A
:100F4000DF90CF90BF90AF90089520E040E060E048
:100F500089EC94E00E94800B8FE790E090937502FB
:100F6000809374020FE710E0609174027091750233
:100F700077FD2AC0FB01EE0FFF1FEA58FD4F80816D
:100F80009181A801481B590B89EC94E00E94A70BA2
:100F90006091740270917502FB01EE0FFF1FEA5819
:100FA000FC4F80819181A801481B590B89EC94E08A
:100FB0000E94A70B80917402909175020197909303
:100FC000750280937402D0CF80E090E020E030E0A2
:100FD0000196F901EA58FD4F4281538151834083C4
:100FE000F901EA58FC4F42815381518340832E5FBF
:100FF0003F4F8F37910564F390937502809374028D
:10100000880F991FFC01EA58FD4F2091BA043091D6
:10101000BB0431832083FC01EA58FC4F2091B804C3
:101020003091B904318320830E94FD1390930D0108
:1010300080930C018FE790E0909375028093740287
:101040000FE710E0809174029091750297FD3ECFFA
:1010500020E04FEF60E089EC94E00E94800B60910B
:10106000740270917502FB01EE0FFF1FEA58FD4FED
:1010700080819181A801481B590B89EC94E00E9462
:10108000A70B20E040E06FEF89EC94E00E94800B1A
:101090006091740270917502FB01EE0FFF1FEA5818
:1010A000FC4F80819181A801481B590B89EC94E089
:1010B0000E94A70B80917402909175020197909302
:1010C000750280937402BECFCF93DF93EC010E9430
:1010D000150C88EE91E09983888380EA90E09987E7
:1010E000888780E890E09B878A87DF91CF91089579
:1010F000CF93DF93EC010E94130E61E0CE01DF91EC
:10110000CF910C9427102F923F924F925F926F9243
:101110007F928F929F92AF92BF92CF92DF92EF9287
:10112000FF920F931F93CF93DF9300D000D0CDB7E2
:10113000DEB74C017C836B836A015901C8018701CA
:10114000AC014C195D0957FF03C0519541955109F8
:1011500095016B817C81261B370B37FF03C03195CE
:101160002195310922242394312C2417350714F0BA
:10117000212C312C2114310459F03A2D2B2D5C01F6
:10118000832F922F3B812C81DC82CB82C32ED22EE7
:10119000AB81BC81AA16BB065CF43C2D2D2D6C01E5
:1011A000832F922F3B812C81BC82AB82A32EB22E47
:1011B0002501EB81FC814E1A5F0A3C016C187D0809
:1011C00077FE03C0719461947108720157FE03C0E9
:1011D000FFEFEF1AFF0AF594E794C816D9062CF42E
:1011E00021E030E03A83298324C06FEF7FEF7A83D8
:1011F00069831FC0D401ED91FC910480F581E02D3D
:10120000980121143104D9F04B815C81B601C401ED
:101210000995E618F708F7FE06C0E981FA81CE0EB7
:10122000DF1EE40CF51C2B813C812F5F3F4F3C837C
:101230002B836B817C81A616B706E4F604C0A60159
:101240006B817C81E4CF0F900F900F900F90DF9116
:10125000CF911F910F91FF90EF90DF90CF90BF90B3
:10126000AF909F908F907F906F905F904F903F9046
:101270002F9008956F927F928F929F92AF92BF921C
:10128000CF92DF92EF92FF920F931F93CF93DF9352
:10129000EC015B016A0139014801E881F9810284AE
:1012A000F385E02D87010995E881F981A601480DB4
:1012B000591D415051090284F385E02D9301B50178
:1012C000CE010995E881F9810084F185E02D940132
:1012D000A601B501CE010995E881F981B501660D38
:1012E000771D615071090084F185E02D9401A601FC
:1012F000CE010995DF91CF911F910F91FF90EF9053
:10130000DF90CF90BF90AF909F908F907F906F9025
:101310000895EF92FF920F931F93DC01ED91FC91E2
:10132000240F351F215031090680F781E02D780107
:1013300089019B0109951F910F91FF90EF900895EE
:10134000EF92FF920F931F93DC01ED91FC91260F1A
:10135000371F215031090680F781E02D78018A017D
:1013600009951F910F91FF90EF9008956F927F92D2
:101370008F929F92AF92BF92CF92DF92EF92FF92A5
:101380000F931F93CF93DF935C014A0169013801EA
:10139000EB01C60ED71ECC15DD0574F4D501ED9119
:1013A000FC910084F185E02D87019301A401BE0129
:1013B000C50109952196EFCFDF91CF911F910F9134
:1013C000FF90EF90DF90CF90BF90AF909F908F9065
:1013D0007F906F900895EF92FF920F931F93DC011F
:1013E000ED91FC9111971A960D911C911B971896EF
:1013F0002D913C9119970684F785E02D7B0140E003
:1014000050E060E070E009951F910F91FF90EF9020
:10141000089508954C7F38E0439FC001112430E0C7
:1014200073E0359527957A95E1F7822B932B687FAA
:10143000962B0895FC011382128282E092E0918340
:10144000808375836483578346837187608753875E
:101450004287158A158614861786168621E0248B06
:101460008FEF9FEF938B828B918B808B268B0895D0
:101470002F923F924F925F926F927F928F929F92A4
:10148000AF92BF92CF92DF92EF92FF920F931F9392
:10149000CF93DF93CDB7DEB72C970FB6F894DEBFAE
:1014A0000FBECDBF9C878B873A0118870F83FA86C2
:1014B000E986CD82DC0118968D919C911997681769
:1014C00079070CF094C01A968D919C911B97481740
:1014D00059070CF08CC08C2C912CCB01B6E0CB9E24
:1014E000800D911D1124181619060CF080C0C4013E
:1014F00013E0880F991F1A95E1F7840F951F1816AE
:1015000019060CF074C0F5E02F9F200111245B0137
:101510006B011C82920128593F4F2901461A570A34
:101520003C81353031F0F201EA0DFB1D44914B83D3
:1015300001C01B827A82698213011E828B8180FF27
:1015400013C0AB85BC85ED91FC91BD81B13031F408
:101550000480F581E02D2F81388519C00684F78538
:10156000E02DEF80F8841EC0E985FA852F8138854B
:10157000E217F307F9F0AB85BC85ED91FC91BD81D5
:10158000B13059F40480F581E02D29853A85A10117
:10159000B5018B859C8509950DC00684F785E02DE6
:1015A000E984FA848401940149815A81B6018B85CA
:1015B0009C850995EB81E695EB83FE81FF5FFE83B9
:1015C00029813A81280D391D3A8329833FEF231A57
:1015D000330AF83009F0B2CF4C814F5F4C83C80C0E
:1015E000D91C8FEFA81AB80A463009F099CF2C966B
:1015F0000FB6F894DEBF0FBECDBFDF91CF911F9124
:101600000F91FF90EF90DF90CF90BF90AF909F90A1
:101610008F907F906F905F904F903F902F900895A4
:10162000CF92EF92FF920F931F93CF93DF93EC0132
:10163000262F6A3049F42C898E859F8538E0239FB8
:10164000800D911D112432C06D30A1F1EA88FB8814
:10165000088919894E855F856C857D85CC880E94B7
:10166000380A2C89422F50E08C859D8536E0239FD7
:10167000800D911D11249D878C872E892223D1F006
:101680006AEF64039001659F300D112468857985A8
:10169000260F371F281739076CF403E0440F551F36
:1016A0000A95E1F78E859F85840F951F9F878E870A
:1016B0001D861C8681E090E0DF91CF911F910F91F4
:1016C000FF90EF90CF900895611101C061E0FC019F
:1016D000648B0895DC01ED91FC910088F189E02D87
:1016E0000994CF93DF93EC01E881F9810488F589AF
:1016F000E02D0995BC01CE01DF91CF910C946A0BCE
:10170000CF93DF93EC01E881F9810488F589E02D1E
:10171000099521E0298F988F8F8B998B888B9B8BD4
:101720008A8BDF91CF910895FC01818D882371F020
:10173000168A8789908D918B808B938B828B5587AE
:10174000448737872687CF010C9409180895DC0158
:1017500059962C915997222359F0ED91FC911197AC
:1017600057962D913C9158970480F581E02D09946E
:101770000895EF92FF920F931F93DC01ED91FC917E
:1017800011971A960D911C911B9718962D913C91CB
:1017900019970684F785E02D7B0140E050E060E07A
:1017A00070E009951F910F91FF90EF90089520919F
:1017B000FF04222399F03FB7F8942091FF042130D1
:1017C00059F42DB32093FD044DB32091FE042095D0
:1017D00024232DBB3FBF02C03093FD048CBD9DBDB3
:1017E00008958091FF04882361F09FB7F8942091B9
:1017F000FF048091FD04213019F48DBB9FBF089533
:101800008FBF08959C01207E3770AC01542F442770
:10181000550F550F550F242B352B892F992786955A
:1018200086958695822B932B0895EF92FF920F93C6
:101830001F93CF93DF931F92CDB7DEB77C01062FA6
:10184000142F40EA50E060E870E029830E941A0AF1
:101850008CE192E0F7019183808380E5878F10A26D
:1018600001A712A7298123A781E0868F15A614A6B8
:101870000F90DF91CF911F910F91FF90EF900895FE
:10188000FC01868D882339F06EBD00000DB407FE83
:10189000FDCF8EB5089588E090E030E8A1A1B2A117
:1018A00026A5432F462321F04C91422B4C9304C094
:1018B0004C91209524232C93A3A1B4A12C9147A54E
:1018C000242B2C93A3A1B4A14C9127A520952423CC
:1018D0002C933695019711F708950F931F93CF938B
:1018E000DF931F92CDB7DEB78C01DC015E968C9141
:1018F0005E97882341F05F968D919C9190976983C4
:101900000E94D70B6981D8019796ED91FC91989729
:101910009081D1968C91D1978095892380839596DB
:10192000ED91FC9196979081D0968C91809589232A
:101930008083C8010E94400CD8019596ED91FC91DE
:1019400096978081D0969C91D097892B80835E96C4
:101950008C91882339F00F90DF91CF911F910F91D7
:101960000C94F10B0F90DF91CF911F910F9108957F
:10197000662311F061E201C060E20C946D0C0F93DC
:101980001F93CF93DF931F92CDB7DEB78C01DC019D
:101990005E968C915E97882341F05F968D919C9125
:1019A000909769830E94D70B6981D8019796ED9132
:1019B000FC9198978081D1969C91D197892B8083B7
:1019C0009596ED91FC9196979081D0968C9180950B
:1019D00089238083C8010E94400CD8019596ED911F
:1019E000FC9196978081D0969C91D097892B80838B
:1019F0005E968C91882339F00F90DF91CF911F91E3
:101A00000F910C94F10B0F90DF91CF911F910F91DB
:101A10000895AF92BF92CF92DF92EF92FF920F9311
:101A20001F93CF93DF937C01EB012196FB01B490D0
:101A3000BB2009F435C0FE016491C7010E946D0C02
:101A40006E01F2E0CF0ED11CFE013196C4918C2FB5
:101A50008078A82ECF778601DC2FDC0DD01741F0DF
:101A6000F8016491C7010E94BF0C0F5F1F4FF6CFB2
:101A7000C6018C0F911DEC01AA2081F08C010F5F33
:101A80001F4FFC01649170E06F3F710511F464EF2A
:101A900071E080E090E00E94BE14E801BA94C8CFE3
:101AA000DF91CF911F910F91FF90EF90DF90CF903A
:101AB000BF90AF9008950F931F93CF93DF93EC01E6
:101AC0008B011BAA1AAA61E08AA50E94721561E027
:101AD00089A50E94721589A590E0FC01E351FA4F97
:101AE000E491F0E0EE0FFF1FE55FF94F259134918F
:101AF0003EA32DA3FC01E752FA4F849188AB8AA53F
:101B000090E0FC01E351FA4FE491F0E0EE0FFF1F8B
:101B1000E55FF94F2591349138A72FA3FC01E752D7
:101B2000FA4F849189AB8E8D882331F00E94571033
:101B300080E58F8F18A23CC061E08DA50E947215D0
:101B400061E08CA50E9472158DA590E0FC01E35127
:101B5000FA4FE491F0E0EE0FFF1FE55FF94FA5911A
:101B6000B491BCA3ABA3FC01E752FA4F84918FA7B9
:101B70008CA590E0FC01E351FA4FE491F0E0EE0F08
:101B8000FF1FE55FF94F259134913AA329A3FC018A
:101B9000E752FA4F84918EA78C919FA59095892347
:101BA0008C93E9A1FAA190818EA5809589238083E9
:101BB000EDA1FEA1908188A98095892380838BA5C2
:101BC000882309F161E00E94721561E08BA50E94F3
:101BD000AB1564EF71E080E090E00E94BE1460E01D
:101BE0008BA50E94AB1564EF71E080E090E00E944D
:101BF000BE1461E08BA50E94AB1564EF71E080E03C
:101C000090E00E94BE140115110541F0B801CE010B
:101C1000DF91CF911F910F910C94090DDF91CF911E
:101C20001F910F91089563E675E00C945B0DEF92A0
:101C3000FF920F931F93CF93DF9300D0CDB7DEB702
:101C40007C01162F6AE229834A830E946D0C60E0B2
:101C5000C7010E94BF0CF70162A9610FC7010E9472
:101C6000BF0C60E0C7010E94BF0CF70162A9298187
:101C7000620FC7010E94BF0C6BE2C7010E946D0C8E
:101C800060E0C7010E94BF0CF70163A94A81640F9D
:101C9000C7010E94BF0C60E0C7010E94BF0CF701A2
:101CA00063A9600FC7010E94BF0C6CE2C7010F90CF
:101CB0000F90DF91CF911F910F91FF90EF900C94B7
:101CC0006D0CFF920F931F93CF93DF93EC01122FB4
:101CD000F32E77FD48C0A885B9856A177B070CF0FD
:101CE00042C057FD40C0AA85BB854A175B07DCF59B
:101CF00001E0040F21E0260F0E94170E8E8D88232D
:101D000021F08F8D98A10E94D70BEFA1F8A58081BB
:101D100099A9892B8083EDA1FEA1808148A94095D6
:101D2000482340838D8D823031F4812F9F2D0E9476
:101D3000020C182FF92E6F2DCE010E94400C612F3E
:101D4000CE010E94400CEDA1FEA1808198A9892BB3
:101D500080838E8D882339F0DF91CF911F910F9171
:101D6000FF900C94F10BDF91CF911F910F91FF9099
:101D70000895DF92EF92FF920F931F93CF93DF931B
:101D8000EC017901D02E88859985681779070CF0C8
:101D900054C02A853B85421753070CF04EC0CA0138
:101DA0008E0D9F1D281739071CF47901E41AF50AD6
:101DB0000FEF040F0E0D262FCE010E94170E8D8DF2
:101DC000823031F48D2D912F0E94020CD82E192FC4
:101DD0008E8D882321F08F8D98A10E94D70BEFA1C3
:101DE000F8A5808199A9892B8083EDA1FEA190811E
:101DF00088A9809589238083E114F10461F0612F23
:101E0000CE010E94400C6D2DCE010E94400C81E05D
:101E1000E81AF108F1CFEDA1FEA1808198A9892BE4
:101E200080838E8D882349F0DF91CF911F910F9190
:101E3000FF90EF90DF900C94F10BDF91CF911F9109
:101E40000F91FF90EF90DF900895DF92EF92FF9255
:101E50000F931F93CF93DF93EC017901D02E288548
:101E60003985621773070CF054C08A859B85481723
:101E700059070CF04EC0CB018E0D9F1D2817390756
:101E80001CF47901E61AF70A2FEF260F2E0D042F06
:101E9000CE010E94170E8D8D823031F48D2D912F41
:101EA0000E94020CD82E192F8E8D882321F08F8D41
:101EB00098A10E94D70BEFA1F8A5808199A9892B41
:101EC0008083EDA1FEA1908188A9809589238083DC
:101ED000E114F10461F0612FCE010E94400C6D2DE0
:101EE000CE010E94400C81E0E81AF108F1CFEDA18B
:101EF000FEA1808198A9892B80838E8D882349F04B
:101F0000DF91CF911F910F91FF90EF90DF900C9494
:101F1000F10BDF91CF911F910F91FF90EF90DF9028
:101F200008956F927F928F929F92AF92BF92CF92BD
:101F3000DF92EF92FF920F931F93CF93DF93EC0109
:101F40006B015A01490138012885398562177307E9
:101F50000CF06EC08A859B85481759070CF068C045
:101F6000AB01480D591D241735071CF44901861A89
:101F7000970A9501260D371D821793071CF43C0123
:101F80006A187B088D8D823021F4C7010E94020CF3
:101F90007C010FEF0A0D060D2FEF2C0D280D4A2D99
:101FA0006C2DCE010E94170E8E8D882321F08F8D0F
:101FB00098A10E94D70BEFA1F8A5808199A9892B40
:101FC0008083EDA1FEA1908188A9809589238083DB
:101FD00016141704A4F464011C141D0464F46F2D7A
:101FE000CE010E94400C6E2DCE010E94400C81E07B
:101FF000C81AD108F1CF81E0681A7108E9CFEDA1C4
:10200000FEA1808198A9892B80838E8D882381F001
:10201000DF91CF911F910F91FF90EF90DF90CF90C4
:10202000BF90AF909F908F907F906F900C94F10B2A
:10203000DF91CF911F910F91FF90EF90DF90CF90A4
:10204000BF90AF909F908F907F906F9008951F9357
:10205000CF93DF93EC01162F66E30E946D0C612F86
:1020600063706D8B623041F0633089F0613011F044
:1020700068EC03C068EA0CC068E0CE010E94BF0CA7
:1020800080E890E09987888780EA90E00AC068E657
:10209000CE010E94BF0C80EA90E09987888780E893
:1020A00090E09B878A87DF91CF911F910895CF930E
:1020B000CFB7F89480910005811127C0E7EFF5E0D4
:1020C0008491E3EEF5E09491E82FF0E0EE0FFF1F2E
:1020D000EB5EF94FA591B4918C91892321F461E0D5
:1020E0008AE00E94AB1561E08AE00E9472158CB50F
:1020F00080618CBD8CB580648CBD61E08DE00E94F8
:10210000721561E08BE00E947215809100058F5F6F
:1021100080930005CFBFCF9108954F925F927F9239
:102120008F929F92AF92BF92CF92DF92EF92FF92E7
:102130000F931F93CF93DF931F92CDB7DEB72C0180
:10214000B62E862F90E0FC01E752FA4FA490FC01D6
:10215000E351FA4FE491F0E0EE0FFF1FEF5FF94F0C
:1021600005911491F2011086118612861386148649
:1021700061E08B2D49830E94721560E08B2D0E94D7
:10218000AB154981642F70E080E090E00E94BE149E
:1021900061E08B2D0E94AB1588E290E00E94E6146E
:1021A00060E08B2D0E94721580E991E0F80120819A
:1021B0002A2129F40197D1F78EEF9FEF46C080E9DD
:1021C00091E0F80120812A2119F00197D1F7F4CF8D
:1021D00098E2892E712C20E8922E80E991E0F80196
:1021E00020812A2119F40197D1F7E6CF0E949B1490
:1021F0006B017C0180E991E0F80120812A2119F02E
:102200000197D1F7D9CF0E949B146C197D098E09D3
:102210009F09693271058105910530F0F201E70DE2
:10222000F11D808589298087969419F4739480E83C
:10223000982E8A9491F661E08B2D0E94721561E0D0
:102240008B2D0E94AB1580E090E00F90DF91CF9135
:102250001F910F91FF90EF90DF90CF90BF90AF90C4
:102260009F908F907F905F904F9008950F931F9352
:10227000CF93DF93EC0142E10E948D10009769F04B
:1022800040E050EC69E774EC488359836A837B83B0
:102290004C835D836E837F8321C01885612F70E03E
:1022A00080E090E00E94C01B688379838A839B83CF
:1022B0000A85602F70E080E090E00E94C01B6C8374
:1022C0007D838E839F83100F81E090E02C85211306
:1022D00002C080E090E0919581959109DF91CF91C6
:1022E0001F910F9108956F927F928F929F92AF925C
:1022F000BF92CF92DF92EF92FF920F931F93CF93F3
:10230000DF93EA012CE3C22ED12CE12CF12CA701A2
:1023100096010E944A1C6883CA01B901A70196016F
:102320000E944A1C6983CA01B90128E130E040E0FB
:1023300050E00E944A1C49015A016A83CA01B9014E
:102340006C5F7F4F8F4F9F4F27E030E040E050E0C1
:102350000E944A1C6F5F6B8300E010E0980140E030
:1023600054E6652E712C60E9C62EDD24D394E42F4B
:10237000F0E0EE54F84F7F0183E0E822FF24E114FF
:10238000F10489F4CF01B3010E94361C892B29F096
:102390008EE691E0A0E0B0E00AC0CF01B6010E9455
:1023A000361C892BA9F38DE691E0A0E0B0E0080F80
:1023B000191F2A1F3B1FD901C801AA27BB2788164E
:1023C0009906AA06BB0610F04F5FD1CF4E83E114E9
:1023D000F10499F4CF0164E670E00E94361C892B69
:1023E00029F08EE691E0A0E0B0E00BC0CF0160E9FB
:1023F00071E00E94361C892BA1F38DE691E0A0E0EC
:10240000B0E0081B190B2A0B3B0B801A910AA20A99
:10241000B30ACF0164E670E00E94361C9C01CF0134
:1024200060E971E00E94361CE2E3F2E0A0E0A13036
:1024300059F4E114F10451F42115310511F04DE185
:1024400006C00097E1F302C0408101C04CE150E0BA
:1024500060E070E084169506A606B70640F0841A80
:10246000950AA60AB70AAF5F3196AC3001F7AF5FA5
:10247000AD8383948C82DF91CF911F910F91FF9058
:10248000EF90DF90CF90BF90AF909F908F907F9014
:102490006F900895CF92DF92EF92FF926B017C01D3
:1024A0008091110590911205A0911305B09114052A
:1024B000C816D906EA06FB0671F045E155E0C701EA
:1024C000B6010E947311C0921105D0921205E092DC
:1024D0001305F0921405FF90EF90DF90CF900895D0
:1024E0000E944A1280911B0590E08E54984F0895E7
:1024F0006F927F928F929F92AF92BF92CF92DF9214
:10250000EF92FF920F931F93CF93DF93FC01C6804E
:10251000AC2DB0E020E833E341EE51E00E949A1C7C
:102520004B015C0122EB37E06D01C4E6D0E000E92D
:1025300011E0C901825B97408C159D05DCF4C9014F
:1025400083709927892B99F4C901BE010E94361C1A
:10255000892B31F4C901B8010E94361C892B39F44A
:1025600080E8880E81E5981E81E0A81EB11C2F5FCF
:102570003F4FDFCF6580712C8EE4C81A88EFD80AF0
:10258000C60164E670E00E94361C8C01C60160E959
:1025900071E00E94361C7C01C1E0D0E083E0C822DB
:1025A000DD24C615D7052CF5C230D10589F4C11438
:1025B000D10471F40115110519F4E114F10441F489
:1025C00080E8880E8BE3981E86E2A81EB11C0FC01F
:1025D000DE01AF5CBD4FAC91B0E020E831E541E0F9
:1025E00050E00E949A1C860E971EA81EB91E2196C6
:1025F000D8CF4181228130E0A0E1BEE00E948B1C57
:102600006B017C01242F30E0ACE3B0E00E948B1C16
:10261000C60ED71EE81EF91E8081C80ED11CE11C13
:10262000F11CA481B0E0119720E831E541E050E0D1
:102630000E94A51CC60ED71EE81EF91EC80CD91C88
:10264000EA1CFB1CC701B601DF91CF911F910F91CE
:10265000FF90EF90DF90CF90BF90AF909F908F90C2
:102660007F906F9008950F931F9360930D05709363
:102670000E0580930F059093100500911A0110919B
:102680001B0120911C0130911D01060F171F281FEF
:10269000391F009305051093060520930705309315
:1026A000080582E090E090930405809303050E9462
:1026B0008F146093090570930A0580930B0590931E
:1026C0000C051F910F910895CF92DF92EF92FF9228
:1026D0000F931F930E948F14C0900905D0900A0594
:1026E000E0900B05F0900C056C197D098E099F098F
:1026F00000910D0510910E0520910F0530911005E8
:10270000683E734081059105D8F00F5F1F4F2F4F32
:102710003F4F00930D0510930E0520930F05309346
:10272000100548EEC40E43E0D41EE11CF11CC0921B
:102730000905D0920A05E0920B05F0920C05CACF6C
:102740008091050590910605A0910705B0910805B7
:10275000081719072A073B07C8F1E0910105F09116
:102760000205309799F1099561157105810591056B
:1027700019F00E9433132AC080911A0190911B0115
:10278000A0911C01B0911D0140910D0550910E05C5
:1027900060910F0570911005840F951FA61FB71F3C
:1027A0008093050590930605A0930705B09308054F
:1027B00081E090E02091030530910405232B11F472
:1027C00080E090E0909304058093030560910D05EF
:1027D00070910E0580910F05909110051F910F913A
:1027E000FF90EF90DF90CF9008950E9464130E94B5
:1027F0004A128091170590E008950E9464130E9488
:102800004A128091160590E008950E9464130E9478
:102810004A128091150590E008950E9464130E9469
:102820004A128091190590E008950E9464130E9455
:102830004A1280911A0590E008950E9464130C9446
:102840007012EF92FF920F9394E6E916F1042CF0C8
:1028500092EBE91A97E0F90A03C09EE1E90EF11C38
:10286000E0921B0500931A05209319058093170524
:10287000609316054093150585E195E00E94781256
:102880000F91FF90EF900C9433131F920F920FB69D
:102890000F9211242F933F938F939F93AF93BF93E6
:1028A00080911D0590911E05A0911F05B0912005F6
:1028B00030911C0523E0230F2D3720F40196A11D34
:1028C000B11D05C026E8230F0296A11DB11D20935E
:1028D0001C0580931D0590931E05A0931F05B093C2
:1028E00020058091210590912205A0912305B091AA
:1028F00024050196A11DB11D809321059093220509
:10290000A0932305B0932405BF91AF919F918F9120
:102910003F912F910F900FBE0F901F9018952FB7DA
:10292000F89460911D0570911E0580911F0590918E
:1029300020052FBF08953FB7F8948091210590910D
:102940002205A0912305B091240526B5A89B05C0BA
:102950002F3F19F00196A11DB11D3FBF6627782FAB
:10296000892F9A2F620F711D811D911D42E0660F04
:10297000771F881F991F4A95D1F70895CF92DF924C
:10298000EF92FF92CF93DF936B017C010E949B1427
:10299000EB01C114D104E104F10489F00E948E1B03
:1029A0000E949B146C1B7D0B683E734090F381E08A
:1029B000C81AD108E108F108C851DC4FEACFDF910D
:1029C000CF91FF90EF90DF90CF90089582309105E6
:1029D00038F0880F991F880F991F05970197F1F715
:1029E0000895789484B5826084BD84B5816084BD87
:1029F00085B5826085BD85B5816085BDEEE6F0E078
:102A0000808181608083E1E8F0E0108280818260D3
:102A10008083808181608083E0E8F0E08081816054
:102A20008083E1EBF0E0808184608083E0EBF0E084
:102A3000808181608083EAE7F0E080818460808328
:102A400080818260808380818160808380818068D2
:102A500080831092C10008958E3008F08E508770E8
:102A600020911E0190E4299F90011124822B8093D4
:102A70007C0080917A00806480937A0080917A0053
:102A800086FDFCCF809178002091790090E0922B18
:102A90000895833081F028F4813099F08230A1F0DC
:102AA00008958730A9F08830B9F08430D1F480914E
:102AB00080008F7D03C0809180008F77809380009D
:102AC000089584B58F7702C084B58F7D84BD089545
:102AD0008091B0008F7703C08091B0008F7D80938C
:102AE000B0000895CF93DF9390E0FC01E752FA4FD6
:102AF0002491FC01E351FA4F8491882349F190E03D
:102B0000880F991FFC01EB5EF94FA591B491855F89
:102B1000994FFC01C591D4919FB7611108C0F894F9
:102B20008C91209582238C93888182230AC0623005
:102B300051F4F8948C91322F309583238C938881B3
:102B4000822B888304C0F8948C91822B8C939FBF36
:102B5000DF91CF9108950F931F93CF93DF931F922F
:102B6000CDB7DEB7282F30E0F901EB53FA4F84914F
:102B7000F901E752FA4F1491F901E351FA4F049128
:102B80000023C9F0882321F069830E9449156981D7
:102B9000E02FF0E0EE0FFF1FE55FF94FA591B49134
:102BA0009FB7F8948C91611103C01095812301C0E7
:102BB000812B8C939FBF0F90DF91CF911F910F912D
:102BC0000895FC01818D228D90E0805C9F4F821BD7
:102BD00091098F7399270895FC01918D828D981723
:102BE00031F0828DE80FF11D858D90E008958FEF13
:102BF0009FEF0895FC01918D828D981761F0828D71
:102C0000DF01A80FB11D5D968C91928D9F5F9F7320
:102C1000928F90E008958FEF9FEF08958EE797E1F0
:102C2000892B49F080E090E0892B29F00E947E17E3
:102C300081110C9400000895FC01848DDF01A80F20
:102C4000B11DA35ABF4F2C91848D90E001968F73D4
:102C50009927848FA689B7892C93A089B1898C91F3
:102C600080648C93938D848D981306C00288F389B9
:102C7000E02D80818F7D80830895CF93DF93EC01D9
:102C8000888D8823C9F0EA89FB89808185FD05C08C
:102C9000A889B9898C9186FD0FC00FB607FCF5CFC6
:102CA000808185FFF2CFA889B9898C9185FFEDCF0E
:102CB000CE010E941C16E7CFDF91CF910895CF92ED
:102CC000DF92FF920F931F93CF93DF931F92CDB7A5
:102CD000DEB76C0181E0D60158968C9358975B96CD
:102CE0009C915B975C968C915C97981307C050966B
:102CF000ED91FC915197808185FD2EC0F601038DE9
:102D000010E00F5F1F4F0F731127F02EF601848D17
:102D1000F81211C00FB607FCF9CFD6015096ED910D
:102D2000FC915197808185FFF1CFC60169830E9494
:102D30001C166981EBCF838DE80FF11DE35AFF4F1D
:102D40006083D6015B960C935B975296ED91FC9154
:102D50005397808180620CC0D6015696ED91FC910C
:102D6000579760835096ED91FC91519780818064D4
:102D7000808381E090E00F90DF91CF911F910F91C0
:102D8000FF90DF90CF900895BF92CF92DF92EF92A5
:102D9000FF92CF93DF93EC016A017B01B22EE889A9
:102DA000F98982E08083411581EE5807610571053C
:102DB000A1F060E079E08DE390E0A70196010E9428
:102DC0004A1C2150310941095109569547953795BB
:102DD0002795211580E1380798F0E889F989108254
:102DE00060E874E88EE190E0A70196010E944A1C19
:102DF0002150310941095109569547953795279535
:102E0000EC85FD853083EE85FF852083188EEC8967
:102E1000FD89B082EA89FB89808180618083EA89AB
:102E2000FB89808188608083EA89FB898081806852
:102E30008083EA89FB8980818F7D8083DF91CF91B8
:102E4000FF90EF90DF90CF90BF9008951F920F9268
:102E50000FB60F9211242F938F939F93EF93FF93AD
:102E6000E0913505F09136058081E0913B05F091C8
:102E70003C0582FD12C0908180913E058F5F8F736B
:102E800020913F05821751F0E0913E05F0E0EB5DA7
:102E9000FA4F958F80933E0501C08081FF91EF919D
:102EA0009F918F912F910F900FBE0F901F901895AB
:102EB0001F920F920FB60F9211242F933F934F93AF
:102EC0005F936F937F938F939F93AF93BF93EF9392
:102ED000FF9385E295E00E941C16FF91EF91BF9150
:102EE000AF919F918F917F916F915F914F913F91A2
:102EF0002F910F900FBE0F901F90189585E295E0CF
:102F00000E94E11521E0892B09F420E0822F089529
:102F1000109228051092270588EE93E0A0E0B0E01B
:102F20008093290590932A05A0932B05B0932C0537
:102F300082E492E0909326058093250585EC90E04D
:102F4000909332058093310584EC90E090933405A2
:102F50008093330580EC90E090933605809335059F
:102F600081EC90E0909338058093370582EC90E0F7
:102F700090933A058093390586EC90E090933C0558
:102F800080933B0510923E0510923F05109240053C
:102F9000109241050895CF92DF92EF92FF920F9326
:102FA0001F93CF93DF937C016A01EB0100E010E0F7
:102FB0000C151D0571F06991D701ED91FC910190FF
:102FC000F081E02DC7010995892B19F00F5F1F4F84
:102FD000EFCFC801DF91CF911F910F91FF90EF903C
:102FE000DF90CF9008956115710581F0DB010D90A0
:102FF0000020E9F7AD0141505109461B570BDC0198
:10300000ED91FC910280F381E02D099480E090E045
:1030100008950C94F3176EE472E00C94F3170F9379
:103020001F93CF93DF93EC010E94F3178C01CE0125
:103030000E940B18800F911FDF91CF911F910F916C
:1030400008950F931F93CF93DF93EC010E948F1489
:10305000688779878A879B87E881F9810680F7816D
:10306000E02DCE01099597FF15C00E948F140885A9
:1030700019852A853B85601B710B820B930B0C8194
:103080001D812E813F81601771078207930720F30E
:103090008FEF9FEFDF91CF911F910F9108950F93C5
:1030A0001F93CF93DF93EC010E948F146887798779
:1030B0008A879B87E881F9810084F185E02DCE0124
:1030C000099597FF15C00E948F14088519852A85D8
:1030D0003B85601B710B820B930B0C811D812E8134
:1030E0003F81601771078207930720F38FEF9FEFEF
:1030F000DF91CF911F910F910895FF920F931F932E
:10310000CF93DF93EC018B01F42ECE010E944F1878
:103110009C0197FD28C08D32910519F1C0970A973F
:1031200010F1FF2019F02E323105F9F001301105B0
:10313000F9F00230110569F42D30310551F034F405
:10314000295031092230310520F012C020323105DA
:1031500079F4E881F9810680F781E02DCE010995A7
:10316000D4CF8DE203C0C90105C08EE290E002C059
:103170008FEF9FEFDF91CF911F910F91FF900895F7
:10318000CF92DF92FF920F931F93CF93DF9300D0E4
:1031900000D0CDB7DEB76C01042F40E00E947D184F
:1031A000FC0197FD4BC020E030E0A901F12C112774
:1031B00007FD1095E017F107E9F0ED32F105C1F0D8
:1031C000CF01C0970A97B0F4AAE0B0E00E949A1C21
:1031D0009B01AC01CF01AA2797FDA095BA2F280F1C
:1031E000391F4A1F5B1F205331094109510902C091
:1031F000FF24F394D601ED91FC910680F781E02D38
:10320000C60129833A834B835C830995C6010E94DA
:103210004F18FC01C09729813A814B815C810A9744
:1032200048F2E017F10731F2FF2061F066277727B7
:10323000CB01621B730B840B950B06C060E070E042
:10324000CB0102C0CA01B9010F900F900F900F90EF
:10325000DF91CF911F910F91FF90DF90CF90089554
:10326000EF92FF920F931F93CF93DF93EC018B01AB
:10327000E42E60E572E00E940D1AC8010E94211838
:10328000FF24E7FCF09497FD0BC08E159F0541F0DD
:10329000682FCE010E94B31AC8010E942118F3CFF3
:1032A000CE01DF91CF911F910F91FF90EF90089584
:1032B0004F925F926F927F92AF92BF92CF92DF92C6
:1032C000EF92FF920F931F93CF93DF93CDB7DEB7AB
:1032D00029013A01621B730B840B950B29893A89EA
:1032E0004B895C892A193B094C095D09298B3A8B6A
:1032F0004B8B5C8B9B01AC0169897A898B899C899A
:103300000E94261CE418F50806091709A801970170
:103310000E946C1C2A0D3B1D4C1D5D1DCA01B9018C
:10332000DF91CF911F910F91FF90EF90DF90CF90A1
:10333000BF90AF907F906F905F904F900895FC0189
:10334000808191810C945F1DCF93DF93EC01888184
:103350009981009711F00E945F1D198218821D82C9
:103360001C821B821A82DF91CF9108950F931F93C5
:10337000CF93DF93EC018B016F5F7F4F8881998141
:103380000E94EE1D009731F0998388831B830A8386
:1033900081E001C080E0DF91CF911F910F910895EE
:1033A000CF93DF93EC0188819981892B29F08A8161
:1033B0009B818617970760F4CE010E94B619882377
:1033C00041F08C819D81892B19F4E881F98110826B
:1033D00081E0DF91CF910895EF92FF920F931F93B9
:1033E000CF93DF93EC017B018A01BA010E94D019CF
:1033F000811104C0CE010E94A41907C01D830C8353
:10340000B701888199810E94C61ECE01DF91CF91BC
:103410001F910F91FF90EF900895FC01118210828F
:1034200013821282158214826115710559F0FB0115
:1034300001900020E9F7AF0141505109461B570B9D
:103440000C94EC190895CF93DF93EC01FB018617E0
:10345000970761F0608171816115710529F04481E0
:1034600055810E94EC1902C00E94A419CE01DF917F
:10347000CF910895FC01118210821382128215826D
:1034800014820C94231ACF93DF93EC01611571051C
:1034900061F0FB0101900020E9F7AF0141505109B3
:1034A000461B570B0E94EC1902C00E94A419CE01C2
:1034B000DF91CF9108950F931F93CF93DF93CDB7F3
:1034C000DEB762970FB6F894DEBF0FBECDBF8C019A
:1034D000CB01F801118210821382128215821482AC
:1034E00050E0BE016F5F7F4F0E94EA1EBE016F5F1A
:1034F0007F4FC8010E94431A62960FB6F894DEBF50
:103500000FBECDBFDF91CF911F910F910895EF9224
:10351000FF920F931F93CF93DF93EC017B010C81FC
:103520001D816115710511F480E016C0411551052A
:1035300091F0040F151FB8010E94D0198823A1F340
:10354000288139818C819D81B701820F931F0E9450
:10355000C61E1D830C8381E0DF91CF911F910F91D7
:10356000FF90EF900895CF93DF9300D0CDB7DEB7F3
:1035700069831A8241E050E0BE016F5F7F4F0E9475
:10358000871A0F900F90DF91CF910895EF92FF92DD
:103590000F931F93CF93DF93CDB7DEB728970FB666
:1035A000F894DEBF0FBECDBF7C01CB014AE08E0197
:1035B0000F5F1F4FB8010E94F51EF8010190002017
:1035C000E9F7AF0141505109401B510BB801C70148
:1035D0000E94871A28960FB6F894DEBF0FBECDBFA3
:1035E000DF91CF911F910F91FF90EF900895CF93AE
:1035F000DF93EC016115710569F0FB01019000207A
:10360000E9F7AF0141505109461B570B0E94871A39
:10361000811103C0CE010E94A419CE01DF91CF9188
:103620000895CF93DF93EC010E94C61A811103C065
:10363000CE010E94A419CE01DF91CF910895FA0125
:10364000DB0114964D915C911597DC0114962D9138
:103650003C911597241B350B2E173F0788F08D9151
:103660009C91009769F0DB016D917C91611571056A
:1036700039F08E0F9F1F0E94CD1E21E0892B09F08B
:1036800020E0822F0895FC0144815581FB012481B3
:1036900035814217530720F040E050E00C941F1B87
:1036A00080E008950F931F93CF93DF93EB014115B3
:1036B0005105E9F02097D9F0FC0164817581261746
:1036C0003707A0F4621B730B8A01015011096017C0
:1036D000710708F48B01FC0160817181620F731F17
:1036E000A801CE010E94DB1EC00FD11F1882DF91FE
:1036F000CF911F910F9108950E94B81E08950E94C6
:10370000F1140E947E1B0E94F103CEE0D6E10E94DC
:1037100036042097E1F30E940E16F9CF089504D0E5
:103720006894B1118DC0089570D088F09F5790F0C3
:10373000B92F9927B751A0F0D1F0660F771F881FD6
:10374000991F1AF0BA95C9F712C0B13081F077D03D
:10375000B1E0089574C0672F782F8827B85F39F0DB
:10376000B93FCCF3869577956795B395D9F73EF435
:1037700090958095709561957F4F8F4F9F4F0895DD
:10378000E89409C097FB3EF49095809570956195FB
:103790007F4F8F4F9F4F9923A9F0F92F96E9BB27B1
:1037A0009395F695879577956795B795F111F8CF2D
:1037B000FAF4BB0F11F460FF1BC06F5F7F4F8F4F98
:1037C0009F4F16C0882311F096E911C0772321F08E
:1037D0009EE8872F762F05C0662371F096E8862F26
:1037E00070E060E02AF09A95660F771F881FDAF77D
:1037F000880F9695879597F9089557FD9058440F2F
:10380000551F59F05F3F71F04795880F97FB991F3F
:1038100061F09F3F79F087950895121613061406FC
:10382000551FF2CF4695F1DF08C016161706180689
:10383000991FF1CF86957105610508940895E89464
:10384000BB2766277727CB0197F90895DB018F9374
:103850009F930E949A1CBF91AF91A29F800D911DD2
:10386000A39F900DB29F900D1124089597FB072EF2
:1038700016F4009407D077FD09D00E94AD1C07FC18
:1038800005D03EF4909581959F4F08957095619570
:103890007F4F0895A1E21A2EAA1BBB1BFD010DC08C
:1038A000AA1FBB1FEE1FFF1FA217B307E407F507F0
:1038B00020F0A21BB30BE40BF50B661F771F881FCC
:1038C000991F1A9469F760957095809590959B0162
:1038D000AC01BD01CF010895052E97FB1EF40094A5
:1038E0000E94831C57FD07D00E944A1C07FC03D08E
:1038F0004EF40C94831C50954095309521953F4F84
:103900004F4F5F4F089590958095709561957F4FCB
:103910008F4F9F4F0895A29FB001B39FC001A39FF7
:10392000700D811D1124911DB29F700D811D1124F8
:10393000911D08950E948B1CA59F900DB49F900D22
:10394000A49F800D911D11240895B7FF0C949A1C1B
:103950000E949A1C821B930B0895AA1BBB1B51E16A
:1039600007C0AA1FBB1FA617B70710F0A61BB70BEF
:10397000881F991F5A95A9F780959095BC01CD0194
:103980000895EE0FFF1F0590F491E02D0994CF9359
:10399000DF938230910510F482E090E0E091C4055D
:1039A000F091C50520E030E0A0E0B0E0309739F1BB
:1039B0004081518148175907B8F04817590771F4E9
:1039C00082819381109729F013969C938E9312977E
:1039D0002CC09093C5058093C40527C021153105DF
:1039E00031F04217530718F0A901DB0101C0EF01C4
:1039F0009A01BD01DF010280F381E02DD7CF2115AF
:103A00003105F9F0281B390B2430310580F48A8107
:103A10009B816115710521F0FB019383828304C0B2
:103A20009093C5058093C405FE01329644C0FE0103
:103A3000E20FF31F81939193225031093983288338
:103A40003AC02091C2053091C305232B41F4209147
:103A50000201309103013093C3052093C2052091E8
:103A60000001309101012115310541F42DB73EB718
:103A70004091040150910501241B350BE091C205D2
:103A8000F091C305E217F307A0F42E1B3F0B281794
:103A9000390778F0AC014E5F5F4F2417350748F0C7
:103AA0004E0F5F1F5093C3054093C20581939193BE
:103AB00002C0E0E0F0E0CF01DF91CF910895CF9315
:103AC000DF93009709F487C0FC01329713821282BA
:103AD000C091C405D091C505209781F42081318122
:103AE000280F391F8091C2059091C3058217930753
:103AF00079F5F093C305E093C2056DC0DE0120E0C7
:103B000030E0AE17BF0750F412964D915C911397B9
:103B10009D014115510509F1DA01F3CFB383A28369
:103B200040815181840F951F8A179B0771F48D91F5
:103B30009C911197840F951F029691838083129612
:103B40008D919C911397938382832115310529F4DC
:103B5000F093C505E093C4053EC0D9011396FC93CC
:103B6000EE9312974D915D91A40FB51FEA17FB07D5
:103B700079F480819181840F951F0296D901119665
:103B80009C938E938281938113969C938E9312972C
:103B9000E0E0F0E08A819B81009719F0FE01EC01E2
:103BA000F9CFCE01029628813981820F931F20918F
:103BB000C2053091C3052817390769F4309729F4F5
:103BC0001092C5051092C40502C013821282D093D0
:103BD000C305C093C205DF91CF910895A0E0B0E086
:103BE000E4EFFDE10C942E1FEC01CB01209719F4BA
:103BF0000E94C71CB8C0FE01E60FF71F9E012250AD
:103C00003109E217F30708F4ACC0D9010D911C91FA
:103C1000119706171707B8F00530110508F49FC073
:103C2000A801445051094617570708F498C002509C
:103C30001109061B170B019311936D937C93CF0110
:103C40000E945F1D8CC05B01A01AB10A4E01800E5C
:103C5000911EA091C405B091C505612C712C60E046
:103C600070E0109709F449C0A815B905C9F5ED90A1
:103C7000FC901197670142E0C40ED11CCA14DB040A
:103C800078F147018A189B08640142E0C40ED11CF8
:103C90001296BC9012971396AC91B5E0CB16D10456
:103CA00040F0B282A38391828082D9018D939C934C
:103CB00009C00E5F1F4F0E0D1F1DF90111830083F8
:103CC000EB2DFA2F6115710531F0DB011396FC9392
:103CD000EE93129744C0F093C505E093C4053FC02E
:103CE0006D917C9111976616770608F43B01BD0132
:103CF00012960D90BC91A02DB4CF6091C205709129
:103D0000C30568157905E9F468167906D0F4409181
:103D10000001509101014115510541F44DB75EB7C5
:103D20006091040170910501461B570BE417F507DC
:103D3000C0F4F093C305E093C205F9019183808339
:103D40000EC00E94C71C7C01009759F0A801BE015B
:103D50000E94BD1ECE010E945F1DC70104C0CE019E
:103D600002C080E090E0CDB7DEB7EEE00C944A1FD1
:103D700081E090E0F8940C94611FFB01DC0102C02B
:103D800001900D9241505040D8F70895FB01DC019D
:103D900001900D920020E1F70895FB01DC014150F4
:103DA000504030F08D910190801919F40020B9F73E
:103DB000881B990B0895FB01DC014150504048F0ED
:103DC00001900D920020C9F701C01D924150504052
:103DD000E0F708954532510520F4423010F00C947C
:103DE000F51EFB011082CB010895BB274A3031F448
:103DF000992322F4BDE2909581959F4F0C94011F69
:103E0000BB27FB015527AA27880F991FAA1FA417B4
:103E100010F0A41B83955051B9F7A05DAA3308F0A8
:103E2000A95DA193009779F7B111B1931192CB01DC
:103E30000C941A1FDC01FC01672F71917723E1F7C5
:103E4000329704C07C916D9370836291AE17BF0767
:103E5000C8F308952F923F924F925F926F927F9294
:103E60008F929F92AF92BF92CF92DF92EF92FF928A
:103E70000F931F93CF93DF93CDB7DEB7CA1BDB0B36
:103E80000FB6F894DEBF0FBECDBF09942A883988DB
:103E900048885F846E847D848C849B84AA84B984E2
:103EA000C884DF80EE80FD800C811B81AA81B981EE
:103EB000CE0FD11D0FB6F894DEBF0FBECDBFED0102
:063EC0000895F894FFCF05
:103EC6000000C6058000010000000E000100010090
:103ED60001000100E007010001002C01000001447F
:103EE600617461202020202020204F726100556DD2
:103EF6006964697461600054656D7065726174759A
:103F060072610043616D70696F6E616D656E746F8D
:103F1600006D696E2E00496E206D656D6F72696168
:103F2600003530202D20202D20202D20202D202052
:103F36002D20202D20202D003430202D20202D2036
:103F4600202D20202D20202D20202D20202D003337
:103F560030202D20202D20202D20202D20202D200A
:103F6600202D20202D003230202D20202D20202D08
:103F760020202D20202D20202D20202D0031302006
:103F86002D20202D20202D20202D20202D20202DDD
:103F960020202D003000250A2000430A200044611D
:103FA60074653A0000000000100BCB17610E830801
:103FB600B90E250F3A09910FB90BB80C0A0A000081
:103FC6000000100BCB177C1B83088909A0093A094E
:103FD600B609EB09090A0A0A00000000100BCB1704
:103FE600610E8308B90E250F3A09910FB90BB80C6B
:103FF6000A0A1F1C1F1E1F1E1F1F1E1F1E1F00003A
:1040060000005F16CB17E115FA15EC153D160D0AE3
:0E401600006E616E00696E66006F76660000D7
:00000001FF
