:100000000C9412030C943A030C943A030C943A03A4
:100010000C943A030C943A030C943A030C943A036C
:100020000C943A030C943A030C943A030C943A035C
:100030000C943A030C943A030C943A030C943A034C
:100040000C94E1120C943A030C94C2150C94F41520
:100050000C943A030C943A030C943A030C943A032C
:100060000C943A030C943A0300000000003E5B4FEE
:100070005B3E3E6B4F6B3E1C3E7C3E1C183C7E3C08
:10008000181C577D571C1C5E7F5E1C00183C180016
:10009000FFE7C3E7FF0018241800FFE7DBE7FF30A6
:1000A000483A060E2629792926407F050507407F14
:1000B00005253F5A3CE73C5A7F3E1C1C08081C1C87
:1000C0003E7F14227F22145F5F005F5F06097F017D
:1000D0007F006689956A606060606094A2FFA29468
:1000E00008047E040810207E201008082A1C080836
:1000F0001C2A08081E101010100C1E0C1E0C303884
:100100003E3830060E3E0E06000000000000005F84
:1001100000000007000700147F147F14242A7F2AA0
:100120001223130864623649562050000807030062
:10013000001C2241000041221C002A1C7F1C2A08AE
:10014000083E080800807030000808080808000011
:1001500060600020100804023E5149453E00427F85
:10016000400072494949462141494D331814127FD4
:100170001027454545393C4A494931412111090774
:100180003649494936464949291E000014000000F5
:1001900040340000000814224114141414140041C7
:1001A00022140802015909063E415D594E7C121184
:1001B000127C7F494949363E414141227F414141BC
:1001C0003E7F494949417F090909013E4141517337
:1001D0007F0808087F00417F41002040413F017FA8
:1001E000081422417F404040407F021C027F7F0470
:1001F00008107F3E4141413E7F090909063E4151B9
:10020000215E7F09192946264949493203017F01A8
:10021000033F4040403F1F2040201F3F4038403FA9
:10022000631408146303047804036159494D4300BF
:100230007F4141410204081020004141417F0402F6
:10024000010204404040404000030708002054548D
:1002500078407F284444383844444428384444286B
:100260007F385454541800087E090218A4A49C78BE
:100270007F0804047800447D40002040403D007F1A
:100280001028440000417F40007C047804787C08FA
:100290000404783844444438FC18242418182424CE
:1002A00018FC7C08040408485454542404043F44B3
:1002B000243C4040207C1C2040201C3C4030403CE2
:1002C00044281028444C9090907C4464544C440042
:1002D00008364100000077000000413608000201A6
:1002E0000204023C2623263C1EA1A161123A404092
:1002F000207A385454555921555579412154547810
:1003000041215554784020545579400C1E527212A8
:100310003955555559395454545939555454580030
:1003200000457C410002457D420001457C40F029AA
:100330002429F0F0282528F07C54554500205454F9
:100340007C547C0A097F493249494932324848483D
:1003500032324A4848303A4141217A3A4240207884
:10036000009DA0A07D39444444393D4040403D3C7F
:1003700024FF2424487E4943662B2FFC2F2BFF09A2
:1003800029F620C0887E0903205454794100004496
:100390007D413048484A32384040227A007A0A0A81
:1003A000727D0D19317D2629292F282629292926F4
:1003B00030484D4020380808080808080808382F39
:1003C00010C8ACBA2F102834FA00007B00000814C3
:1003D0002A142222142A1408AA005500AAAA55AAEF
:1003E00055AA000000FF00101010FF00141414FFA5
:1003F000001010FF00FF1010F010F0141414FC0097
:100400001414F700FF0000FF00FF1414F404FC14A0
:100410001417101F10101F101F1414141F00101099
:1004200010F0000000001F101010101F101010100E
:10043000F010000000FF101010101010101010FF2E
:1004400010000000FF140000FF00FF00001F101745
:100450000000FC04F414141710171414F404F4002E
:1004600000FF00F714141414141414F700F71414F4
:1004700014171410101F101F141414F4141010F07B
:1004800010F000001F101F0000001F14000000FCEF
:10049000140000F010F01010FF10FF141414FF14DB
:1004A0001010101F00000000F010FFFFFFFFFFF012
:1004B000F0F0F0F0FFFFFF0000000000FFFF0F0F63
:1004C0000F0F0F38444438447C2A2A3E147E02021F
:1004D0000606027E027E0263554941633844443C6D
:1004E00004407E201E2006027E020299A5E7A599FF
:1004F0001C2A492A1C4C7201724C304A4D4D303036
:1005000048784830BC625A463D3E494949007E0120
:1005100001017E2A2A2A2A2A44445F444440514A3F
:10052000444040444A51400000FF0103E080FF0086
:100530000008086B6B083612362436060F090F06C2
:10054000000018180000001010003040FF010100EA
:100550001F01011E00191D1712003C3C3C3C00000D
:1005600000000013018032118064260104B1020BE7
:1005700014C0020800C10105C5024130C701C1EC29
:10058000011B3A8155642A040000007F2B040000FF
:10059000009F3601C8B70100F20100E08F28242235
:1005A000312B0E53A5421618121A140332E18F177D
:1005B0001B1D0E14112CA53D09272D252B3C321394
:1005C000800A2980FF0000000800020100000304E7
:1005D0000700000000000000000102040810204095
:1005E0008001020408102001020408102004040401
:1005F00004040404040202020202020303030303CC
:100600000300000000230026002900000000002550
:100610000028002B0000000000240027002A000012
:100620007007241611241FBECFEFD8E0DEBFCDBF68
:1006300013E0A0E0B1E0E2EFF9E302C005900D9213
:10064000A432B107D9F726E0A4E2B3E001C01D92BD
:10065000AF35B207E1F716E0C4E2D6E004C0229756
:10066000FE010E945C1AC032D107C9F70E944719E7
:100670000C94F71C0C940000DC01ED91FC910190AE
:10068000F081E02D09942FEF4FEF6FEF8AE795E0AF
:100690000E949A0A61E08AE795E00E947E0A20E0C3
:1006A00030E040E050E06CE071E08AE795E00E94C5
:1006B000AE0A20E130E040E050E06DE171E08AE711
:1006C00095E00E94AE0A20E230E040E050E068E2AF
:1006D00071E08AE795E00E94AE0A62E08AE795E061
:1006E0000E947E0A20E130E047E650E066E371E0D8
:1006F0008AE795E00E94AE0A20E230E047E650E04B
:100700006AE371E08AE795E00C94AE0ACF93DF9339
:10071000EC018A30910530F460E370E08EEB95E0F7
:100720000E943C034AE050E0BE018EEB95E0DF9171
:10073000CF910C94671726E040E855E260E070E046
:100740008EEB95E00E9460156EE371E08EEB95E014
:100750000E94B21662E571E08EEB95E00E94B2163F
:1007600066E671E08EEB95E00E94B2168EEB95E0A6
:100770000E94AE1664EF71E080E090E00E944E139C
:1007800084E695E00E944711882381F06BE771E0D1
:100790008EEB95E00E94B2166AEA71E08EEB95E06E
:1007A0000E94B2168EEB95E00E94AE160E944E118A
:1007B00081110AC06CED71E08EEB95E00E94B216DB
:1007C0008EEB95E00E94AE168AE795E00E949207B4
:1007D00020E040E060E08AE795E00E948B0A0E94FA
:1007E000430360ED77E080E090E00C944E130F93AC
:1007F0001F93CF93DF93CDB7DEB7ED970FB6F89485
:10080000DEBF0FBECDBF68E072E08EEB95E00E94C8
:10081000A5160E94CF11AB01BC012AE030E08EEB9F
:1008200095E00E948717CE0101960E946111811107
:100830005AC064E172E08EEB95E00E94A5168B81B0
:1008400090E00E9486036AE370E08EEB95E00E94E0
:100850003C038A8190E00E9486036AE370E08EEB9D
:1008600095E00E943C03898190E00E9486036EE13E
:1008700072E08EEB95E00E94A5164AE050E06D8193
:100880008EEB95E00E9494176FE270E08EEB95E09E
:100890000E943C034AE050E06E818EEB95E00E949E
:1008A00094176FE270E08EEB95E00E943C036F813D
:1008B00070E06E54784F4AE050E08EEB95E00E9475
:1008C000671760E372E08EEB95E00E94A5164AE0A0
:1008D00050E06C818EEB95E00E9494178EEB95E0D2
:1008E0000E94AE1610C069E372E08EEB95E00E94A4
:1008F000B2168EEB95E00E94AE1668E273E280E0DD
:1009000090E00E944E1369E672E08EEB95E00E9443
:10091000A51664E08DE695E00E941A108F3F2FEF38
:10092000920751F0009729F0029649F468E872E0C6
:1009300008C062E772E005C067E772E002C069E9DB
:1009400072E08EEB95E00E94A516609171057091A2
:10095000720580917305909174050E9457197093E8
:100960006A056093690560916D0570916E058091CF
:100970006F05909170050E94571970936C056093F4
:100980006B0541E050E08EEB95E00E94671764E74D
:1009900072E08EEB95E00E94A5166091690570915A
:1009A0006A0541E050E08EEB95E00E946F17609180
:1009B0006B0570916C054AE0CE01C8960E946E18D6
:1009C0006091690570916A054AE0CE01C2960E9465
:1009D0006E1820E030E043E050E06EE575E0CE01B7
:1009E000C8960E941A1920E030E043E050E061E62A
:1009F00075E0CE01C2960E941A196F8170E06E54A4
:100A0000784F4AE0CE018C960E946E181E81BE017E
:100A1000645D7F4FCE0108960E94201864E671E065
:100A2000CE0108960E94F218612F0E940C19BC0199
:100A3000CE0186960E942018CE0108960E949B1730
:100A40001D81BE016A5D7F4FCE0108960E9420186D
:100A500064E671E0CE0108960E94F218612F0E94B0
:100A60000C19BC01CE0180960E942018CE01089678
:100A70000E949B174AE06B81CE014A960E94411862
:100A80001A81BE01665E7F4FCE0108960E94201833
:100A900069EA72E0CE0108960E94F218612F0E9466
:100AA0000C19BC01CE0144960E942018CE01089674
:100AB0000E949B171981BE016C5E7F4FCE01089684
:100AC0000E94201869EA72E0CE0108960E94F2188E
:100AD000612F0E940C19BC01CE010E960E942018B5
:100AE000CE0108960E949B1720E030E04BE050E0DA
:100AF00063E575E0CE0180960E941A1920E030E08F
:100B000049E050E06AE475E0CE010E960E941A19A1
:100B100061E08AE795E00E947E0A2D8130E08091B5
:100B20002605909127052817390771F120E040E04C
:100B300060E08AE795E00E949A0A28E030E040E011
:100B400050E063E375E08AE795E00E94AE0A20E09A
:100B50004FEF6FEF8AE795E00E949A0A28E030E0B5
:100B600040E050E063E575E08AE795E00E94AE0A58
:100B70008D8190E0909327058093260563E575E0CD
:100B800083E395E00E945F1C298130E08091280575
:100B9000909129052817390771F120E040E060E0C5
:100BA0008AE795E00E949A0A28E030E042E450E0AB
:100BB0006AE275E08AE795E00E94AE0A20E04FEF16
:100BC0006FEF8AE795E00E949A0A28E030E042E45D
:100BD00050E06AE475E08AE795E00E94AE0A8981F8
:100BE00090E090932905809328056AE475E08AE2F5
:100BF00095E00E945F1C62E08AE795E00E947E0A11
:100C000020916B0530916C05809167059091680586
:100C10002817390781F120E040E060E08AE795E09D
:100C20000E949A0A20E130E04CE450E064E475E070
:100C30008AE795E00E94AE0A20E04FEF60E08AE785
:100C400095E00E949A0A20E130E04CE450E06EE525
:100C500075E08AE795E00E94AE0A80916B0590915D
:100C60006C0590936805809367056EE575E084E4F4
:100C700095E00E945F1C2091690530916A05809182
:100C80006505909166052817390781F120E040E05D
:100C900060E08AE795E00E949A0A20E230E04CE4A6
:100CA00050E06EE375E08AE795E00E94AE0A20E02E
:100CB00040E06FEF8AE795E00E949A0A20E230E078
:100CC0004CE450E061E675E08AE795E00E94AE0AE8
:100CD0008091690590916A059093660580936505FA
:100CE00061E675E08EE395E00E945F1C4A81242F47
:100CF00030E080910A0190910B012817390789F59E
:100D00006CE271E080E090E00E944E13CE010E96FE
:100D10000E949B17CE0144960E949B17CE014A96D3
:100D20000E949B17CE0180960E949B17CE0186964B
:100D30000E949B17CE018C960E949B17CE01C296F3
:100D40000E949B17CE01C8960E949B17ED960FB686
:100D5000F894DEBF0FBECDBFDF91CF911F910F91F1
:100D60000895442311F04E3159F620E040E060E050
:100D70008AE795E00E949A0A8FE790E09093250316
:100D8000809324030FE710E0609124037091250302
:100D900077FD2AC0FB01EE0FFF1FEA5DFC4F80814B
:100DA0009181A801481B590B8AE795E00E94C10A6E
:100DB0006091240370912503FB01EE0FFF1FEA5D94
:100DC000FB4F80819181A801481B590B8AE795E070
:100DD0000E94C10A8091240390912503019790936A
:100DE000250380932403D0CF20E030E080E090E022
:100DF0002F5F3F4FFC01EA5DFC4F428153815183DD
:100E00004083FC01EA5DFB4F428153815183408363
:100E100002962F37310564F3220F331FF901EA5D83
:100E2000FC4F80916B0590916C0591838083F90153
:100E3000EA5DFB4F8091690590916A0591838083FB
:100E40008A8190E090930B0180930A018FE790E0F4
:100E500090932503809324030FE710E080912403EF
:100E60009091250397FD4CCF20E04FEF60E08AE79B
:100E700095E00E949A0A6091240370912503FB017A
:100E8000EE0FFF1FEA5DFC4F80819181A801481B96
:100E9000590B8AE795E00E94C10A20E040E06FEF1D
:100EA0008AE795E00E949A0A6091240370912503D5
:100EB000FB01EE0FFF1FEA5DFB4F80819181A801CE
:100EC000481B590B8AE795E00E94C10A80912403D0
:100ED0009091250301979093250380932403BECF1F
:100EE00029E048E06AE08AE795E00E947E0727E073
:100EF00046E065E084E695E00C945710CF93DF93CD
:100F0000EC010E942F0B8FEA92E09983888380EA9C
:100F100090E09987888780E890E09B878A87DF91B7
:100F2000CF910895CF93DF93EC010E942D0D61E0E6
:100F3000CE01DF91CF910C94410F2F923F924F92AF
:100F40005F926F927F928F929F92AF92BF92CF9259
:100F5000DF92EF92FF920F931F93CF93DF9300D016
:100F600000D0CDB7DEB74C017C836B836A01590199
:100F7000C8018701AC014C195D0957FF03C05195A9
:100F80004195510995016B817C81261B370B37FFF9
:100F900003C031952195310922242394312C241743
:100FA000350714F0212C312C2114310459F03A2D3D
:100FB0002B2D5C01832F922F3B812C81DC82CB82F5
:100FC000C32ED22EAB81BC81AA16BB065CF43C2D8D
:100FD0002D2D6C01832F922F3B812C81BC82AB8203
:100FE000A32EB22E2501EB81FC814E1A5F0A3C0133
:100FF0006C187D0877FE03C07194619471087201CA
:1010000057FE03C0FFEFEF1AFF0AF594E794C816E6
:10101000D9062CF421E030E03A83298324C06FEF15
:101020007FEF7A8369831FC0D401ED91FC91048026
:10103000F581E02D980121143104D9F04B815C81B8
:10104000B601C4010995E618F708F7FE06C0E98164
:10105000FA81CE0EDF1EE40CF51C2B813C812F5F44
:101060003F4F3C832B836B817C81A616B706E4F649
:1010700004C0A6016B817C81E4CF0F900F900F908C
:101080000F90DF91CF911F910F91FF90EF90DF9024
:10109000CF90BF90AF909F908F907F906F905F9018
:1010A0004F903F902F9008956F927F928F929F92D2
:1010B000AF92BF92CF92DF92EF92FF920F931F9366
:1010C000CF93DF93EC015B016A0139014801E881AC
:1010D000F9810284F385E02D87010995E881F98182
:1010E000A601480D591D415051090284F385E02D98
:1010F0009301B501CE010995E881F9810084F1855C
:10110000E02D9401A601B501CE010995E881F98190
:10111000B501660D771D615071090084F185E02DE0
:101120009401A601CE010995DF91CF911F910F91F6
:10113000FF90EF90DF90CF90BF90AF909F908F90F7
:101140007F906F900895EF92FF920F931F93DC01B1
:10115000ED91FC91240F351F215031090680F78154
:10116000E02D780189019B0109951F910F91FF9056
:10117000EF900895EF92FF920F931F93DC01ED9192
:10118000FC91260F371F215031090680F781E02D91
:1011900078018A0109951F910F91FF90EF900895B2
:1011A0006F927F928F929F92AF92BF92CF92DF9277
:1011B000EF92FF920F931F93CF93DF935C014A014D
:1011C00069013801EB01C60ED71ECC15DD0574F49C
:1011D000D501ED91FC910084F185E02D870193010B
:1011E000A401BE01C50109952196EFCFDF91CF91F2
:1011F0001F910F91FF90EF90DF90CF90BF90AF9035
:101200009F908F907F906F900895EF92FF920F9331
:101210001F93DC01ED91FC9111971A960D911C9191
:101220001B9718962D913C9119970684F785E02D10
:101230007B0140E050E060E070E009951F910F9164
:10124000FF90EF90089508954C7F38E0439FC001D0
:10125000112430E073E0359527957A95E1F7822BDC
:10126000932B687F962B0895FC011382128289ECE0
:1012700092E091838083758364835783468371876B
:10128000608753874287158A1586148617861686C7
:1012900021E0248B8FEF9FEF938B828B918B808B40
:1012A000268B08952F923F924F925F926F927F927A
:1012B0008F929F92AF92BF92CF92DF92EF92FF9266
:1012C0000F931F93CF93DF93CDB7DEB72C970FB655
:1012D000F894DEBF0FBECDBF9C878B873A0118877D
:1012E0000F83FA86E986CD82DC0118968D919C9158
:1012F0001997681779070CF094C01A968D919C91F4
:101300001B97481759070CF08CC08C2C912CCB01E3
:10131000B6E0CB9E800D911D1124181619060CF015
:1013200080C0C40113E0880F991F1A95E1F7840F5C
:10133000951F181619060CF074C0F5E02F9F2001B8
:1013400011245B016B011C82920128593F4F290136
:10135000461A570A3C81353031F0F201EA0DFB1D87
:1013600044914B8301C01B827A82698213011E82E1
:101370008B8180FF13C0AB85BC85ED91FC91BD8155
:10138000B13031F40480F581E02D2F81388519C00A
:101390000684F785E02DEF80F8841EC0E985FA8584
:1013A0002F813885E217F307F9F0AB85BC85ED9105
:1013B000FC91BD81B13059F40480F581E02D29857F
:1013C0003A85A101B5018B859C8509950DC00684E0
:1013D000F785E02DE984FA848401940149815A81DA
:1013E000B6018B859C850995EB81E695EB83FE81A3
:1013F000FF5FFE8329813A81280D391D3A832983B5
:101400003FEF231A330AF83009F0B2CF4C814F5F17
:101410004C83C80CD91C8FEFA81AB80A463009F0C3
:1014200099CF2C960FB6F894DEBF0FBECDBFDF91DB
:10143000CF911F910F91FF90EF90DF90CF90BF90D1
:10144000AF909F908F907F906F905F904F903F9064
:101450002F900895CF92EF92FF920F931F93CF9307
:10146000DF93EC01262F6A3049F42C898E859F8505
:1014700038E0239F800D911D112432C06D30A1F101
:10148000EA88FB88088919894E855F856C857D858A
:10149000CC880E9452092C89422F50E08C859D8572
:1014A00036E0239F800D911D11249D878C872E8906
:1014B0002223D1F06AEF64039001659F300D11245F
:1014C00068857985260F371F281739076CF403E0E4
:1014D000440F551F0A95E1F78E859F85840F951F50
:1014E0009F878E871D861C8681E090E0DF91CF91DB
:1014F0001F910F91FF90EF90CF900895611101C05F
:1015000061E0FC01648B0895DC01ED91FC910088A1
:10151000F189E02D0994CF93DF93EC01E881F98103
:101520000488F589E02D0995BC01CE01DF91CF91AA
:101530000C94840ACF93DF93EC01E881F98104884D
:10154000F589E02D099521E0298F988F8F8B998B54
:10155000888B9B8B8A8BDF91CF910895FC01818DC5
:10156000882371F0168A8789908D918B808B938B5D
:10157000828B5587448737872687CF010C94A51621
:101580000895DC0159962C915997222359F0ED9139
:10159000FC91119757962D913C9158970480F581B5
:1015A000E02D09940895EF92FF920F931F93DC01B1
:1015B000ED91FC9111971A960D911C911B9718961D
:1015C0002D913C9119970684F785E02D7B0140E031
:1015D00050E060E070E009951F910F91FF90EF904F
:1015E00008952091B305222399F03FB7F8942091F4
:1015F000B305213059F42DB32093B1054DB320919B
:10160000B205209524232DBB3FBF02C03093B10506
:101610008CBD9DBD08958091B305882361F09FB76F
:10162000F8942091B3058091B105213019F48DBB58
:101630009FBF08958FBF08959C01207E3770AC0135
:10164000542F4427550F550F550F242B352B892F19
:101650009927869586958695822B932B0895EF92F0
:10166000FF920F931F93CF93DF931F92CDB7DEB7F7
:101670007C01062F142F40EA50E060E870E02983D7
:101680000E94340983EE92E0F7019183808380E524
:10169000878F10A201A712A7298123A781E0868F37
:1016A00015A614A60F90DF91CF911F910F91FF9077
:1016B000EF900895FC01868D882339F06EBD0000FF
:1016C0000DB407FEFDCF8EB5089588E090E030E8B8
:1016D000A1A1B2A126A5432F462321F04C91422B74
:1016E0004C9304C04C91209524232C93A3A1B4A126
:1016F0002C9147A5242B2C93A3A1B4A14C9127A5F1
:10170000209524232C933695019711F708950F9374
:101710001F93CF93DF931F92CDB7DEB78C01DC010F
:101720005E968C915E97882341F05F968D919C9197
:10173000909769830E94F10A6981D8019796ED918B
:10174000FC9198979081D1968C91D197809589231F
:1017500080839596ED91FC9196979081D0968C918F
:10176000809589238083C8010E945A0BD8019596E1
:10177000ED91FC9196978081D0969C91D097892B82
:1017800080835E968C91882339F00F90DF91CF9102
:101790001F910F910C940B0B0F90DF91CF911F9124
:1017A0000F910895662311F061E201C060E20C948C
:1017B000870B0F931F93CF93DF931F92CDB7DEB7A5
:1017C0008C01DC015E968C915E97882341F05F96D8
:1017D0008D919C91909769830E94F10A6981D8014B
:1017E0009796ED91FC9198978081D1969C91D19795
:1017F000892B80839596ED91FC9196979081D09658
:101800008C91809589238083C8010E945A0BD8014E
:101810009596ED91FC9196978081D0969C91D0976A
:10182000892B80835E968C91882339F00F90DF910D
:10183000CF911F910F910C940B0B0F90DF91CF91D3
:101840001F910F910895AF92BF92CF92DF92EF92C6
:10185000FF920F931F93CF93DF937C01EB012196AF
:10186000FB01B490BB2009F435C0FE016491C701AF
:101870000E94870B6E01F2E0CF0ED11CFE01319663
:10188000C4918C2F8078A82ECF778601DC2FDC0DB9
:10189000D01741F0F8016491C7010E94D90B0F5F86
:1018A0001F4FF6CFC6018C0F911DEC01AA2081F0CD
:1018B0008C010F5F1F4FFC01649170E06F3F710559
:1018C00011F464EF71E080E090E00E944E13E801B3
:1018D000BA94C8CFDF91CF911F910F91FF90EF90F5
:1018E000DF90CF90BF90AF9008950F931F93CF9349
:1018F000DF93EC018B011BAA1AAA61E08AA50E9462
:10190000E51361E089A50E94E51389A590E0FC013B
:10191000E351FA4FE491F0E0EE0FFF1FE55FF94F5E
:10192000259134913EA32DA3FC01E752FA4F8491F7
:1019300088AB8AA590E0FC01E351FA4FE491F0E016
:10194000EE0FFF1FE55FF94F2591349138A72FA3C4
:10195000FC01E752FA4F849189AB8E8D882331F0D8
:101960000E94F01180E58F8F18A23CC061E08DA528
:101970000E94E51361E08CA50E94E5138DA590E01F
:10198000FC01E351FA4FE491F0E0EE0FFF1FE55F39
:10199000F94FA591B491BCA3ABA3FC01E752FA4F58
:1019A00084918FA78CA590E0FC01E351FA4FE4915C
:1019B000F0E0EE0FFF1FE55FF94F259134913AA358
:1019C00029A3FC01E752FA4F84918EA78C919FA521
:1019D000909589238C93E9A1FAA190818EA5809599
:1019E00089238083EDA1FEA1908188A98095892318
:1019F00080838BA5882309F161E00E94E51361E0F3
:101A00008BA50E941E1464EF71E080E090E00E94BC
:101A10004E1360E08BA50E941E1464EF71E080E01D
:101A200090E00E944E1361E08BA50E941E1464EFAB
:101A300071E080E090E00E944E130115110541F025
:101A4000B801CE01DF91CF911F910F910C94230C1F
:101A5000DF91CF911F910F91089563E675E00C948B
:101A6000750CEF92FF920F931F93CF93DF9300D0EB
:101A7000CDB7DEB77C01162F6AE229834A830E9424
:101A8000870B60E0C7010E94D90BF70162A9610FC3
:101A9000C7010E94D90B60E0C7010E94D90BF70172
:101AA00062A92981620FC7010E94D90B6BE2C701AD
:101AB0000E94870B60E0C7010E94D90BF70163A960
:101AC0004A81640FC7010E94D90B60E0C7010E94E0
:101AD000D90BF70163A9600FC7010E94D90B6CE213
:101AE000C7010F900F90DF91CF911F910F91FF9041
:101AF000EF900C94870BFF920F931F93CF93DF937C
:101B0000EC01122FF32E77FD48C0A885B9856A171E
:101B10007B070CF042C057FD40C0AA85BB854A1721
:101B20005B07DCF501E0040F21E0260F0E94310D78
:101B30008E8D882321F08F8D98A10E94F10AEFA14C
:101B4000F8A5808199A9892B8083EDA1FEA18081D0
:101B500048A94095482340838D8D823031F4812FF0
:101B60009F2D0E941C0B182FF92E6F2DCE010E9465
:101B70005A0B612FCE010E945A0BEDA1FEA180816C
:101B800098A9892B80838E8D882339F0DF91CF919E
:101B90001F910F91FF900C940B0BDF91CF911F9130
:101BA0000F91FF900895DF92EF92FF920F931F9392
:101BB000CF93DF93EC017901D02E88859985681742
:101BC00079070CF054C02A853B85421753070CF067
:101BD0004EC0CA018E0D9F1D281739071CF47901CC
:101BE000E41AF50A0FEF040F0E0D262FCE010E9406
:101BF000310D8D8D823031F48D2D912F0E941C0B73
:101C0000D82E192F8E8D882321F08F8D98A10E94B8
:101C1000F10AEFA1F8A5808199A9892B8083EDA114
:101C2000FEA1908188A9809589238083E114F10425
:101C300061F0612FCE010E945A0B6D2DCE010E94E2
:101C40005A0B81E0E81AF108F1CFEDA1FEA18081E5
:101C500098A9892B80838E8D882349F0DF91CF91BD
:101C60001F910F91FF90EF90DF900C940B0BDF9181
:101C7000CF911F910F91FF90EF90DF900895DF9229
:101C8000EF92FF920F931F93CF93DF93EC017901B3
:101C9000D02E28853985621773070CF054C08A85C9
:101CA0009B85481759070CF04EC0CB018E0D9F1D28
:101CB000281739071CF47901E61AF70A2FEF260FC7
:101CC0002E0D042FCE010E94310D8D8D823031F406
:101CD0008D2D912F0E941C0BD82E192F8E8D8823AD
:101CE00021F08F8D98A10E94F10AEFA1F8A58081C3
:101CF00099A9892B8083EDA1FEA1908188A9809567
:101D000089238083E114F10461F0612FCE010E94E8
:101D10005A0B6D2DCE010E945A0B81E0E81AF10892
:101D2000F1CFEDA1FEA1808198A9892B80838E8DB2
:101D3000882349F0DF91CF911F910F91FF90EF9091
:101D4000DF900C940B0BDF91CF911F910F91FF90BF
:101D5000EF90DF9008956F927F928F929F92AF9253
:101D6000BF92CF92DF92EF92FF920F931F93CF9388
:101D7000DF93EC016B015A0149013801288539854F
:101D8000621773070CF06EC08A859B854817590748
:101D90000CF068C0AB01480D591D241735071CF421
:101DA0004901861A970A9501260D371D8217930758
:101DB0001CF43C016A187B088D8D823021F4C70128
:101DC0000E941C0B7C010FEF0A0D060D2FEF2C0D4E
:101DD000280D4A2D6C2DCE010E94310D8E8D882349
:101DE00021F08F8D98A10E94F10AEFA1F8A58081C2
:101DF00099A9892B8083EDA1FEA1908188A9809566
:101E00008923808316141704A4F464011C141D0490
:101E100064F46F2DCE010E945A0B6E2DCE010E94EC
:101E20005A0B81E0C81AD108F1CF81E0681A710815
:101E3000E9CFEDA1FEA1808198A9892B80838E8DA9
:101E4000882381F0DF91CF911F910F91FF90EF9048
:101E5000DF90CF90BF90AF909F908F907F906F90CA
:101E60000C940B0BDF91CF911F910F91FF90EF908E
:101E7000DF90CF90BF90AF909F908F907F906F90AA
:101E800008951F93CF93DF93EC01162F66E30E9412
:101E9000870B612F63706D8B623041F0633089F086
:101EA000613011F068EC03C068EA0CC068E0CE0154
:101EB0000E94D90B80E890E09987888780EA90E0BB
:101EC0000AC068E6CE010E94D90B80EA90E09987AB
:101ED000888780E890E09B878A87DF91CF911F9168
:101EE00008954F925F927F928F929F92AF92BF928E
:101EF000CF92DF92EF92FF920F931F93CF93DF93D6
:101F00001F92CDB7DEB72C01B62E862F90E0FC01D4
:101F1000E752FA4FA490FC01E351FA4FE491F0E04C
:101F2000EE0FFF1FEF5FF94F05911491F20110863C
:101F3000118612861386148661E08B2D49830E94D8
:101F4000E51360E08B2D0E941E144981642F70E020
:101F500080E090E00E944E1361E08B2D0E941E14E1
:101F600088E290E00E94761360E08B2D0E94E513DA
:101F700080E991E0F80120812A2129F40197D1F725
:101F80008EEF9FEF46C080E991E0F80120812A2181
:101F900019F00197D1F7F4CF98E2892E712C20E83F
:101FA000922E80E991E0F80120812A2119F401970D
:101FB000D1F7E6CF0E942B136B017C0180E991E001
:101FC000F80120812A2119F00197D1F7D9CF0E9479
:101FD0002B136C197D098E099F09693271058105E2
:101FE000910530F0F201E70DF11D80858929808788
:101FF000969419F4739480E8982E8A9491F661E08F
:102000008B2D0E94E51361E08B2D0E941E1480E051
:1020100090E00F90DF91CF911F910F91FF90EF9083
:10202000DF90CF90BF90AF909F908F907F905F9008
:102030004F9008950F931F93CF93DF93EC0142E1EC
:102040000E94710F009769F040E050EC69E774EC72
:10205000488359836A837B834C835D836E837F834C
:1020600021C01885612F70E080E090E00E948819FF
:10207000688379838A839B830A85602F70E080E080
:1020800090E00E9488196C837D838E839F83100F5C
:1020900081E090E02C85211302C080E090E09195D2
:1020A00081959109DF91CF911F910F9108956093D0
:1020B000B0054093AF052093AE05089560E0809190
:1020C000B0050E941E1461E08091B0050E94E513E6
:1020D00060E08091AE050E941E1461E08091AE0523
:1020E0000E94E51361E08091AF050E94E51361E075
:1020F0008091B0050E941E1484E090E00C94761349
:1021000060E08091B0050E941E1484E090E00C9481
:102110007613CF92DF92EF92FF921F93CF93DF93CC
:1021200060E08091AF050E94E513C0E0D0E010E0D0
:10213000C12CD12C7601C3948091AF050E94541418
:10214000B701A601892B51F00C2E04C0440F551F76
:10215000661F771F0A94D2F7142B0AC00C2E04C0F6
:10216000440F551F661F771F0A94D2F7409514231A
:1021700061E08091AE050E941E1481E090E00E9413
:10218000761360E08091AE050E941E1481E090E01D
:102190000E9476132196C830D10571F6812FDF9108
:1021A000CF911F91FF90EF90DF90CF9008950F9304
:1021B0001F93CF93DF93C0E0D0E0082F10E0B80169
:1021C0000C2E02C0759567950A94E2F761708091B4
:1021D000AF050E941E1481E090E00E94761361E03A
:1021E0008091AE050E941E1481E090E00E9476135B
:1021F00060E08091AE050E941E1481E090E00E9494
:1022000076132196C830D105D1F6DF91CF911F9179
:102210000F910895EF92FF920F931F93CF93DF9347
:102220001F92CDB7DEB7182F99830E945E108FEBF7
:102230000E94D710E12E9981F92E8701085F1F4F68
:102240000E948910F70181937F01E017F107C1F720
:102250000F90DF91CF911F910F91FF90EF900C9411
:102260008010CF93DF931F92CDB7DEB789830E9492
:102270005E10898181600E94D7100E948910898335
:102280000E94801089810F90DF91CF91089580E89E
:102290000E943111881F8827881F08958EE80E94A8
:1022A0003111982F9095991F9927991F892F08957B
:1022B000982F92959F708F702AE0929F800D112425
:1022C0000895BF92CF92DF92EF92FF920F931F93E8
:1022D000CF93DF93CDB7DEB729970FB6F894DEBF63
:1022E0000FBECDBF8C01CE0101960E940A118981DB
:1022F0008F770E945811B82EF80180838A818F77DA
:102300000E945811C82EF80181838B818F730E941F
:102310005811D82EF80182838C818F730E94581136
:10232000E82EF80184838D818F710E945811F82E58
:10233000F80185839E81977093838F8199870E948E
:1023400058112EE1280FF80126839985FBE3FB1530
:10235000A8F0FC1598F087E18D1580F08FEF8E0DB9
:102360008F3160F48FEF8F0D8C3040F4915081E00D
:10237000973028F4243618F480E001C081E02996D3
:102380000FB6F894DEBF0FBECDBFDF91CF911F9186
:102390000F91FF90EF90DF90CF90BF900895CF9373
:1023A000DF93CDB7DEB727970FB6F894DEBF0FBE29
:1023B000CDBFCE0101960E946111811105C0CE01F1
:1023C00001960E94261203C060E070E0CB012796C0
:1023D0000FB6F894DEBF0FBECDBFDF91CF91089549
:1023E000CF93CFB7F8948091B405811127C0E7EF60
:1023F000F5E08491E3EEF5E09491E82FF0E0EE0F44
:10240000FF1FEB5EF94FA591B4918C91892321F4C4
:1024100061E08AE00E941E1461E08AE00E94E513F8
:102420008CB580618CBD8CB580648CBD61E08DE025
:102430000E94E51361E08BE00E94E5138091B405F2
:102440008F5F8093B405CFBFCF9108956F927F9235
:102450008F929F92AF92BF92CF92DF92EF92FF92B4
:102460000F931F93CF93DF93FC01C680AC2DB0E098
:1024700020E833E341EE51E00E94331A4B015C0146
:1024800022EB37E06D01C4E6D0E000E911E0C901BC
:10249000825B97408C159D05DCF4C90183709927F8
:1024A000892B99F4C901BE010E94EE19892B31F4E0
:1024B000C901B8010E94EE19892B39F480E8880E11
:1024C00081E5981E81E0A81EB11C2F5F3F4FDFCF32
:1024D0006580712C8EE4C81A88EFD80AC60164E6BC
:1024E00070E00E94EE198C01C60160E971E00E9463
:1024F000EE197C01C1E0D0E083E0C822DD24C615DE
:10250000D7052CF5C230D10589F4C114D10471F47A
:102510000115110519F4E114F10441F480E8880E65
:102520008BE3981E86E2A81EB11C0FC0DE01A850E6
:10253000BD4FAC91B0E020E831E541E050E00E94B1
:10254000331A860E971EA81EB91E2196D8CF418138
:10255000228130E0A0E1BEE00E94241A6B017C01E0
:10256000242F30E0ACE3B0E00E94241AC60ED71E40
:10257000E81EF91E8081C80ED11CE11CF11CA4814B
:10258000B0E0119720E831E541E050E00E943E1AAA
:10259000C60ED71EE81EF91EC80CD91CEA1CFB1C6F
:1025A000C701B601DF91CF911F910F91FF90EF907E
:1025B000DF90CF90BF90AF909F908F907F906F9063
:1025C00008951F920F920FB60F9211242F933F93ED
:1025D0008F939F93AF93BF938091B6059091B7056A
:1025E000A091B805B091B9053091B50523E0230F4E
:1025F0002D3720F40196A11DB11D05C026E8230F3B
:102600000296A11DB11D2093B5058093B605909348
:10261000B705A093B805B093B9058091BA0590911C
:10262000BB05A091BC05B091BD050196A11DB11DD2
:102630008093BA059093BB05A093BC05B093BD05EC
:10264000BF91AF919F918F913F912F910F900FBEAE
:102650000F901F9018953FB7F8948091BA0590910C
:10266000BB05A091BC05B091BD0526B5A89B05C0D2
:102670002F3F19F00196A11DB11D3FBF6627782F8E
:10268000892F9A2F620F711D811D911D42E0660FE7
:10269000771F881F991F4A95D1F70895CF92DF922F
:1026A000EF92FF92CF93DF936B017C010E942B137B
:1026B000EB01C114D104E104F10489F00E94561920
:1026C0000E942B136C1B7D0B683E734090F381E0DE
:1026D000C81AD108E108F108C851DC4FEACFDF91F0
:1026E000CF91FF90EF90DF90CF90089582309105C9
:1026F00038F0880F991F880F991F05970197F1F7F8
:102700000895789484B5826084BD84B5816084BD69
:1027100085B5826085BD85B5816085BDEEE6F0E05A
:10272000808181608083E1E8F0E0108280818260B6
:102730008083808181608083E0E8F0E08081816037
:102740008083E1EBF0E0808184608083E0EBF0E067
:10275000808181608083EAE7F0E08081846080830B
:1027600080818260808380818160808380818068B5
:1027700080831092C1000895833081F028F4813065
:1027800099F08230A1F008958730A9F08830B9F02F
:102790008430D1F4809180008F7D03C080918000CF
:1027A0008F7780938000089584B58F7702C084B5B9
:1027B0008F7D84BD08958091B0008F7703C0809194
:1027C000B0008F7D8093B0000895CF93DF9390E0A9
:1027D000FC01E752FA4F2491FC01E351FA4F849136
:1027E000882349F190E0880F991FFC01EB5EF94FB7
:1027F000A591B491855F994FFC01C591D4919FB784
:10280000611108C0F8948C91209582238C93888163
:1028100082230AC0623051F4F8948C91322F3095A3
:1028200083238C938881822B888304C0F8948C91B5
:10283000822B8C939FBFDF91CF9108950F931F93AD
:10284000CF93DF931F92CDB7DEB7282F30E0F90189
:10285000EB53FA4F8491F901E752FA4F1491F901C1
:10286000E351FA4F04910023C9F0882321F06983D2
:102870000E94BC136981E02FF0E0EE0FFF1FE55FBF
:10288000F94FA591B4919FB7F8948C91611103C051
:102890001095812301C0812B8C939FBF0F90DF91F6
:1028A000CF911F910F910895CF93DF93282F30E0A0
:1028B000F901EB53FA4F8491F901E752FA4FD491A1
:1028C000F901E351FA4FC491CC2391F081110E9498
:1028D000BC13EC2FF0E0EE0FFF1FEF5FF94FA59157
:1028E000B4912C912D2381E090E021F480E002C08E
:1028F00080E090E0DF91CF910895FC01818D228DE1
:1029000090E0805C9F4F821B91098F7399270895F7
:10291000FC01918D828D981731F0828DE80FF11DA9
:10292000858D90E008958FEF9FEF0895FC01918DC4
:10293000828D981761F0828DDF01A80FB11D5D9621
:102940008C91928D9F5F9F73928F90E008958FEF8F
:102950009FEF08958AE196E1892B49F080E090E0AD
:10296000892B29F00E941A1681110C9400000895F9
:10297000FC01848DDF01A80FB11DA35ABF4F2C911C
:10298000848D90E001968F739927848FA689B789EB
:102990002C93A089B1898C9180648C93938D848DC4
:1029A000981306C00288F389E02D80818F7D808393
:1029B0000895CF93DF93EC01888D8823C9F0EA89CD
:1029C000FB89808185FD05C0A889B9898C9186FD28
:1029D0000FC00FB607FCF5CF808185FFF2CFA88925
:1029E000B9898C9185FFEDCFCE010E94B814E7CF55
:1029F000DF91CF910895CF92DF92FF920F931F93B3
:102A0000CF93DF931F92CDB7DEB76C0181E0D60183
:102A100058968C9358975B969C915B975C968C919B
:102A20005C97981307C05096ED91FC915197808167
:102A300085FD2EC0F601038D10E00F5F1F4F0F7351
:102A40001127F02EF601848DF81211C00FB607FC85
:102A5000F9CFD6015096ED91FC915197808185FF79
:102A6000F1CFC60169830E94B8146981EBCF838DD1
:102A7000E80FF11DE35AFF4F6083D6015B960C937C
:102A80005B975296ED91FC915397808180620CC0C8
:102A9000D6015696ED91FC91579760835096ED9133
:102AA000FC91519780818064808381E090E00F9059
:102AB000DF91CF911F910F91FF90DF90CF900895FC
:102AC000BF92CF92DF92EF92FF92CF93DF93EC0110
:102AD0006A017B01B22EE889F98982E08083411581
:102AE00081EE580761057105A1F060E079E08DE3A2
:102AF00090E0A70196010E94021A21503109410974
:102B000051095695479537952795211580E1380746
:102B100098F0E889F989108260E874E88EE190E025
:102B2000A70196010E94021A215031094109510959
:102B30005695479537952795EC85FD853083EE852D
:102B4000FF852083188EEC89FD89B082EA89FB8994
:102B5000808180618083EA89FB89808188608083AD
:102B6000EA89FB89808180688083EA89FB8980818A
:102B70008F7D8083DF91CF91FF90EF90DF90CF909A
:102B8000BF9008951F920F920FB60F9211242F93AA
:102B90008F939F93EF93FF93E091CE05F091CF0534
:102BA0008081E091D405F091D50582FD12C090811D
:102BB0008091D7058F5F8F732091D805821751F0D0
:102BC000E091D705F0E0E254FA4F958F8093D70556
:102BD00001C08081FF91EF919F918F912F910F9074
:102BE0000FBE0F901F9018951F920F920FB60F9265
:102BF00011242F933F934F935F936F937F938F9302
:102C00009F93AF93BF93EF93FF938EEB95E00E945A
:102C1000B814FF91EF91BF91AF919F918F917F91E8
:102C20006F915F914F913F912F910F900FBE0F9039
:102C30001F9018958EEB95E00E947D1421E0892B62
:102C400009F420E0822F08951092C1051092C0056A
:102C500088EE93E0A0E0B0E08093C2059093C305B6
:102C6000A093C405B093C50589E093E09093BF0598
:102C70008093BE0585EC90E09093CB058093CA05C8
:102C800084EC90E09093CD058093CC0580EC90E0AF
:102C90009093CF058093CE0581EC90E09093D10581
:102CA0008093D00582EC90E09093D3058093D20579
:102CB00086EC90E09093D5058093D4051092D705CB
:102CC0001092D8051092D9051092DA050895CF9286
:102CD000DF92EF92FF920F931F93CF93DF937C01CC
:102CE0006A01EB0100E010E00C151D0571F069911F
:102CF000D701ED91FC910190F081E02DC70109957C
:102D0000892B19F00F5F1F4FEFCFC801DF91CF91D3
:102D10001F910F91FF90EF90DF90CF900895611574
:102D2000710581F0DB010D900020E9F7AD01415004
:102D30005109461B570BDC01ED91FC910280F38198
:102D4000E02D099480E090E008950C948F16DC014A
:102D5000ED91FC910190F081E02D099465E173E023
:102D60000C948F160F931F93CF93DF93EC010E9467
:102D70008F168C01CE010E94AE16800F911FDF913D
:102D8000CF911F910F9108958F929F92AF92BF9212
:102D9000CF92DF92EF92FF920F931F93CF93DF9327
:102DA000CDB7DEB7A1970FB6F894DEBF0FBECDBF8B
:102DB0007C01C42EE52FCB01D22E19A221E02D15C6
:102DC00010F02AE0D22E8E010F5D1F4F8D2C912C1A
:102DD000A12CB12C6C2D7E2FA50194010E94021A0A
:102DE0008C2DD29E80191124015011098A3014F4BF
:102DF000805D01C0895CF8018083211531054105A2
:102E0000510521F0C22EE32FCA01E4CFB801C7015A
:102E10000E948F16A1960FB6F894DEBF0FBECDBFED
:102E2000DF91CF911F910F91FF90EF90DF90CF90A6
:102E3000BF90AF909F908F900895CF92DF92EF92C6
:102E4000FF920F931F93CF93DF93EC016A017B01F5
:102E50002115310579F4E881F9810190F081E02DA7
:102E6000642FDF91CF911F910F91FF90EF90DF9032
:102E7000CF9009942A303105E9F477FF1AC06DE24A
:102E80000E94A7168C0144275527BA014C195D09E9
:102E90006E097F092AE0CE010E94C416800F911F9F
:102EA000DF91CF911F910F91FF90EF90DF90CF9026
:102EB00008952AE0B701A601CE01DF91CF911F91BD
:102EC0000F91FF90EF90DF90CF900C94C4169A0171
:102ED000AB01662757FD6095762F0C941D170F9355
:102EE0001F93CF93DF93EC019A01AB01662757FD47
:102EF0006095762F0E941D178C01CE010E94AE16A0
:102F0000800F911FDF91CF911F910F91089521158F
:102F1000310541F4DC01ED91FC910190F081E02D4F
:102F2000642F09940C94C4169A01462F50E060E077
:102F300070E00C948717FC01808191810C94F81A41
:102F4000CF93DF93EC0188819981009711F00E9463
:102F5000F81A198218821D821C821B821A82DF9144
:102F6000CF9108950F931F93CF93DF93EC018B01C3
:102F70006F5F7F4F888199810E94871B009731F096
:102F8000998388831B830A8381E001C080E0DF91FD
:102F9000CF911F910F910895CF93DF93EC0188811A
:102FA0009981892B29F08A819B818617970760F484
:102FB000CE010E94B217882341F08C819D81892B1C
:102FC00019F4E881F981108281E0DF91CF910895B1
:102FD000EF92FF920F931F93CF93DF93EC017B014E
:102FE0008A01BA010E94CC17811104C0CE010E944F
:102FF000A01707C01D830C83B701888199810E94A7
:103000005F1CCE01DF91CF911F910F91FF90EF9048
:103010000895CF93DF93EC01FB018617970761F0CA
:10302000608171816115710529F0448155810E948B
:10303000E81702C00E94A017CE01DF91CF9108953A
:10304000FC011182108213821282158214820C9468
:103050000918CF93DF93EC016115710561F0FB0155
:1030600001900020E9F7AF0141505109461B570B71
:103070000E94E81702C00E94A017CE01DF91CF91F5
:1030800008950F931F93CF93DF93CDB7DEB72997A2
:103090000FB6F894DEBF0FBECDBF8C01862FF801AE
:1030A00011821082138212821582148250E0BE01B6
:1030B0006F5F7F4F90E00E948B1CBE016F5F7F4F60
:1030C000C8010E94291829960FB6F894DEBF0FBEDA
:1030D000CDBFDF91CF911F910F9108950F931F9353
:1030E000CF93DF93CDB7DEB762970FB6F894DEBF0C
:1030F0000FBECDBF8C01CB01F8011182108213826B
:1031000012821582148250E0BE016F5F7F4F0E94D1
:10311000751CBE016F5F7F4FC8010E94291862961F
:103120000FB6F894DEBF0FBECDBFDF91CF911F91D8
:103130000F910895EF92FF920F931F93CF93DF9318
:10314000EC017B010C811D816115710511F480E09A
:1031500016C04115510591F0040F151FB8010E94CA
:10316000CC178823A1F3288139818C819D81B701F7
:10317000820F931F0E945F1C1D830C8381E0DF91EF
:10318000CF911F910F91FF90EF900895EF92FF92D2
:103190000F931F93CF93DF9300D000D0CDB7DEB74E
:1031A0007C01862F4AE08E010F5F1F4FB80190E02F
:1031B0000E94801CF80101900020E9F7AF01415006
:1031C0005109401B510BB801C7010E949A180F907A
:1031D0000F900F900F90DF91CF911F910F91FF9063
:1031E000EF900895CF93DF93EC016115710569F0BD
:1031F000FB0101900020E9F7AF0141505109461B46
:10320000570B0E949A18811103C0CE010E94A0178B
:10321000CE01DF91CF910895CF93DF93EC010E940F
:10322000C618811103C0CE010E94A017CE01DF9104
:10323000CF9108950F931F93CF93DF93EB01411527
:103240005105E9F02097D9F0FC01648175812617BA
:103250003707A0F4621B730B8A0101501109601734
:10326000710708F48B01FC0160817181620F731F8B
:10327000A801CE010E94661CC00FD11F1882DF91E9
:10328000CF911F910F9108950E94511C08950E94A3
:1032900081130E9446190E949B03CAEAD4E10E944E
:1032A000F7032097E1F30E94AA14F9CF089504D000
:1032B0006894B1118DC0089570D088F09F5790F038
:1032C000B92F9927B751A0F0D1F0660F771F881F4B
:1032D000991F1AF0BA95C9F712C0B13081F077D0B2
:1032E000B1E0089574C0672F782F8827B85F39F050
:1032F000B93FCCF3869577956795B395D9F73EF4AA
:1033000090958095709561957F4F8F4F9F4F089551
:10331000E89409C097FB3EF490958095709561956F
:103320007F4F8F4F9F4F9923A9F0F92F96E9BB2725
:103330009395F695879577956795B795F111F8CFA1
:10334000FAF4BB0F11F460FF1BC06F5F7F4F8F4F0C
:103350009F4F16C0882311F096E911C0772321F002
:103360009EE8872F762F05C0662371F096E8862F9A
:1033700070E060E02AF09A95660F771F881FDAF7F1
:10338000880F9695879597F9089557FD9058440FA3
:10339000551F59F05F3F71F04795880F97FB991FB4
:1033A00061F09F3F79F08795089512161306140671
:1033B000551FF2CF4695F1DF08C0161617061806FE
:1033C000991FF1CF86957105610508940895E894D9
:1033D000BB2766277727CB0197F9089597FB072E20
:1033E00016F4009407D077FD09D00E94461A07FC16
:1033F00005D03EF4909581959F4F08957095619505
:103400007F4F0895A1E21A2EAA1BBB1BFD010DC020
:10341000AA1FBB1FEE1FFF1FA217B307E407F50784
:1034200020F0A21BB30BE40BF50B661F771F881F60
:10343000991F1A9469F760957095809590959B01F6
:10344000AC01BD01CF010895A29FB001B39FC0019F
:10345000A39F700D811D1124911DB29F700D811DC0
:103460001124911D08950E94241AA59F900DB49FC8
:10347000900DA49F800D911D11240895B7FF0C9409
:10348000331A0E94331A821B930B0895AA1BBB1B8D
:1034900051E107C0AA1FBB1FA617B70710F0A61B54
:1034A000B70B881F991F5A95A9F780959095BC0175
:1034B000CD010895EE0FFF1F0590F491E02D0994C2
:1034C000CF93DF938230910510F482E090E0E09199
:1034D0005D06F0915E0620E030E0A0E0B0E03097BD
:1034E00039F14081518148175907B8F048175907F9
:1034F00071F482819381109729F013969C938E9397
:1035000012972CC090935E0680935D0627C021150C
:10351000310531F04217530718F0A901DB0101C052
:10352000EF019A01BD01DF010280F381E02DD7CFC9
:1035300021153105F9F0281B390B2430310580F4B1
:103540008A819B816115710521F0FB019383828340
:1035500004C090935E0680935D06FE01329644C0DF
:10356000FE01E20FF31F81939193225031093983B9
:1035700028833AC020915B0630915C06232B41F4EE
:10358000209102013091030130935C0620935B0689
:1035900020910001309101012115310541F42DB731
:1035A0003EB74091040150910501241B350BE09179
:1035B0005B06F0915C06E217F307A0F42E1B3F0BAD
:1035C0002817390778F0AC014E5F5F4F2417350795
:1035D00048F04E0F5F1F50935C0640935B0681934B
:1035E000919302C0E0E0F0E0CF01DF91CF91089528
:1035F000CF93DF93009709F487C0FC0132971382C1
:103600001282C0915D06D0915E06209781F42081E0
:103610003181280F391F80915B0690915C068217DB
:10362000930779F5F0935C06E0935B066DC0DE01CD
:1036300020E030E0AE17BF0750F412964D915C9138
:1036400013979D014115510509F1DA01F3CFB383B9
:10365000A28340815181840F951F8A179B0771F4C3
:103660008D919C911197840F951F02969183808371
:1036700012968D919C911397938382832115310526
:1036800029F4F0935E06E0935D063EC0D9011396DF
:10369000FC93EE9312974D915D91A40FB51FEA171D
:1036A000FB0779F480819181840F951F0296D901DF
:1036B00011969C938E938281938113969C938E9303
:1036C0001297E0E0F0E08A819B81009719F0FE01FB
:1036D000EC01F9CFCE01029628813981820F931F28
:1036E00020915B0630915C062817390769F4309702
:1036F00029F410925E0610925D0602C013821282B7
:10370000D0935C06C0935B06DF91CF910895A0E053
:10371000B0E0EDE8FBE10C94C41CEC01CB01209778
:1037200019F40E94601AB8C0FE01E60FF71F9E014F
:1037300022503109E217F30708F4ACC0D9010D910A
:103740001C91119706171707B8F00530110508F4FA
:103750009FC0A801445051094617570708F498C064
:1037600002501109061B170B019311936D937C9363
:10377000CF010E94F81A8CC05B01A01AB10A4E0159
:10378000800E911EA0915D06B0915E06612C712C99
:1037900060E070E0109709F449C0A815B905C9F5B3
:1037A000ED90FC901197670142E0C40ED11CCA1441
:1037B000DB0478F147018A189B08640142E0C40EDB
:1037C000D11C1296BC9012971396AC91B5E0CB1613
:1037D000D10440F0B282A38391828082D9018D937B
:1037E0009C9309C00E5F1F4F0E0D1F1DF901118321
:1037F0000083EB2DFA2F6115710531F0DB01139673
:10380000FC93EE93129744C0F0935E06E0935D063E
:103810003FC06D917C9111976616770608F43B01C5
:10382000BD0112960D90BC91A02DB4CF60915B06A6
:1038300070915C0668157905E9F468167906D0F48C
:1038400040910001509101014115510541F44DB7DE
:103850005EB76091040170910501461B570BE41798
:10386000F507C0F4F0935C06E0935B06F9019183E1
:1038700080830EC00E94601A7C01009759F0A80155
:10388000BE010E94561CCE010E94F81AC70104C056
:10389000CE0102C080E090E0CDB7DEB7EEE00C9440
:1038A000E01C81E090E0F8940C94F71CFB01DC0133
:1038B00002C001900D9241505040D8F70895FB018D
:1038C000DC0101900D920020E1F70895FB01DC017D
:1038D0004150504048F001900D920020C9F701C0BE
:1038E0001D9241505040E0F708954532510520F4B3
:1038F000423010F00C94801CFB011082CB01089523
:10390000BB274A3031F4992322F4BDE2909581958A
:103910009F4F0C94971C4532510520F4423010F013
:103920000C94961CFB011082CB010895BB27FB0170
:103930005527AA27880F991FAA1FA41710F0A41BA8
:1039400083955051B9F7A05DAA3308F0A95DA19302
:10395000009779F7B111B1931192CB010C94B01C7F
:10396000DC01FC01672F71917723E1F7329704C0E6
:103970007C916D9370836291AE17BF07C8F3089571
:103980002F923F924F925F926F927F928F929F926F
:10399000AF92BF92CF92DF92EF92FF920F931F935D
:1039A000CF93DF93CDB7DEB7CA1BDB0B0FB6F8940E
:1039B000DEBF0FBECDBF09942A88398848885F844E
:1039C0006E847D848C849B84AA84B984C884DF80BF
:1039D000EE80FD800C811B81AA81B981CE0FD11DA3
:1039E0000FB6F894DEBF0FBECDBFED010895F89479
:0239F000FFCF07
:1039F20000005F068000010000001E004461746147
:103A0200202020202020204F72610A2000556D695D
:103A120064697461600A200054656D706572617436
:103A22007572610A2000250A2000430A20004453CF
:103A320031333032525443205265616420546573ED
:103A420074002D2D2D2D2D2D2D2D2D2D2D2D2D2D8A
:103A52002D2D2D2D2D00525443206D6F64756C65F4
:103A620020616374697661746564005468652044FA
:103A720053313330322069732073746F7070656410
:103A82002E2020506C656173652072756E207468FB
:103A9200652053657454696D65006578616D706C5D
:103AA2006520746F20696E697469616C697A65203A
:103AB2007468652074696D6520616E642062656753
:103AC200696E2072756E6E696E672E00546865208D
:103AD2004453313330322069732077726974652020
:103AE20070726F7465637465642E20546869732004
:103AF2006E6F726D616C2E00554E49582054696D7F
:103B0200653A2000202054696D65203D20002C205C
:103B1200446174652028442F4D2F5929203D2000EF
:103B22002C20446F57203D20004453313330322043
:103B320072656164206572726F72212020506C651B
:103B420061736520636865636B20746865206369CF
:103B5200726375697472792E0044485431312C2095
:103B620009004F4B2C0900436865636B73756D2028
:103B72006572726F722C090054696D65206F7574DD
:103B8200206572726F722C0900556E6B6E6F776EC4
:103B9200206572726F722C09003A00000000002A40
:103BA2000A67167B0D9D07D30D3F0E5408AB0ED34B
:103BB2000AD20B2409000000002A0A671644199D44
:103BC20007A308BA085408D00805092309240900E4
:103BD2000000002A0A67167B0D9D07D30D3F0E5485
:103BE20008AB0ED30AD20B24091F1C1F1E1F1E1F57
:103BF2001F1E1F1E1F00000000FB1467167D149677
:103C0200148814D9140D0A006E616E00696E660084
:043C12006F76660063
:00000001FF
