:100000000C9412030C943A030C943A030C943A03A4
:100010000C943A030C943A030C943A030C943A036C
:100020000C943A030C943A030C943A030C943A035C
:100030000C943A030C943A030C943A030C943A034C
:100040000C9454150C943A030C9435180C946718BE
:100050000C943A030C943A030C943A030C943A032C
:100060000C943A030C943A0300000000003E5B4FEE
:100070005B3E3E6B4F6B3E1C3E7C3E1C183C7E3C08
:10008000181C577D571C1C5E7F5E1C00183C180016
:10009000FFE7C3E7FF0018241800FFE7DBE7FF30A6
:1000A000483A060E2629792926407F050507407F14
:1000B00005253F5A3CE73C5A7F3E1C1C08081C1C87
:1000C0003E7F14227F22145F5F005F5F06097F017D
:1000D0007F006689956A606060606094A2FFA29468
:1000E00008047E040810207E201008082A1C080836
:1000F0001C2A08081E101010100C1E0C1E0C303884
:100100003E3830060E3E0E06000000000000005F84
:1001100000000007000700147F147F14242A7F2AA0
:100120001223130864623649562050000807030062
:10013000001C2241000041221C002A1C7F1C2A08AE
:10014000083E080800807030000808080808000011
:1001500060600020100804023E5149453E00427F85
:10016000400072494949462141494D331814127FD4
:100170001027454545393C4A494931412111090774
:100180003649494936464949291E000014000000F5
:1001900040340000000814224114141414140041C7
:1001A00022140802015909063E415D594E7C121184
:1001B000127C7F494949363E414141227F414141BC
:1001C0003E7F494949417F090909013E4141517337
:1001D0007F0808087F00417F41002040413F017FA8
:1001E000081422417F404040407F021C027F7F0470
:1001F00008107F3E4141413E7F090909063E4151B9
:10020000215E7F09192946264949493203017F01A8
:10021000033F4040403F1F2040201F3F4038403FA9
:10022000631408146303047804036159494D4300BF
:100230007F4141410204081020004141417F0402F6
:10024000010204404040404000030708002054548D
:1002500078407F284444383844444428384444286B
:100260007F385454541800087E090218A4A49C78BE
:100270007F0804047800447D40002040403D007F1A
:100280001028440000417F40007C047804787C08FA
:100290000404783844444438FC18242418182424CE
:1002A00018FC7C08040408485454542404043F44B3
:1002B000243C4040207C1C2040201C3C4030403CE2
:1002C00044281028444C9090907C4464544C440042
:1002D00008364100000077000000413608000201A6
:1002E0000204023C2623263C1EA1A161123A404092
:1002F000207A385454555921555579412154547810
:1003000041215554784020545579400C1E527212A8
:100310003955555559395454545939555454580030
:1003200000457C410002457D420001457C40F029AA
:100330002429F0F0282528F07C54554500205454F9
:100340007C547C0A097F493249494932324848483D
:1003500032324A4848303A4141217A3A4240207884
:10036000009DA0A07D39444444393D4040403D3C7F
:1003700024FF2424487E4943662B2FFC2F2BFF09A2
:1003800029F620C0887E0903205454794100004496
:100390007D413048484A32384040227A007A0A0A81
:1003A000727D0D19317D2629292F282629292926F4
:1003B00030484D4020380808080808080808382F39
:1003C00010C8ACBA2F102834FA00007B00000814C3
:1003D0002A142222142A1408AA005500AAAA55AAEF
:1003E00055AA000000FF00101010FF00141414FFA5
:1003F000001010FF00FF1010F010F0141414FC0097
:100400001414F700FF0000FF00FF1414F404FC14A0
:100410001417101F10101F101F1414141F00101099
:1004200010F0000000001F101010101F101010100E
:10043000F010000000FF101010101010101010FF2E
:1004400010000000FF140000FF00FF00001F101745
:100450000000FC04F414141710171414F404F4002E
:1004600000FF00F714141414141414F700F71414F4
:1004700014171410101F101F141414F4141010F07B
:1004800010F000001F101F0000001F14000000FCEF
:10049000140000F010F01010FF10FF141414FF14DB
:1004A0001010101F00000000F010FFFFFFFFFFF012
:1004B000F0F0F0F0FFFFFF0000000000FFFF0F0F63
:1004C0000F0F0F38444438447C2A2A3E147E02021F
:1004D0000606027E027E0263554941633844443C6D
:1004E00004407E201E2006027E020299A5E7A599FF
:1004F0001C2A492A1C4C7201724C304A4D4D303036
:1005000048784830BC625A463D3E494949007E0120
:1005100001017E2A2A2A2A2A44445F444440514A3F
:10052000444040444A51400000FF0103E080FF0086
:100530000008086B6B083612362436060F090F06C2
:10054000000018180000001010003040FF010100EA
:100550001F01011E00191D1712003C3C3C3C00000D
:1005600000000013018032118064260104B1020BE7
:1005700014C0020800C10105C5024130C701C1EC29
:10058000011B3A8155642A040000007F2B040000FF
:10059000009F3601C8B70100F20100E08F28242235
:1005A000312B0E53A5421618121A140332E18F177D
:1005B0001B1D0E14112CA53D09272D252B3C321394
:1005C000800A2980FF0000000800020100000304E7
:1005D0000700000000000000000102040810204095
:1005E0008001020408102001020408102004040401
:1005F00004040404040202020202020303030303CC
:100600000300000000230026002900000000002550
:100610000028002B0000000000240027002A000012
:100620001B04971811241FBECFEFD8E0DEBFCDBF4B
:1006300012E0A0E0B1E0EEE1F7E402C005900D9217
:10064000A035B107D9F724E0A0E5B2E001C01D92C2
:10065000A23BB207E1F716E0C4E2D6E004C022975D
:10066000FE010E94EF20C032D107C9F70E94231E6D
:100670000C948D230C94000020E840E860E885EBA2
:1006800093E00E94800B61E085EB93E00E94640B95
:1006900020E030E040E050E06FE171E085EB93E076
:1006A0000E94940B20E230E040E050E06EE271E006
:1006B00085EB93E00E94940B20E330E040E050E0B3
:1006C0006AE371E085EB93E00E94940B20E330E055
:1006D00047E650E068E471E085EB93E00E94940BFC
:1006E00028E330E040E050E06DE471E085EB93E01A
:1006F0000E94940B28E330E047E650E068E471E0A4
:1007000085EB93E00E94940B20E440E460E485EBE9
:1007100093E00E94800B2AE430E040E050E068E57E
:1007200071E085EB93E00E94940B24E530E040E01B
:1007300050E06FE671E085EB93E00E94940B2EE5AC
:1007400030E040E050E066E871E085EB93E00E9425
:10075000940B28E630E040E050E06DE971E085EB75
:1007600093E00E94940B22E730E040E050E064EB1D
:1007700071E085EB93E00E94940B28E730E040E0C5
:1007800050E06BEC71E085EB93E00E94940B20E865
:1007900040E860E885EB93E00E94800B62E085EB27
:1007A00093E00E94640B20E230E047E650E06DECFD
:1007B00071E085EB93E00C94940BEF92FF920F9312
:1007C0001F93E0901401F090150100911601109113
:1007D0001701209118013091190140910E0150919B
:1007E0000F0160911001709111018091120190919F
:1007F00013010E943B1326E040E855E260E070E000
:1008000081E194E00E94D31785EB93E00E94780881
:1008100020E040E060E085EB93E00E94710B0E94D5
:100820003C0360ED77E080E090E01F910F91FF9036
:10083000EF900C94CD1529E048E06AE085EB93E059
:100840000E94640864E087EA93E00C9494148F9209
:100850009F92AF92BF92CF92DF92EF92FF920F934F
:100860001F93CF93DF93CDB7DEB7CA54D1090FB62C
:10087000F894DEBF0FBECDBF41E0BE01635F7F4F86
:1008800087EA93E00E94B71481110BC087EA93E0D6
:100890000E9482146AEF70E080E090E00E94CD1523
:1008A000FFC38D85823241F0883231F0803109F00A
:1008B000F7C3FF24F39401C0F12C87EA93E00E9470
:1008C0005F13BE01635F7F4F87EA93E00E945A1473
:1008D00041E064E487EA93E00E94FC1368EE73E071
:1008E00080E090E00E94CD1587EA93E00E945F13BC
:1008F000BE01635F7F4F87EA93E00E945A1440E095
:100900006EEB87EA93E00E94FC138E010F5F1F4F8E
:100910005E018AE0A80EB11C87EA93E00E943E14B3
:10092000F80181938F01EA15FB05B1F76A8170E048
:10093000762F66278981682BFF2089F0E3E0660F18
:10094000771FEA95E1F788858031A9F42F818CE043
:1009500090E0821B9109607F680F791F0CC08D8128
:10096000807611F4687F07C0803211F46C7F03C079
:10097000803409F46E7F882777FD8095982F0E9438
:10098000371F20E030E040E85DE30E94EB1F4B01A1
:100990005C010E94041F7093A6036093A50320913D
:1009A000A3033091A4036217730781F02091A10380
:1009B0003091A2032617370729F07093A2036093A2
:1009C000A10304C03093A4032093A3036091A30365
:1009D0007091A4034AE0CE018B5B9F4F0E94FF1CE5
:1009E00020E030E043E050E06CE973E0CE018B5B47
:1009F0009F4F0E94F61D81E194E00E94F0161816A8
:100A000019060CF063C04AE061E174E0CE014B9638
:100A10000E94D41B61ED71E0CE0145960E94B11C8D
:100A2000BE016B5E7F4FCE014B960E94E71D182FD3
:100A3000CE0145960E94431C112309F442C041E0B7
:100A400060E070E081E194E00E94641B7093190102
:100A50006093180141E060E070E081E194E00E9461
:100A6000641B709317016093160141E060E070E031
:100A700081E194E00E94641B70931501609314015E
:100A800041E060E070E081E194E00E94641B7093BB
:100A900013016093120141E060E070E081E194E0B5
:100AA0000E94641B709311016093100141E060E0AB
:100AB00070E081E194E00E94641B70930F016093E9
:100AC0000E01CE014B960E94431C95CF80911201DE
:100AD0009091130120916A0330916B038217930761
:100AE000F1F0E0901401F0901501009116011091C1
:100AF0001701209118013091190140910E01509178
:100B00000F0160911001709111010E943B138091BF
:100B100012019091130190936B0380936A030E94DA
:100B200037134AE0BC01CE01CF960E94FF1C0E9401
:100B30002F138C01BE01615C7F4FCE0145960E9450
:100B4000DE1C6BE471E0CE0145960E949B1DB8014E
:100B50000E94B51DBC01CE01C9960E94DE1CCE01CB
:100B600045960E94431C0E9427138C01BE01675CBE
:100B70007F4FCE0145960E94DE1C6BE471E0CE01F2
:100B800045960E949B1DB8010E94B51DBC01CE0177
:100B9000C3960E94DE1CCE0145960E94431C0E9413
:100BA0000F134AE0BC01CE018D960E94FF1C0E94EB
:100BB00017138C01BE01635D7F4FCE0145960E94E5
:100BC000DE1C65ED71E0CE0145960E949B1DB801CB
:100BD0000E94B51DBC01CE0187960E94DE1CCE018D
:100BE00045960E94431C0E941F138C01BE01695D43
:100BF0007F4FCE0145960E94DE1C65ED71E0CE016F
:100C000045960E949B1DB8010E94B51DBC01CE01F6
:100C100081960E94DE1CCE0145960E94431C20E076
:100C200030E04BE050E061E973E0CE01C3960E94F2
:100C3000F61D20E030E049E050E068E873E0CE01C6
:100C400081960E94F61D61E085EB93E00E94640BA3
:100C500020911801309119018091680390916903E6
:100C60002817390781F120E040E060E085EB93E050
:100C70000E94800B28E030E040E050E067E773E03E
:100C800085EB93E00E94940B20E04FEF6FEF85EB34
:100C900093E00E94800B28E030E040E050E061E902
:100CA00073E085EB93E00E94940B80911801909182
:100CB0001901909369038093680361E973E087E702
:100CC00093E00E94F2220E941F1320916C03309146
:100CD0006D038217930771F120E040E060E085EB3F
:100CE00093E00E94800B28E030E042E450E06EE6A2
:100CF00073E085EB93E00E94940B20E04FEF6FEFE1
:100D000085EB93E00E94800B28E030E042E450E065
:100D100068E873E085EB93E00E94940B0E941F1338
:100D200090936D0380936C0368E873E08EE693E024
:100D30000E94F22262E085EB93E00E94640B209116
:100D4000A3033091A40380919F039091A0032817DF
:100D50003907C1F120E040E060E085EB93E00E94BC
:100D6000800B20E230E04CE450E062E873E085EB79
:100D700093E00E94940B20E040E06FEF85EB93E05E
:100D80000E94800B20E230E04CE450E06CE973E01C
:100D900085EB93E00E94940B22E030E0B501A401C2
:100DA00081E194E00E94B31A8091A3039091A4037F
:100DB0009093A00380939F036CE973E082E893E033
:100DC0000E94F22261E085EB93E00E94640B809127
:100DD0000A010E943B169093650280936402BC0155
:100DE000882777FD8095982F1F921F921F922FE1E1
:100DF0002F93A12CB12C6501A394EE24EA9413E067
:100E0000F12E00E010E020E030E0A9010E94FC1B80
:100E100070936302609362024AE0CE014B960E9497
:100E2000FF1C20E030E043E050E06DE572E0CE01D1
:100E30004B960E94F61D6091620270916302769556
:100E4000762F6627779567954AE0CE0145960E94F2
:100E5000FF1C20E030E045E050E065E572E0CE01A7
:100E600045960E94F61D0F900F900F900F902091C5
:100E700062023091630280916002909161022817B2
:100E8000390709F44AC020E040E060E085EB93E0D8
:100E90000E94800B20E330E048E550E06AE572E014
:100EA00085EB93E00E94940B28E330E04CE450E0A3
:100EB00060E572E085EB93E00E94940B2FEF40E039
:100EC00060E085EB93E00E94800B20E330E048E592
:100ED00050E06DE572E085EB93E00E94940B28E30F
:100EE00030E04CE450E065E572E085EB93E00E9471
:100EF000940B8091620290916302909361028093BF
:100F000060026DE572E08AE592E00E94F22265E5FA
:100F100072E080E592E00E94F2220E941713209175
:100F20000C0130910D018217930751F00E941713A5
:100F300060916202709163020E946220892B61F1CC
:100F40006CE271E080E090E00E94CD15CE01459604
:100F50000E94431CCE014B960E94431CCE018196F9
:100F60000E94431CCE0187960E94431CCE018D96A1
:100F70000E94431CCE01C3960E94431CCE01C99619
:100F80000E94431CCE01CF960E94431CCE018B5B76
:100F90009F4F0E94431C84C020E040E060E085EB4E
:100FA00093E00E94800B8FE790E09093670280931C
:100FB00066020FE710E0609166027091670277FDAC
:100FC00018C0FB01EE0FFF1FE859FD4F8081918192
:100FD000A801481B590B85EB93E00E94A70B809159
:100FE0006602909167020197909367028093660270
:100FF000E2CF20E030E080E090E00196F901E8598E
:10100000FD4F42815381518340832E5F3F4F8F3785
:1010100091059CF39093670280936602FC01EE0FAA
:10102000FF1FE859FD4F8091A3039091A403918382
:1010300080830E94171390930D0180930C018FE71A
:1010400090E090936702809366020FE710E0809132
:1010500066029091670297FD73CF20E040E06FEF4A
:1010600085EB93E00E94800B6091660270916702AD
:10107000FB01EE0FFF1FE859FD4F80819181A80110
:10108000481B590B85EB93E00E94A70B80916602E9
:101090009091670201979093670280936602D7CF81
:1010A000C65BDF4F0FB6F894DEBF0FBECDBFDF913A
:1010B000CF911F910F91FF90EF90DF90CF90BF9055
:1010C000AF909F908F900895CF93DF93EC010E9493
:1010D000150C8BED91E09983888380EA90E09987E5
:1010E000888780E890E09B878A87DF91CF91089579
:1010F000CF93DF93EC010E94130E61E0CE01DF91EC
:10110000CF910C9427102F923F924F925F926F9243
:101110007F928F929F92AF92BF92CF92DF92EF9287
:10112000FF920F931F93CF93DF9300D000D0CDB7E2
:10113000DEB74C017C836B836A015901C8018701CA
:10114000AC014C195D0957FF03C0519541955109F8
:1011500095016B817C81261B370B37FF03C03195CE
:101160002195310922242394312C2417350714F0BA
:10117000212C312C2114310459F03A2D2B2D5C01F6
:10118000832F922F3B812C81DC82CB82C32ED22EE7
:10119000AB81BC81AA16BB065CF43C2D2D2D6C01E5
:1011A000832F922F3B812C81BC82AB82A32EB22E47
:1011B0002501EB81FC814E1A5F0A3C016C187D0809
:1011C00077FE03C0719461947108720157FE03C0E9
:1011D000FFEFEF1AFF0AF594E794C816D9062CF42E
:1011E00021E030E03A83298324C06FEF7FEF7A83D8
:1011F00069831FC0D401ED91FC910480F581E02D3D
:10120000980121143104D9F04B815C81B601C401ED
:101210000995E618F708F7FE06C0E981FA81CE0EB7
:10122000DF1EE40CF51C2B813C812F5F3F4F3C837C
:101230002B836B817C81A616B706E4F604C0A60159
:101240006B817C81E4CF0F900F900F900F90DF9116
:10125000CF911F910F91FF90EF90DF90CF90BF90B3
:10126000AF909F908F907F906F905F904F903F9046
:101270002F9008956F927F928F929F92AF92BF921C
:10128000CF92DF92EF92FF920F931F93CF93DF9352
:10129000EC015B016A0139014801E881F9810284AE
:1012A000F385E02D87010995E881F981A601480DB4
:1012B000591D415051090284F385E02D9301B50178
:1012C000CE010995E881F9810084F185E02D940132
:1012D000A601B501CE010995E881F981B501660D38
:1012E000771D615071090084F185E02D9401A601FC
:1012F000CE010995DF91CF911F910F91FF90EF9053
:10130000DF90CF90BF90AF909F908F907F906F9025
:101310000895EF92FF920F931F93DC01ED91FC91E2
:10132000240F351F215031090680F781E02D780107
:1013300089019B0109951F910F91FF90EF900895EE
:10134000EF92FF920F931F93DC01ED91FC91260F1A
:10135000371F215031090680F781E02D78018A017D
:1013600009951F910F91FF90EF9008956F927F92D2
:101370008F929F92AF92BF92CF92DF92EF92FF92A5
:101380000F931F93CF93DF935C014A0169013801EA
:10139000EB01C60ED71ECC15DD0574F4D501ED9119
:1013A000FC910084F185E02D87019301A401BE0129
:1013B000C50109952196EFCFDF91CF911F910F9134
:1013C000FF90EF90DF90CF90BF90AF909F908F9065
:1013D0007F906F900895EF92FF920F931F93DC011F
:1013E000ED91FC9111971A960D911C911B971896EF
:1013F0002D913C9119970684F785E02D7B0140E003
:1014000050E060E070E009951F910F91FF90EF9020
:10141000089508954C7F38E0439FC001112430E0C7
:1014200073E0359527957A95E1F7822B932B687FAA
:10143000962B0895FC011382128285EF91E091832F
:10144000808375836483578346837187608753875E
:101450004287158A158614861786168621E0248B06
:101460008FEF9FEF938B828B918B808B268B0895D0
:101470002F923F924F925F926F927F928F929F92A4
:10148000AF92BF92CF92DF92EF92FF920F931F9392
:10149000CF93DF93CDB7DEB72C970FB6F894DEBFAE
:1014A0000FBECDBF9C878B873A0118870F83FA86C2
:1014B000E986CD82DC0118968D919C911997681769
:1014C00079070CF094C01A968D919C911B97481740
:1014D00059070CF08CC08C2C912CCB01B6E0CB9E24
:1014E000800D911D1124181619060CF080C0C4013E
:1014F00013E0880F991F1A95E1F7840F951F1816AE
:1015000019060CF074C0F5E02F9F200111245B0137
:101510006B011C82920128593F4F2901461A570A34
:101520003C81353031F0F201EA0DFB1D44914B83D3
:1015300001C01B827A82698213011E828B8180FF27
:1015400013C0AB85BC85ED91FC91BD81B13031F408
:101550000480F581E02D2F81388519C00684F78538
:10156000E02DEF80F8841EC0E985FA852F8138854B
:10157000E217F307F9F0AB85BC85ED91FC91BD81D5
:10158000B13059F40480F581E02D29853A85A10117
:10159000B5018B859C8509950DC00684F785E02DE6
:1015A000E984FA848401940149815A81B6018B85CA
:1015B0009C850995EB81E695EB83FE81FF5FFE83B9
:1015C00029813A81280D391D3A8329833FEF231A57
:1015D000330AF83009F0B2CF4C814F5F4C83C80C0E
:1015E000D91C8FEFA81AB80A463009F099CF2C966B
:1015F0000FB6F894DEBF0FBECDBFDF91CF911F9124
:101600000F91FF90EF90DF90CF90BF90AF909F90A1
:101610008F907F906F905F904F903F902F900895A4
:10162000CF92EF92FF920F931F93CF93DF93EC0132
:10163000262F6A3049F42C898E859F8538E0239FB8
:10164000800D911D112432C06D30A1F1EA88FB8814
:10165000088919894E855F856C857D85CC880E94B7
:10166000380A2C89422F50E08C859D8536E0239FD7
:10167000800D911D11249D878C872E892223D1F006
:101680006AEF64039001659F300D112468857985A8
:10169000260F371F281739076CF403E0440F551F36
:1016A0000A95E1F78E859F85840F951F9F878E870A
:1016B0001D861C8681E090E0DF91CF911F910F91F4
:1016C000FF90EF90CF900895611101C061E0FC019F
:1016D000648B0895DC01ED91FC910088F189E02D87
:1016E0000994CF93DF93EC01E881F9810488F589AF
:1016F000E02D0995BC01CE01DF91CF910C946A0BCE
:10170000CF93DF93EC01E881F9810488F589E02D1E
:10171000099521E0298F988F8F8B998B888B9B8BD4
:101720008A8BDF91CF910895FC01818D882371F020
:10173000168A8789908D918B808B938B828B5587AE
:10174000448737872687CF010C9418190895DC0148
:1017500059962C915997222359F0ED91FC911197AC
:1017600057962D913C9158970480F581E02D09946E
:101770000895EF92FF920F931F93DC01ED91FC917E
:1017800011971A960D911C911B9718962D913C91CB
:1017900019970684F785E02D7B0140E050E060E07A
:1017A00070E009951F910F91FF90EF90089520919F
:1017B000EB03222399F03FB7F8942091EB032130FB
:1017C00059F42DB32093E9034DB32091EA032095FA
:1017D00024232DBB3FBF02C03093E9038CBD9DBDC8
:1017E00008958091EB03882361F09FB7F8942091CE
:1017F000EB038091E903213019F48DBB9FBF08955D
:101800008FBF08959C01207E3770AC01542F442770
:10181000550F550F550F242B352B892F992786955A
:1018200086958695822B932B0895EF92FF920F93C6
:101830001F93CF93DF931F92CDB7DEB77C01062FA6
:10184000142F40EA50E060E870E029830E941A0AF1
:101850008FE092E0F7019183808380E5878F10A26B
:1018600001A712A7298123A781E0868F15A614A6B8
:101870000F90DF91CF911F910F91FF90EF900895FE
:10188000FC01868D882339F06EBD00000DB407FE83
:10189000FDCF8EB5089588E090E030E8A1A1B2A117
:1018A00026A5432F462321F04C91422B4C9304C094
:1018B0004C91209524232C93A3A1B4A12C9147A54E
:1018C000242B2C93A3A1B4A14C9127A520952423CC
:1018D0002C933695019711F708950F931F93CF938B
:1018E000DF931F92CDB7DEB78C01DC015E968C9141
:1018F0005E97882341F05F968D919C9190976983C4
:101900000E94D70B6981D8019796ED91FC91989729
:101910009081D1968C91D1978095892380839596DB
:10192000ED91FC9196979081D0968C91809589232A
:101930008083C8010E94400CD8019596ED91FC91DE
:1019400096978081D0969C91D097892B80835E96C4
:101950008C91882339F00F90DF91CF911F910F91D7
:101960000C94F10B0F90DF91CF911F910F9108957F
:10197000662311F061E201C060E20C946D0C0F93DC
:101980001F93CF93DF931F92CDB7DEB78C01DC019D
:101990005E968C915E97882341F05F968D919C9125
:1019A000909769830E94D70B6981D8019796ED9132
:1019B000FC9198978081D1969C91D197892B8083B7
:1019C0009596ED91FC9196979081D0968C9180950B
:1019D00089238083C8010E94400CD8019596ED911F
:1019E000FC9196978081D0969C91D097892B80838B
:1019F0005E968C91882339F00F90DF91CF911F91E3
:101A00000F910C94F10B0F90DF91CF911F910F91DB
:101A10000895AF92BF92CF92DF92EF92FF920F9311
:101A20001F93CF93DF937C01EB012196FB01B490D0
:101A3000BB2009F435C0FE016491C7010E946D0C02
:101A40006E01F2E0CF0ED11CFE013196C4918C2FB5
:101A50008078A82ECF778601DC2FDC0DD01741F0DF
:101A6000F8016491C7010E94BF0C0F5F1F4FF6CFB2
:101A7000C6018C0F911DEC01AA2081F08C010F5F33
:101A80001F4FFC01649170E06F3F710511F464EF2A
:101A900071E080E090E00E94CD15E801BA94C8CFD3
:101AA000DF91CF911F910F91FF90EF90DF90CF903A
:101AB000BF90AF9008950F931F93CF93DF93EC01E6
:101AC0008B011BAA1AAA61E08AA50E94811661E017
:101AD00089A50E94811689A590E0FC01E351FA4F87
:101AE000E491F0E0EE0FFF1FE55FF94F259134918F
:101AF0003EA32DA3FC01E752FA4F849188AB8AA53F
:101B000090E0FC01E351FA4FE491F0E0EE0FFF1F8B
:101B1000E55FF94F2591349138A72FA3FC01E752D7
:101B2000FA4F849189AB8E8D882331F00E94571033
:101B300080E58F8F18A23CC061E08DA50E948116C0
:101B400061E08CA50E9481168DA590E0FC01E35117
:101B5000FA4FE491F0E0EE0FFF1FE55FF94FA5911A
:101B6000B491BCA3ABA3FC01E752FA4F84918FA7B9
:101B70008CA590E0FC01E351FA4FE491F0E0EE0F08
:101B8000FF1FE55FF94F259134913AA329A3FC018A
:101B9000E752FA4F84918EA78C919FA59095892347
:101BA0008C93E9A1FAA190818EA5809589238083E9
:101BB000EDA1FEA1908188A98095892380838BA5C2
:101BC000882309F161E00E94811661E08BA50E94E3
:101BD000BA1664EF71E080E090E00E94CD1560E0FD
:101BE0008BA50E94BA1664EF71E080E090E00E943D
:101BF000CD1561E08BA50E94BA1664EF71E080E01C
:101C000090E00E94CD150115110541F0B801CE01FB
:101C1000DF91CF911F910F910C94090DDF91CF911E
:101C20001F910F91089563E675E00C945B0DEF92A0
:101C3000FF920F931F93CF93DF9300D0CDB7DEB702
:101C40007C01162F6AE229834A830E946D0C60E0B2
:101C5000C7010E94BF0CF70162A9610FC7010E9472
:101C6000BF0C60E0C7010E94BF0CF70162A9298187
:101C7000620FC7010E94BF0C6BE2C7010E946D0C8E
:101C800060E0C7010E94BF0CF70163A94A81640F9D
:101C9000C7010E94BF0C60E0C7010E94BF0CF701A2
:101CA00063A9600FC7010E94BF0C6CE2C7010F90CF
:101CB0000F90DF91CF911F910F91FF90EF900C94B7
:101CC0006D0CFF920F931F93CF93DF93EC01122FB4
:101CD000F32E77FD48C0A885B9856A177B070CF0FD
:101CE00042C057FD40C0AA85BB854A175B07DCF59B
:101CF00001E0040F21E0260F0E94170E8E8D88232D
:101D000021F08F8D98A10E94D70BEFA1F8A58081BB
:101D100099A9892B8083EDA1FEA1808148A94095D6
:101D2000482340838D8D823031F4812F9F2D0E9476
:101D3000020C182FF92E6F2DCE010E94400C612F3E
:101D4000CE010E94400CEDA1FEA1808198A9892BB3
:101D500080838E8D882339F0DF91CF911F910F9171
:101D6000FF900C94F10BDF91CF911F910F91FF9099
:101D70000895DF92EF92FF920F931F93CF93DF931B
:101D8000EC017901D02E88859985681779070CF0C8
:101D900054C02A853B85421753070CF04EC0CA0138
:101DA0008E0D9F1D281739071CF47901E41AF50AD6
:101DB0000FEF040F0E0D262FCE010E94170E8D8DF2
:101DC000823031F48D2D912F0E94020CD82E192FC4
:101DD0008E8D882321F08F8D98A10E94D70BEFA1C3
:101DE000F8A5808199A9892B8083EDA1FEA190811E
:101DF00088A9809589238083E114F10461F0612F23
:101E0000CE010E94400C6D2DCE010E94400C81E05D
:101E1000E81AF108F1CFEDA1FEA1808198A9892BE4
:101E200080838E8D882349F0DF91CF911F910F9190
:101E3000FF90EF90DF900C94F10BDF91CF911F9109
:101E40000F91FF90EF90DF900895DF92EF92FF9255
:101E50000F931F93CF93DF93EC017901D02E288548
:101E60003985621773070CF054C08A859B85481723
:101E700059070CF04EC0CB018E0D9F1D2817390756
:101E80001CF47901E61AF70A2FEF260F2E0D042F06
:101E9000CE010E94170E8D8D823031F48D2D912F41
:101EA0000E94020CD82E192F8E8D882321F08F8D41
:101EB00098A10E94D70BEFA1F8A5808199A9892B41
:101EC0008083EDA1FEA1908188A9809589238083DC
:101ED000E114F10461F0612FCE010E94400C6D2DE0
:101EE000CE010E94400C81E0E81AF108F1CFEDA18B
:101EF000FEA1808198A9892B80838E8D882349F04B
:101F0000DF91CF911F910F91FF90EF90DF900C9494
:101F1000F10BDF91CF911F910F91FF90EF90DF9028
:101F200008956F927F928F929F92AF92BF92CF92BD
:101F3000DF92EF92FF920F931F93CF93DF93EC0109
:101F40006B015A01490138012885398562177307E9
:101F50000CF06EC08A859B85481759070CF068C045
:101F6000AB01480D591D241735071CF44901861A89
:101F7000970A9501260D371D821793071CF43C0123
:101F80006A187B088D8D823021F4C7010E94020CF3
:101F90007C010FEF0A0D060D2FEF2C0D280D4A2D99
:101FA0006C2DCE010E94170E8E8D882321F08F8D0F
:101FB00098A10E94D70BEFA1F8A5808199A9892B40
:101FC0008083EDA1FEA1908188A9809589238083DB
:101FD00016141704A4F464011C141D0464F46F2D7A
:101FE000CE010E94400C6E2DCE010E94400C81E07B
:101FF000C81AD108F1CF81E0681A7108E9CFEDA1C4
:10200000FEA1808198A9892B80838E8D882381F001
:10201000DF91CF911F910F91FF90EF90DF90CF90C4
:10202000BF90AF909F908F907F906F900C94F10B2A
:10203000DF91CF911F910F91FF90EF90DF90CF90A4
:10204000BF90AF909F908F907F906F9008951F9357
:10205000CF93DF93EC01162F66E30E946D0C612F86
:1020600063706D8B623041F0633089F0613011F044
:1020700068EC03C068EA0CC068E0CE010E94BF0CA7
:1020800080E890E09987888780EA90E00AC068E657
:10209000CE010E94BF0C80EA90E09987888780E893
:1020A00090E09B878A87DF91CF911F910895CF930E
:1020B000CFB7F8948091EC03811127C0E7EFF5E0EA
:1020C0008491E3EEF5E09491E82FF0E0EE0FFF1F2E
:1020D000EB5EF94FA591B4918C91892321F461E0D5
:1020E0008AE00E94BA1661E08AE00E9481168CB5EF
:1020F00080618CBD8CB580648CBD61E08DE00E94F8
:10210000811661E08BE00E9481168091EC038F5F65
:102110008093EC03CFBFCF9108956F927F928F92FF
:102120009F92AF92BF92CF92DF92EF92FF920F9366
:102130001F93CF93DF93EA012CE3C22ED12CE12C25
:10214000F12CA70196010E9476206883CA01B9018B
:10215000A70196010E9476206983CA01B90128E18E
:1021600030E040E050E00E94762049015A016A8345
:10217000CA01B9016C5F7F4F8F4F9F4F27E030E05E
:1021800040E050E00E9476206F5F6B8300E010E03B
:10219000980140E054E6652E712C60E9C62EDD24DE
:1021A000D394E42FF0E0EE54F84F7F0183E0E8226F
:1021B000FF24E114F10489F4CF01B3010E946220ED
:1021C000892B29F08EE691E0A0E0B0E00AC0CF01B3
:1021D000B6010E946220892BA9F38DE691E0A0E070
:1021E000B0E0080F191F2A1F3B1FD901C801AA27F9
:1021F000BB2788169906AA06BB0610F04F5FD1CF01
:102200004E83E114F10499F4CF0164E670E00E947A
:102210006220892B29F08EE691E0A0E0B0E00BC0AF
:10222000CF0160E971E00E946220892BA1F38DE665
:1022300091E0A0E0B0E0081B190B2A0B3B0B801AC1
:10224000910AA20AB30ACF0164E670E00E946220FC
:102250009C01CF0160E971E00E946220E5E2F2E0BA
:10226000A0E0A13059F4E114F10451F42115310535
:1022700011F04DE106C00097E1F302C0408101C0BA
:102280004CE150E060E070E084169506A606B706C3
:1022900040F0841A950AA60AB70AAF5F3196AC30AF
:1022A00001F7AF5FAD8383948C82DF91CF911F9153
:1022B0000F91FF90EF90DF90CF90BF90AF909F90E5
:1022C0008F907F906F900895CF92DF92EF92FF9260
:1022D0006B017C018091FD039091FE03A091FF03AF
:1022E000B0910004C816D906EA06FB0671F041E079
:1022F00054E0C701B6010E948D10C092FD03D09238
:10230000FE03E092FF03F0920004FF90EF90DF9055
:10231000CF9008950E9464118091070490E08E543C
:10232000984F08956F927F928F929F92AF92BF9233
:10233000CF92DF92EF92FF920F931F93CF93DF9391
:10234000FC01C680AC2DB0E020E833E341EE51E063
:102350000E94C6204B015C0122EB37E06D01C4E610
:10236000D0E000E911E0C901825B97408C159D0522
:10237000DCF4C90183709927892B99F4C901BE0146
:102380000E946220892B31F4C901B8010E946220A9
:10239000892B39F480E8880E81E5981E81E0A81E1B
:1023A000B11C2F5F3F4FDFCF6580712C8EE4C81AC0
:1023B00088EFD80AC60164E670E00E9462208C01B2
:1023C000C60160E971E00E9462207C01C1E0D0E0BA
:1023D00083E0C822DD24C615D7052CF5C230D1050F
:1023E00089F4C114D10471F40115110519F4E11433
:1023F000F10441F480E8880E8BE3981E86E2A81E63
:10240000B11C0FC0DE01AC5DBD4FAC91B0E020E867
:1024100031E541E050E00E94C620860E971EA81EBE
:10242000B91E2196D8CF4181228130E0A0E1BEE0E3
:102430000E94B7206B017C01242F30E0ACE3B0E0B8
:102440000E94B720C60ED71EE81EF91E8081C80E56
:10245000D11CE11CF11CA481B0E0119720E831E50A
:1024600041E050E00E94D120C60ED71EE81EF91EA2
:10247000C80CD91CEA1CFB1CC701B601DF91CF9127
:102480001F910F91FF90EF90DF90CF90BF90AF9092
:102490009F908F907F906F9008950F931F936093FC
:1024A000F9037093FA038093FB039093FC0300916C
:1024B0001A0110911B0120911C0130911D01060F82
:1024C000171F281F391F0093F1031093F203209365
:1024D000F3033093F40382E090E09093F003809351
:1024E000EF030E949E156093F5037093F6038093AB
:1024F000F7039093F8031F910F910895CF92DF9205
:10250000EF92FF920F931F930E949E15C090F503C8
:10251000D090F603E090F703F090F8036C197D0972
:102520008E099F090091F9031091FA032091FB0392
:102530003091FC03683E734081059105D8F00F5F30
:102540001F4F2F4F3F4F0093F9031093FA0320932F
:10255000FB033093FC0348EEC40E43E0D41EE11CA1
:10256000F11CC092F503D092F603E092F703F092CB
:10257000F803CACF8091F1039091F203A091F30385
:10258000B091F403081719072A073B07C8F1E09137
:10259000ED03F091EE03309799F1099561157105FE
:1025A0008105910519F00E944D122AC080911A01EF
:1025B00090911B01A0911C01B0911D014091F90364
:1025C0005091FA036091FB037091FC03840F951FF7
:1025D000A61FB71F8093F1039093F203A093F30318
:1025E000B093F40381E090E02091EF033091F00389
:1025F000232B11F480E090E09093F0038093EF039D
:102600006091F9037091FA038091FB039091FC03B0
:102610001F910F91FF90EF90DF90CF9008950E944F
:102620007E120E9464118091030490E008950E943C
:102630007E120E9464118091020490E008950E942D
:102640007E120E9464118091010490E008950E941E
:102650007E120E9464118091050490E008950E940A
:102660007E120E9464118091060490E008950E94F9
:102670007E120C948A11EF92FF920F9394E6E91662
:10268000F1042CF092EBE91A97E0F90A03C09EE1FD
:10269000E90EF11CE0920704009306042093050460
:1026A00080930304609302044093010481E094E06A
:1026B0000E9492110F91FF90EF900C944D12FF9297
:1026C0000F931F93CF93DF93FC010081C181D281CF
:1026D000F8948981F02EF0948F21898378941DE7F6
:1026E000115029F182E090E00E94F5158881802345
:1026F000B9F3F8948A818F218A838981802B898319
:10270000789480EE91E00E94F515F89489818F21EC
:10271000898386E490E00E94F5158881802311E08A
:1027200009F010E078948AE991E00E94F515812F74
:10273000DF91CF911F910F91FF9008951F93CF9339
:10274000DF93FC011081C181D281912F909560FFB0
:1027500012C0F8948A8189238A838981812B898395
:102760008AE090E00E94F5158A81812B8A83789413
:1027700087E390E011C0F8948A8189238A83898154
:10278000812B898381E490E00E94F5158A81812B59
:102790008A83789485E090E0DF91CF911F910C942B
:1027A000F5150F931F93CF93DF93FC011081C18127
:1027B000D281F8948981812B89838A81012F0095A8
:1027C00080238A8383E090E00E94F515898180232D
:1027D00089838AE090E00E94F515C881789485E3AA
:1027E00090E00E94F5151C2381E009F480E0DF9160
:1027F000CF911F910F910895CF92DF92EF92FF92A8
:102800000F931F93CF93DF931F92CDB7DEB76C0169
:10281000E62E08E010E0FF24F39461E09F2D9E2156
:1028200009F460E0C60149830E949E13FF0C015029
:10283000110949810115110581F7411115C0F8945D
:10284000D6011196ED91FC91129791818C91809512
:10285000892381831196ED91FC91129792818C913D
:1028600080958923828378940F90DF91CF911F9177
:102870000F91FF90EF90DF90CF900895EF92FF922D
:102880000F931F93CF93DF938C01C8E0D0E0F12C1E
:10289000EE24E394C8010E94D1138111FE28EE0CAE
:1028A0002197C1F78F2DDF91CF911F910F91FF904D
:1028B000EF900895CF92DF92FF920F931F93CF93E3
:1028C000DF931F92CDB7DEB78C01F62E40E065E5B1
:1028D00079830E94FC13CF2C7981D72E88E0F82EC3
:1028E000F60161916F0140E0C8010E94FC13FA9467
:1028F000B9F70F90DF91CF911F910F91FF90DF906B
:10290000CF900895FC0113861586148627E030E0E9
:10291000DF01A20FB31F13961C922115310519F088
:1029200021503109F5CF08951F93CF93DF93EC0128
:10293000162F60E0812F0E948116612F70E0FB014D
:10294000E752FA4FE491E883FB01E351FA4FE49137
:10295000F0E0EE0FFF1FEF5FF94F859194919A839E
:102960008983CE01DF91CF911F910C948214AF9295
:10297000BF92CF92DF92EF92FF920F931F93CF936C
:10298000DF931F92CDB7DEB75C01D62EE72EFC0198
:102990008585811164C0C50149830E945F13498107
:1029A000811105C0F50113861586148671C0442374
:1029B00019F040E060EF02C040E06CEEC5010E94FB
:1029C000FC1301E0F12CC12C11E0C5010E94D113D0
:1029D000682FC50169830E94D1136981613019F4A0
:1029E0008130B9F433C02F2D30E068131BC0F501DE
:1029F0008385181730F4E20FF31F8381802349F495
:102A000002C0181731F060E0193058F4F50114874E
:102A100008C0F501EF0DF11D8381802B838361E0F8
:102A200009C0C12EF501E20FF31F8381902F90950D
:102A300089238383C5010E949E131F5F000F11F439
:102A4000F39401E0F7E0FF1508F0BFCF113438F040
:102A5000F501C386C11009C081E0858706C0F50174
:102A600013861586148680E013C0F50183818823C0
:102A7000B1F3ED2DFE2D80E090E0D501A80FB91F38
:102A800013962C912193019688309105B1F781E03E
:102A90000F90DF91CF911F910F91FF90EF90DF90FA
:102AA000CF90BF90AF9008951F920F920FB60F92E4
:102AB00011242F933F938F939F93AF93BF93809154
:102AC000090490910A04A0910B04B0910C04309178
:102AD000080423E0230F2D3720F40196A11DB11D1A
:102AE00005C026E8230F0296A11DB11D20930804FE
:102AF0008093090490930A04A0930B04B0930C04F0
:102B000080910D0490910E04A0910F04B0911004D7
:102B10000196A11DB11D80930D0490930E04A09306
:102B20000F04B0931004BF91AF919F918F913F918B
:102B30002F910F900FBE0F901F9018952FB7F894FC
:102B40006091090470910A0480910B0490910C0427
:102B50002FBF08953FB7F89480910D0490910E0413
:102B6000A0910F04B091100426B5A89B05C02F3F7B
:102B700019F00196A11DB11D3FBF6627782F892F3F
:102B80009A2F620F711D811D911D42E0660F771F04
:102B9000881F991F4A95D1F70895CF92DF92EF923F
:102BA000FF92CF93DF936B017C010E94AA15EB018A
:102BB000C114D104E104F10489F00E94321E0E9484
:102BC000AA156C1B7D0B683E734090F381E0C81A18
:102BD000D108E108F108C851DC4FEACFDF91CF916D
:102BE000FF90EF90DF90CF9008958230910538F0FC
:102BF000880F991F880F991F05970197F1F708957E
:102C0000789484B5826084BD84B5816084BD85B5C7
:102C1000826085BD85B5816085BDEEE6F0E080818E
:102C200081608083E1E8F0E01082808182608083AF
:102C3000808181608083E0E8F0E080818160808332
:102C4000E1EBF0E0808184608083E0EBF0E0808164
:102C500081608083EAE7F0E0808184608083808106
:102C600082608083808181608083808180688083AE
:102C70001092C10008958E3008F08E508770209118
:102C80001E0190E4299F90011124822B80937C00E7
:102C900080917A00806480937A0080917A0086FD2A
:102CA000FCCF809178002091790090E0922B0895DC
:102CB000833081F028F4813099F08230A1F00895BA
:102CC0008730A9F08830B9F08430D1F48091800049
:102CD0008F7D03C0809180008F778093800008955E
:102CE00084B58F7702C084B58F7D84BD08958091AF
:102CF000B0008F7703C08091B0008F7D8093B000CB
:102D00000895CF93DF9390E0FC01E752FA4F2491AE
:102D1000FC01E351FA4F8491882349F190E0880F38
:102D2000991FFC01EB5EF94FA591B491855F994F16
:102D3000FC01C591D4919FB7611108C0F8948C91A2
:102D4000209582238C93888182230AC0623051F4BB
:102D5000F8948C91322F309583238C938881822B29
:102D6000888304C0F8948C91822B8C939FBFDF9151
:102D7000CF9108950F931F93CF93DF931F92CDB7F9
:102D8000DEB7282F30E0F901EB53FA4F8491F901B7
:102D9000E752FA4F1491F901E351FA4F04910023DD
:102DA000C9F0882321F069830E9458166981E02FB9
:102DB000F0E0EE0FFF1FE55FF94FA591B4919FB7CB
:102DC000F8948C91611103C01095812301C0812B6F
:102DD0008C939FBF0F90DF91CF911F910F9108951A
:102DE000FC01818D228D90E0805C9F4F821B9109B8
:102DF0008F7399270895FC01918D828D981731F07A
:102E0000828DE80FF11D858D90E008958FEF9FEF83
:102E10000895FC01918D828D981761F0828DDF01FC
:102E2000A80FB11D5D968C91928D9F5F9F73928FBD
:102E300090E008958FEF9FEF08958DE898E1892B3A
:102E400049F080E090E0892B29F00E948D188111D3
:102E50000C9400000895FC01848DDF01A80FB11DC2
:102E6000A35ABF4F2C91848D90E001968F739927C0
:102E7000848FA689B7892C93A089B1898C918064AD
:102E80008C93938D848D981306C00288F389E02D6E
:102E900080818F7D80830895CF93DF93EC01888DAF
:102EA0008823C9F0EA89FB89808185FD05C0A8894E
:102EB000B9898C9186FD0FC00FB607FCF5CF8081D4
:102EC00085FFF2CFA889B9898C9185FFEDCFCE011E
:102ED0000E942B17E7CFDF91CF910895CF92DF9219
:102EE000FF920F931F93CF93DF931F92CDB7DEB75F
:102EF0006C0181E0D60158968C9358975B969C9113
:102F00005B975C968C915C97981307C05096ED91F7
:102F1000FC915197808185FD2EC0F601038D10E054
:102F20000F5F1F4F0F731127F02EF601848DF812DB
:102F300011C00FB607FCF9CFD6015096ED91FC9168
:102F40005197808185FFF1CFC60169830E942B17BD
:102F50006981EBCF838DE80FF11DE35AFF4F60834A
:102F6000D6015B960C935B975296ED91FC9153972B
:102F7000808180620CC0D6015696ED91FC915797E6
:102F800060835096ED91FC9151978081806480839D
:102F900081E090E00F90DF91CF911F910F91FF9012
:102FA000DF90CF900895BF92CF92DF92EF92FF9281
:102FB000CF93DF93EC016A017B01B22EE889F98996
:102FC00082E08083411581EE580761057105A1F00B
:102FD00060E079E08DE390E0A70196010E94762001
:102FE0002150310941095109569547953795279543
:102FF000211580E1380798F0E889F989108260E8A6
:1030000074E88EE190E0A70196010E94762021509D
:103010003109410951095695479537952795EC8512
:10302000FD853083EE85FF852083188EEC89FD8930
:10303000B082EA89FB89808180618083EA89FB898B
:10304000808188608083EA89FB89808180688083B1
:10305000EA89FB8980818F7D8083DF91CF91FF900A
:10306000EF90DF90CF90BF9008951F920F920FB610
:103070000F9211242F938F939F93EF93FF93E091DF
:103080002104F09122048081E0912704F09128042A
:1030900082FD12C0908180912A048F5F8F732091EE
:1030A0002B04821751F0E0912A04F0E0EF5EFB4F11
:1030B000958F80932A0401C08081FF91EF919F91A9
:1030C0008F912F910F900FBE0F901F9018951F9208
:1030D0000F920FB60F9211242F933F934F935F934C
:1030E0006F937F938F939F93AF93BF93EF93FF93D0
:1030F00081E194E00E942B17FF91EF91BF91AF9176
:103100009F918F917F916F915F914F913F912F91FF
:103110000F900FBE0F901F90189581E194E00E94D0
:10312000F01621E0892B09F420E0822F08951092F7
:1031300014041092130488EE93E0A0E0B0E08093B2
:10314000150490931604A0931704B093180485E314
:1031500092E0909312048093110485EC90E0909398
:103160001E0480931D0484EC90E0909320048093CF
:103170001F0480EC90E0909322048093210481EC62
:1031800090E0909324048093230482EC90E0909349
:1031900026048093250486EC90E090932804809385
:1031A000270410922A0410922B0410922C041092DF
:1031B0002D040895CF92DF92EF92FF920F931F9309
:1031C000CF93DF937C016A01EB0100E010E00C1566
:1031D0001D0571F06991D701ED91FC910190F0818D
:1031E000E02DC7010995892B19F00F5F1F4FEFCF15
:1031F000C801DF91CF911F910F91FF90EF90DF9069
:10320000CF9008956115710581F0DB010D900020CC
:10321000E9F7AD0141505109461B570BDC01ED9117
:10322000FC910280F381E02D099480E090E0089504
:103230000C940219DC01ED91FC910190F081E02DDC
:10324000099461E472E00C9402198F929F92AF92FC
:10325000BF92CF92DF92EF92FF920F931F93CF9383
:10326000DF93CDB7DEB7A1970FB6F894DEBF0FBEE0
:10327000CDBF7C01C42EE52FCB01D22E19A221E0B7
:103280002D1510F02AE0D22E8E010F5D1F4F8D2CD0
:10329000912CA12CB12C6C2D7E2FA50194010E94A4
:1032A00076208C2DD29E80191124015011098A306C
:1032B00014F4805D01C0895CF8018083211531051B
:1032C0004105510521F0C22EE32FCA01E4CFB80118
:1032D000C7010E940219A1960FB6F894DEBF0FBE77
:1032E000CDBFDF91CF911F910F91FF90EF90DF90B5
:1032F000CF90BF90AF909F908F900895CF92DF9224
:10330000EF92FF920F931F93CF93DF93EC016A012B
:103310007B012115310579F4E881F9810190F08173
:10332000E02D642FDF91CF911F910F91FF90EF90CF
:10333000DF90CF9009942A303105E9F477FF1AC065
:103340006DE20E941A198C0144275527BA014C19C5
:103350005D096E097F092AE0CE010E942519800FC0
:10336000911FDF91CF911F910F91FF90EF90DF9010
:10337000CF9008952AE0B701A601CE01DF91CF9149
:103380001F910F91FF90EF90DF90CF900C94251933
:103390004F925F926F927F928F929F92AF92BF9265
:1033A000CF92DF92EF92FF920F931F93CF93DF9311
:1033B000EC016A017B01B22E9A01AB01C701B60193
:1033C0000E944E20882319F064E472E027C0260191
:1033D0003701E89477F82FEF3FEF4FE75FE7C3013E
:1033E000B2010E944E2081110DC02FEF3FEF4FE739
:1033F0005FE7C301B2010E94981E18161CF468E42E
:1034000072E00CC02FEF3FEF4FE75FE4C701B6015A
:103410000E94E71F1816ACF46CE472E0CE01DF9155
:10342000CF911F910F91FF90EF90DF90CF90BF90C1
:10343000AF909F908F907F906F905F904F900C9483
:1034400002192FEF3FEF4FE75FECC701B6010E9473
:10345000981E87FDE1CF20E030E0A901C701B60149
:103460000E94981E87FF0AC06DE2CE010E941A19C1
:103470008C01F7FAF094F7F8F09402C000E010E045
:10348000A12C60E070E080E09FE3AB1441F020E00D
:1034900030E040E251E40E949C1EA394F6CF9B01D1
:1034A000AC01C701B6010E94341E6B017C010E9471
:1034B000091F2B013C010E94351F9B01AC01C70174
:1034C000B6010E94331E6B017C012AE0B301A20108
:1034D000CE010E942519080F191FBB2039F06BE49B
:1034E00071E0CE010E940219080F191F7B2C772072
:1034F00041F120E030E040E251E4C701B6010E9412
:10350000EB1F6B017C010E94041F4B01AA2497FC56
:10351000A094BA2C2AE030E0B501A401CE010E94AB
:103520007E19080F191FC501B4010E94371F9B01A6
:10353000AC01C701B6010E94331E6B017C017A9475
:10354000D6CFC801DF91CF911F910F91FF90EF90DF
:10355000DF90CF90BF90AF909F908F907F906F90B3
:103560005F904F9008950F931F93CF93DF93EC01DB
:103570000E94C8198C01CE010E942119800F911F51
:10358000DF91CF911F910F9108950F931F93CF93C8
:10359000DF93EC010E949E15688779878A879B8755
:1035A000E881F9810680F781E02DCE01099597FF2A
:1035B00015C00E949E15088519852A853B85601BCC
:1035C000710B820B930B0C811D812E813F81601743
:1035D00071078207930720F38FEF9FEFDF91CF9161
:1035E0001F910F9108950F931F93CF93DF93EC01D9
:1035F0000E949E15688779878A879B87E881F98171
:103600000084F185E02DCE01099597FF15C00E9439
:103610009E15088519852A853B85601B710B820BD9
:10362000930B0C811D812E813F81601771078207EA
:10363000930720F38FEF9FEFDF91CF911F910F91B1
:103640000895FF920F931F93CF93DF93EC018B01AB
:10365000F42ECE010E94F31A9C0197FD28C08D32F2
:10366000910519F1C0970A9710F1FF2019F02E3239
:103670003105F9F001301105F9F00230110569F456
:103680002D30310551F034F4295031092230310503
:1036900020F012C02032310579F4E881F9810680EA
:1036A000F781E02DCE010995D4CF8DE203C0C90189
:1036B00005C08EE290E002C08FEF9FEFDF91CF91C7
:1036C0001F910F91FF900895CF92DF92FF920F9379
:1036D0001F93CF93DF9300D000D0CDB7DEB76C013E
:1036E000042F40E00E94211BFC0197FD4BC020E00D
:1036F00030E0A901F12C112707FD1095E017F10723
:10370000E9F0ED32F105C1F0CF01C0970A97B0F4AE
:10371000AAE0B0E00E94C6209B01AC01CF01AA271D
:1037200097FDA095BA2F280F391F4A1F5B1F205302
:1037300031094109510902C0FF24F394D601ED91EA
:10374000FC910680F781E02DC60129833A834B83E3
:103750005C830995C6010E94F31AFC01C097298178
:103760003A814B815C810A9748F2E017F10731F208
:10377000FF2061F066277727CB01621B730B840B58
:10378000950B06C060E070E0CB0102C0CA01B90130
:103790000F900F900F900F90DF91CF911F910F918D
:1037A000FF90DF90CF900895EF92FF920F931F93B9
:1037B000CF93DF93EC018B01E42E63E472E00E946F
:1037C000B11CC8010E94C51AFF24E7FCF09497FDC4
:1037D0000BC08E159F0541F0682FCE010E94571D2A
:1037E000C8010E94C51AF3CFCE01DF91CF911F917E
:1037F0000F91FF90EF9008954F925F926F927F929A
:10380000AF92BF92CF92DF92EF92FF920F931F93EE
:10381000CF93DF93CDB7DEB729013A01621B730B5B
:10382000840B950B29893A894B895C892A193B09B4
:103830004C095D09298B3A8B4B8B5C8B9B01AC014E
:1038400069897A898B899C890E945220E418F5083D
:1038500006091709A80197010E9498202A0D3B1D0F
:103860004C1D5D1DCA01B901DF91CF911F910F91D0
:10387000FF90EF90DF90CF90BF90AF907F906F90D0
:103880005F904F900895FC01808191810C948B2171
:10389000CF93DF93EC0188819981009711F00E940A
:1038A0008B21198218821D821C821B821A82DF9151
:1038B000CF9108950F931F93CF93DF93EC018B016A
:1038C0006F5F7F4F888199810E941A22009731F0A3
:1038D000998388831B830A8381E001C080E0DF91A4
:1038E000CF911F910F910895CF93DF93EC018881C1
:1038F0009981892B29F08A819B818617970760F42B
:10390000CE010E945A1C882341F08C819D81892B15
:1039100019F4E881F981108281E0DF91CF91089557
:10392000EF92FF920F931F93CF93DF93EC017B01F4
:103930008A01BA010E94741C811104C0CE010E9448
:10394000481C07C01D830C83B701888199810E94A0
:10395000F222CE01DF91CF911F910F91FF90EF9056
:103960000895FC0111821082138212821582148242
:103970006115710559F0FB0101900020E9F7AF01D5
:1039800041505109461B570B0C94901C0895CF933E
:10399000DF93EC01FB018617970761F0608171816D
:1039A0006115710529F0448155810E94901C02C067
:1039B0000E94481CCE01DF91CF910895FC01118235
:1039C000108213821282158214820C94C71CCF932A
:1039D000DF93EC016115710561F0FB01019000209E
:1039E000E9F7AF0141505109461B570B0E94901C4B
:1039F00002C00E94481CCE01DF91CF9108950F9321
:103A00001F93CF93DF93CDB7DEB762970FB6F894CD
:103A1000DEBF0FBECDBF8C01CB01F8011182108239
:103A2000138212821582148250E0BE016F5F7F4FB5
:103A30000E941623BE016F5F7F4FC8010E94E71CE2
:103A400062960FB6F894DEBF0FBECDBFDF91CF9167
:103A50001F910F910895EF92FF920F931F93CF93B1
:103A6000DF93EC017B010C811D816115710511F45F
:103A700080E016C04115510591F0040F151FB801E3
:103A80000E94741C8823A1F3288139818C819D8137
:103A9000B701820F931F0E94F2221D830C8381E0E5
:103AA000DF91CF911F910F91FF90EF900895CF93E9
:103AB000DF9300D0CDB7DEB769831A8241E050E0D2
:103AC000BE016F5F7F4F0E942B1D0F900F90DF9103
:103AD000CF910895EF92FF920F931F93CF93DF93AF
:103AE000CDB7DEB728970FB6F894DEBF0FBECDBFB7
:103AF0007C01CB014AE08E010F5F1F4FB8010E948D
:103B00002123F80101900020E9F7AF01415051094C
:103B1000401B510BB801C7010E942B1D28960FB600
:103B2000F894DEBF0FBECDBFDF91CF911F910F91F3
:103B3000FF90EF900895CF93DF93EC01611571052D
:103B400069F0FB0101900020E9F7AF0141505109F4
:103B5000461B570B0E942B1D811103C0CE010E94F2
:103B6000481CCE01DF91CF910895CF93DF93EC01F4
:103B70000E946A1D811103C0CE010E94481CCE0123
:103B8000DF91CF910895FA01DB0114964D915C917C
:103B90001597DC0114962D913C911597241B350B3C
:103BA0002E173F0788F08D919C91009769F0DB01FB
:103BB0006D917C916115710539F08E0F9F1F0E94E8
:103BC000F92221E0892B09F020E0822F0895FC01E1
:103BD00044815581FB01248135814217530720F030
:103BE00040E050E00C94C31D80E008950F931F93B4
:103BF000CF93DF93EB0141155105E9F02097D9F000
:103C0000FC016481758126173707A0F4621B730BD2
:103C10008A01015011096017710708F48B01FC013A
:103C200060817181620F731FA801CE010E9407237A
:103C3000C00FD11F1882DF91CF911F910F9108956E
:103C40000E94E42208950E9400160E94221E0E94F3
:103C5000DD03CDE1D7E10E9427042097E1F30E9424
:103C60001D17F9CF08955058BB27AA270ED075C14C
:103C700066D130F06BD120F031F49F3F11F41EF487
:103C80005BC10EF4E095E7FB51C1E92F77D180F3DA
:103C9000BA17620773078407950718F071F49EF549
:103CA0008FC10EF4E0950B2EBA2FA02D0B01B90198
:103CB00090010C01CA01A0011124FF27591B99F0A2
:103CC000593F50F4503E68F11A16F040A22F232FAE
:103CD000342F4427585FF3CF469537952795A795FE
:103CE000F0405395C9F77EF41F16BA0B620B730BA5
:103CF000840BBAF09150A1F0FF0FBB1F661F771F16
:103D0000881FC2F70EC0BA0F621F731F841F48F4CA
:103D1000879577956795B795F7959E3F08F0B3CF50
:103D20009395880F08F09927EE0F9795879508953A
:103D3000D9D008F481E008950CD00FC107D140F02C
:103D4000FED030F021F45F3F19F0F0C0511139C1BD
:103D5000F3C014D198F39923C9F35523B1F3951BFC
:103D6000550BBB27AA2762177307840738F09F5F9C
:103D70005F4F220F331F441FAA1FA9F333D00E2E0B
:103D80003AF0E0E830D091505040E695001CCAF778
:103D900029D0FE2F27D0660F771F881FBB1F26173D
:103DA00037074807AB07B0E809F0BB0B802DBF0110
:103DB000FF2793585F4F2AF09E3F510568F0B6C029
:103DC00000C15F3FECF3983EDCF3869577956795ED
:103DD000B795F7959F5FC9F7880F911D96958795C1
:103DE00097F90895E1E0660F771F881FBB1F6217E0
:103DF00073078407BA0720F0621B730B840BBA0B9E
:103E0000EE1F88F7E095089504D06894B111D9C0E9
:103E10000895BCD088F09F5790F0B92F9927B751DB
:103E2000A0F0D1F0660F771F881F991F1AF0BA957E
:103E3000C9F712C0B13081F0C3D0B1E00895C0C05D
:103E4000672F782F8827B85F39F0B93FCCF3869574
:103E500077956795B395D9F73EF4909580957095D1
:103E600061957F4F8F4F9F4F0895E89409C097FB4E
:103E70003EF490958095709561957F4F8F4F9F4F41
:103E80009923A9F0F92F96E9BB279395F695879585
:103E900077956795B795F111F8CFFAF4BB0F11F448
:103EA00060FF1BC06F5F7F4F8F4F9F4F16C08823EF
:103EB00011F096E911C0772321F09EE8872F762F25
:103EC00005C0662371F096E8862F70E060E02AF066
:103ED0009A95660F771F881FDAF7880F9695879552
:103EE00097F90895990F0008550FAA0BE0E8FEEF27
:103EF00016161706E807F907C0F012161306E407AE
:103F0000F50798F0621B730B840B950B39F40A26A6
:103F100061F0232B242B252B21F408950A2609F484
:103F2000A140A6958FEF811D811D089597F99F6788
:103F300080E870E060E008959FEF80EC0895002431
:103F40000A941616170618060906089500240A94FE
:103F500012161306140605060895092E0394000C84
:103F600011F4882352F0BB0F40F4BF2B11F460FF13
:103F700004C06F5F7F4F8F4F9F4F089557FD90583C
:103F8000440F551F59F05F3F71F04795880F97FB1D
:103F9000991F61F09F3F79F08795089512161306D7
:103FA0001406551FF2CF4695F1DF08C01616170606
:103FB0001806991FF1CF869571056105089408953B
:103FC000E894BB2766277727CB0197F908958ADF06
:103FD00008F48FEF08950BD0C0CFB1DF28F0B6DF23
:103FE00018F0952309F0A2CFA7CF1124EACFC6DF9E
:103FF000A0F3959FD1F3950F50E0551F629FF001FC
:10400000729FBB27F00DB11D639FAA27F00DB11D54
:10401000AA1F649F6627B00DA11D661F829F2227DD
:10402000B00DA11D621F739FB00DA11D621F839F64
:10403000A00D611D221F749F3327A00D611D231F3A
:10404000849F600D211D822F762F6A2F11249F5788
:1040500050408AF0E1F088234AF0EE0FFF1FBB1FAB
:10406000661F771F881F91505040A9F79E3F51054A
:1040700070F05CCFA6CF5F3FECF3983EDCF3869503
:1040800077956795B795F795E7959F5FC1F7FE2BF5
:10409000880F911D9695879597F9089523DF880BD2
:1040A000990B0895DB018F939F930E94C620BF91C7
:1040B000AF91A29F800D911DA39F900DB29F900D77
:1040C0001124089597FB072E16F4009407D077FD6E
:1040D00009D00E94D92007FC05D03EF49095819527
:1040E0009F4F0895709561957F4F0895A1E21A2E14
:1040F000AA1BBB1BFD010DC0AA1FBB1FEE1FFF1F8C
:10410000A217B307E407F50720F0A21BB30BE40BDB
:10411000F50B661F771F881F991F1A9469F7609522
:104120007095809590959B01AC01BD01CF010895DC
:10413000052E97FB1EF400940E94AF2057FD07D078
:104140000E94762007FC03D04EF40C94AF205095CB
:104150004095309521953F4F4F4F5F4F0895909573
:104160008095709561957F4F8F4F9F4F0895A29FC7
:10417000B001B39FC001A39F700D811D1124911D3B
:10418000B29F700D811D1124911D08950E94B720CA
:10419000A59F900DB49F900DA49F800D911D11249B
:1041A0000895B7FF0C94C6200E94C620821B930B73
:1041B0000895AA1BBB1B51E107C0AA1FBB1FA6176E
:1041C000B70710F0A61BB70B881F991F5A95A9F7C0
:1041D00080959095BC01CD010895EE0FFF1F0590CD
:1041E000F491E02D0994CF93DF938230910510F480
:1041F00082E090E0E091B004F091B10420E030E082
:10420000A0E0B0E0309739F140815181481759075B
:10421000B8F04817590771F482819381109729F0FB
:1042200013969C938E9312972CC09093B104809315
:10423000B00427C02115310531F04217530718F09B
:10424000A901DB0101C0EF019A01BD01DF0102807C
:10425000F381E02DD7CF21153105F9F0281B390B5B
:104260002430310580F48A819B816115710521F02C
:10427000FB019383828304C09093B1048093B004C4
:10428000FE01329644C0FE01E20FF31F8193919329
:1042900022503109398328833AC02091AE043091ED
:1042A000AF04232B41F4209102013091030130939C
:1042B000AF042093AE04209100013091010121153B
:1042C000310541F42DB73EB74091040150910501ED
:1042D000241B350BE091AE04F091AF04E217F30715
:1042E000A0F42E1B3F0B2817390778F0AC014E5F66
:1042F0005F4F2417350748F04E0F5F1F5093AF04F0
:104300004093AE048193919302C0E0E0F0E0CF01CE
:10431000DF91CF910895CF93DF93009709F487C081
:10432000FC01329713821282C091B004D091B10483
:10433000209781F420813181280F391F8091AE04AC
:104340009091AF048217930779F5F093AF04E0934F
:10435000AE046DC0DE0120E030E0AE17BF0750F4C0
:1043600012964D915C9113979D014115510509F1EC
:10437000DA01F3CFB383A28340815181840F951F6B
:104380008A179B0771F48D919C911197840F951F4B
:1043900002969183808312968D919C9113979383BB
:1043A00082832115310529F4F093B104E093B00420
:1043B0003EC0D9011396FC93EE9312974D915D91F7
:1043C000A40FB51FEA17FB0779F480819181840F50
:1043D000951F0296D90111969C938E9382819381A9
:1043E00013969C938E931297E0E0F0E08A819B8174
:1043F000009719F0FE01EC01F9CFCE010296288159
:104400003981820F931F2091AE043091AF04281799
:10441000390769F4309729F41092B1041092B0046E
:1044200002C013821282D093AF04C093AE04DF9116
:10443000CF910895A0E0B0E0E0E2F2E20C945A23BC
:10444000EC01CB01209719F40E94F320B8C0FE01C3
:10445000E60FF71F9E0122503109E217F30708F417
:10446000ACC0D9010D911C91119706171707B8F030
:104470000530110508F49FC0A801445051094617A2
:10448000570708F498C002501109061B170B019337
:1044900011936D937C93CF010E948B218CC05B01A3
:1044A000A01AB10A4E01800E911EA091B004B091E5
:1044B000B104612C712C60E070E0109709F449C0E0
:1044C000A815B905C9F5ED90FC901197670142E078
:1044D000C40ED11CCA14DB0478F147018A189B086A
:1044E000640142E0C40ED11C1296BC901297139640
:1044F000AC91B5E0CB16D10440F0B282A383918297
:104500008082D9018D939C9309C00E5F1F4F0E0DC1
:104510001F1DF90111830083EB2DFA2F6115710521
:1045200031F0DB011396FC93EE93129744C0F093A5
:10453000B104E093B0043FC06D917C911197661671
:10454000770608F43B01BD0112960D90BC91A02D99
:10455000B4CF6091AE047091AF0468157905E9F4A9
:1045600068167906D0F4409100015091010141157F
:10457000510541F44DB75EB760910401709105019A
:10458000461B570BE417F507C0F4F093AF04E09314
:10459000AE04F901918380830EC00E94F3207C0158
:1045A000009759F0A801BE010E94E922CE010E94A5
:1045B0008B21C70104C0CE0102C080E090E0CDB7DE
:1045C000DEB7EEE00C94762381E090E0F8940C9452
:1045D0008D23FB01DC0102C001900D92415050403F
:1045E000D8F70895FB01DC0101900D920020E1F75E
:1045F0000895FB01DC014150504030F08D91019055
:10460000801919F40020B9F7881B990B0895FB0154
:10461000DC014150504048F001900D920020C9F754
:1046200001C01D9241505040E0F7089545325105B8
:1046300020F4423010F00C942123FB011082CB01B6
:104640000895BB274A3031F4992322F4BDE29095B6
:1046500081959F4F0C942D23BB27FB015527AA273B
:10466000880F991FAA1FA41710F0A41B83955051FF
:10467000B9F7A05DAA3308F0A95DA193009779F777
:10468000B111B1931192CB010C944623DC01FC01D2
:10469000672F71917723E1F7329704C07C916D9376
:1046A00070836291AE17BF07C8F308952F923F92AF
:1046B0004F925F926F927F928F929F92AF92BF9232
:1046C000CF92DF92EF92FF920F931F93CF93DF93DE
:1046D000CDB7DEB7CA1BDB0B0FB6F894DEBF0FBE3B
:1046E000CDBF09942A88398848885F846E847D8488
:1046F0008C849B84AA84B984C884DF80EE80FD808A
:104700000C811B81AA81B981CE0FD11D0FB6F894FF
:0E471000DEBF0FBECDBFED010895F894FFCFC0
:10471E000000B2048000010000000E000100010044
:10472E0001000100E007010001002C01000001441E
:10473E00617461202020202020204F72610054657A
:10474E006D70657261747572610043616D70696F31
:10475E006E616D656E746F006D696E2E00496E2010
:10476E006D656D6F726961003530202D20202D2012
:10477E00202D20202D20202D20202D20202D0034F6
:10478E0030202D20202D20202D20202D20202D20CA
:10479E00202D20202D003330202D20202D20202DC7
:1047AE0020202D20202D20202D20202D00323020C5
:1047BE002D20202D20202D20202D20202D20202D9D
:1047CE0020202D003130202D20202D20202D2020A6
:1047DE002D20202D20202D20202D003000430A20BA
:1047EE0000446174653A0000000000100BDA186195
:1047FE000E8308B90E250F3A09910FB90BB80C0AA2
:10480E000A00000000100BDA18201E83088909A088
:10481E00093A09B609EB09090A0A0A000000001054
:10482E000BDA18610E8308B90E250F3A09910FB9EC
:10483E000BB80C0A0A1F1C1F1E1F1E1F1F1E1F1E39
:10484E001F000000006E17DA18F0160917FB164C41
:10485E00170D0A006E616E00696E66006F76660057
:00000001FF
