:100000000C948F030C94B7030C94B7030C94B703B0
:100010000C94B7030C94B7030C94B7030C94B70378
:100020000C94B7030C94B7030C94B7030C94B70368
:100030000C94B7030C94B7030C94B7030C94B70358
:100040000C94EF150C94B7030C94D0180C9402196F
:100050000C94B7030C94B7030C94B7030C94B70338
:100060000C94B7030C94B70300000000003E5B4FF4
:100070005B3E3E6B4F6B3E1C3E7C3E1C183C7E3C08
:10008000181C577D571C1C5E7F5E1C00183C180016
:10009000FFE7C3E7FF0018241800FFE7DBE7FF30A6
:1000A000483A060E2629792926407F050507407F14
:1000B00005253F5A3CE73C5A7F3E1C1C08081C1C87
:1000C0003E7F14227F22145F5F005F5F06097F017D
:1000D0007F006689956A606060606094A2FFA29468
:1000E00008047E040810207E201008082A1C080836
:1000F0001C2A08081E101010100C1E0C1E0C303884
:100100003E3830060E3E0E06000000000000005F84
:1001100000000007000700147F147F14242A7F2AA0
:100120001223130864623649562050000807030062
:10013000001C2241000041221C002A1C7F1C2A08AE
:10014000083E080800807030000808080808000011
:1001500060600020100804023E5149453E00427F85
:10016000400072494949462141494D331814127FD4
:100170001027454545393C4A494931412111090774
:100180003649494936464949291E000014000000F5
:1001900040340000000814224114141414140041C7
:1001A00022140802015909063E415D594E7C121184
:1001B000127C7F494949363E414141227F414141BC
:1001C0003E7F494949417F090909013E4141517337
:1001D0007F0808087F00417F41002040413F017FA8
:1001E000081422417F404040407F021C027F7F0470
:1001F00008107F3E4141413E7F090909063E4151B9
:10020000215E7F09192946264949493203017F01A8
:10021000033F4040403F1F2040201F3F4038403FA9
:10022000631408146303047804036159494D4300BF
:100230007F4141410204081020004141417F0402F6
:10024000010204404040404000030708002054548D
:1002500078407F284444383844444428384444286B
:100260007F385454541800087E090218A4A49C78BE
:100270007F0804047800447D40002040403D007F1A
:100280001028440000417F40007C047804787C08FA
:100290000404783844444438FC18242418182424CE
:1002A00018FC7C08040408485454542404043F44B3
:1002B000243C4040207C1C2040201C3C4030403CE2
:1002C00044281028444C9090907C4464544C440042
:1002D00008364100000077000000413608000201A6
:1002E0000204023C2623263C1EA1A161123A404092
:1002F000207A385454555921555579412154547810
:1003000041215554784020545579400C1E527212A8
:100310003955555559395454545939555454580030
:1003200000457C410002457D420001457C40F029AA
:100330002429F0F0282528F07C54554500205454F9
:100340007C547C0A097F493249494932324848483D
:1003500032324A4848303A4141217A3A4240207884
:10036000009DA0A07D39444444393D4040403D3C7F
:1003700024FF2424487E4943662B2FFC2F2BFF09A2
:1003800029F620C0887E0903205454794100004496
:100390007D413048484A32384040227A007A0A0A81
:1003A000727D0D19317D2629292F282629292926F4
:1003B00030484D4020380808080808080808382F39
:1003C00010C8ACBA2F102834FA00007B00000814C3
:1003D0002A142222142A1408AA005500AAAA55AAEF
:1003E00055AA000000FF00101010FF00141414FFA5
:1003F000001010FF00FF1010F010F0141414FC0097
:100400001414F700FF0000FF00FF1414F404FC14A0
:100410001417101F10101F101F1414141F00101099
:1004200010F0000000001F101010101F101010100E
:10043000F010000000FF101010101010101010FF2E
:1004400010000000FF140000FF00FF00001F101745
:100450000000FC04F414141710171414F404F4002E
:1004600000FF00F714141414141414F700F71414F4
:1004700014171410101F101F141414F4141010F07B
:1004800010F000001F101F0000001F14000000FCEF
:10049000140000F010F01010FF10FF141414FF14DB
:1004A0001010101F00000000F010FFFFFFFFFFF012
:1004B000F0F0F0F0FFFFFF0000000000FFFF0F0F63
:1004C0000F0F0F38444438447C2A2A3E147E02021F
:1004D0000606027E027E0263554941633844443C6D
:1004E00004407E201E2006027E020299A5E7A599FF
:1004F0001C2A492A1C4C7201724C304A4D4D303036
:1005000048784830BC625A463D3E494949007E0120
:1005100001017E2A2A2A2A2A44445F444440514A3F
:10052000444040444A51400000FF0103E080FF0086
:100530000008086B6B083612362436060F090F06C2
:10054000000018180000001010003040FF010100EA
:100550001F01011E00191D1712003C3C3C3C00000D
:1005600000000013018032118064260104B1020BE7
:1005700014C0020800C10105C5024130C701C1EC29
:10058000011B3A8155642A040000007F2B040000FF
:10059000009F3601C8B70100F20100E08F28242235
:1005A000312B0E53A5421618121A140332E18F177D
:1005B0001B1D0E14112CA53D09272D252B3C321394
:1005C000800A2980FF0000000800020100000304E7
:1005D0000700000000000000000102040810204095
:1005E0008001020408102001020408102004040401
:1005F00004040404040202020202020303030303CC
:100600000300000000230026002900000000002550
:100610000028002B0000000000240027002A000012
:10062000407A10F35A00A0724E18090010A5D4E8C1
:100630000000E87648170000E40B54020000CA9A54
:100640003B000000E1F505000080969800000040A6
:10065000420F000000A086010000001027000000EB
:1006600000E803000000006400000000000A000031
:100670000000000100000000002C76D888DC674FE5
:100680000823DFC1DFAE59E1B1B796E5E3E453C615
:100690003AE651997696E8E6C28426EB898C9B620D
:1006A000ED407C6FFCEFBC9C9F40F2BAA56FA5F4B7
:1006B00090055A2AF75C936B6CF9676DC11BFCE0DF
:1006C000E40D47FEF520E6B500D0ED902E03009432
:1006D0003577050080841E080000204E0A000000C7
:1006E000C80C333333330F986E12831141EF8D21D1
:1006F00014893BE65516CFFEE6DB18D1844B381B38
:10070000F77C1D901DA4BBE424203284725E2281FC
:1007100000C9F124ECA1E53D27008404321911241D
:100720001FBECFEFD8E0DEBFCDBF12E0A0E0B1E04A
:10073000EEECF8E402C005900D92A633B107D9F7AC
:1007400024E0A6E3B2E001C01D92A33AB207E1F7AC
:1007500017E0CEE1D7E004C02297FE010E94501FAF
:10076000CA31D107C9F70E94591D0C9465240C9415
:10077000000020E840E860E886EA93E00E941B0C55
:1007800061E086EA93E00E94FF0B20E030E040E069
:1007900050E06FE171E086EA93E00E942F0C28E1BF
:1007A00030E040E050E06EE271E086EA93E00E94C3
:1007B0002F0C20E330E040E050E06AE371E086EA8D
:1007C00093E00E942F0C20E330E047E650E068E41D
:1007D00071E086EA93E00E942F0C28E330E040E0CD
:1007E00050E06DE471E086EA93E00E942F0C28E36C
:1007F00030E047E650E068E471E086EA93E00E946A
:100800002F0C20E440E460E486EA93E00E941B0C95
:100810002FE430E040E050E068E571E086EA93E0E4
:100820000E942F0C29E530E040E050E06FE671E0D7
:1008300086EA93E00E942F0C23E630E040E050E08F
:1008400066E871E086EA93E00E942F0C2DE630E026
:1008500040E050E06DE971E086EA93E00E942F0CE1
:1008600027E730E040E050E064EB71E086EA93E097
:100870000E942F0C20E840E860E886EA93E00E949E
:100880001B0C62E086EA93E00C94FF0BEF92FF9260
:100890000F931F93E0901401F09015010091160141
:1008A00010911701209118013091190140910E010A
:1008B00050910F016091100170911101809112010E
:1008C000909113010E94D61326E040E855E260E0C3
:1008D00070E082E094E00E946E1886EA93E00E9445
:1008E000130920E040E060E086EA93E00E940C0CEF
:1008F0000E94B90360ED77E080E090E01F910F91D6
:10090000FF90EF900C94681629E048E06AE086EAD0
:1009100093E00E94FF0864E088E993E00C942F15AF
:100920008F929F92AF92BF92CF92DF92EF92FF92FF
:100930000F931F93CF93DF93CDB7DEB7CA54D1097E
:100940000FB6F894DEBF0FBECDBF41E0BE01635FBE
:100950007F4F88E993E00E94521581110BC088E90E
:1009600093E00E941D156AEF70E080E090E00E9425
:10097000681631C48D85823241F0883231F0803181
:1009800009F029C4DD24D39401C0D12C88E993E077
:100990000E94FA13BE01635F7F4F88E993E00E94D3
:1009A000F51441E064E488E993E00E94971468EE4E
:1009B00073E080E090E00E94681688E993E00E946E
:1009C000FA13BE01635F7F4F88E993E00E94F5143C
:1009D00040E06EEB88E993E00E9497148E010F5F70
:1009E0001F4F7E018AE0E80EF11C88E993E00E9427
:1009F000D914F80181938F01EE15FF05B1F76A81D3
:100A000070E0762F66278981682BDD2089F0E3E08E
:100A1000660F771FEA95E1F788858031A9F42F8169
:100A20008CE090E0821B9109607F680F791F0CC0F9
:100A30008D81807611F4687F07C0803211F46C7F5D
:100A400003C0803409F46E7F882777FD8095982F46
:100A50000E94A01D20E030E040E85DE30E94501EAF
:100A60006B017C01609394037093950380939603CC
:100A700090939703209190033091910340919203BA
:100A8000509193030E94691D882309F180908C0383
:100A900090908D03A0908E03B0908F03A7019601D4
:100AA000C501B4010E94691D882349F0C0928C03DE
:100AB000D0928D03E0928E03F0928F0308C0809253
:100AC000900390929103A0929203B092930340916D
:100AD000900350919103609192037091930322E0EF
:100AE000CE018B5B9F4F0E94311C20E030E046E03E
:100AF00050E062E873E0CE018B5B9F4F0E942C1D9B
:100B000082E094E00E948B17181619060CF063C05F
:100B10004AE062E074E0CE014B960E94DA1A66EB7E
:100B200071E0CE0145960E94B71BBE016B5E7F4F00
:100B3000CE014B960E941D1D182FCE0145960E9496
:100B4000491B112309F442C041E060E070E082E0FB
:100B500094E00E946A1A709319016093180141E0B1
:100B600060E070E082E094E00E946A1A70931701DE
:100B70006093160141E060E070E082E094E00E9442
:100B80006A1A709315016093140141E060E070E00F
:100B900082E094E00E946A1A70931301609312013C
:100BA00041E060E070E082E094E00E946A1A709395
:100BB00011016093100141E060E070E082E094E098
:100BC0000E946A1A70930F0160930E01CE014B963A
:100BD0000E94491B95CF80911201909113012091A1
:100BE00050033091510382179307F1F0E090140104
:100BF000F090150100911601109117012091180134
:100C00003091190140910E0150910F016091100136
:100C1000709111010E94D6138091120190911301DD
:100C200090935103809350030E94D2134AE0BC0179
:100C3000CE01CF960E94051C0E94CA138C01BE01F2
:100C4000615C7F4FCE0145960E94E41B6BE471E02E
:100C5000CE0145960E94D11CB8010E94EB1CBC013C
:100C6000CE01C9960E94E41BCE0145960E94491B05
:100C70000E94C2138C01BE01675C7F4FCE01459676
:100C80000E94E41B6BE471E0CE0145960E94D11CEA
:100C9000B8010E94EB1CBC01CE01C3960E94E41B6C
:100CA000CE0145960E94491B0E94AA134AE0BC014E
:100CB000CE018D960E94051C0E94B2138C01BE01CC
:100CC000635D7F4FCE0145960E94E41B6AEB71E0A5
:100CD000CE0145960E94D11CB8010E94EB1CBC01BC
:100CE000CE0187960E94E41BCE0145960E94491BC7
:100CF0000E94BA138C01BE01695D7F4FCE014596FB
:100D00000E94E41B6AEB71E0CE0145960E94D11C63
:100D1000B8010E94EB1CBC01CE0181960E94E41B2D
:100D2000CE0145960E94491B20E030E04BE050E0A8
:100D300067E773E0CE01C3960E942C1D20E030E0EF
:100D400049E050E06EE673E0CE0181960E942C1DD2
:100D500061E086EA93E00E94FF0B20911801309138
:100D6000190180914E0390914F032817390781F1A3
:100D700020E040E060E086EA93E00E941B0C28E05F
:100D800030E040E050E06DE573E086EA93E00E94D9
:100D90002F0C20E04FEF6FEF86EA93E00E941B0CD0
:100DA00028E030E040E050E067E773E086EA93E057
:100DB0000E942F0C809118019091190190934F037C
:100DC00080934E0367E773E08DE593E00E94742102
:100DD0000E94BA1320915203309153038217930754
:100DE00071F120E040E060E086EA93E00E941B0C95
:100DF00028E030E042E450E064E573E086EA93E006
:100E00000E942F0C20E04FEF6FEF86EA93E00E94E4
:100E10001B0C28E030E042E450E06EE673E086EA26
:100E200093E00E942F0C0E94BA1390935303809377
:100E300052036EE673E084E593E00E94742162E061
:100E400086EA93E00E94FF0B20918803309189038A
:100E500040918A0350918B036091900370919103AC
:100E600080919203909193030E94691D8823F1F170
:100E700020E040E060E086EA93E00E941B0C20E264
:100E800030E042E450E068E673E086EA93E00E94D6
:100E90002F0C20E040E06FEF86EA93E00E941B0CED
:100EA00020E230E042E450E062E873E086EA93E05A
:100EB0000E942F0C62E873E082E094E00E94B9196E
:100EC0008091900390919103A0919203B09193032C
:100ED0008093880390938903A0938A03B0938B0334
:100EE00062E873E088E693E00E94742161E086EA9C
:100EF00093E00E94FF0B80910A010E94D616909306
:100F00004B0280934A02BC01882777FD8095982F79
:100F10001F921F921F922FE12F93A12CB12C6501DC
:100F2000A394EE24EA9413E0F12E00E010E020E018
:100F300030E0A9010E94021B7093490260934802AD
:100F40004AE0CE014B960E94051C20E030E043E0D1
:100F500050E063E472E0CE014B960E942C1D60913C
:100F60004802709149027695762F662777956795A6
:100F70004AE0CE0145960E94051C20E030E045E0A5
:100F800050E06BE372E0CE0145960E942C1D0F905D
:100F90000F900F900F90209148023091490280915C
:100FA0004602909147022817390709F44AC020E009
:100FB00040E060E086EA93E00E941B0C20E330E012
:100FC00048E550E060E472E086EA93E00E942F0C6E
:100FD00028E330E04CE450E066E372E086EA93E018
:100FE0000E942F0C2FEF40E060E086EA93E00E9421
:100FF0001B0C20E330E048E550E063E472E086EA51
:1010000093E00E942F0C28E330E04CE450E06BE3C7
:1010100072E086EA93E00E942F0C80914802909142
:101020004902909347028093460263E472E080E4B1
:1010300092E00E9474216BE372E086E392E00E94EA
:1010400074210E94B21320910C0130910D0182177E
:10105000930751F00E94B2136091480270914902C7
:101060000E94C31E892B61F16CE271E080E090E088
:101070000E946816CE0145960E94491BCE014B96F0
:101080000E94491BCE0181960E94491BCE01879682
:101090000E94491BCE018D960E94491BCE01C3962A
:1010A0000E94491BCE01C9960E94491BCE01CF96D2
:1010B0000E94491BCE018B5B9F4F0E94491B8BC036
:1010C00020E040E060E086EA93E00E941B0C8FE79E
:1010D00090E090934D0280934C020AE710E06091FB
:1010E0004C0270914D0277FD18C0FB01EE0FFF1FFF
:1010F000E25BFD4F80819181A801481B590B86EA74
:1011000093E00E94420C80914C0290914D02019715
:1011100090934D0280934C02E2CF20E030E080E0DB
:1011200090E00196F901E25BFD4F428153815183CA
:1011300040832E5F3F4F8F3791059CF390934D0274
:1011400080934C028C01000F111F025B1D4F6091B8
:1011500090037091910380919203909193030E9468
:101160006D1DF801718360830E94B21390930D018D
:1011700080930C018FE790E090934D0280934C0296
:101180000AE710E080914C0290914D0297FD6CCFE0
:1011900020E040E06FEF86EA93E00E941B0C609134
:1011A0004C0270914D02FB01EE0FFF1FE25BFD4F01
:1011B00080819181A801481B590B86EA93E00E9427
:1011C000420C80914C0290914D02019790934D02F8
:1011D00080934C02D7CFC65BDF4F0FB6F894DEBFCB
:1011E0000FBECDBFDF91CF911F910F91FF90EF9078
:1011F000DF90CF90BF90AF909F908F900895CF9346
:10120000DF93EC010E94B00C80EC91E0998388831D
:1012100080EA90E09987888780E890E09B878A87BA
:10122000DF91CF910895CF93DF93EC010E94AE0E32
:1012300061E0CE01DF91CF910C94C2102F923F92CA
:101240004F925F926F927F928F929F92AF92BF92D6
:10125000CF92DF92EF92FF920F931F93CF93DF9382
:1012600000D000D0CDB7DEB74C017C836B836A0120
:101270005901C8018701AC014C195D0957FF03C032
:1012800051954195510995016B817C81261B370B46
:1012900037FF03C031952195310922242394312C45
:1012A0002417350714F0212C312C2114310459F066
:1012B0003A2D2B2D5C01832F922F3B812C81DC82D8
:1012C000CB82C32ED22EAB81BC81AA16BB065CF4A6
:1012D0003C2D2D2D6C01832F922F3B812C81BC82C4
:1012E000AB82A32EB22E2501EB81FC814E1A5F0A40
:1012F0003C016C187D0877FE03C0719461947108FD
:10130000720157FE03C0FFEFEF1AFF0AF594E7944E
:10131000C816D9062CF421E030E03A83298324C092
:101320006FEF7FEF7A8369831FC0D401ED91FC9149
:101330000480F581E02D980121143104D9F04B810E
:101340005C81B601C4010995E618F708F7FE06C0EE
:10135000E981FA81CE0EDF1EE40CF51C2B813C8165
:101360002F5F3F4F3C832B836B817C81A616B70692
:10137000E4F604C0A6016B817C81E4CF0F900F904E
:101380000F900F90DF91CF911F910F91FF90EF90F1
:10139000DF90CF90BF90AF909F908F907F906F9095
:1013A0005F904F903F902F9008956F927F928F9211
:1013B0009F92AF92BF92CF92DF92EF92FF920F93E4
:1013C0001F93CF93DF93EC015B016A013901480160
:1013D000E881F9810284F385E02D87010995E88190
:1013E000F981A601480D591D415051090284F38528
:1013F000E02D9301B501CE010995E881F9810084C2
:10140000F185E02D9401A601B501CE010995E88191
:10141000F981B501660D771D615071090084F18570
:10142000E02D9401A601CE010995DF91CF911F9186
:101430000F91FF90EF90DF90CF90BF90AF909F9073
:101440008F907F906F900895EF92FF920F931F936C
:10145000DC01ED91FC91240F351F215031090680EC
:10146000F781E02D780189019B0109951F910F916A
:10147000FF90EF900895EF92FF920F931F93DC017E
:10148000ED91FC91260F371F215031090680F7811D
:10149000E02D78018A0109951F910F91FF90EF903F
:1014A00008956F927F928F929F92AF92BF92CF9248
:1014B000DF92EF92FF920F931F93CF93DF935C0124
:1014C0004A0169013801EB01C60ED71ECC15DD05B6
:1014D00074F4D501ED91FC910084F185E02D870134
:1014E0009301A401BE01C50109952196EFCFDF91BB
:1014F000CF911F910F91FF90EF90DF90CF90BF9011
:10150000AF909F908F907F906F900895EF92FF9291
:101510000F931F93DC01ED91FC9111971A960D9199
:101520001C911B9718962D913C9119970684F7856D
:10153000E02D7B0140E050E060E070E009951F91F4
:101540000F91FF90EF90089508954C7F38E0439FEE
:10155000C001112430E073E0359527957A95E1F7C5
:10156000822B932B687F962B0895FC0113821282A5
:101570008AED91E0918380837583648357834683EA
:101580007187608753874287158A15861486178668
:10159000168621E0248B8FEF9FEF938B828B918BAC
:1015A000808B268B08952F923F924F925F926F927D
:1015B0007F928F929F92AF92BF92CF92DF92EF92E3
:1015C000FF920F931F93CF93DF93CDB7DEB72C9786
:1015D0000FB6F894DEBF0FBECDBF9C878B873A0154
:1015E00018870F83FA86E986CD82DC0118968D91E3
:1015F0009C911997681779070CF094C01A968D91F1
:101600009C911B97481759070CF08CC08C2C912C7F
:10161000CB01B6E0CB9E800D911D11241816190642
:101620000CF080C0C40113E0880F991F1A95E1F7F0
:10163000840F951F181619060CF074C0F5E02F9F43
:10164000200111245B016B011C82920128593F4F3C
:101650002901461A570A3C81353031F0F201EA0D72
:10166000FB1D44914B8301C01B827A826982130166
:101670001E828B8180FF13C0AB85BC85ED91FC91F0
:10168000BD81B13031F40480F581E02D2F813885A2
:1016900019C00684F785E02DEF80F8841EC0E98527
:1016A000FA852F813885E217F307F9F0AB85BC8501
:1016B000ED91FC91BD81B13059F40480F581E02DAC
:1016C00029853A85A101B5018B859C8509950DC0B9
:1016D0000684F785E02DE984FA8484019401498128
:1016E0005A81B6018B859C850995EB81E695EB8344
:1016F000FE81FF5FFE8329813A81280D391D3A83DF
:1017000029833FEF231A330AF83009F0B2CF4C8116
:101710004F5F4C83C80CD91C8FEFA81AB80A46300B
:1017200009F099CF2C960FB6F894DEBF0FBECDBF4F
:10173000DF91CF911F910F91FF90EF90DF90CF90AD
:10174000BF90AF909F908F907F906F905F904F90E1
:101750003F902F900895CF92EF92FF920F931F9397
:10176000CF93DF93EC01262F6A3049F42C898E85C4
:101770009F8538E0239F800D911D112432C06D306C
:10178000A1F1EA88FB88088919894E855F856C85F7
:101790007D85CC880E94D30A2C89422F50E08C850D
:1017A0009D8536E0239F800D911D11249D878C8798
:1017B0002E892223D1F06AEF64039001659F300DDA
:1017C000112468857985260F371F281739076CF48F
:1017D00003E0440F551F0A95E1F78E859F85840F1E
:1017E000951F9F878E871D861C8681E090E0DF9184
:1017F000CF911F910F91FF90EF90CF9008956111BD
:1018000001C061E0FC01648B0895DC01ED91FC9165
:101810000088F189E02D0994CF93DF93EC01E881F2
:10182000F9810488F589E02D0995BC01CE01DF918D
:10183000CF910C94050CCF93DF93EC01E881F981F3
:101840000488F589E02D099521E0298F988F8F8BE9
:10185000998B888B9B8B8A8BDF91CF910895FC01AC
:10186000818D882371F0168A8789908D918B808B6A
:10187000938B828B5587448737872687CF010C94BB
:10188000B3190895DC0159962C915997222359F0E8
:10189000ED91FC91119757962D913C9158970480AA
:1018A000F581E02D09940895EF92FF920F931F9315
:1018B000DC01ED91FC9111971A960D911C911B97EB
:1018C00018962D913C9119970684F785E02D7B01A0
:1018D00040E050E060E070E009951F910F91FF90AB
:1018E000EF9008952091DC03222399F03FB7F894FC
:1018F0002091DC03213059F42DB32093DA034DB34A
:101900002091DB03209524232DBB3FBF02C03093E1
:10191000DA038CBD9DBD08958091DC03882361F0BE
:101920009FB7F8942091DC038091DA03213019F4F9
:101930008DBB9FBF08958FBF08959C01207E377097
:10194000AC01542F4427550F550F550F242B352B21
:10195000892F9927869586958695822B932B0895B6
:10196000EF92FF920F931F93CF93DF931F92CDB708
:10197000DEB77C01062F142F40EA50E060E870E0EB
:1019800029830E94B50A84EF91E0F7019183808357
:1019900080E5878F10A201A712A7298123A781E0E4
:1019A000868F15A614A60F90DF91CF911F910F91EE
:1019B000FF90EF900895FC01868D882339F06EBD6D
:1019C00000000DB407FEFDCF8EB5089588E090E0CD
:1019D00030E8A1A1B2A126A5432F462321F04C91C6
:1019E000422B4C9304C04C91209524232C93A3A10B
:1019F000B4A12C9147A5242B2C93A3A1B4A14C9165
:101A000027A5209524232C933695019711F7089547
:101A10000F931F93CF93DF931F92CDB7DEB78C0147
:101A2000DC015E968C915E97882341F05F968D91E4
:101A30009C91909769830E94720C6981D801979656
:101A4000ED91FC9198979081D1968C91D19780954A
:101A5000892380839596ED91FC9196979081D096FD
:101A60008C91809589238083C8010E94DB0CD8016A
:101A70009596ED91FC9196978081D0969C91D09708
:101A8000892B80835E968C91882339F00F90DF91AB
:101A9000CF911F910F910C948C0C0F90DF91CF91EF
:101AA0001F910F910895662311F061E201C060E279
:101AB0000C94080D0F931F93CF93DF931F92CDB714
:101AC000DEB78C01DC015E968C915E97882341F035
:101AD0005F968D919C91909769830E94720C6981A9
:101AE000D8019796ED91FC9198978081D1969C9121
:101AF000D197892B80839596ED91FC919697908153
:101B0000D0968C91809589238083C8010E94DB0C3C
:101B1000D8019596ED91FC9196978081D0969C91F5
:101B2000D097892B80835E968C91882339F00F9013
:101B3000DF91CF911F910F910C948C0C0F90DF913E
:101B4000CF911F910F910895AF92BF92CF92DF92E4
:101B5000EF92FF920F931F93CF93DF937C01EB01E2
:101B60002196FB01B490BB2009F435C0FE016491BD
:101B7000C7010E94080D6E01F2E0CF0ED11CFE01DC
:101B80003196C4918C2F8078A82ECF778601DC2FD8
:101B9000DC0DD01741F0F8016491C7010E945A0D85
:101BA0000F5F1F4FF6CFC6018C0F911DEC01AA20CD
:101BB00081F08C010F5F1F4FFC01649170E06F3F5B
:101BC000710511F464EF71E080E090E00E94681606
:101BD000E801BA94C8CFDF91CF911F910F91FF9088
:101BE000EF90DF90CF90BF90AF9008950F931F9329
:101BF000CF93DF93EC018B011BAA1AAA61E08AA59F
:101C00000E941C1761E089A50E941C1789A590E01D
:101C1000FC01E351FA4FE491F0E0EE0FFF1FE55FA6
:101C2000F94F259134913EA32DA3FC01E752FA4FC1
:101C3000849188AB8AA590E0FC01E351FA4FE491CE
:101C4000F0E0EE0FFF1FE55FF94F2591349138A7C3
:101C50002FA3FC01E752FA4F849189AB8E8D882324
:101C600031F00E94F21080E58F8F18A23CC061E035
:101C70008DA50E941C1761E08CA50E941C178DA5E4
:101C800090E0FC01E351FA4FE491F0E0EE0FFF1F0A
:101C9000E55FF94FA591B491BCA3ABA3FC01E7525A
:101CA000FA4F84918FA78CA590E0FC01E351FA4F85
:101CB000E491F0E0EE0FFF1FE55FF94F25913491BD
:101CC0003AA329A3FC01E752FA4F84918EA78C9185
:101CD0009FA5909589238C93E9A1FAA190818EA567
:101CE000809589238083EDA1FEA1908188A98095AC
:101CF000892380838BA5882309F161E00E941C174A
:101D000061E08BA50E94551764EF71E080E090E0E0
:101D10000E94681660E08BA50E94551764EF71E081
:101D200080E090E00E94681661E08BA50E94551744
:101D300064EF71E080E090E00E94681601151105E3
:101D400041F0B801CE01DF91CF911F910F910C941A
:101D5000A40DDF91CF911F910F91089563E675E077
:101D60000C94F60DEF92FF920F931F93CF93DF9396
:101D700000D0CDB7DEB77C01162F6AE229834A83F3
:101D80000E94080D60E0C7010E945A0DF70162A988
:101D9000610FC7010E945A0D60E0C7010E945A0DF1
:101DA000F70162A92981620FC7010E945A0D6BE2F7
:101DB000C7010E94080D60E0C7010E945A0DF7019B
:101DC00063A94A81640FC7010E945A0D60E0C701F0
:101DD0000E945A0DF70163A9600FC7010E945A0DB6
:101DE0006CE2C7010F900F90DF91CF911F910F917F
:101DF000FF90EF900C94080DFF920F931F93CF93D9
:101E0000DF93EC01122FF32E77FD48C0A885B9852A
:101E10006A177B070CF042C057FD40C0AA85BB85FE
:101E20004A175B07DCF501E0040F21E0260F0E9452
:101E3000B20E8E8D882321F08F8D98A10E94720C96
:101E4000EFA1F8A5808199A9892B8083EDA1FEA13E
:101E5000808148A94095482340838D8D823031F49C
:101E6000812F9F2D0E949D0C182FF92E6F2DCE01D2
:101E70000E94DB0C612FCE010E94DB0CEDA1FEA1C4
:101E8000808198A9892B80838E8D882339F0DF91FA
:101E9000CF911F910F91FF900C948C0CDF91CF91FB
:101EA0001F910F91FF900895DF92EF92FF920F9391
:101EB0001F93CF93DF93EC017901D02E888599850C
:101EC000681779070CF054C02A853B8542175307E1
:101ED0000CF04EC0CA018E0D9F1D281739071CF447
:101EE0007901E41AF50A0FEF040F0E0D262FCE012B
:101EF0000E94B20E8D8D823031F48D2D912F0E9473
:101F00009D0CD82E192F8E8D882321F08F8D98A1AE
:101F10000E94720CEFA1F8A5808199A9892B80837A
:101F2000EDA1FEA1908188A9809589238083E11489
:101F3000F10461F0612FCE010E94DB0C6D2DCE010A
:101F40000E94DB0C81E0E81AF108F1CFEDA1FEA1BF
:101F5000808198A9892B80838E8D882349F0DF9119
:101F6000CF911F910F91FF90EF90DF900C948C0C0C
:101F7000DF91CF911F910F91FF90EF90DF90089527
:101F8000DF92EF92FF920F931F93CF93DF93EC01B9
:101F90007901D02E28853985621773070CF054C05B
:101FA0008A859B85481759070CF04EC0CB018E0DD2
:101FB0009F1D281739071CF47901E61AF70A2FEF3D
:101FC000260F2E0D042FCE010E94B20E8D8D823071
:101FD00031F48D2D912F0E949D0CD82E192F8E8DAE
:101FE000882321F08F8D98A10E94720CEFA1F8A593
:101FF000808199A9892B8083EDA1FEA1908188A978
:10200000809589238083E114F10461F0612FCE0172
:102010000E94DB0C6D2DCE010E94DB0C81E0E81AE2
:10202000F108F1CFEDA1FEA1808198A9892B8083D1
:102030008E8D882349F0DF91CF911F910F91FF90F2
:10204000EF90DF900C948C0CDF91CF911F910F914A
:10205000FF90EF90DF9008956F927F928F929F9202
:10206000AF92BF92CF92DF92EF92FF920F931F93A6
:10207000CF93DF93EC016B015A01490138012885A8
:102080003985621773070CF06EC08A859B854817E7
:1020900059070CF068C0AB01480D591D24173507CE
:1020A0001CF44901861A970A9501260D371D8217DF
:1020B00093071CF43C016A187B088D8D823021F453
:1020C000C7010E949D0C7C010FEF0A0D060D2FEF3A
:1020D0002C0D280D4A2D6C2DCE010E94B20E8E8D36
:1020E000882321F08F8D98A10E94720CEFA1F8A592
:1020F000808199A9892B8083EDA1FEA1908188A977
:1021000080958923808316141704A4F464011C1499
:102110001D0464F46F2DCE010E94DB0C6E2DCE01E8
:102120000E94DB0C81E0C81AD108F1CF81E0681A67
:102130007108E9CFEDA1FEA1808198A9892B808348
:102140008E8D882381F0DF91CF911F910F91FF90A9
:10215000EF90DF90CF90BF90AF909F908F907F9047
:102160006F900C948C0CDF91CF911F910F91FF9089
:10217000EF90DF90CF90BF90AF909F908F907F9027
:102180006F9008951F93CF93DF93EC01162F66E3B2
:102190000E94080D612F63706D8B623041F06330D7
:1021A00089F0613011F068EC03C068EA0CC068E0A7
:1021B000CE010E945A0D80E890E09987888780EAD6
:1021C00090E00AC068E6CE010E945A0D80EA90E0D5
:1021D0009987888780E890E09B878A87DF91CF91F5
:1021E0001F910895CF93CFB7F8948091DD038111AB
:1021F00027C0E7EFF5E08491E3EEF5E09491E82F56
:10220000F0E0EE0FFF1FEB5EF94FA591B4918C91BA
:10221000892321F461E08AE00E94551761E08AE099
:102220000E941C178CB580618CBD8CB580648CBD00
:1022300061E08DE00E941C1761E08BE00E941C179A
:102240008091DD038F5F8093DD03CFBFCF91089531
:102250006F927F928F929F92AF92BF92CF92DF92B6
:10226000EF92FF920F931F93CF93DF93EA012CE33A
:10227000C22ED12CE12CF12CA70196010E94D71E71
:102280006883CA01B901A70196010E94D71E69831C
:10229000CA01B90128E130E040E050E00E94D71EB9
:1022A00049015A016A83CA01B9016C5F7F4F8F4FA0
:1022B0009F4F27E030E040E050E00E94D71E6F5F64
:1022C0006B8300E010E0980140E054E6652E712C2D
:1022D00060E9C62EDD24D394E42FF0E0EE54F84FED
:1022E0007F0183E0E822FF24E114F10489F4CF01A7
:1022F000B3010E94C31E892B29F08EE691E0A0E075
:10230000B0E00AC0CF01B6010E94C31E892BA9F319
:102310008DE691E0A0E0B0E0080F191F2A1F3B1FD7
:10232000D901C801AA27BB2788169906AA06BB06A9
:1023300010F04F5FD1CF4E83E114F10499F4CF0137
:1023400064E670E00E94C31E892B29F08EE691E0BE
:10235000A0E0B0E00BC0CF0160E971E00E94C31EB5
:10236000892BA1F38DE691E0A0E0B0E0081B190BEA
:102370002A0B3B0B801A910AA20AB30ACF0164E62A
:1023800070E00E94C31E9C01CF0160E971E00E94D1
:10239000C31EEAE0F2E0A0E0A13059F4E114F10438
:1023A00051F42115310511F04DE106C00097E1F31C
:1023B00002C0408101C04CE150E060E070E0841652
:1023C0009506A606B70640F0841A950AA60AB70A2B
:1023D000AF5F3196AC3001F7AF5FAD8383948C82F1
:1023E000DF91CF911F910F91FF90EF90DF90CF90F1
:1023F000BF90AF909F908F907F906F900895CF92F5
:10240000DF92EF92FF926B017C018091EE0390913D
:10241000EF03A091F003B091F103C816D906EA06C4
:10242000FB0671F042EF53E0C701B6010E9428118C
:10243000C092EE03D092EF03E092F003F092F1032A
:10244000FF90EF90DF90CF9008950E94FF11809150
:10245000F80390E08E54984F08956F927F928F9278
:102460009F92AF92BF92CF92DF92EF92FF920F9323
:102470001F93CF93DF93FC01C680AC2DB0E020E822
:1024800033E341EE51E00E94271F4B015C0122EB38
:1024900037E06D01C4E6D0E000E911E0C901825BDC
:1024A00097408C159D05DCF4C90183709927892B11
:1024B00099F4C901BE010E94C31E892B31F4C901E0
:1024C000B8010E94C31E892B39F480E8880E81E58B
:1024D000981E81E0A81EB11C2F5F3F4FDFCF6580A3
:1024E000712C8EE4C81A88EFD80AC60164E670E041
:1024F0000E94C31E8C01C60160E971E00E94C31EE8
:102500007C01C1E0D0E083E0C822DD24C615D705F8
:102510002CF5C230D10589F4C114D10471F4011530
:10252000110519F4E114F10441F480E8880E8BE3FD
:10253000981E86E2A81EB11C0FC0DE01A75FBD4F2A
:10254000AC91B0E020E831E541E050E00E94271F67
:10255000860E971EA81EB91E2196D8CF41812281D2
:1025600030E0A0E1BEE00E94181F6B017C01242F27
:1025700030E0ACE3B0E00E94181FC60ED71EE81E84
:10258000F91E8081C80ED11CE11CF11CA481B0E0B1
:10259000119720E831E541E050E00E94321FC60E5D
:1025A000D71EE81EF91EC80CD91CEA1CFB1CC7016B
:1025B000B601DF91CF911F910F91FF90EF90DF90C7
:1025C000CF90BF90AF909F908F907F906F90089525
:1025D0000F931F936093EA037093EB038093EC03D4
:1025E0009093ED0300911A0110911B0120911C01A1
:1025F00030911D01060F171F281F391F0093E2039A
:102600001093E3032093E4033093E50382E090E02A
:102610009093E1038093E0030E9439166093E603F0
:102620007093E7038093E8039093E9031F910F9160
:102630000895CF92DF92EF92FF920F931F930E9423
:102640003916C090E603D090E703E090E803F090DD
:10265000E9036C197D098E099F090091EA03109125
:10266000EB032091EC033091ED03683E734081054C
:102670009105D8F00F5F1F4F2F4F3F4F0093EA0394
:102680001093EB032093EC033093ED0348EEC40E5C
:1026900043E0D41EE11CF11CC092E603D092E70394
:1026A000E092E803F092E903CACF8091E2039091AF
:1026B000E303A091E403B091E503081719072A0783
:1026C0003B07C8F1E091DE03F091DF03309799F109
:1026D0000995611571058105910519F00E94E812AF
:1026E0002AC080911A0190911B01A0911C01B09108
:1026F0001D014091EA035091EB036091EC0370914E
:10270000ED03840F951FA61FB71F8093E2039093DC
:10271000E303A093E403B093E50381E090E020910C
:10272000E0033091E103232B11F480E090E09093DB
:10273000E1038093E0036091EA037091EB038091E1
:10274000EC039091ED031F910F91FF90EF90DF90BC
:10275000CF9008950E9419130E94FF118091F403F5
:1027600090E008950E9419130E94FF118091F303D5
:1027700090E008950E9419130E94FF118091F203C6
:1027800090E008950E9419130E94FF118091F603B2
:1027900090E008950E9419130E94FF118091F703A1
:1027A00090E008950E9419130C942512EF92FF9265
:1027B0000F9394E6E916F1042CF092EBE91A97E0F6
:1027C000F90A03C09EE1E90EF11CE092F8030093C0
:1027D000F7032093F6038093F4036093F30340938D
:1027E000F20382EF93E00E942D120F91FF90EF9081
:1027F0000C94E812FF920F931F93CF93DF93FC0189
:102800000081C181D281F8948981F02EF0948F21CA
:10281000898378941DE7115029F182E090E00E94AD
:10282000901688818023B9F3F8948A818F218A8356
:102830008981802B8983789480EE91E00E949016A4
:10284000F89489818F21898386E490E00E94901614
:102850008881802311E009F010E078948AE991E002
:102860000E949016812FDF91CF911F910F91FF90C1
:1028700008951F93CF93DF93FC011081C181D28112
:10288000912F909560FF12C0F8948A8189238A83E2
:102890008981812B89838AE090E00E9490168A8149
:1028A000812B8A83789487E390E011C0F8948A8121
:1028B00089238A838981812B898381E490E00E9426
:1028C00090168A81812B8A83789485E090E0DF914D
:1028D000CF911F910C9490160F931F93CF93DF937A
:1028E000FC011081C181D281F8948981812B898377
:1028F0008A81012F009580238A8383E090E00E94E3
:1029000090168981802389838AE090E00E94901646
:10291000C881789485E390E00E9490161C2381E0A2
:1029200009F480E0DF91CF911F910F910895CF922C
:10293000DF92EF92FF920F931F93CF93DF931F923B
:10294000CDB7DEB76C01E62E08E010E0FF24F3946B
:1029500061E09F2D9E2109F460E0C60149830E9439
:102960003914FF0C0150110949810115110581F736
:10297000411115C0F894D6011196ED91FC91129772
:1029800091818C918095892381831196ED91FC91A1
:10299000129792818C9180958923828378940F90ED
:1029A000DF91CF911F910F91FF90EF90DF90CF902B
:1029B0000895EF92FF920F931F93CF93DF938C01B3
:1029C000C8E0D0E0F12CEE24E394C8010E946C141E
:1029D0008111FE28EE0C2197C1F78F2DDF91CF9149
:1029E0001F910F91FF90EF900895CF92DF92FF9289
:1029F0000F931F93CF93DF931F92CDB7DEB78C0158
:102A0000F62E40E065E579830E949714CF2C7981FA
:102A1000D72E88E0F82EF60161916F0140E0C801E1
:102A20000E949714FA94B9F70F90DF91CF911F91FC
:102A30000F91FF90DF90CF900895FC0113861586CB
:102A4000148627E030E0DF01A20FB31F13961C921B
:102A50002115310519F021503109F5CF08951F9343
:102A6000CF93DF93EC01162F60E0812F0E941C179B
:102A7000612F70E0FB01E752FA4FE491E883FB011C
:102A8000E351FA4FE491F0E0EE0FFF1FEF5FF94FD3
:102A9000859194919A838983CE01DF91CF911F9183
:102AA0000C941D15AF92BF92CF92DF92EF92FF92DE
:102AB0000F931F93CF93DF931F92CDB7DEB75C01C7
:102AC000D62EE72EFC018585811164C0C50149839E
:102AD0000E94FA134981811105C0F50113861586FC
:102AE000148671C0442319F040E060EF02C040E05A
:102AF0006CEEC5010E94971401E0F12CC12C11E08D
:102B0000C5010E946C14682FC50169830E946C1472
:102B10006981613019F48130B9F433C02F2D30E070
:102B200068131BC0F5018385181730F4E20FF31FFB
:102B30008381802349F402C0181731F060E0193016
:102B400058F4F501148708C0F501EF0DF11D8381DC
:102B5000802B838361E009C0C12EF501E20FF31FD2
:102B60008381902F909589238383C5010E94391416
:102B70001F5F000F11F4F39401E0F7E0FF1508F078
:102B8000BFCF113438F0F501C386C11009C081E010
:102B9000858706C0F50113861586148680E013C06C
:102BA000F50183818823B1F3ED2DFE2D80E090E0C7
:102BB000D501A80FB91F13962C9121930196883047
:102BC0009105B1F781E00F90DF91CF911F910F91A7
:102BD000FF90EF90DF90CF90BF90AF9008951F923D
:102BE0000F920FB60F9211242F933F938F939F93C1
:102BF000AF93BF938091FA039091FB03A091FC03E4
:102C0000B091FD033091F90323E0230F2D3720F419
:102C10000196A11DB11D05C026E8230F0296A11D36
:102C2000B11D2093F9038093FA039093FB03A093C3
:102C3000FC03B093FD038091FE039091FF03A091EC
:102C40000004B09101040196A11DB11D8093FE0303
:102C50009093FF03A0930004B0930104BF91AF9140
:102C60009F918F913F912F910F900FBE0F901F90CA
:102C700018952FB7F8946091FA037091FB03809137
:102C8000FC039091FD032FBF08953FB7F894809106
:102C9000FE039091FF03A0910004B091010426B5BA
:102CA000A89B05C02F3F19F00196A11DB11D3FBF84
:102CB0006627782F892F9A2F620F711D811D911D14
:102CC00042E0660F771F881F991F4A95D1F7089534
:102CD000CF92DF92EF92FF92CF93DF936B017C0153
:102CE0000E944516EB01C114D104E104F10489F0FE
:102CF0000E94681D0E9445166C1B7D0B683E734048
:102D000090F381E0C81AD108E108F108C851DC4FFE
:102D1000EACFDF91CF91FF90EF90DF90CF900895B1
:102D20008230910538F0880F991F880F991F0597F9
:102D30000197F1F70895789484B5826084BD84B5D5
:102D4000816084BD85B5826085BD85B5816085BDA6
:102D5000EEE6F0E0808181608083E1E8F0E01082BF
:102D6000808182608083808181608083E0E8F0E000
:102D7000808181608083E1EBF0E0808184608083EA
:102D8000E0EBF0E0808181608083EAE7F0E0808121
:102D90008460808380818260808380818160808381
:102DA0008081806880831092C10008958E3008F081
:102DB0008E50877020911E0190E4299F900111246C
:102DC000822B80937C0080917A00806480937A00CB
:102DD00080917A0086FDFCCF809178002091790067
:102DE00090E0922B0895833081F028F4813099F09F
:102DF0008230A1F008958730A9F08830B9F084308E
:102E0000D1F4809180008F7D03C0809180008F7706
:102E100080938000089584B58F7702C084B58F7D3C
:102E200084BD08958091B0008F7703C08091B00079
:102E30008F7D8093B0000895CF93DF9390E0FC01E5
:102E4000E752FA4F2491FC01E351FA4F8491882311
:102E500049F190E0880F991FFC01EB5EF94FA591B5
:102E6000B491855F994FFC01C591D4919FB76111D1
:102E700008C0F8948C91209582238C9388818223BA
:102E80000AC0623051F4F8948C91322F309583232C
:102E90008C938881822B888304C0F8948C91822B38
:102EA0008C939FBFDF91CF9108950F931F93CF9382
:102EB000DF931F92CDB7DEB7282F30E0F901EB5337
:102EC000FA4F8491F901E752FA4F1491F901E35155
:102ED000FA4F04910023C9F0882321F069830E94EE
:102EE000F3166981E02FF0E0EE0FFF1FE55FF94F69
:102EF000A591B4919FB7F8948C91611103C010957E
:102F0000812301C0812B8C939FBF0F90DF91CF91C4
:102F10001F910F910895FC01818D228D90E0805CBE
:102F20009F4F821B91098F7399270895FC01918D02
:102F3000828D981731F0828DE80FF11D858D90E01C
:102F400008958FEF9FEF0895FC01918D828D981762
:102F500061F0828DDF01A80FB11D5D968C91928D7D
:102F60009F5F9F73928F90E008958FEF9FEF08957A
:102F700088E299E1892B49F080E090E0892B29F0E3
:102F80000E94281981110C9400000895FC01848D81
:102F9000DF01A80FB11DA35ABF4F2C91848D90E083
:102FA00001968F739927848FA689B7892C93A0895E
:102FB000B1898C9180648C93938D848D981306C015
:102FC0000288F389E02D80818F7D80830895CF93DF
:102FD000DF93EC01888D8823C9F0EA89FB89808121
:102FE00085FD05C0A889B9898C9186FD0FC00FB6F3
:102FF00007FCF5CF808185FFF2CFA889B9898C9134
:1030000085FFEDCFCE010E94C617E7CFDF91CF91AC
:103010000895CF92DF92FF920F931F93CF93DF9388
:103020001F92CDB7DEB76C0181E0D60158968C9324
:1030300058975B969C915B975C968C915C979813E4
:1030400007C05096ED91FC915197808185FD2EC06F
:10305000F601038D10E00F5F1F4F0F731127F02E45
:10306000F601848DF81211C00FB607FCF9CFD60116
:103070005096ED91FC915197808185FFF1CFC6016B
:1030800069830E94C6176981EBCF838DE80FF11D1C
:10309000E35AFF4F6083D6015B960C935B97529681
:1030A000ED91FC915397808180620CC0D6015696B9
:1030B000ED91FC91579760835096ED91FC9151975B
:1030C00080818064808381E090E00F90DF91CF91D8
:1030D0001F910F91FF90DF90CF900895BF92CF92F4
:1030E000DF92EF92FF92CF93DF93EC016A017B01B5
:1030F000B22EE889F98982E08083411581EE580774
:1031000061057105A1F060E079E08DE390E0A70131
:1031100096010E94D71E2150310941095109569547
:10312000479537952795211580E1380798F0E8896C
:10313000F989108260E874E88EE190E0A7019601B9
:103140000E94D71E215031094109510956954795D2
:1031500037952795EC85FD853083EE85FF852083A7
:10316000188EEC89FD89B082EA89FB8980818061B3
:103170008083EA89FB89808188608083EA89FB8972
:10318000808180688083EA89FB8980818F7D80834C
:10319000DF91CF91FF90EF90DF90CF90BF90089597
:1031A0001F920F920FB60F9211242F938F939F931C
:1031B000EF93FF93E0911204F09113048081E0916A
:1031C0001804F091190482FD12C0908180911B04B3
:1031D0008F5F8F7320911C04821751F0E0911B04C4
:1031E000F0E0EE5FFB4F958F80931B0401C0808160
:1031F000FF91EF919F918F912F910F900FBE0F90A4
:103200001F9018951F920F920FB60F9211242F93B3
:103210003F934F935F936F937F938F939F93AF935E
:10322000BF93EF93FF9382E094E00E94C617FF9153
:10323000EF91BF91AF919F918F917F916F915F912E
:103240004F913F912F910F900FBE0F901F901895A7
:1032500082E094E00E948B1721E0892B09F420E0A2
:10326000822F0895109205041092040488EE93E0D2
:10327000A0E0B0E08093060490930704A0930804B4
:10328000B09309048AE192E09093030480930204CE
:1032900085EC90E090930F0480930E0484EC90E012
:1032A000909311048093100480EC90E090931304A9
:1032B0008093120481EC90E09093150480931404A1
:1032C00082EC90E0909317048093160486EC90E0D3
:1032D000909319048093180410921B0410921C04FC
:1032E00010921D0410921E040895CF92DF92EF9267
:1032F000FF920F931F93CF93DF937C016A01EB0141
:1033000000E010E00C151D0571F06991D701ED91F9
:10331000FC910190F081E02DC7010995892B19F0EE
:103320000F5F1F4FEFCFC801DF91CF911F910F911A
:10333000FF90EF90DF90CF9008956115710581F0B7
:10334000DB010D900020E9F7AD0141505109461B0A
:10335000570BDC01ED91FC910280F381E02D099483
:1033600080E090E008950C949D1966E272E00C9460
:103370009D190F931F93CF93DF93EC010E949D192A
:103380008C01CE010E94B519800F911FDF91CF9162
:103390001F910F9108950F931F93CF93DF93EC012B
:1033A0000E943916688779878A879B87E881F98127
:1033B0000680F781E02DCE01099597FF15C00E9488
:1033C0003916088519852A853B85601B710B820B90
:1033D000930B0C811D812E813F816017710782073D
:1033E000930720F38FEF9FEFDF91CF911F910F9104
:1033F00008950F931F93CF93DF93EC010E9439162A
:10340000688779878A879B87E881F9810084F185BD
:10341000E02DCE01099597FF15C00E943916088549
:1034200019852A853B85601B710B820B930B0C81E0
:103430001D812E813F81601771078207930720F35A
:103440008FEF9FEFDF91CF911F910F910895FF9222
:103450000F931F93CF93DF93EC018B01F42ECE01DA
:103460000E94F9199C0197FD28C08D32910519F130
:10347000C0970A9710F1FF2019F02E323105F9F0AC
:1034800001301105F9F00230110569F42D303105D4
:1034900051F034F4295031092230310520F012C0A6
:1034A0002032310579F4E881F9810680F781E02D39
:1034B000CE010995D4CF8DE203C0C90105C08EE2CB
:1034C00090E002C08FEF9FEFDF91CF911F910F919E
:1034D000FF900895CF92DF92FF920F931F93CF93A7
:1034E000DF9300D000D0CDB7DEB76C01042F40E0F1
:1034F0000E94271AFC0197FD4BC020E030E0A90193
:10350000F12C112707FD1095E017F107E9F0ED32D6
:10351000F105C1F0CF01C0970A97B0F4AAE0B0E07E
:103520000E94271F9B01AC01CF01AA2797FDA09500
:10353000BA2F280F391F4A1F5B1F20533109410939
:10354000510902C0FF24F394D601ED91FC9106804D
:10355000F781E02DC60129833A834B835C8309956B
:10356000C6010E94F919FC01C09729813A814B815B
:103570005C810A9748F2E017F10731F2FF2061F011
:1035800066277727CB01621B730B840B950B06C054
:1035900060E070E0CB0102C0CA01B9010F900F904A
:1035A0000F900F90DF91CF911F910F91FF90DF90BF
:1035B000CF900895EF92FF920F931F93CF93DF93D5
:1035C000EC018B01E42E68E272E00E94B71BC80197
:1035D0000E94CB19FF24E7FCF09497FD0BC08E15D9
:1035E0009F0541F0682FCE010E948D1CC8010E94EA
:1035F000CB19F3CFCE01DF91CF911F910F91FF90A7
:10360000EF9008954F925F926F927F92AF92BF9228
:10361000CF92DF92EF92FF920F931F93CF93DF939E
:10362000CDB7DEB729013A01621B730B840B950BF2
:1036300029893A894B895C892A193B094C095D091A
:10364000298B3A8B4B8B5C8B9B01AC0169897A8906
:103650008B899C890E94B31EE418F5080609170996
:10366000A80197010E94F91E2A0D3B1D4C1D5D1DEE
:10367000CA01B901DF91CF911F910F91FF90EF9097
:10368000DF90CF90BF90AF907F906F905F904F9002
:103690000895FC01808191810C940D20CF93DF93DC
:1036A000EC0188819981009711F00E940D20198208
:1036B00018821D821C821B821A82DF91CF9108958D
:1036C0000F931F93CF93DF93EC018B016F5F7F4FBD
:1036D000888199810E949C20009731F0998388838A
:1036E0001B830A8381E001C080E0DF91CF911F91AD
:1036F0000F910895CF93DF93EC0188819981892BF5
:1037000029F08A819B818617970760F4CE010E9479
:10371000601B882341F08C819D81892B19F4E881FD
:10372000F981108281E0DF91CF910895EF92FF92AD
:103730000F931F93CF93DF93EC017B018A01BA01B2
:103740000E947A1B811104C0CE010E944E1B07C04B
:103750001D830C83B701888199810E947421CE0159
:10376000DF91CF911F910F91FF90EF900895FC0191
:1037700011821082138212821582148261157105E2
:1037800059F0FB0101900020E9F7AF0141505109C8
:10379000461B570B0C94961B0895CF93DF93EC01B7
:1037A000FB018617970761F06081718161157105D2
:1037B00029F0448155810E94961B02C00E944E1B35
:1037C000CE01DF91CF910895FC0111821082138206
:1037D0001282158214820C94CD1BCF93DF93EC01DF
:1037E0006115710561F0FB0101900020E9F7AF015F
:1037F00041505109461B570B0E94961B02C00E9464
:103800004E1BCE01DF91CF9108950F931F93CF935D
:10381000DF93CDB7DEB762970FB6F894DEBF0FBE69
:10382000CDBF8C01CB01F80111821082138212826C
:103830001582148250E0BE016F5F7F4F0E94982175
:10384000BE016F5F7F4FC8010E94ED1B62960FB6ED
:10385000F894DEBF0FBECDBFDF91CF911F910F91C6
:103860000895EF92FF920F931F93CF93DF93CDB7FD
:10387000DEB7A1970FB6F894DEBF0FBECDBF7C01B7
:10388000CB01BA01F70111821082138212821582D4
:10389000148242E0420F8E010F5F1F4F0E94541F9F
:1038A000BC01C7010E94ED1BA1960FB6F894DEBFC4
:1038B0000FBECDBFDF91CF911F910F91FF90EF9081
:1038C0000895EF92FF920F931F93CF93DF93EC0134
:1038D0007B010C811D816115710511F480E016C01A
:1038E0004115510591F0040F151FB8010E947A1B74
:1038F0008823A1F3288139818C819D81B701820FB2
:10390000931F0E9474211D830C8381E0DF91CF916E
:103910001F910F91FF90EF900895CF93DF9300D008
:10392000CDB7DEB769831A8241E050E0BE016F5F18
:103930007F4F0E94611C0F900F90DF91CF910895EF
:10394000EF92FF920F931F93CF93DF93CDB7DEB724
:1039500028970FB6F894DEBF0FBECDBF7C01CB0118
:103960004AE08E010F5F1F4FB8010E94A321F801AA
:1039700001900020E9F7AF0141505109401B510B64
:10398000B801C7010E94611C28960FB6F894DEBFEB
:103990000FBECDBFDF91CF911F910F91FF90EF90A0
:1039A0000895CF93DF93EC016115710569F0FB0178
:1039B00001900020E9F7AF0141505109461B570B18
:1039C0000E94611C811103C0CE010E944E1BCE01DA
:1039D000DF91CF910895CF93DF93EC010E94A01C5B
:1039E000811103C0CE010E944E1BCE01DF91CF9109
:1039F0000895FA01DB0114964D915C911597DC0155
:103A000014962D913C911597241B350B2E173F07CB
:103A100088F08D919C91009769F0DB016D917C910C
:103A20006115710539F08E0F9F1F0E947B2121E0E7
:103A3000892B09F020E0822F0895FC0144815581F3
:103A4000FB01248135814217530720F040E050E00C
:103A50000C94F91C80E008950F931F93CF93DF938C
:103A6000EB0141155105E9F02097D9F0FC01648183
:103A7000758126173707A0F4621B730B8A0101506A
:103A800011096017710708F48B01FC0160817181D5
:103A9000620F731FA801CE010E948921C00FD11FA0
:103AA0001882DF91CF911F910F9108950E94662196
:103AB00008950E949B160E94581D0E944604C8EB60
:103AC000D7E10E9490042097E1F30E94B817F9CF44
:103AD000089571D008F481E0089504D06894B1117C
:103AE000D9C00895BCD088F09F5790F0B92F99277E
:103AF000B751A0F0D1F0660F771F881F991F1AF0F9
:103B0000BA95C9F712C0B13081F0C3D0B1E00895C1
:103B1000C0C0672F782F8827B85F39F0B93FCCF342
:103B2000869577956795B395D9F73EF490958095EE
:103B3000709561957F4F8F4F9F4F0895E89409C00E
:103B400097FB3EF490958095709561957F4F8F4FD0
:103B50009F4F9923A9F0F92F96E9BB279395F695E6
:103B6000879577956795B795F111F8CFFAF4BB0F64
:103B700011F460FF1BC06F5F7F4F8F4F9F4F16C0C8
:103B8000882311F096E911C0772321F09EE8872F52
:103B9000762F05C0662371F096E8862F70E060E00E
:103BA0002AF09A95660F771F881FDAF7880F969587
:103BB000879597F90895990F0008550FAA0BE0E82B
:103BC000FEEF16161706E807F907C0F012161306DF
:103BD000E407F50798F0621B730B840B950B39F41F
:103BE0000A2661F0232B242B252B21F408950A2685
:103BF00009F4A140A6958FEF811D811D089597F9C5
:103C00009F6780E870E060E008959FEF80EC089582
:103C100000240A94161617061806090608950024AB
:103C20000A9412161306140605060895092E039425
:103C3000000C11F4882352F0BB0F40F4BF2B11F499
:103C400060FF04C06F5F7F4F8F4F9F4F089557FDF8
:103C50009058440F551F59F05F3F71F04795880FFA
:103C600097FB991F61F09F3F79F087950895121691
:103C700013061406551FF2CF4695F1DF08C016163D
:103C800017061806991FF1CF8695710561050894EE
:103C90000895E894BB2766277727CB0197F9089505
:103CA0000BD0C4CFB5DF28F0BADF18F0952309F0A8
:103CB000A6CFABCF1124EECFCADFA0F3959FD1F3EF
:103CC000950F50E0551F629FF001729FBB27F00DCA
:103CD000B11D639FAA27F00DB11DAA1F649F66271F
:103CE000B00DA11D661F829F2227B00DA11D621F6E
:103CF000739FB00DA11D621F839FA00D611D221F28
:103D0000749F3327A00D611D231F849F600D211D0B
:103D1000822F762F6A2F11249F5750408AF0E1F0AE
:103D200088234AF0EE0FFF1FBB1F661F771F881FF7
:103D300091505040A9F79E3F510570F060CFAACF37
:103D40005F3FECF3983EDCF3869577956795B795E2
:103D5000F795E7959F5FC1F7FE2B880F911D96950C
:103D6000879597F90895DB018F939F930E94271FF2
:103D7000BF91AF91A29F800D911DA39F900DB29F07
:103D8000900D1124089597FB072E16F4009407D088
:103D900077FD09D00E943A1F07FC05D03EF49095AC
:103DA00081959F4F0895709561957F4F0895A1E289
:103DB0001A2EAA1BBB1BFD010DC0AA1FBB1FEE1FA5
:103DC000FF1FA217B307E407F50720F0A21BB30BF0
:103DD000E40BF50B661F771F881F991F1A9469F76C
:103DE00060957095809590959B01AC01BD01CF01C8
:103DF0000895052E97FB1EF400940E94101F57FD96
:103E000007D00E94D71E07FC03D04EF40C94101F5D
:103E100050954095309521953F4F4F4F5F4F0895F6
:103E200090958095709561957F4F8F4F9F4F089526
:103E3000A29FB001B39FC001A39F700D811D1124EB
:103E4000911DB29F700D811D1124911D08950E9436
:103E5000181FA59F900DB49F900DA49F800D911DDC
:103E600011240895B7FF0C94271F0E94271F821B5F
:103E7000930B0895AA1BBB1B51E107C0AA1FBB1FD0
:103E8000A617B70710F0A61BB70B881F991F5A95E6
:103E9000A9F780959095BC01CD010895EE0FFF1F05
:103EA0000590F491E02D0994EF920F931F93CF9317
:103EB000DF93E80147FF02C034E101C034E0E42FA2
:103EC000FF27E7FDF095F7FF03C0F195E195F109B4
:103ED000E32E022F2E2FAE010E94C821CE01DF91CA
:103EE000CF911F910F91EF900895CF93DF93823080
:103EF000910510F482E090E0E091A104F091A20419
:103F000020E030E0A0E0B0E0309739F1408151810D
:103F100048175907B8F04817590771F482819381FF
:103F2000109729F013969C938E9312972CC0909320
:103F3000A2048093A10427C02115310531F0421756
:103F4000530718F0A901DB0101C0EF019A01BD017F
:103F5000DF010280F381E02DD7CF21153105F9F083
:103F6000281B390B2430310580F48A819B8161152F
:103F7000710521F0FB019383828304C09093A20416
:103F80008093A104FE01329644C0FE01E20FF31FAC
:103F90008193919322503109398328833AC020912B
:103FA0009F043091A004232B41F420910201309111
:103FB00003013093A00420939F04209100013091CD
:103FC00001012115310541F42DB73EB7409104019F
:103FD00050910501241B350BE0919F04F091A00442
:103FE000E217F307A0F42E1B3F0B2817390778F0D0
:103FF000AC014E5F5F4F2417350748F04E0F5F1F2F
:104000005093A00440939F048193919302C0E0E0F9
:10401000F0E0CF01DF91CF910895CF93DF93009728
:1040200009F487C0FC01329713821282C091A10467
:10403000D091A204209781F420813181280F391F6B
:1040400080919F049091A0048217930779F5F093D3
:10405000A004E0939F046DC0DE0120E030E0AE17C5
:10406000BF0750F412964D915C9113979D01411535
:10407000510509F1DA01F3CFB383A2834081518165
:10408000840F951F8A179B0771F48D919C9111974E
:10409000840F951F02969183808312968D919C9137
:1040A0001397938382832115310529F4F093A20499
:1040B000E093A1043EC0D9011396FC93EE931297AE
:1040C0004D915D91A40FB51FEA17FB0779F480812C
:1040D0009181840F951F0296D90111969C938E931E
:1040E0008281938113969C938E931297E0E0F0E087
:1040F0008A819B81009719F0FE01EC01F9CFCE0176
:10410000029628813981820F931F20919F0430915C
:10411000A0042817390769F4309729F41092A204F3
:104120001092A10402C013821282D093A004C09303
:104130009F04DF91CF910895A0E0B0E0E2EAF0E2C1
:104140000C943224EC01CB01209719F40E94751FC6
:10415000B8C0FE01E60FF71F9E0122503109E21799
:10416000F30708F4ACC0D9010D911C911197061703
:104170001707B8F00530110508F49FC0A801445096
:1041800051094617570708F498C002501109061B39
:10419000170B019311936D937C93CF010E940D2017
:1041A0008CC05B01A01AB10A4E01800E911EA09135
:1041B000A104B091A204612C712C60E070E0109712
:1041C00009F449C0A815B905C9F5ED90FC901197FF
:1041D000670142E0C40ED11CCA14DB0478F1470128
:1041E0008A189B08640142E0C40ED11C1296BC9050
:1041F00012971396AC91B5E0CB16D10440F0B28281
:10420000A38391828082D9018D939C9309C00E5F14
:104210001F4F0E0D1F1DF90111830083EB2DFA2F87
:104220006115710531F0DB011396FC93EE93129743
:1042300044C0F093A204E093A1043FC06D917C912F
:1042400011976616770608F43B01BD0112960D9092
:10425000BC91A02DB4CF60919F047091A00468150B
:104260007905E9F468167906D0F44091000150917F
:1042700001014115510541F44DB75EB7609104014C
:1042800070910501461B570BE417F507C0F4F09336
:10429000A004E0939F04F901918380830EC00E94E3
:1042A000751F7C01009759F0A801BE010E946B2187
:1042B000CE010E940D20C70104C0CE0102C080E0E3
:1042C00090E0CDB7DEB7EEE00C944E2481E090E0B4
:1042D000F8940C946524FB01DC0102C001900D925E
:1042E00041505040D8F70895FB01DC0101900D9238
:1042F0000020E1F70895FB01DC014150504030F00F
:104300008D910190801919F40020B9F7881B990B41
:104310000895FB01DC014150504048F001900D929E
:104320000020C9F701C01D9241505040E0F70895A8
:104330004532510520F4423010F00C94A321FB01CA
:104340001082CB010895BB274A3031F4992322F41F
:10435000BDE2909581959F4F0C94AF21BB27FB0147
:104360005527AA27880F991FAA1FA41710F0A41B6E
:1043700083955051B9F7A05DAA3308F0A95DA193C8
:10438000009779F7B111B1931192CB010C941E24CF
:104390006F927F929F92AF92BF92CF92DF92EF92F5
:1043A000FF920F931F93CF93DF93CDB7DEB729977B
:1043B0000FB6F894DEBF0FBECDBF6A01B22E102F2C
:1043C0000C3320F4FF24F394F00E02C04CE3F42EDF
:1043D0000F2D27E0AE014F5F5F4F0E94462379818A
:1043E000272F2970213031F0E1FC06C0E0FC06C027
:1043F00060E005C06DE203C06BE201C060E2AE2D7B
:10440000A07173FF36C0662311F084E001C083E021
:104410008B1510F4B81A01C0B12CA1110BC0F60114
:104420008B2D90E2882319F091938150FBCFCB0C18
:10443000D11CB12C662331F0F601608396012F5F09
:104440003F4F6901C6010396E2FE05C02EE4F60166
:10445000208331E404C02EE6F601208331E6318367
:104460002283FC012B2D30E22223F1F131932150E4
:10447000FBCF72FF40C0662311F084E001C083E0EF
:104480008B1510F4B81A01C0B12CA1110BC0F601A4
:104490008B2D90E2882319F091938150FBCFCB0CA8
:1044A000D11CB12C662331F0F601608396012F5F99
:1044B0003F4F6901C6010396E2FE07C029E4F601F9
:1044C00020832EE4218326E406C029E6F60120831A
:1044D0002EE6218326E62283FC012B2D30E22223C7
:1044E00019F031932150FBCFFC01EB0DF11D10822F
:1044F0008EEF9FEFB7C0B1E0611101C0B0E04B2F6C
:1045000050E01816190624F49C012F5F3F4F02C09B
:1045100021E030E0240F351F112329F0412F50E016
:104520004F5F5F4F02C040E050E0420F531F2B2D02
:1045300030E04217530714F4B41A01C0B12C2E2DE9
:10454000287159F4F6012B2D30E2222319F0319312
:104550002150FBCFCB0CD11CB12CBB2331F0F60189
:10456000608396012F5F3F4F6901A1110BC0F601D7
:104570002B2D30E3222319F031932150FBCFCB0CAC
:10458000D11CB12CF80E0A81372F3071A32E74FF85
:1045900003C0013309F4FA941F142CF42F2D293091
:1045A00018F028E001C021E0682F392F97FF02C0E2
:1045B00060E030E0462F532F612C712C3EE2932EA9
:1045C000BC01621B71099B01DC01A41BB50BE1E07E
:1045D000F0E0EC0FFD1FAE0FBF1FE12EF12CF194A8
:1045E000E194F1084F3FFFEF5F0731F4F60190824D
:1045F000B6016F5F7F4F6B01841795074CF024174E
:10460000350734F4BD01660D771DFB01118101C032
:1046100010E341505109FFEF6F1A7F0AB6016F5F37
:104620007F4F4E155F0524F0F60110836B01DACF42
:104630004817590739F4063320F4053319F4A1104B
:1046400001C011E3F6011083FB018B2D90E288235A
:1046500019F091938150FBCFFB01EB0DF11D1082FE
:1046600080E090E029960FB6F894DEBF0FBECDBF74
:10467000DF91CF911F910F91FF90EF90DF90CF903E
:10468000BF90AF909F907F906F900895283008F072
:1046900027E03327DA01990F311D87FD91600096DD
:1046A0006105710539F432602E5F3D9330E32A9540
:1046B000E1F708959F3F30F080387105610509F0FA
:1046C0003C5F3C5F3D93913008F08068911DDF9323
:1046D000CF931F930F93FF92EF92192F987F969588
:1046E000E92F96959695E90FFF27E758F94F9927F7
:1046F0003327EE24FF24A701E701059008940794CF
:1047000028F4360FE71EF81E491F511D660F771F4C
:10471000881F991F0694A1F70590079428F4E70EC7
:10472000F81E491F561FC11D770F881F991F661F4E
:104730000694A1F70590079428F4F80E491F561F18
:10474000C71FD11D880F991F661F771F0694A1F7F9
:104750000590079420F4490F561FC71FD81F990FC3
:10476000661F771F881F0694A9F78491109517700C
:1047700041F0D695C79557954795F794E7941A95C4
:10478000C1F7EFE1F6E068941590159135916591C8
:10479000959105907FE27395E118F10A430B560B52
:1047A000C90BD009C0F7E10CF11E431F561FC91FEA
:1047B000D01D7EF4703311F48A95E6CFE894015051
:1047C00030F0080F0AF40027021708F4202F239571
:1047D000022F7A3328F079E37D932A95E9F710C008
:1047E0007D932A9589F60694979567953795179541
:1047F0001794E118F10A430B560BC90BD00998F036
:1048000023957E9173957A3308F070E37C9320139F
:10481000B8F77E9170617D9330F0839571E37D935D
:1048200070E32A95E1F71124EF90FF900F911F910B
:10483000CF91DF91992787FD90950895DC01FC01C8
:10484000672F71917723E1F7329704C07C916D93C4
:1048500070836291AE17BF07C8F308952F923F92FD
:104860004F925F926F927F928F929F92AF92BF9280
:10487000CF92DF92EF92FF920F931F93CF93DF932C
:10488000CDB7DEB7CA1BDB0B0FB6F894DEBF0FBE89
:10489000CDBF09942A88398848885F846E847D84D6
:1048A0008C849B84AA84B984C884DF80EE80FD80D8
:1048B0000C811B81AA81B981CE0FD11D0FB6F8944E
:0E48C000DEBF0FBECDBFED010895F894FFCF0F
:1048CE000000A3048000010000000E0001000100A2
:1048DE0001000100E007010001002C01000001446D
:1048EE00617461202020202020204F7261005465C9
:1048FE006D70657261747572610043616D70696F80
:10490E006E616D656E746F006D696E2E00496E205E
:10491E006D656D6F726961003430202D20202D2061
:10492E00202D20202D20202D20202D20202D003345
:10493E0030202D20202D20202D20202D20202D2018
:10494E00202D20202D003230202D20202D20202D16
:10495E0020202D20202D20202D20202D0031302014
:10496E002D20202D20202D20202D20202D20202DEB
:10497E0020202D003000446174653A0000000000D4
:10498E00AB0B7519FC0E1E09540FC00FD5092C1058
:10499E00540C530DA50A00000000AB0B7519561DE3
:1049AE001E09240A3B0AD509510A860AA40AA50A39
:1049BE0000000000AB0B7519FC0E1E09540FC00F42
:1049CE00D5092C10540C530DA50A1F1C1F1E1F1E9B
:1049DE001F1F1E1F1E1F00000000091875198B17C0
:1049EE00A4179617E7170D0A006E616E00696E66C2
:0649FE00006F7666000068
:00000001FF
