:100000000C9412030C943A030C943A030C943A03A4
:100010000C943A030C943A030C943A030C943A036C
:100020000C943A030C943A030C943A030C943A035C
:100030000C943A030C943A030C943A030C943A034C
:100040000C94C3120C943A030C94A4150C94D6157A
:100050000C943A030C943A030C943A030C943A032C
:100060000C943A030C943A0300000000003E5B4FEE
:100070005B3E3E6B4F6B3E1C3E7C3E1C183C7E3C08
:10008000181C577D571C1C5E7F5E1C00183C180016
:10009000FFE7C3E7FF0018241800FFE7DBE7FF30A6
:1000A000483A060E2629792926407F050507407F14
:1000B00005253F5A3CE73C5A7F3E1C1C08081C1C87
:1000C0003E7F14227F22145F5F005F5F06097F017D
:1000D0007F006689956A606060606094A2FFA29468
:1000E00008047E040810207E201008082A1C080836
:1000F0001C2A08081E101010100C1E0C1E0C303884
:100100003E3830060E3E0E06000000000000005F84
:1001100000000007000700147F147F14242A7F2AA0
:100120001223130864623649562050000807030062
:10013000001C2241000041221C002A1C7F1C2A08AE
:10014000083E080800807030000808080808000011
:1001500060600020100804023E5149453E00427F85
:10016000400072494949462141494D331814127FD4
:100170001027454545393C4A494931412111090774
:100180003649494936464949291E000014000000F5
:1001900040340000000814224114141414140041C7
:1001A00022140802015909063E415D594E7C121184
:1001B000127C7F494949363E414141227F414141BC
:1001C0003E7F494949417F090909013E4141517337
:1001D0007F0808087F00417F41002040413F017FA8
:1001E000081422417F404040407F021C027F7F0470
:1001F00008107F3E4141413E7F090909063E4151B9
:10020000215E7F09192946264949493203017F01A8
:10021000033F4040403F1F2040201F3F4038403FA9
:10022000631408146303047804036159494D4300BF
:100230007F4141410204081020004141417F0402F6
:10024000010204404040404000030708002054548D
:1002500078407F284444383844444428384444286B
:100260007F385454541800087E090218A4A49C78BE
:100270007F0804047800447D40002040403D007F1A
:100280001028440000417F40007C047804787C08FA
:100290000404783844444438FC18242418182424CE
:1002A00018FC7C08040408485454542404043F44B3
:1002B000243C4040207C1C2040201C3C4030403CE2
:1002C00044281028444C9090907C4464544C440042
:1002D00008364100000077000000413608000201A6
:1002E0000204023C2623263C1EA1A161123A404092
:1002F000207A385454555921555579412154547810
:1003000041215554784020545579400C1E527212A8
:100310003955555559395454545939555454580030
:1003200000457C410002457D420001457C40F029AA
:100330002429F0F0282528F07C54554500205454F9
:100340007C547C0A097F493249494932324848483D
:1003500032324A4848303A4141217A3A4240207884
:10036000009DA0A07D39444444393D4040403D3C7F
:1003700024FF2424487E4943662B2FFC2F2BFF09A2
:1003800029F620C0887E0903205454794100004496
:100390007D413048484A32384040227A007A0A0A81
:1003A000727D0D19317D2629292F282629292926F4
:1003B00030484D4020380808080808080808382F39
:1003C00010C8ACBA2F102834FA00007B00000814C3
:1003D0002A142222142A1408AA005500AAAA55AAEF
:1003E00055AA000000FF00101010FF00141414FFA5
:1003F000001010FF00FF1010F010F0141414FC0097
:100400001414F700FF0000FF00FF1414F404FC14A0
:100410001417101F10101F101F1414141F00101099
:1004200010F0000000001F101010101F101010100E
:10043000F010000000FF101010101010101010FF2E
:1004400010000000FF140000FF00FF00001F101745
:100450000000FC04F414141710171414F404F4002E
:1004600000FF00F714141414141414F700F71414F4
:1004700014171410101F101F141414F4141010F07B
:1004800010F000001F101F0000001F14000000FCEF
:10049000140000F010F01010FF10FF141414FF14DB
:1004A0001010101F00000000F010FFFFFFFFFFF012
:1004B000F0F0F0F0FFFFFF0000000000FFFF0F0F63
:1004C0000F0F0F38444438447C2A2A3E147E02021F
:1004D0000606027E027E0263554941633844443C6D
:1004E00004407E201E2006027E020299A5E7A599FF
:1004F0001C2A492A1C4C7201724C304A4D4D303036
:1005000048784830BC625A463D3E494949007E0120
:1005100001017E2A2A2A2A2A44445F444440514A3F
:10052000444040444A51400000FF0103E080FF0086
:100530000008086B6B083612362436060F090F06C2
:10054000000018180000001010003040FF010100EA
:100550001F01011E00191D1712003C3C3C3C00000D
:1005600000000013018032118064260104B1020BE7
:1005700014C0020800C10105C5024130C701C1EC29
:10058000011B3A8155642A040000007F2B040000FF
:10059000009F3601C8B70100F20100E08F28242235
:1005A000312B0E53A5421618121A140332E18F177D
:1005B0001B1D0E14112CA53D09272D252B3C321394
:1005C000800A2980FF0000000800020100000304E7
:1005D0000700000000000000000102040810204095
:1005E0008001020408102001020408102004040401
:1005F00004040404040202020202020303030303CC
:100600000300000000230026002900000000002550
:100610000028002B0000000000240027002A000012
:100620005207061611241FBECFEFD8E0DEBFCDBFA4
:1006300013E0A0E0B1E0E6EBF9E302C005900D9213
:10064000AA31B107D9F726E0AAE1B3E001C01D92B3
:10065000A535B207E1F716E0C4E2D6E004C0229760
:10066000FE010E943E1AC032D107C9F70E94291923
:100670000C94D91C0C940000DC01ED91FC910190CC
:10068000F081E02D09942FEF4FEF6FEF80E795E0B9
:100690000E947C0A61E080E795E00E94600A20E009
:1006A00030E040E050E06AE071E080E795E00E94D1
:1006B000900A20E130E040E050E06BE171E080E73B
:1006C00095E00E94900A20E230E040E050E066E2CF
:1006D00071E080E795E00C94900ACF93DF93EC01F2
:1006E0008A30910530F460E370E084EB95E00E947D
:1006F0003C034AE050E0BE0184EB95E0DF91CF91EE
:100700000C94491726E040E855E260E070E084EB85
:1007100095E00E94421564E371E084EB95E00E944D
:10072000941668E471E084EB95E00E9494166CE501
:1007300071E084EB95E00E94941684EB95E00E94B2
:10074000901664EF71E080E090E00E9430138AE53B
:1007500095E00E942911882381F061E771E084EB24
:1007600095E00E94941660EA71E084EB95E00E94A7
:10077000941684EB95E00E9490160E94301181112E
:100780000AC062ED71E084EB95E00E94941684EB60
:1007900095E00E94901680E795E00E94740720E0A3
:1007A00040E060E080E795E00E946D0A0E9443030C
:1007B00060ED77E080E090E00C9430130F931F938E
:1007C000CF93DF93CDB7DEB7ED970FB6F894DEBFCA
:1007D0000FBECDBF6EEF71E084EB95E00E948716EF
:1007E0000E94B111AB01BC012AE030E084EB95E03E
:1007F0000E946917CE0101960E94431181115AC0CF
:100800006AE072E084EB95E00E9487168B8190E0AD
:100810000E946D036AE370E084EB95E00E943C0364
:100820008A8190E00E946D036AE370E084EB95E0BA
:100830000E943C03898190E00E946D0364E172E0B4
:1008400084EB95E00E9487164AE050E06D8184EBCE
:1008500095E00E9476176FE270E084EB95E00E94CD
:100860003C034AE050E06E8184EB95E00E947617ED
:100870006FE270E084EB95E00E943C036F8170E0D2
:100880006E54784F4AE050E084EB95E00E9449179F
:1008900066E272E084EB95E00E9487164AE050E041
:1008A0006C8184EB95E00E94761784EB95E00E94C2
:1008B000901610C06FE272E084EB95E00E949416EF
:1008C00084EB95E00E94901668E273E280E090E08D
:1008D0000E9430136FE572E084EB95E00E9487166A
:1008E00064E083E695E00E94FC0F8F3F2FEF9207B4
:1008F00051F0009729F0029649F46EE772E008C0C3
:1009000068E672E005C06DE672E002C06FE872E072
:1009100084EB95E00E9487166091670570916805E9
:100920008091690590916A050E943919709360055C
:1009300060935F0560916305709164058091650522
:10094000909166050E943919709362056093610564
:1009500041E050E084EB95E00E9449176AE672E0BE
:1009600084EB95E00E94871660915F0570916005A9
:1009700041E050E084EB95E00E94511760916105E1
:10098000709162054AE0CE01C8960E9450186091AD
:100990005F05709160054AE0CE01C2960E94501832
:1009A00020E030E042E050E066E575E0CE01C89618
:1009B0000E94FC1820E030E042E050E068E575E07D
:1009C000CE01C2960E94FC186F8170E06E54784F81
:1009D0004AE0CE018C960E9450181E81BE01645DD3
:1009E0007F4FCE0108960E9402186AE571E0CE01A1
:1009F00008960E94D418612F0E94EE18BC01CE0107
:100A000086960E940218CE0108960E947D171D81CD
:100A1000BE016A5D7F4FCE0108960E9402186AE50A
:100A200071E0CE0108960E94D418612F0E94EE1842
:100A3000BC01CE0180960E940218CE0108960E9449
:100A40007D174AE06B81CE014A960E9423181A81D5
:100A5000BE01665E7F4FCE0108960E9402186FE9C4
:100A600072E0CE0108960E94D418612F0E94EE1801
:100A7000BC01CE0144960E940218CE0108960E9445
:100A80007D171981BE016C5E7F4FCE0108960E94D2
:100A900002186FE972E0CE0108960E94D418612F07
:100AA0000E94EE18BC01CE010E960E940218CE01E3
:100AB00008960E947D1720E030E04BE050E06BE4A8
:100AC00075E0CE0180960E94FC1820E030E049E0FD
:100AD00050E062E475E0CE010E960E94FC1861E0E1
:100AE00080E795E00E94600A2D8130E080911C052E
:100AF00090911D052817390771F120E040E060E072
:100B000080E795E00E947C0A28E030E040E050E079
:100B10006BE275E080E795E00E94900A20E04FEFDD
:100B20006FEF80E795E00E947C0A28E030E040E02B
:100B300050E06BE475E080E795E00E94900A8D81BB
:100B400090E090931D0580931C056BE475E08BE2AB
:100B500095E00E94411C298130E080912005909110
:100B600021052817390771F120E040E060E080E7B7
:100B700095E00E947C0A28E030E042E450E062E226
:100B800075E080E795E00E94900A20E04FEF6FEF5C
:100B900080E795E00E947C0A28E030E042E450E0E3
:100BA00062E475E080E795E00E94900A898190E018
:100BB000909321058093200562E475E082E295E040
:100BC0000E94411C62E080E795E00E94600A20914B
:100BD00061053091620580915D0590915E05281751
:100BE000390781F120E040E060E080E795E00E9475
:100BF0007C0A20E130E042E450E06CE375E080E7FD
:100C000095E00E94900A20E04FEF60E080E795E0D9
:100C10000E947C0A20E130E042E450E066E575E0A5
:100C200080E795E00E94900A8091610590916205AD
:100C300090935E0580935D0566E575E08CE395E035
:100C40000E94411C20915F053091600580915B05F9
:100C500090915C052817390781F120E040E060E0C1
:100C600080E795E00E947C0A20E230E042E450E018
:100C700066E375E080E795E00E94900A20E040E09E
:100C80006FEF80E795E00E947C0A20E230E042E4CA
:100C900050E068E575E080E795E00E94900A809159
:100CA0005F059091600590935C0580935B0568E516
:100CB00075E086E395E00E94411C2A8130E0809136
:100CC0001E0590911F052817390789F56CE271E020
:100CD00080E090E00E943013CE010E960E947D17B6
:100CE000CE0144960E947D17CE014A960E947D1740
:100CF000CE0180960E947D17CE0186960E947D17B8
:100D0000CE018C960E947D17CE01C2960E947D175F
:100D1000CE01C8960E947D17ED960FB6F894DEBFFF
:100D20000FBECDBFDF91CF911F910F91089520E0AD
:100D300040E060E080E795E00E947C0A8FE790E069
:100D400090931B0380931A030FE710E060911A033E
:100D500070911B0377FD2AC0FB01EE0FFF1FE45EBD
:100D6000FC4F80819181A801481B590B80E795E0D9
:100D70000E94A30A60911A0370911B03FB01EE0FFE
:100D8000FF1FE45EFB4F80819181A801481B590B36
:100D900080E795E00E94A30A80911A0390911B03BB
:100DA000019790931B0380931A03D0CF20E030E08B
:100DB00080E090E02F5F3F4FFC01E45EFC4F4281FA
:100DC000538151834083FC01E45EFB4F4281538198
:100DD0005183408302962F37310564F3220F331F6E
:100DE000F901E45EFC4F8091610590916205918369
:100DF0008083F901E45EFB4F80915F05909160056F
:100E0000918380838A8190E090931F0580931E05D3
:100E10008FE790E090931B0380931A030FE710E095
:100E200080911A0390911B0397FD50CF20E04FEF64
:100E300060E080E795E00E947C0A60911A0370915F
:100E40001B03FB01EE0FFF1FE45EFC4F80819181CD
:100E5000A801481B590B80E795E00E94A30A20E0F7
:100E600040E06FEF80E795E00E947C0A60911A03F2
:100E700070911B03FB01EE0FFF1FE45EFB4F8081AF
:100E80009181A801481B590B80E795E00E94A30AB5
:100E900080911A0390911B03019790931B038093F9
:100EA0001A03BECF29E048E06AE080E795E00E949F
:100EB000600727E046E065E08AE595E00C9439108C
:100EC000CF93DF93EC010E94110B85EA92E09983A6
:100ED000888380EA90E09987888780E890E09B8704
:100EE0008A87DF91CF910895CF93DF93EC010E9421
:100EF0000F0D61E0CE01DF91CF910C94230F2F9263
:100F00003F924F925F926F927F928F929F92AF9299
:100F1000BF92CF92DF92EF92FF920F931F93CF93E6
:100F2000DF9300D000D0CDB7DEB74C017C836B835C
:100F30006A015901C8018701AC014C195D0957FFCD
:100F400003C051954195510995016B817C81261B08
:100F5000370B37FF03C031952195310922242394A3
:100F6000312C2417350714F0212C312C2114310495
:100F700059F03A2D2B2D5C01832F922F3B812C8130
:100F8000DC82CB82C32ED22EAB81BC81AA16BB06DB
:100F90005CF43C2D2D2D6C01832F922F3B812C81F5
:100FA000BC82AB82A32EB22E2501EB81FC814E1AAE
:100FB0005F0A3C016C187D0877FE03C07194619450
:100FC0007108720157FE03C0FFEFEF1AFF0AF59494
:100FD000E794C816D9062CF421E030E03A8329833F
:100FE00024C06FEF7FEF7A8369831FC0D401ED9136
:100FF000FC910480F581E02D980121143104D9F091
:101000004B815C81B601C4010995E618F708F7FE2B
:1010100006C0E981FA81CE0EDF1EE40CF51C2B819F
:101020003C812F5F3F4F3C832B836B817C81A616D5
:10103000B706E4F604C0A6016B817C81E4CF0F9073
:101040000F900F900F90DF91CF911F910F91FF9014
:10105000EF90DF90CF90BF90AF909F908F907F9058
:101060006F905F904F903F902F9008956F927F9276
:101070008F929F92AF92BF92CF92DF92EF92FF92A8
:101080000F931F93CF93DF93EC015B016A0139014A
:101090004801E881F9810284F385E02D87010995F3
:1010A000E881F981A601480D591D4150510902847A
:1010B000F385E02D9301B501CE010995E881F98111
:1010C0000084F185E02D9401A601B501CE010995BA
:1010D000E881F981B501660D771D615071090084C1
:1010E000F185E02D9401A601CE010995DF91CF9104
:1010F0001F910F91FF90EF90DF90CF90BF90AF9036
:101100009F908F907F906F900895EF92FF920F9332
:101110001F93DC01ED91FC91240F351F2150310903
:101120000680F781E02D780189019B0109951F91C7
:101130000F91FF90EF900895EF92FF920F931F93FE
:10114000DC01ED91FC91260F371F215031090680FB
:10115000F781E02D78018A0109951F910F91FF9089
:10116000EF9008956F927F928F929F92AF92BF926D
:10117000CF92DF92EF92FF920F931F93CF93DF9363
:101180005C014A0169013801EB01C60ED71ECC157E
:10119000DD0574F4D501ED91FC910084F185E02D1D
:1011A00087019301A401BE01C50109952196EFCFE6
:1011B000DF91CF911F910F91FF90EF90DF90CF9033
:1011C000BF90AF909F908F907F906F900895EF9217
:1011D000FF920F931F93DC01ED91FC9111971A96EA
:1011E0000D911C911B9718962D913C91199706848F
:1011F000F785E02D7B0140E050E060E070E009956C
:101200001F910F91FF90EF90089508954C7F38E063
:10121000439FC001112430E073E0359527957A95FE
:10122000E1F7822B932B687F962B0895FC011382A4
:1012300012828FEB92E0918380837583648357835E
:1012400046837187608753874287158A158614867F
:101250001786168621E0248B8FEF9FEF938B828B6E
:10126000918B808B268B08952F923F924F925F92A5
:101270006F927F928F929F92AF92BF92CF92DF92A6
:10128000EF92FF920F931F93CF93DF93CDB7DEB70B
:101290002C970FB6F894DEBF0FBECDBF9C878B870F
:1012A0003A0118870F83FA86E986CD82DC01189609
:1012B0008D919C911997681779070CF094C01A9634
:1012C0008D919C911B97481759070CF08CC08C2C62
:1012D000912CCB01B6E0CB9E800D911D11241816E8
:1012E00019060CF080C0C40113E0880F991F1A95ED
:1012F000E1F7840F951F181619060CF074C0F5E07D
:101300002F9F200111245B016B011C82920128593F
:101310003F4F2901461A570A3C81353031F0F2011E
:10132000EA0DFB1D44914B8301C01B827A826982C6
:1013300013011E828B8180FF13C0AB85BC85ED91AC
:10134000FC91BD81B13031F40480F581E02D2F8115
:10135000388519C00684F785E02DEF80F8841EC01B
:10136000E985FA852F813885E217F307F9F0AB8517
:10137000BC85ED91FC91BD81B13059F40480F581BB
:10138000E02D29853A85A101B5018B859C850995BC
:101390000DC00684F785E02DE984FA848401940168
:1013A00049815A81B6018B859C850995EB81E6952B
:1013B000EB83FE81FF5FFE8329813A81280D391D71
:1013C0003A8329833FEF231A330AF83009F0B2CF6A
:1013D0004C814F5F4C83C80CD91C8FEFA81AB80AF8
:1013E000463009F099CF2C960FB6F894DEBF0FBEA9
:1013F000CDBFDF91CF911F910F91FF90EF90DF90C4
:10140000CF90BF90AF909F908F907F906F905F90A4
:101410004F903F902F900895CF92EF92FF920F93AD
:101420001F93CF93DF93EC01262F6A3049F42C8968
:101430008E859F8538E0239F800D911D112432C039
:101440006D30A1F1EA88FB88088919894E855F858E
:101450006C857D85CC880E9434092C89422F50E010
:101460008C859D8536E0239F800D911D11249D87DD
:101470008C872E892223D1F06AEF64039001659F47
:10148000300D112468857985260F371F28173907F5
:101490006CF403E0440F551F0A95E1F78E859F8594
:1014A000840F951F9F878E871D861C8681E090E0A4
:1014B000DF91CF911F910F91FF90EF90CF90089502
:1014C000611101C061E0FC01648B0895DC01ED91C4
:1014D000FC910088F189E02D0994CF93DF93EC0112
:1014E000E881F9810488F589E02D0995BC01CE01D8
:1014F000DF91CF910C94660ACF93DF93EC01E881E2
:10150000F9810488F589E02D099521E0298F988FCC
:101510008F8B998B888B9B8B8A8BDF91CF910895D2
:10152000FC01818D882371F0168A8789908D918BBB
:10153000808B938B828B5587448737872687CF0193
:101540000C9487160895DC0159962C915997222303
:1015500059F0ED91FC91119757962D913C91589728
:101560000480F581E02D09940895EF92FF920F9386
:101570001F93DC01ED91FC9111971A960D911C912E
:101580001B9718962D913C9119970684F785E02DAD
:101590007B0140E050E060E070E009951F910F9101
:1015A000FF90EF9008952091A905222399F03FB76D
:1015B000F8942091A905213059F42DB32093A70563
:1015C0004DB32091A805209524232DBB3FBF02C019
:1015D0003093A7058CBD9DBD08958091A9058823F2
:1015E00061F09FB7F8942091A9058091A70521305B
:1015F00019F48DBB9FBF08958FBF08959C01207E75
:101600003770AC01542F4427550F550F550F242B1D
:10161000352B892F9927869586958695822B932B36
:101620000895EF92FF920F931F93CF93DF931F9232
:10163000CDB7DEB77C01062F142F40EA50E060E8FA
:1016400070E029830E94160989ED92E0F7019183E9
:10165000808380E5878F10A201A712A7298123A785
:1016600081E0868F15A614A60F90DF91CF911F9170
:101670000F91FF90EF900895FC01868D882339F03B
:101680006EBD00000DB407FEFDCF8EB5089588E055
:1016900090E030E8A1A1B2A126A5432F462321F076
:1016A0004C91422B4C9304C04C91209524232C93B5
:1016B000A3A1B4A12C9147A5242B2C93A3A1B4A141
:1016C0004C9127A5209524232C933695019711F74B
:1016D00008950F931F93CF93DF931F92CDB7DEB77B
:1016E0008C01DC015E968C915E97882341F05F96B9
:1016F0008D919C91909769830E94D30A6981D8014A
:101700009796ED91FC9198979081D1968C91D19775
:101710008095892380839596ED91FC919697908191
:10172000D0968C91809589238083C8010E943C0BC0
:10173000D8019596ED91FC9196978081D0969C91D9
:10174000D097892B80835E968C91882339F00F90F7
:10175000DF91CF911F910F910C94ED0A0F90DF91C3
:10176000CF911F910F910895662311F061E201C09E
:1017700060E20C94690B0F931F93CF93DF931F923A
:10178000CDB7DEB78C01DC015E968C915E97882325
:1017900041F05F968D919C91909769830E94D30A46
:1017A0006981D8019796ED91FC9198978081D196A7
:1017B0009C91D197892B80839596ED91FC9196977A
:1017C0009081D0968C91809589238083C8010E9456
:1017D0003C0BD8019596ED91FC9196978081D0961F
:1017E0009C91D097892B80835E968C91882339F0C9
:1017F0000F90DF91CF911F910F910C94ED0A0F90F4
:10180000DF91CF911F910F910895AF92BF92CF9228
:10181000DF92EF92FF920F931F93CF93DF937C01A0
:10182000EB012196FB01B490BB2009F435C0FE0109
:101830006491C7010E94690B6E01F2E0CF0ED11CCA
:10184000FE013196C4918C2F8078A82ECF77860127
:10185000DC2FDC0DD01741F0F8016491C7010E9424
:10186000BB0B0F5F1F4FF6CFC6018C0F911DEC0114
:10187000AA2081F08C010F5F1F4FFC01649170E082
:101880006F3F710511F464EF71E080E090E00E9419
:101890003013E801BA94C8CFDF91CF911F910F9117
:1018A000FF90EF90DF90CF90BF90AF9008950F938F
:1018B0001F93CF93DF93EC018B011BAA1AAA61E05F
:1018C0008AA50E94C71361E089A50E94C71389A554
:1018D00090E0FC01E351FA4FE491F0E0EE0FFF1FBE
:1018E000E55FF94F259134913EA32DA3FC01E7520A
:1018F000FA4F849188AB8AA590E0FC01E351FA4F3E
:10190000E491F0E0EE0FFF1FE55FF94F2591349170
:1019100038A72FA3FC01E752FA4F849189AB8E8D33
:10192000882331F00E948D1280E58F8F18A23CC071
:1019300061E08DA50E94C71361E08CA50E94C713CA
:101940008DA590E0FC01E351FA4FE491F0E0EE0F39
:10195000FF1FE55FF94FA591B491BCA3ABA3FC01B8
:10196000E752FA4F84918FA78CA590E0FC01E351D8
:10197000FA4FE491F0E0EE0FFF1FE55FF94F25917C
:1019800034913AA329A3FC01E752FA4F84918EA720
:101990008C919FA5909589238C93E9A1FAA19081C0
:1019A0008EA5809589238083EDA1FEA1908188A9D1
:1019B0008095892380838BA5882309F161E00E94AB
:1019C000C71361E08BA50E94001464EF71E080E012
:1019D00090E00E94301360E08BA50E94001464EF39
:1019E00071E080E090E00E94301361E08BA50E94DE
:1019F000001464EF71E080E090E00E943013011564
:101A0000110541F0B801CE01DF91CF911F910F91E7
:101A10000C94050CDF91CF911F910F91089563E60F
:101A200075E00C94570CEF92FF920F931F93CF9396
:101A3000DF9300D0CDB7DEB77C01162F6AE2298391
:101A40004A830E94690B60E0C7010E94BB0BF7014B
:101A500062A9610FC7010E94BB0B60E0C7010E9431
:101A6000BB0BF70162A92981620FC7010E94BB0B62
:101A70006BE2C7010E94690B60E0C7010E94BB0BCB
:101A8000F70163A94A81640FC7010E94BB0B60E0A4
:101A9000C7010E94BB0BF70163A9600FC7010E9439
:101AA000BB0B6CE2C7010F900F90DF91CF911F919C
:101AB0000F91FF90EF900C94690BFF920F931F937F
:101AC000CF93DF93EC01122FF32E77FD48C0A8854A
:101AD000B9856A177B070CF042C057FD40C0AA8544
:101AE000BB854A175B07DCF501E0040F21E0260FF8
:101AF0000E94130D8E8D882321F08F8D98A10E9456
:101B0000D30AEFA1F8A5808199A9892B8083EDA143
:101B1000FEA1808148A94095482340838D8D823065
:101B200031F4812F9F2D0E94FE0A182FF92E6F2D60
:101B3000CE010E943C0B612FCE010E943C0BEDA117
:101B4000FEA1808198A9892B80838E8D882339F00E
:101B5000DF91CF911F910F91FF900C94ED0ADF91CF
:101B6000CF911F910F91FF900895DF92EF92FF9216
:101B70000F931F93CF93DF93EC017901D02E8885CB
:101B80009985681779070CF054C02A853B85421760
:101B900053070CF04EC0CA018E0D9F1D2817390740
:101BA0001CF47901E41AF50A0FEF040F0E0D262F2D
:101BB000CE010E94130D8D8D823031F48D2D912F29
:101BC0000E94FE0AD82E192F8E8D882321F08F8D2A
:101BD00098A10E94D30AEFA1F8A5808199A9892B29
:101BE0008083EDA1FEA1908188A9809589238083BF
:101BF000E114F10461F0612FCE010E943C0B6D2DC8
:101C0000CE010E943C0B81E0E81AF108F1CFEDA172
:101C1000FEA1808198A9892B80838E8D882349F02D
:101C2000DF91CF911F910F91FF90EF90DF900C9477
:101C3000ED0ADF91CF911F910F91FF90EF90DF9010
:101C40000895DF92EF92FF920F931F93CF93DF934C
:101C5000EC017901D02E28853985621773070CF0C5
:101C600054C08A859B85481759070CF04EC0CB019C
:101C70008E0D9F1D281739071CF47901E61AF70A03
:101C80002FEF260F2E0D042FCE010E94130D8D8DE8
:101C9000823031F48D2D912F0E94FE0AD82E192FFB
:101CA0008E8D882321F08F8D98A10E94D30AEFA1F9
:101CB000F8A5808199A9892B8083EDA1FEA190814F
:101CC00088A9809589238083E114F10461F0612F54
:101CD000CE010E943C0B6D2DCE010E943C0B81E099
:101CE000E81AF108F1CFEDA1FEA1808198A9892B16
:101CF00080838E8D882349F0DF91CF911F910F91C2
:101D0000FF90EF90DF900C94ED0ADF91CF911F913F
:101D10000F91FF90EF90DF9008956F927F928F92D6
:101D20009F92AF92BF92CF92DF92EF92FF920F936A
:101D30001F93CF93DF93EC016B015A0149013801E6
:101D400028853985621773070CF06EC08A859B85DC
:101D5000481759070CF068C0AB01480D591D2417EE
:101D600035071CF44901861A970A9501260D371D7F
:101D7000821793071CF43C016A187B088D8D823012
:101D800021F4C7010E94FE0A7C010FEF0A0D060D27
:101D90002FEF2C0D280D4A2D6C2DCE010E94130D16
:101DA0008E8D882321F08F8D98A10E94D30AEFA1F8
:101DB000F8A5808199A9892B8083EDA1FEA190814E
:101DC00088A980958923808316141704A4F46401DC
:101DD0001C141D0464F46F2DCE010E943C0B6E2D6B
:101DE000CE010E943C0B81E0C81AD108F1CF81E0FE
:101DF000681A7108E9CFEDA1FEA1808198A9892B0D
:101E000080838E8D882381F0DF91CF911F910F9178
:101E1000FF90EF90DF90CF90BF90AF909F908F900A
:101E20007F906F900C94ED0ADF91CF911F910F91ED
:101E3000FF90EF90DF90CF90BF90AF909F908F90EA
:101E40007F906F9008951F93CF93DF93EC01162F2F
:101E500066E30E94690B612F63706D8B623041F005
:101E6000633089F0613011F068EC03C068EA0CC09F
:101E700068E0CE010E94BB0B80E890E099878887DC
:101E800080EA90E00AC068E6CE010E94BB0B80EABF
:101E900090E09987888780E890E09B878A87DF9128
:101EA000CF911F9108954F925F927F928F929F9250
:101EB000AF92BF92CF92DF92EF92FF920F931F9358
:101EC000CF93DF931F92CDB7DEB72C01B62E862FAE
:101ED00090E0FC01E752FA4FA490FC01E351FA4F65
:101EE000E491F0E0EE0FFF1FEF5FF94F05911491C1
:101EF000F2011086118612861386148661E08B2DFE
:101F000049830E94C71360E08B2D0E940014498111
:101F1000642F70E080E090E00E94301361E08B2D30
:101F20000E94001488E290E00E94581360E08B2D1C
:101F30000E94C71380E991E0F80120812A2129F449
:101F40000197D1F78EEF9FEF46C080E991E0F8014D
:101F500020812A2119F00197D1F7F4CF98E2892E38
:101F6000712C20E8922E80E991E0F80120812A214D
:101F700019F40197D1F7E6CF0E940D136B017C0194
:101F800080E991E0F80120812A2119F00197D1F729
:101F9000D9CF0E940D136C197D098E099F096932F2
:101FA00071058105910530F0F201E70DF11D808585
:101FB00089298087969419F4739480E8982E8A94DE
:101FC00091F661E08B2D0E94C71361E08B2D0E947A
:101FD000001480E090E00F90DF91CF911F910F915E
:101FE000FF90EF90DF90CF90BF90AF909F908F9039
:101FF0007F905F904F9008950F931F93CF93DF933F
:10200000EC0142E10E94530F009769F040E050EC70
:1020100069E774EC488359836A837B834C835D83CF
:102020006E837F8321C01885612F70E080E090E08F
:102030000E946A19688379838A839B830A85602F4B
:1020400070E080E090E00E946A196C837D838E834B
:102050009F83100F81E090E02C85211302C080E067
:1020600090E0919581959109DF91CF911F910F910A
:1020700008956093A6054093A5052093A4050895AF
:1020800060E08091A6050E94001461E08091A605A1
:102090000E94C71360E08091A4050E94001461E0D3
:1020A0008091A4050E94C71361E08091A5050E945C
:1020B000C71361E08091A6050E94001484E090E0BF
:1020C0000C94581360E08091A6050E94001484E0EF
:1020D00090E00C945813CF92DF92EF92FF921F93EF
:1020E000CF93DF9360E08091A5050E94C713C0E005
:1020F000D0E010E0C12CD12C7601C3948091A505CD
:102100000E943614B701A601892B51F00C2E04C091
:10211000440F551F661F771F0A94D2F7142B0AC06D
:102120000C2E04C0440F551F661F771F0A94D2F768
:102130004095142361E08091A4050E94001481E081
:1021400090E00E94581360E08091A4050E94001462
:1021500081E090E00E9458132196C830D10571F6B5
:10216000812FDF91CF911F91FF90EF90DF90CF9063
:1021700008950F931F93CF93DF93C0E0D0E0082F13
:1021800010E0B8010C2E02C0759567950A94E2F72D
:1021900061708091A5050E94001481E090E00E948A
:1021A000581361E08091A4050E94001481E090E042
:1021B0000E94581360E08091A4050E94001481E001
:1021C00090E00E9458132196C830D105D1F6DF91D6
:1021D000CF911F910F910895EF92FF920F931F934C
:1021E000CF93DF931F92CDB7DEB7182F99830E944C
:1021F00040108FEB0E94B910E12E9981F92E8701D2
:10220000085F1F4F0E946B10F70181937F01E01759
:10221000F107C1F70F90DF91CF911F910F91FF90C0
:10222000EF900C946210CF93DF931F92CDB7DEB77F
:1022300089830E944010898181600E94B9100E94A8
:102240006B1089830E94621089810F90DF91CF917A
:10225000089580E80E941311881F8827881F089519
:102260008EE80E941311982F9095991F9927991F16
:10227000892F0895982F92959F708F702AE0929FD2
:10228000800D11240895BF92CF92DF92EF92FF92BA
:102290000F931F93CF93DF93CDB7DEB729970FB678
:1022A000F894DEBF0FBECDBF8C01CE0101960E9417
:1022B000EC1089818F770E943A11B82EF801808343
:1022C0008A818F770E943A11C82EF80181838B8111
:1022D0008F730E943A11D82EF80182838C818F73FC
:1022E0000E943A11E82EF80184838D818F710E943B
:1022F0003A11F82EF80185839E81977093838F8120
:1023000099870E943A112EE1280FF80126839985BA
:10231000FBE3FB15A8F0FC1598F087E18D1580F024
:102320008FEF8E0D8F3160F48FEF8F0D8C3040F476
:10233000915081E0973028F4243618F480E001C0F1
:1023400081E029960FB6F894DEBF0FBECDBFDF91B6
:10235000CF911F910F91FF90EF90DF90CF90BF90A2
:102360000895CF93DF93CDB7DEB727970FB6F894D4
:10237000DEBF0FBECDBFCE0101960E944311811179
:1023800005C0CE0101960E94D21103C060E070E04A
:10239000CB0127960FB6F894DEBF0FBECDBFDF91FD
:1023A000CF9108956F927F928F929F92AF92BF923A
:1023B000CF92DF92EF92FF920F931F93CF93DF9311
:1023C000FC01C680AC2DB0E020E833E341EE51E0E3
:1023D0000E94151A4B015C0122EB37E06D01C4E647
:1023E000D0E000E911E0C901825B97408C159D05A2
:1023F000DCF4C90183709927892B99F4C901BE01C6
:102400000E94D019892B31F4C901B8010E94D0195A
:10241000892B39F480E8880E81E5981E81E0A81E9A
:10242000B11C2F5F3F4FDFCF6580712C8EE4C81A3F
:1024300088EFD80AC60164E670E00E94D0198C01CA
:10244000C60160E971E00E94D0197C01C1E0D0E0D2
:1024500083E0C822DD24C615D7052CF5C230D1058E
:1024600089F4C114D10471F40115110519F4E114B2
:10247000F10441F480E8880E8BE3981E86E2A81EE2
:10248000B11C0FC0DE01A251BD4FAC91B0E020E8FD
:1024900031E541E050E00E94151A860E971EA81EF5
:1024A000B91E2196D8CF4181228130E0A0E1BEE063
:1024B0000E94061A6B017C01242F30E0ACE3B0E0EF
:1024C0000E94061AC60ED71EE81EF91E8081C80E8D
:1024D000D11CE11CF11CA481B0E0119720E831E58A
:1024E00041E050E00E94201AC60ED71EE81EF91ED9
:1024F000C80CD91CEA1CFB1CC701B601DF91CF91A7
:102500001F910F91FF90EF90DF90CF90BF90AF9011
:102510009F908F907F906F900895CF93CFB7F8944E
:102520008091AA05811127C0E7EFF5E08491E3EEE1
:10253000F5E09491E82FF0E0EE0FFF1FEB5EF94F0E
:10254000A591B4918C91892321F461E08AE00E94E5
:10255000001461E08AE00E94C7138CB580618CBDD5
:102560008CB580648CBD61E08DE00E94C71361E092
:102570008BE00E94C7138091AA058F5F8093AA0504
:10258000CFBFCF9108951F920F920FB60F921124D3
:102590002F933F938F939F93AF93BF938091AC05FD
:1025A0009091AD05A091AE05B091AF053091AB050E
:1025B00023E0230F2D3720F40196A11DB11D05C086
:1025C00026E8230F0296A11DB11D2093AB05809331
:1025D000AC059093AD05A093AE05B093AF05809187
:1025E000B0059091B105A091B205B091B3050196E7
:1025F000A11DB11D8093B0059093B105A093B205C4
:10260000B093B305BF91AF919F918F913F912F915F
:102610000F900FBE0F901F9018953FB7F8948091C0
:10262000B0059091B105A091B205B091B30526B562
:10263000A89B05C02F3F19F00196A11DB11D3FBFFA
:102640006627782F892F9A2F620F711D811D911D8A
:1026500042E0660F771F881F991F4A95D1F70895AA
:10266000CF92DF92EF92FF92CF93DF936B017C01C9
:102670000E940D13EB01C114D104E104F10489F0AF
:102680000E9438190E940D136C1B7D0B683E73402D
:1026900090F381E0C81AD108E108F108C851DC4F75
:1026A000EACFDF91CF91FF90EF90DF90CF90089528
:1026B0008230910538F0880F991F880F991F059770
:1026C0000197F1F70895789484B5826084BD84B54C
:1026D000816084BD85B5826085BD85B5816085BD1D
:1026E000EEE6F0E0808181608083E1E8F0E0108236
:1026F000808182608083808181608083E0E8F0E077
:10270000808181608083E1EBF0E080818460808360
:10271000E0EBF0E0808181608083EAE7F0E0808197
:1027200084608083808182608083808181608083F7
:102730008081806880831092C1000895833081F089
:1027400028F4813099F08230A1F008958730A9F003
:102750008830B9F08430D1F4809180008F7D03C03F
:10276000809180008F7780938000089584B58F7763
:1027700002C084B58F7D84BD08958091B0008F77AD
:1027800003C08091B0008F7D8093B0000895CF93F7
:10279000DF9390E0FC01E752FA4F2491FC01E351F2
:1027A000FA4F8491882349F190E0880F991FFC012A
:1027B000EB5EF94FA591B491855F994FFC01C591EE
:1027C000D4919FB7611108C0F8948C912095822311
:1027D0008C93888182230AC0623051F4F8948C91E2
:1027E000322F309583238C938881822B888304C079
:1027F000F8948C91822B8C939FBFDF91CF91089599
:102800000F931F93CF93DF931F92CDB7DEB7282F7F
:1028100030E0F901EB53FA4F8491F901E752FA4F96
:102820001491F901E351FA4F04910023C9F0882370
:1028300021F069830E949E136981E02FF0E0EE0F82
:10284000FF1FE55FF94FA591B4919FB7F8948C9164
:10285000611103C01095812301C0812B8C939FBF10
:102860000F90DF91CF911F910F910895CF93DF9338
:10287000282F30E0F901EB53FA4F8491F901E75228
:10288000FA4FD491F901E351FA4FC491CC2391F05E
:1028900081110E949E13EC2FF0E0EE0FFF1FEF5FFF
:1028A000F94FA591B4912C912D2381E090E021F472
:1028B00080E002C080E090E0DF91CF910895FC01BC
:1028C000818D228D90E0805C9F4F821B91098F73D8
:1028D00099270895FC01918D828D981731F0828D92
:1028E000E80FF11D858D90E008958FEF9FEF08951B
:1028F000FC01918D828D981761F0828DDF01A80F08
:10290000B11D5D968C91928D9F5F9F73928F90E029
:1029100008958FEF9FEF08958CEF95E1892B49F093
:1029200080E090E0892B29F00E94FC1581110C9425
:1029300000000895FC01848DDF01A80FB11DA35A8A
:10294000BF4F2C91848D90E001968F739927848FCF
:10295000A689B7892C93A089B1898C9180648C93C6
:10296000938D848D981306C00288F389E02D8081B1
:102970008F7D80830895CF93DF93EC01888D88232A
:10298000C9F0EA89FB89808185FD05C0A889B989DC
:102990008C9186FD0FC00FB607FCF5CF808185FFB7
:1029A000F2CFA889B9898C9185FFEDCFCE010E9425
:1029B0009A14E7CFDF91CF910895CF92DF92FF92E3
:1029C0000F931F93CF93DF931F92CDB7DEB76C01A8
:1029D00081E0D60158968C9358975B969C915B97B3
:1029E0005C968C915C97981307C05096ED91FC9182
:1029F0005197808185FD2EC0F601038D10E00F5F99
:102A00001F4F0F731127F02EF601848DF81211C09D
:102A10000FB607FCF9CFD6015096ED91FC91519776
:102A2000808185FFF1CFC60169830E949A14698174
:102A3000EBCF838DE80FF11DE35AFF4F6083D60182
:102A40005B960C935B975296ED91FC915397808126
:102A500080620CC0D6015696ED91FC915797608329
:102A60005096ED91FC91519780818064808381E044
:102A700090E00F90DF91CF911F910F91FF90DF9029
:102A8000CF900895BF92CF92DF92EF92FF92CF93B3
:102A9000DF93EC016A017B01B22EE889F98982E0BB
:102AA0008083411581EE580761057105A1F060E052
:102AB00079E08DE390E0A70196010E94E41921508E
:102AC00031094109510956954795379527952115A3
:102AD00080E1380798F0E889F989108260E874E8A5
:102AE0008EE190E0A70196010E94E419215031097E
:102AF000410951095695479537952795EC85FD85F0
:102B00003083EE85FF852083188EEC89FD89B082A5
:102B1000EA89FB89808180618083EA89FB898081E1
:102B200088608083EA89FB89808180688083EA8964
:102B3000FB8980818F7D8083DF91CF91FF90EF9023
:102B4000DF90CF90BF9008951F920F920FB60F9213
:102B500011242F938F939F93EF93FF93E091C405DC
:102B6000F091C5058081E091CA05F091CB0582FD09
:102B700012C090818091CD058F5F8F732091CE051B
:102B8000821751F0E091CD05F0E0EC54FA4F958FAB
:102B90008093CD0501C08081FF91EF919F918F912E
:102BA0002F910F900FBE0F901F9018951F920F92AC
:102BB0000FB60F9211242F933F934F935F936F9310
:102BC0007F938F939F93AF93BF93EF93FF9384EB88
:102BD00095E00E949A14FF91EF91BF91AF919F9160
:102BE0008F917F916F915F914F913F912F910F90B6
:102BF0000FBE0F901F90189584EB95E00E945F1414
:102C000021E0892B09F420E0822F08951092B70566
:102C10001092B60588EE93E0A0E0B0E08093B8058E
:102C20009093B905A093BA05B093BB058FEF92E0DE
:102C30009093B5058093B40585EC90E09093C10521
:102C40008093C00584EC90E09093C3058093C20507
:102C500080EC90E09093C5058093C40581EC90E0F2
:102C60009093C7058093C60582EC90E09093C905C8
:102C70008093C80586EC90E09093CB058093CA05BD
:102C80001092CD051092CE051092CF051092D0056E
:102C90000895CF92DF92EF92FF920F931F93CF93FD
:102CA000DF937C016A01EB0100E010E00C151D05CB
:102CB00071F06991D701ED91FC910190F081E02DC7
:102CC000C7010995892B19F00F5F1F4FEFCFC8017E
:102CD000DF91CF911F910F91FF90EF90DF90CF90F8
:102CE00008956115710581F0DB010D900020E9F771
:102CF000AD0141505109461B570BDC01ED91FC9190
:102D00000280F381E02D099480E090E008950C9416
:102D10007116DC01ED91FC910190F081E02D099498
:102D20006BE073E00C9471160F931F93CF93DF93B6
:102D3000EC010E9471168C01CE010E949016800F4A
:102D4000911FDF91CF911F910F9108958F929F92C4
:102D5000AF92BF92CF92DF92EF92FF920F931F93A9
:102D6000CF93DF93CDB7DEB7A1970FB6F894DEBF50
:102D70000FBECDBF7C01C42EE52FCB01D22E19A2F0
:102D800021E02D1510F02AE0D22E8E010F5D1F4F8D
:102D90008D2C912CA12CB12C6C2D7E2FA501940192
:102DA0000E94E4198C2DD29E801911240150110922
:102DB0008A3014F4805D01C0895CF801808321159C
:102DC00031054105510521F0C22EE32FCA01E4CFA0
:102DD000B801C7010E947116A1960FB6F894DEBF24
:102DE0000FBECDBFDF91CF911F910F91FF90EF905C
:102DF000DF90CF90BF90AF909F908F900895CF922B
:102E0000DF92EF92FF920F931F93CF93DF93EC012A
:102E10006A017B012115310579F4E881F98101907E
:102E2000F081E02D642FDF91CF911F910F91FF90E2
:102E3000EF90DF90CF9009942A303105E9F477FFC5
:102E40001AC06DE20E9489168C0144275527BA01E9
:102E50004C195D096E097F092AE0CE010E94A61671
:102E6000800F911FDF91CF911F910F91FF90EF90F5
:102E7000DF90CF9008952AE0B701A601CE01DF913F
:102E8000CF911F910F91FF90EF90DF90CF900C9416
:102E9000A6169A01AB01662757FD6095762F0C9414
:102EA000FF160F931F93CF93DF93EC019A01AB01B1
:102EB000662757FD6095762F0E94FF168C01CE0184
:102EC0000E949016800F911FDF91CF911F910F915B
:102ED00008952115310541F4DC01ED91FC9101903B
:102EE000F081E02D642F09940C94A6169A01462FC8
:102EF00050E060E070E00C946917FC0180819181E2
:102F00000C94DA1ACF93DF93EC01888199810097B2
:102F100011F00E94DA1A198218821D821C821B820B
:102F20001A82DF91CF9108950F931F93CF93DF9370
:102F3000EC018B016F5F7F4F888199810E94691B33
:102F4000009731F0998388831B830A8381E001C055
:102F500080E0DF91CF911F910F910895CF93DF9380
:102F6000EC0188819981892B29F08A819B818617C0
:102F7000970760F4CE010E949417882341F08C815A
:102F80009D81892B19F4E881F981108281E0DF911C
:102F9000CF910895EF92FF920F931F93CF93DF93FA
:102FA000EC017B018A01BA010E94AE17811104C0B5
:102FB000CE010E94821707C01D830C83B701888150
:102FC00099810E94411CCE01DF91CF911F910F91F9
:102FD000FF90EF900895CF93DF93EC01FB018617EC
:102FE000970761F0608171816115710529F0448155
:102FF00055810E94CA1702C00E948217CE01DF913C
:10300000CF910895FC0111821082138212821582E1
:1030100014820C94EB17CF93DF93EC0161157105CB
:1030200061F0FB0101900020E9F7AF014150510927
:10303000461B570B0E94CA1702C00E948217CE017E
:10304000DF91CF9108950F931F93CF93DF93CDB767
:10305000DEB729970FB6F894DEBF0FBECDBF8C0147
:10306000862FF80111821082138212821582148237
:1030700050E0BE016F5F7F4F90E00E946D1CBE016B
:103080006F5F7F4FC8010E940B1829960FB6F89406
:10309000DEBF0FBECDBFDF91CF911F910F9108957D
:1030A0000F931F93CF93DF93CDB7DEB762970FB621
:1030B000F894DEBF0FBECDBF8C01CB01F8011182A9
:1030C0001082138212821582148250E0BE016F5F5B
:1030D0007F4F0E94571CBE016F5F7F4FC8010E9447
:1030E0000B1862960FB6F894DEBF0FBECDBFDF910E
:1030F000CF911F910F910895EF92FF920F931F931D
:10310000CF93DF93EC017B010C811D81611571056B
:1031100011F480E016C04115510591F0040F151F00
:10312000B8010E94AE178823A1F3288139818C81D0
:103130009D81B701820F931F0E94411C1D830C8348
:1031400081E0DF91CF911F910F91FF90EF90089553
:10315000EF92FF920F931F93CF93DF9300D000D095
:10316000CDB7DEB77C01862F4AE08E010F5F1F4F7F
:10317000B80190E00E94621CF80101900020E9F77C
:10318000AF0141505109401B510BB801C7010E94CA
:103190007C180F900F900F900F90DF91CF911F919F
:1031A0000F91FF90EF900895CF93DF93EC0161159D
:1031B000710569F0FB0101900020E9F7AF01415072
:1031C0005109461B570B0E947C18811103C0CE0188
:1031D0000E948217CE01DF91CF910895CF93DF93A4
:1031E000EC010E94A818811103C0CE010E94821731
:1031F000CE01DF91CF9108950F931F93CF93DF936B
:10320000EB0141155105E9F02097D9F0FC016481EB
:10321000758126173707A0F4621B730B8A010150D2
:1032200011096017710708F48B01FC01608171813D
:10323000620F731FA801CE010E94481CC00FD11F4E
:103240001882DF91CF911F910F9108950E94331C36
:1032500008950E9463130E9428190E948203CCE8FB
:10326000D4E10E94DE032097E1F30E948C14F9CF91
:10327000089504D06894B1118DC0089570D088F07D
:103280009F5790F0B92F9927B751A0F0D1F0660F52
:10329000771F881F991F1AF0BA95C9F712C0B1306D
:1032A00081F077D0B1E0089574C0672F782F882718
:1032B000B85F39F0B93FCCF3869577956795B395AC
:1032C000D9F73EF490958095709561957F4F8F4F1B
:1032D0009F4F0895E89409C097FB3EF49095809520
:1032E000709561957F4F8F4F9F4F9923A9F0F92FCC
:1032F00096E9BB279395F695879577956795B7954A
:10330000F111F8CFFAF4BB0F11F460FF1BC06F5F2F
:103310007F4F8F4F9F4F16C0882311F096E911C041
:10332000772321F09EE8872F762F05C0662371F062
:1033300096E8862F70E060E02AF09A95660F771F76
:10334000881FDAF7880F9695879597F9089557FDA6
:103350009058440F551F59F05F3F71F04795880F03
:1033600097FB991F61F09F3F79F08795089512169A
:1033700013061406551FF2CF4695F1DF08C0161646
:1033800017061806991FF1CF8695710561050894F7
:103390000895E894BB2766277727CB0197F908950E
:1033A00097FB072E16F4009407D077FD09D00E94F2
:1033B000281A07FC05D03EF4909581959F4F0895FB
:1033C000709561957F4F0895A1E21A2EAA1BBB1B31
:1033D000FD010DC0AA1FBB1FEE1FFF1FA217B307E1
:1033E000E407F50720F0A21BB30BE40BF50B661FF7
:1033F000771F881F991F1A9469F7609570958095BB
:1034000090959B01AC01BD01CF010895A29FB00131
:10341000B39FC001A39F700D811D1124911DB29F08
:10342000700D811D1124911D08950E94061AA59FFB
:10343000900DB49F900DA49F800D911D11240895AF
:10344000B7FF0C94151A0E94151A821B930B08954E
:10345000AA1BBB1B51E107C0AA1FBB1FA617B707BA
:1034600010F0A61BB70B881F991F5A95A9F78095D6
:103470009095BC01CD010895EE0FFF1F0590F491CA
:10348000E02D0994CF93DF938230910510F482E010
:1034900090E0E0915306F091540620E030E0A0E087
:1034A000B0E0309739F14081518148175907B8F0A1
:1034B0004817590771F482819381109729F0139668
:1034C0009C938E9312972CC090935406809353062E
:1034D00027C02115310531F04217530718F0A90113
:1034E000DB0101C0EF019A01BD01DF010280F38120
:1034F000E02DD7CF21153105F9F0281B390B2430E9
:10350000310580F48A819B816115710521F0FB01F1
:103510009383828304C09093540680935306FE01E4
:10352000329644C0FE01E20FF31F81939193225023
:103530003109398328833AC02091510630915206CF
:10354000232B41F420910201309103013093520664
:103550002093510620910001309101012115310580
:1035600041F42DB73EB74091040150910501241B51
:10357000350BE0915106F0915206E217F307A0F4E3
:103580002E1B3F0B2817390778F0AC014E5F5F4FB9
:103590002417350748F04E0F5F1F50935206409393
:1035A00051068193919302C0E0E0F0E0CF01DF91FA
:1035B000CF910895CF93DF93009709F487C0FC0162
:1035C000329713821282C0915306D09154062097ED
:1035D00081F420813181280F391F8091510690910B
:1035E00052068217930779F5F0935206E09351063D
:1035F0006DC0DE0120E030E0AE17BF0750F4129638
:103600004D915C9113979D014115510509F1DA0126
:10361000F3CFB383A28340815181840F951F8A1712
:103620009B0771F48D919C911197840F951F0296C1
:103630009183808312968D919C91139793838283BB
:103640002115310529F4F0935406E09353063EC04A
:10365000D9011396FC93EE9312974D915D91A40FAF
:10366000B51FEA17FB0779F480819181840F951FBC
:103670000296D90111969C938E9382819381139621
:103680009C938E931297E0E0F0E08A819B810097F3
:1036900019F0FE01EC01F9CFCE01029628813981A3
:1036A000820F931F20915106309152062817390737
:1036B00069F4309729F4109254061092530602C010
:1036C00013821282D0935206C0935106DF91CF919C
:1036D0000895A0E0B0E0EFE6FBE10C94A61CEC013D
:1036E000CB01209719F40E94421AB8C0FE01E60FE0
:1036F000F71F9E0122503109E217F30708F4ACC00E
:10370000D9010D911C91119706171707B8F00530D4
:10371000110508F49FC0A8014450510946175707E6
:1037200008F498C002501109061B170B019311935E
:103730006D937C93CF010E94DA1A8CC05B01A01AB2
:10374000B10A4E01800E911EA0915306B09154060D
:10375000612C712C60E070E0109709F449C0A81545
:10376000B905C9F5ED90FC901197670142E0C40ED0
:10377000D11CCA14DB0478F147018A189B08640144
:1037800042E0C40ED11C1296BC9012971396AC91D5
:10379000B5E0CB16D10440F0B282A383918280823F
:1037A000D9018D939C9309C00E5F1F4F0E0D1F1DF5
:1037B000F90111830083EB2DFA2F6115710531F0AA
:1037C000DB011396FC93EE93129744C0F0935406DA
:1037D000E09353063FC06D917C9111976616770672
:1037E00008F43B01BD0112960D90BC91A02DB4CF01
:1037F000609151067091520668157905E9F46816D2
:103800007906D0F440910001509101014115510514
:1038100041F44DB75EB76091040170910501461BFC
:10382000570BE417F507C0F4F0935206E0935106E6
:10383000F901918380830EC00E94421A7C01009797
:1038400059F0A801BE010E94381CCE010E94DA1A6C
:10385000C70104C0CE0102C080E090E0CDB7DEB762
:10386000EEE00C94C21C81E090E0F8940C94D91C1A
:10387000FB01DC0102C001900D9241505040D8F78D
:103880000895FB01DC0101900D920020E1F70895FD
:10389000FB01DC014150504048F001900D920020A6
:1038A000C9F701C01D9241505040E0F708954532DC
:1038B000510520F4423010F00C94621CFB01108280
:1038C000CB010895BB274A3031F4992322F4BDE29D
:1038D000909581959F4F0C94791C4532510520F4A9
:1038E000423010F00C94781CFB011082CB0108953B
:1038F000BB27FB015527AA27880F991FAA1FA417CA
:1039000010F0A41B83955051B9F7A05DAA3308F0BD
:10391000A95DA193009779F7B111B1931192CB01F1
:103920000C94921CDC01FC01672F71917723E1F765
:10393000329704C07C916D9370836291AE17BF077C
:10394000C8F308952F923F924F925F926F927F92A9
:103950008F929F92AF92BF92CF92DF92EF92FF929F
:103960000F931F93CF93DF93CDB7DEB7CA1BDB0B4B
:103970000FB6F894DEBF0FBECDBF09942A883988F0
:1039800048885F846E847D848C849B84AA84B984F7
:10399000C884DF80EE80FD800C811B81AA81B98103
:1039A000CE0FD11D0FB6F894DEBF0FBECDBFED0117
:0639B0000895F894FFCF1A
:1039B600000055068000010000004461746120206B
:1039C60020202020204F72610A2000556D6964690D
:1039D6007461600A200054656D7065726174757259
:1039E600610A200044533133303252544320526529
:1039F60061642054657374002D2D2D2D2D2D2D2DD4
:103A06002D2D2D2D2D2D2D2D2D2D2D0052544320B8
:103A16006D6F64756C652061637469766174656445
:103A26000054686520445331333032206973207363
:103A3600746F707065642E2020506C65617365200C
:103A460072756E207468652053657454696D6500DF
:103A56006578616D706C6520746F20696E69746934
:103A6600616C697A65207468652074696D6520618A
:103A76006E6420626567696E2072756E6E696E6728
:103A86002E00546865204453313330322069732048
:103A960077726974652070726F7465637465642EDD
:103AA6002054686973206E6F726D616C2E00554EDE
:103AB60049582054696D653A2000202054696D6587
:103AC600203D20002C20446174652028442F4D2F72
:103AD6005929203D20002C20446F57203D200044CA
:103AE60053313330322072656164206572726F72B1
:103AF600212020506C6561736520636865636B20C7
:103B0600746865206369726375697472792E0044FE
:103B1600485431312C2009004F4B2C09004368656D
:103B2600636B73756D206572726F722C0900546930
:103B36006D65206F7574206572726F722C09005561
:103B46006E6B6E6F776E206572726F722C09003A1B
:103B560000000000000C0A49165D0D7F07B50D2117
:103B66000E36088D0EB50AB40B0609000000000CCF
:103B76000A491626197F0785089C083608B208E701
:103B86000805090609000000000C0A49165D0D7FAC
:103B960007B50D210E36088D0EB50AB40B06091FA2
:103BA6001C1F1E1F1E1F1F1E1F1E1F00000000DDE4
:103BB6001449165F1478146A14BB140D0A006E615A
:0A3BC6006E00696E66006F766600FF
:00000001FF
