:100000000C9412030C943A030C943A030C943A03A4
:100010000C943A030C943A030C943A030C943A036C
:100020000C943A030C943A030C943A030C943A035C
:100030000C943A030C943A030C943A030C943A034C
:100040000C9414140C943A030C9412170C94441747
:100050000C943A030C943A030C943A030C943A032C
:100060000C943A030C943A0300000000003E5B4FEE
:100070005B3E3E6B4F6B3E1C3E7C3E1C183C7E3C08
:10008000181C577D571C1C5E7F5E1C00183C180016
:10009000FFE7C3E7FF0018241800FFE7DBE7FF30A6
:1000A000483A060E2629792926407F050507407F14
:1000B00005253F5A3CE73C5A7F3E1C1C08081C1C87
:1000C0003E7F14227F22145F5F005F5F06097F017D
:1000D0007F006689956A606060606094A2FFA29468
:1000E00008047E040810207E201008082A1C080836
:1000F0001C2A08081E101010100C1E0C1E0C303884
:100100003E3830060E3E0E06000000000000005F84
:1001100000000007000700147F147F14242A7F2AA0
:100120001223130864623649562050000807030062
:10013000001C2241000041221C002A1C7F1C2A08AE
:10014000083E080800807030000808080808000011
:1001500060600020100804023E5149453E00427F85
:10016000400072494949462141494D331814127FD4
:100170001027454545393C4A494931412111090774
:100180003649494936464949291E000014000000F5
:1001900040340000000814224114141414140041C7
:1001A00022140802015909063E415D594E7C121184
:1001B000127C7F494949363E414141227F414141BC
:1001C0003E7F494949417F090909013E4141517337
:1001D0007F0808087F00417F41002040413F017FA8
:1001E000081422417F404040407F021C027F7F0470
:1001F00008107F3E4141413E7F090909063E4151B9
:10020000215E7F09192946264949493203017F01A8
:10021000033F4040403F1F2040201F3F4038403FA9
:10022000631408146303047804036159494D4300BF
:100230007F4141410204081020004141417F0402F6
:10024000010204404040404000030708002054548D
:1002500078407F284444383844444428384444286B
:100260007F385454541800087E090218A4A49C78BE
:100270007F0804047800447D40002040403D007F1A
:100280001028440000417F40007C047804787C08FA
:100290000404783844444438FC18242418182424CE
:1002A00018FC7C08040408485454542404043F44B3
:1002B000243C4040207C1C2040201C3C4030403CE2
:1002C00044281028444C9090907C4464544C440042
:1002D00008364100000077000000413608000201A6
:1002E0000204023C2623263C1EA1A161123A404092
:1002F000207A385454555921555579412154547810
:1003000041215554784020545579400C1E527212A8
:100310003955555559395454545939555454580030
:1003200000457C410002457D420001457C40F029AA
:100330002429F0F0282528F07C54554500205454F9
:100340007C547C0A097F493249494932324848483D
:1003500032324A4848303A4141217A3A4240207884
:10036000009DA0A07D39444444393D4040403D3C7F
:1003700024FF2424487E4943662B2FFC2F2BFF09A2
:1003800029F620C0887E0903205454794100004496
:100390007D413048484A32384040227A007A0A0A81
:1003A000727D0D19317D2629292F282629292926F4
:1003B00030484D4020380808080808080808382F39
:1003C00010C8ACBA2F102834FA00007B00000814C3
:1003D0002A142222142A1408AA005500AAAA55AAEF
:1003E00055AA000000FF00101010FF00141414FFA5
:1003F000001010FF00FF1010F010F0141414FC0097
:100400001414F700FF0000FF00FF1414F404FC14A0
:100410001417101F10101F101F1414141F00101099
:1004200010F0000000001F101010101F101010100E
:10043000F010000000FF101010101010101010FF2E
:1004400010000000FF140000FF00FF00001F101745
:100450000000FC04F414141710171414F404F4002E
:1004600000FF00F714141414141414F700F71414F4
:1004700014171410101F101F141414F4141010F07B
:1004800010F000001F101F0000001F14000000FCEF
:10049000140000F010F01010FF10FF141414FF14DB
:1004A0001010101F00000000F010FFFFFFFFFFF012
:1004B000F0F0F0F0FFFFFF0000000000FFFF0F0F63
:1004C0000F0F0F38444438447C2A2A3E147E02021F
:1004D0000606027E027E0263554941633844443C6D
:1004E00004407E201E2006027E020299A5E7A599FF
:1004F0001C2A492A1C4C7201724C304A4D4D303036
:1005000048784830BC625A463D3E494949007E0120
:1005100001017E2A2A2A2A2A44445F444440514A3F
:10052000444040444A51400000FF0103E080FF0086
:100530000008086B6B083612362436060F090F06C2
:10054000000018180000001010003040FF010100EA
:100550001F01011E00191D1712003C3C3C3C00000D
:1005600000000013018032118064260104B1020BE7
:1005700014C0020800C10105C5024130C701C1EC29
:10058000011B3A8155642A040000007F2B040000FF
:10059000009F3601C8B70100F20100E08F28242235
:1005A000312B0E53A5421618121A140332E18F177D
:1005B0001B1D0E14112CA53D09272D252B3C321394
:1005C000800A2980FF0000000800020100000304E7
:1005D0000700000000000000000102040810204095
:1005E0008001020408102001020408102004040401
:1005F00004040404040202020202020303030303CC
:100600000300000000230026002900000000002550
:100610000028002B0000000000240027002A000012
:10062000A308741711241FBECFEFD8E0DEBFCDBFE3
:1006300013E0A0E0B1E0EEE7FDE302C005900D920B
:10064000A43BB107D9F727E0A4EBB3E001C01D92AA
:10065000A530B207E1F716E0C4E2D6E004C0229765
:10066000FE010E94221CC032D107C9F70E94DE1A87
:100670000C94BD1E0C940000DC01ED91FC910190E6
:10068000F081E02D099420E840E860E880E296E0FF
:100690000E94CD0B61E080E296E00E94B10B20E069
:1006A00030E040E050E06FE071E080E296E00E94D0
:1006B000E10B20E130E040E050E06EE171E080E2EB
:1006C00096E00E94E10B20E230E040E050E067E27B
:1006D00071E080E296E00E94E10B20E330E040E030
:1006E00050E063E371E080E296E00E94E10B20E3DA
:1006F00030E047E650E061E471E080E296E00E947D
:10070000E10B28E330E040E050E066E471E080E295
:1007100096E00E94E10B28E330E047E650E061E418
:1007200071E080E296E00E94E10B20E440E460E4A6
:1007300080E296E00E94CD0B2AE430E040E050E0F9
:1007400061E571E080E296E00E94E10B24E530E093
:1007500040E050E068E671E080E296E00E94E10B44
:100760002EE530E040E050E06FE771E080E296E097
:100770000E94E10B28E630E040E050E066E971E0DD
:1007800080E296E00E94E10B22E730E040E050E09A
:100790006DEA71E080E296E00E94E10B28E730E02C
:1007A00040E050E064EC71E080E296E00E94E10BF2
:1007B00020E840E860E880E296E00E94CD0B62E02D
:1007C00080E296E00E94B10B20E130E047E650E085
:1007D00066EC71E080E296E00E94E10B20E230E0FE
:1007E00047E650E06AEC71E080E296E00C94E10BA1
:1007F000CF93DF93EC018A30910530F460E370E031
:1008000084E696E00E943C034AE050E0BE0184E6A4
:1008100096E0DF91CF910C94B71826E040E855E2BE
:1008200060E070E084E696E00E94B0166EEC71E045
:1008300084E696E00E94021862EE71E084E696E09B
:100840000E94021866EF71E084E696E00E940218AA
:1008500084E696E00E94FE1764EF71E080E090E08D
:100860000E9481148AE096E00E94B012882381F0F1
:100870006BE072E084E696E00E9402186AE372E0A0
:1008800084E696E00E94021884E696E00E94FE1735
:100890000E94B71281110AC06CE672E084E696E00D
:1008A0000E94021884E696E00E94FE1780E296E01D
:1008B0000E94C50820E040E060E080E296E00E94EF
:1008C000BE0B0E94430360ED77E080E090E00C9463
:1008D0008114AF92BF92CF92DF92EF92FF920F936B
:1008E0001F93CF93DF93CDB7DEB7C354D1090FB6B3
:1008F000F894DEBF0FBECDBF68E972E084E696E0F3
:100900000E94F5170E943813AB01BC012AE030E0C9
:1009100084E696E00E94D718CE0101960E94CA1282
:1009200081115AC064EA72E084E696E00E94F517ED
:100930008B8190E00E94F8036AE370E084E696E021
:100940000E943C038A8190E00E94F8036AE370E011
:1009500084E696E00E943C03898190E00E94F803BF
:100960006EEA72E084E696E00E94F5174AE050E0F5
:100970006D8184E696E00E94E4186FE270E084E600
:1009800096E00E943C034AE050E06E8184E696E0E7
:100990000E94E4186FE270E084E696E00E943C0357
:1009A0006F8170E06E54784F4AE050E084E696E044
:1009B0000E94B71860EC72E084E696E00E94F5179A
:1009C0004AE050E06C8184E696E00E94E41884E6F8
:1009D00096E00E94FE1710C069EC72E084E696E093
:1009E0000E94021884E696E00E94FE1768E273E215
:1009F00080E090E00E94811469EF72E084E696E066
:100A00000E94F51764E083E196E00E9483118F3F16
:100A10002FEF920751F0009729F0029649F468E110
:100A200073E008C062E073E005C067E073E002C0F5
:100A300069E273E084E696E00E94F517609117067C
:100A4000709118068091190690911A060E94EE1A6C
:100A50007093100660930F06609113067091140650
:100A600080911506909116060E94EE1A7093120658
:100A70006093110641E050E084E696E00E94B718CA
:100A800064E073E084E696E00E94F51760910F063B
:100A90007091100641E050E084E696E00E94BF1895
:100AA00060911106709112064AE0CE01CE960E9426
:100AB000051A60910F06709110064AE0CE01C896A3
:100AC0000E94051A20E030E043E050E064E076E068
:100AD000CE01CE960E94B11A20E030E043E050E013
:100AE00067E076E0CE01C8960E94B11A6F8170E08F
:100AF0006E54784F4AE0CE01C2960E94051A1E81BC
:100B0000BE016E5C7F4FCE0108960E94B71962EC61
:100B100071E0CE0108960E94891A612F0E94A31AE3
:100B2000BC01CE018C960E94B719CE0108960E9496
:100B300032191D81BE01645D7F4FCE0108960E946F
:100B4000B71962EC71E0CE0108960E94891A612FF4
:100B50000E94A31ABC01CE0186960E94B719CE014D
:100B600008960E9432194AE06B81CE0180960E945D
:100B7000D8191A81BE01605E7F4FCE0108960E948F
:100B8000B71969E373E0CE0108960E94891A612FB4
:100B90000E94A31ABC01CE014A960E94B719CE0149
:100BA00008960E9432191981BE01665E7F4FCE0100
:100BB00008960E94B71969E373E0CE0108960E9477
:100BC000891A612F0E94A31ABC01CE0144960E948B
:100BD000B719CE0108960E94321920E030E04BE0B0
:100BE00050E069EF75E0CE0186960E94B11A20E0D0
:100BF00030E049E050E060EF75E0CE0144960E949D
:100C0000B11A61E080E296E00E94B10B2D8130E0E4
:100C10008091CC059091CD052817390771F120E01E
:100C200040E060E080E296E00E94CD0B28E030E0FA
:100C300040E050E069ED75E080E296E00E94E10B53
:100C400020E04FEF6FEF80E296E00E94CD0B28E0AE
:100C500030E040E050E069EF75E080E296E00E940D
:100C6000E10B8D8190E09093CD058093CC0569EFE9
:100C700075E089ED95E00E94251E298130E0809184
:100C8000CE059091CF052817390771F120E040E09B
:100C900060E080E296E00E94CD0B28E030E042E484
:100CA00050E060ED75E080E296E00E94E10B20E00C
:100CB0004FEF6FEF80E296E00E94CD0B28E030E02E
:100CC00042E450E060EF75E080E296E00E94E10BC4
:100CD000898190E09093CF058093CE0560EF75E019
:100CE00080ED95E00E94251E62E080E296E00E9481
:100CF000B10B209111063091120680910D06909152
:100D00000E062817390781F120E040E060E080E21C
:100D100096E00E94CD0B20E130E04CE450E06AEE1A
:100D200075E080E296E00E94E10B20E04FEF60E08A
:100D300080E296E00E94CD0B20E130E04CE450E0F0
:100D400064E076E080E296E00E94E10B809111067B
:100D50009091120690930E0680930D0664E076E063
:100D60008AEE95E00E94251E20910F063091100614
:100D700080910B0690910C062817390781F120E02D
:100D800040E060E080E296E00E94CD0B20E230E09F
:100D90004CE450E064EE75E080E296E00E94E10BE6
:100DA00020E040E06FEF80E296E00E94CD0B20E271
:100DB00030E04CE450E067E076E080E296E00E94AC
:100DC000E10B80910F069091100690930C06809392
:100DD0000B0667E076E084EE95E00E94251E809188
:100DE0000A010E94EF149093C9038093C803BC01C9
:100DF000882777FD8095982F1F921F921F922FE1D1
:100E00002F93A12CB12C6501A394EE24EA9413E056
:100E1000F12E00E010E020E030E0A9010E94EB1884
:100E20007093C7036093C6034AE0CE010E960E94FA
:100E3000051A20E030E043E050E061EC73E0CE01C1
:100E40000E960E94B11A6091C6037091C703769501
:100E5000762F6627779567954AE0CE0108960E941F
:100E6000051A20E030E045E050E069EB73E0CE0188
:100E700008960E94B11A0F900F900F900F9020913A
:100E8000C6033091C7038091C4039091C50328170E
:100E9000390709F44AC020E040E060E080E296E0D3
:100EA0000E94CD0B20E330E048E550E06EEB73E0AC
:100EB00080E296E00E94E10B28E330E04CE450E051
:100EC00064EB73E080E296E00E94E10B2FEF40E0DC
:100ED00060E080E296E00E94CD0B20E330E048E540
:100EE00050E061EC73E080E296E00E94E10B28E3C1
:100EF00030E04CE450E069EB73E080E296E00E9461
:100F0000E10B8091C6039091C7039093C503809332
:100F1000C40361EC73E08EEB93E00E94251E69EB45
:100F200073E084EB93E00E94251E8A8190E020917B
:100F30000C0130910D018217930709F040C06CE25B
:100F400071E080E090E00E948114CE0108960E943A
:100F50003219CE010E960E943219CE0144960E949B
:100F60003219CE014A960E943219CE0180960E9413
:100F70003219CE0186960E943219CE018C960E94BB
:100F80003219CE01C2960E943219CE01C8960E9433
:100F90003219CE01CE960E943219CD5BDF4F0FB6CB
:100FA000F894DEBF0FBECDBFDF91CF911F910F919F
:100FB000FF90EF90DF90CF90BF90AF900895609139
:100FC000C6037091C7030E94951B892B09F0B7CF08
:100FD00020E040E060E080E296E00E94CD0B8FE7E9
:100FE00090E09093CB038093CA030FE710E06091E9
:100FF000CA037091CB0377FD2AC0FB01EE0FFF1FE0
:10100000E453FC4F80819181A801481B590B80E279
:1010100096E00E94F40B6091CA037091CB03FB0130
:10102000EE0FFF1FE453FB4F80819181A801481B05
:10103000590B80E296E00E94F40B8091CA039091D4
:10104000CB0301979093CB038093CA03D0CF20E0CA
:1010500030E080E090E02F5F3F4FFC01E453FC4F15
:101060004281538151834083FC01E453FB4F428111
:1010700053815183408302962F37310564F3220F49
:10108000331FF901E453FC4F809111069091120631
:1010900091838083F901E453FB4F80910F06909177
:1010A0001006918380838A8190E090930D01809354
:1010B0000C018FE790E09093CB038093CA030FE776
:1010C00010E08091CA039091CB0397FD38CF20E0C8
:1010D0004FEF60E080E296E00E94CD0B6091CA0382
:1010E0007091CB03FB01EE0FFF1FE453FC4F808197
:1010F0009181A801481B590B80E296E00E94F40BF5
:1011000020E040E06FEF80E296E00E94CD0B60911E
:10111000CA037091CB03FB01EE0FFF1FE453FB4F9B
:1011200080819181A801481B590B80E296E00E94C2
:10113000F40B8091CA039091CB0301979093CB035A
:101140008093CA03BECF29E048E06AE080E296E0DF
:101150000E94B10827E046E065E08AE096E00C9442
:10116000C011CF93DF93EC010E94620C8FE393E0F8
:101170009983888380EA90E09987888780E890E067
:101180009B878A87DF91CF910895CF93DF93EC01FE
:101190000E94600E61E0CE01DF91CF910C9474103B
:1011A0002F923F924F925F926F927F928F929F9277
:1011B000AF92BF92CF92DF92EF92FF920F931F9365
:1011C000CF93DF9300D000D0CDB7DEB74C017C8346
:1011D0006B836A015901C8018701AC014C195D0993
:1011E00057FF03C051954195510995016B817C8151
:1011F000261B370B37FF03C0319521953109222477
:101200002394312C2417350714F0212C312C211470
:10121000310459F03A2D2B2D5C01832F922F3B8105
:101220002C81DC82CB82C32ED22EAB81BC81AA164C
:10123000BB065CF43C2D2D2D6C01832F922F3B813E
:101240002C81BC82AB82A32EB22E2501EB81FC81C6
:101250004E1A5F0A3C016C187D0877FE03C071943A
:1012600061947108720157FE03C0FFEFEF1AFF0A85
:10127000F594E794C816D9062CF421E030E03A83BF
:10128000298324C06FEF7FEF7A8369831FC0D40165
:10129000ED91FC910480F581E02D98012114310439
:1012A000D9F04B815C81B601C4010995E618F708B5
:1012B000F7FE06C0E981FA81CE0EDF1EE40CF51CB4
:1012C0002B813C812F5F3F4F3C832B836B817C8143
:1012D000A616B706E4F604C0A6016B817C81E4CFB4
:1012E0000F900F900F900F90DF91CF911F910F9162
:1012F000FF90EF90DF90CF90BF90AF909F908F9036
:101300007F906F905F904F903F902F9008956F92D5
:101310007F928F929F92AF92BF92CF92DF92EF9285
:10132000FF920F931F93CF93DF93EC015B016A0150
:1013300039014801E881F9810284F385E02D8701B4
:101340000995E881F981A601480D591D41505109BF
:101350000284F385E02D9301B501CE010995E88162
:10136000F9810084F185E02D9401A601B501CE013B
:101370000995E881F981B501660D771D6150710904
:101380000084F185E02D9401A601CE010995DF913D
:10139000CF911F910F91FF90EF90DF90CF90BF9072
:1013A000AF909F908F907F906F900895EF92FF92F3
:1013B0000F931F93DC01ED91FC91240F351F2150F9
:1013C00031090680F781E02D780189019B0109959B
:1013D0001F910F91FF90EF900895EF92FF920F935E
:1013E0001F93DC01ED91FC91260F371F215031092D
:1013F0000680F781E02D78018A0109951F910F91F0
:10140000FF90EF9008956F927F928F929F92AF928C
:10141000BF92CF92DF92EF92FF920F931F93CF93E1
:10142000DF935C014A0169013801EB01C60ED71E4A
:10143000CC15DD0574F4D501ED91FC910084F185A6
:10144000E02D87019301A401BE01C50109952196F4
:10145000EFCFDF91CF911F910F91FF90EF90DF9031
:10146000CF90BF90AF909F908F907F906F90089596
:10147000EF92FF920F931F93DC01ED91FC91119776
:101480001A960D911C911B9718962D913C911997C6
:101490000684F785E02D7B0140E050E060E070E0DD
:1014A00009951F910F91FF90EF90089508954C7F3B
:1014B00038E0439FC001112430E073E03595279553
:1014C0007A95E1F7822B932B687F962B0895FC0188
:1014D0001382128289E593E091838083758364830C
:1014E000578346837187608753874287158A15869D
:1014F00014861786168621E0248B8FEF9FEF938B3F
:10150000828B918B808B268B08952F923F924F92E6
:101510005F926F927F928F929F92AF92BF92CF9283
:10152000DF92EF92FF920F931F93CF93DF93CDB78C
:10153000DEB72C970FB6F894DEBF0FBECDBF9C87E9
:101540008B873A0118870F83FA86E986CD82DC0102
:1015500018968D919C911997681779070CF094C093
:101560001A968D919C911B97481759070CF08CC0C7
:101570008C2C912CCB01B6E0CB9E800D911D1124BB
:10158000181619060CF080C0C40113E0880F991FCB
:101590001A95E1F7840F951F181619060CF074C000
:1015A000F5E02F9F200111245B016B011C82920149
:1015B00028593F4F2901461A570A3C81353031F0EE
:1015C000F201EA0DFB1D44914B8301C01B827A821C
:1015D000698213011E828B8180FF13C0AB85BC859D
:1015E000ED91FC91BD81B13031F40480F581E02DA5
:1015F0002F81388519C00684F785E02DEF80F884A7
:101600001EC0E985FA852F813885E217F307F9F0C6
:10161000AB85BC85ED91FC91BD81B13059F404805E
:10162000F581E02D29853A85A101B5018B859C8541
:1016300009950DC00684F785E02DE984FA848401BC
:10164000940149815A81B6018B859C850995EB816E
:10165000E695EB83FE81FF5FFE8329813A81280DA9
:10166000391D3A8329833FEF231A330AF83009F0F2
:10167000B2CF4C814F5F4C83C80CD91C8FEFA81A96
:10168000B80A463009F099CF2C960FB6F894DEBF11
:101690000FBECDBFDF91CF911F910F91FF90EF90C3
:1016A000DF90CF90BF90AF909F908F907F906F9082
:1016B0005F904F903F902F900895CF92EF92FF92BE
:1016C0000F931F93CF93DF93EC01262F6A3049F4D9
:1016D0002C898E859F8538E0239F800D911D1124D4
:1016E00032C06D30A1F1EA88FB88088919894E85DE
:1016F0005F856C857D85CC880E94850A2C89422F68
:1017000050E08C859D8536E0239F800D911D11242E
:101710009D878C872E892223D1F06AEF6403900184
:10172000659F300D112468857985260F371F28178E
:1017300039076CF403E0440F551F0A95E1F78E85D5
:101740009F85840F951F9F878E871D861C8681E04D
:1017500090E0DF91CF911F910F91FF90EF90CF908C
:101760000895611101C061E0FC01648B0895DC0102
:10177000ED91FC910088F189E02D0994CF93DF93DE
:10178000EC01E881F9810488F589E02D0995BC0117
:10179000CE01DF91CF910C94B70BCF93DF93EC0187
:1017A000E881F9810488F589E02D099521E0298FE8
:1017B000988F8F8B998B888B9B8B8A8BDF91CF91A6
:1017C0000895FC01818D882371F0168A8789908D98
:1017D000918B808B938B828B5587448737872687A5
:1017E000CF010C94F5170895DC0159962C91599767
:1017F000222359F0ED91FC91119757962D913C9130
:1018000058970480F581E02D09940895EF92FF9296
:101810000F931F93DC01ED91FC9111971A960D9196
:101820001C911B9718962D913C9119970684F7856A
:10183000E02D7B0140E050E060E070E009951F91F1
:101840000F91FF90EF90089520915606222399F072
:101850003FB7F89420915606213059F42DB32093C8
:1018600054064DB320915506209524232DBB3FBF30
:1018700002C0309354068CBD9DBD089580915606DC
:10188000882361F09FB7F894209156068091540602
:10189000213019F48DBB9FBF08958FBF08959C011F
:1018A000207E3770AC01542F4427550F550F550F2C
:1018B000242B352B892F9927869586958695822B03
:1018C000932B0895EF92FF920F931F93CF93DF9383
:1018D0001F92CDB7DEB77C01062F142F40EA50E0EF
:1018E00060E870E029830E94670A83E793E0F701CC
:1018F0009183808380E5878F10A201A712A7298199
:1019000023A781E0868F15A614A60F90DF91CF91B3
:101910001F910F91FF90EF900895FC01868D882311
:1019200039F06EBD00000DB407FEFDCF8EB50895F1
:1019300088E090E030E8A1A1B2A126A5432F46237C
:1019400021F04C91422B4C9304C04C9120952423C0
:101950002C93A3A1B4A12C9147A5242B2C93A3A134
:10196000B4A14C9127A5209524232C93369501975B
:1019700011F708950F931F93CF93DF931F92CDB765
:10198000DEB78C01DC015E968C915E97882341F076
:101990005F968D919C91909769830E94240C698138
:1019A000D8019796ED91FC9198979081D1968C9162
:1019B000D1978095892380839596ED91FC91969798
:1019C0009081D0968C91809589238083C8010E9454
:1019D0008D0CD8019596ED91FC9196978081D096CB
:1019E0009C91D097892B80835E968C91882339F0C7
:1019F0000F90DF91CF911F910F910C943E0C0F909F
:101A0000DF91CF911F910F910895662311F061E24C
:101A100001C060E20C94BA0C0F931F93CF93DF9335
:101A20001F92CDB7DEB78C01DC015E968C915E977C
:101A3000882341F05F968D919C91909769830E94D5
:101A4000240C6981D8019796ED91FC91989780813B
:101A5000D1969C91D197892B80839596ED91FC919D
:101A600096979081D0968C91809589238083C80128
:101A70000E948D0CD8019596ED91FC9196978081EE
:101A8000D0969C91D097892B80835E968C918823E9
:101A900039F00F90DF91CF911F910F910C943E0C74
:101AA0000F90DF91CF911F910F910895AF92BF9248
:101AB000CF92DF92EF92FF920F931F93CF93DF931A
:101AC0007C01EB012196FB01B490BB2009F435C0E9
:101AD000FE016491C7010E94BA0C6E01F2E0CF0EC4
:101AE000D11CFE013196C4918C2F8078A82ECF771F
:101AF0008601DC2FDC0DD01741F0F8016491C7019D
:101B00000E940C0D0F5F1F4FF6CFC6018C0F911D69
:101B1000EC01AA2081F08C010F5F1F4FFC01649142
:101B200070E06F3F710511F464EF71E080E090E0C8
:101B30000E948114E801BA94C8CFDF91CF911F9120
:101B40000F91FF90EF90DF90CF90BF90AF900895EE
:101B50000F931F93CF93DF93EC018B011BAA1AAA5B
:101B600061E08AA50E94351561E089A50E943515BE
:101B700089A590E0FC01E351FA4FE491F0E0EE0F0B
:101B8000FF1FE55FF94F259134913EA32DA3FC0182
:101B9000E752FA4F849188AB8AA590E0FC01E351AB
:101BA000FA4FE491F0E0EE0FFF1FE55FF94F25914A
:101BB000349138A72FA3FC01E752FA4F849189ABE7
:101BC0008E8D882331F00E94A41080E58F8F18A29B
:101BD0003CC061E08DA50E94351561E08CA50E9496
:101BE00035158DA590E0FC01E351FA4FE491F0E04A
:101BF000EE0FFF1FE55FF94FA591B491BCA3ABA316
:101C0000FC01E752FA4F84918FA78CA590E0FC016C
:101C1000E351FA4FE491F0E0EE0FFF1FE55FF94F5B
:101C2000259134913AA329A3FC01E752FA4F8491FC
:101C30008EA78C919FA5909589238C93E9A1FAA1F9
:101C400090818EA5809589238083EDA1FEA190814E
:101C500088A98095892380838BA5882309F161E079
:101C60000E94351561E08BA50E946E1564EF71E04E
:101C700080E090E00E94811460E08BA50E946E15C8
:101C800064EF71E080E090E00E94811461E08BA538
:101C90000E946E1564EF71E080E090E00E94811474
:101CA0000115110541F0B801CE01DF91CF911F91CF
:101CB0000F910C94560DDF91CF911F910F910895C4
:101CC00063E675E00C94A80DEF92FF920F931F93BB
:101CD000CF93DF9300D0CDB7DEB77C01162F6AE239
:101CE00029834A830E94BA0C60E0C7010E940C0D50
:101CF000F70162A9610FC7010E940C0D60E0C701E6
:101D00000E940C0DF70162A92981620FC7010E9490
:101D10000C0D6BE2C7010E94BA0C60E0C7010E9483
:101D20000C0DF70163A94A81640FC7010E940C0DD5
:101D300060E0C7010E940C0DF70163A9600FC701A5
:101D40000E940C0D6CE2C7010F900F90DF91CF91B4
:101D50001F910F91FF90EF900C94BA0CFF920F938C
:101D60001F93CF93DF93EC01122FF32E77FD48C022
:101D7000A885B9856A177B070CF042C057FD40C0A3
:101D8000AA85BB854A175B07DCF501E0040F21E05B
:101D9000260F0E94640E8E8D882321F08F8D98A1CE
:101DA0000E94240CEFA1F8A5808199A9892B80833A
:101DB000EDA1FEA1808148A94095482340838D8DE7
:101DC000823031F4812F9F2D0E944F0C182FF92E55
:101DD0006F2DCE010E948D0C612FCE010E948D0CC3
:101DE000EDA1FEA1808198A9892B80838E8D882307
:101DF00039F0DF91CF911F910F91FF900C943E0C21
:101E0000DF91CF911F910F91FF900895DF92EF9294
:101E1000FF920F931F93CF93DF93EC017901D02EA4
:101E200088859985681779070CF054C02A853B8509
:101E3000421753070CF04EC0CA018E0D9F1D281784
:101E400039071CF47901E41AF50A0FEF040F0E0D9F
:101E5000262FCE010E94640E8D8D823031F48D2D9F
:101E6000912F0E944F0CD82E192F8E8D882321F090
:101E70008F8D98A10E94240CEFA1F8A5808199A9CB
:101E8000892B8083EDA1FEA1908188A9809589236B
:101E90008083E114F10461F0612FCE010E948D0C6A
:101EA0006D2DCE010E948D0C81E0E81AF108F1CF72
:101EB000EDA1FEA1808198A9892B80838E8D882336
:101EC00049F0DF91CF911F910F91FF90EF90DF903C
:101ED0000C943E0CDF91CF911F910F91FF90EF90EA
:101EE000DF900895DF92EF92FF920F931F93CF93AD
:101EF000DF93EC017901D02E2885398562177307AD
:101F00000CF054C08A859B85481759070CF04EC0C9
:101F1000CB018E0D9F1D281739071CF47901E61A95
:101F2000F70A2FEF260F2E0D042FCE010E94640E0C
:101F30008D8D823031F48D2D912F0E944F0CD82E33
:101F4000192F8E8D882321F08F8D98A10E94240C4B
:101F5000EFA1F8A5808199A9892B8083EDA1FEA12D
:101F6000908188A9809589238083E114F10461F030
:101F7000612FCE010E948D0C6D2DCE010E948D0C23
:101F800081E0E81AF108F1CFEDA1FEA1808198A9C6
:101F9000892B80838E8D882349F0DF91CF911F910B
:101FA0000F91FF90EF90DF900C943E0CDF91CF915A
:101FB0001F910F91FF90EF90DF9008956F927F92A5
:101FC0008F929F92AF92BF92CF92DF92EF92FF9249
:101FD0000F931F93CF93DF93EC016B015A014901DB
:101FE000380128853985621773070CF06EC08A8521
:101FF0009B85481759070CF068C0AB01480D591D67
:10200000241735071CF44901861A970A9501260DF5
:10201000371D821793071CF43C016A187B088D8DCD
:10202000823021F4C7010E944F0C7C010FEF0A0D92
:10203000060D2FEF2C0D280D4A2D6C2DCE010E9480
:10204000640E8E8D882321F08F8D98A10E94240C20
:10205000EFA1F8A5808199A9892B8083EDA1FEA12C
:10206000908188A980958923808316141704A4F48D
:1020700064011C141D0464F46F2DCE010E948D0CAC
:102080006E2DCE010E948D0C81E0C81AD108F1CFCF
:1020900081E0681A7108E9CFEDA1FEA1808198A9BD
:1020A000892B80838E8D882381F0DF91CF911F91C2
:1020B0000F91FF90EF90DF90CF90BF90AF909F90E7
:1020C0008F907F906F900C943E0CDF91CF911F9179
:1020D0000F91FF90EF90DF90CF90BF90AF909F90C7
:1020E0008F907F906F9008951F93CF93DF93EC01B3
:1020F000162F66E30E94BA0C612F63706D8B6230FD
:1021000041F0633089F0613011F068EC03C068EA97
:102110000CC068E0CE010E940C0D80E890E0998729
:10212000888780EA90E00AC068E6CE010E940C0D24
:1021300080EA90E09987888780E890E09B878A878B
:10214000DF91CF911F910895CF93CFB7F8948091ED
:102150005706811127C0E7EFF5E08491E3EEF5E043
:102160009491E82FF0E0EE0FFF1FEB5EF94FA59181
:10217000B4918C91892321F461E08AE00E946E156C
:1021800061E08AE00E9435158CB580618CBD8CB50C
:1021900080648CBD61E08DE00E94351561E08BE0CC
:1021A0000E943515809157068F5F80935706CFBFE9
:1021B000CF9108954F925F927F928F929F92AF92AC
:1021C000BF92CF92DF92EF92FF920F931F93CF9324
:1021D000DF931F92CDB7DEB72C01B62E862F90E08D
:1021E000FC01E752FA4FA490FC01E351FA4FE4914D
:1021F000F0E0EE0FFF1FEF5FF94F05911491F20130
:102200001086118612861386148661E08B2D498311
:102210000E94351560E08B2D0E946E154981642F58
:1022200070E080E090E00E94811461E08B2D0E94BC
:102230006E1588E290E00E94A91460E08B2D0E9448
:10224000351580E991E0F80120812A2129F40197D0
:10225000D1F78EEF9FEF46C080E991E0F801208131
:102260002A2119F00197D1F7F4CF98E2892E712C29
:1022700020E8922E80E991E0F80120812A2119F4CA
:102280000197D1F7E6CF0E945E146B017C0180E9D3
:1022900091E0F80120812A2119F00197D1F7D9CFD7
:1022A0000E945E146C197D098E099F0969327105BF
:1022B0008105910530F0F201E70DF11D8085892936
:1022C0008087969419F4739480E8982E8A9491F6F6
:1022D00061E08B2D0E94351561E08B2D0E946E15FB
:1022E00080E090E00F90DF91CF911F910F91FF90D0
:1022F000EF90DF90CF90BF90AF909F908F907F90A6
:102300005F904F9008950F931F93CF93DF93EC014D
:1023100042E10E94DA10009769F040E050EC69E772
:1023200074EC488359836A837B834C835D836E831B
:102330007F8321C01885612F70E080E090E00E94CB
:102340001F1B688379838A839B830A85602F70E0D3
:1023500080E090E00E941F1B6C837D838E839F83AF
:10236000100F81E090E02C85211302C080E090E006
:10237000919581959109DF91CF911F910F910895CA
:1023800060935A064093590620935806089560E0DA
:1023900080915A060E946E1561E080915A060E9453
:1023A000351560E0809158060E946E1561E08091BD
:1023B00058060E94351561E0809159060E94351536
:1023C00061E080915A060E946E1584E090E00C94C2
:1023D000A91460E080915A060E946E1584E090E096
:1023E0000C94A914CF92DF92EF92FF921F93CF9398
:1023F000DF9360E0809159060E943515C0E0D0E07F
:1024000010E0C12CD12C7601C394809159060E9412
:10241000A415B701A601892B51F00C2E04C0440F5E
:10242000551F661F771F0A94D2F7142B0AC00C2E73
:1024300004C0440F551F661F771F0A94D2F74095BA
:10244000142361E0809158060E946E1581E090E0AF
:102450000E94A91460E0809158060E946E1581E0E8
:1024600090E00E94A9142196C830D10571F6812F01
:10247000DF91CF911F91FF90EF90DF90CF90089563
:102480000F931F93CF93DF93C0E0D0E0082F10E0AD
:10249000B8010C2E02C0759567950A94E2F7617039
:1024A000809159060E946E1581E090E00E94A91467
:1024B00061E0809158060E946E1581E090E00E94D4
:1024C000A91460E0809158060E946E1581E090E0AA
:1024D0000E94A9142196C830D105D1F6DF91CF9181
:1024E0001F910F910895EF92FF920F931F93CF9337
:1024F000DF931F92CDB7DEB7182F99830E94C711C3
:102500008FEB0E944012E12E9981F92E8701085F1E
:102510001F4F0E94F211F70181937F01E017F1072D
:10252000C1F70F90DF91CF911F910F91FF90EF9026
:102530000C94E911CF93DF931F92CDB7DEB7898357
:102540000E94C711898181600E9440120E94F2118D
:1025500089830E94E91189810F90DF91CF910895BD
:1025600080E80E949A12881F8827881F08958EE8A5
:102570000E949A12982F9095991F9927991F892F39
:102580000895982F92959F708F702AE0929F800DEA
:1025900011240895BF92CF92DF92EF92FF920F9392
:1025A0001F93CF93DF93CDB7DEB729970FB6F8947B
:1025B000DEBF0FBECDBF8C01CE0101960E9473120B
:1025C00089818F770E94C112B82EF80180838A8199
:1025D0008F770E94C112C82EF80181838B818F737F
:1025E0000E94C112D82EF80182838C818F730E94C1
:1025F000C112E82EF80184838D818F710E94C1126F
:10260000F82EF80185839E81977093838F81998737
:102610000E94C1122EE1280FF80126839985FBE361
:10262000FB15A8F0FC1598F087E18D1580F08FEF71
:102630008E0D8F3160F48FEF8F0D8C3040F4915000
:1026400081E0973028F4243618F480E001C081E05E
:1026500029960FB6F894DEBF0FBECDBFDF91CF91A4
:102660001F910F91FF90EF90DF90CF90BF90089552
:10267000CF93DF93CDB7DEB727970FB6F894DEBFC1
:102680000FBECDBFCE0101960E94CA12811105C0B6
:10269000CE0101960E94591303C060E070E0CB01A7
:1026A00027960FB6F894DEBF0FBECDBFDF91CF9156
:1026B00008956F927F928F929F92AF92BF92CF9226
:1026C000DF92EF92FF920F931F93CF93DF93FC0162
:1026D000C680AC2DB0E020E833E341EE51E00E942B
:1026E000F91B4B015C0122EB37E06D01C4E6D0E041
:1026F00000E911E0C901825B97408C159D05DCF46F
:10270000C90183709927892B99F4C901BE010E94E0
:10271000951B892B31F4C901B8010E94951B892BA7
:1027200039F480E8880E81E5981E81E0A81EB11C6E
:102730002F5F3F4FDFCF6580712C8EE4C81A88EF82
:10274000D80AC60164E670E00E94951B8C01C601A0
:1027500060E971E00E94951B7C01C1E0D0E083E05C
:10276000C822DD24C615D7052CF5C230D10589F461
:10277000C114D10471F40115110519F4E114F10427
:1027800041F480E8880E8BE3981E86E2A81EB11CF7
:102790000FC0DE01A857BC4FAC91B0E020E831E596
:1027A00041E050E00E94F91B860E971EA81EB91E3C
:1027B0002196D8CF4181228130E0A0E1BEE00E9485
:1027C000EA1B6B017C01242F30E0ACE3B0E00E94F7
:1027D000EA1BC60ED71EE81EF91E8081C80ED11C4A
:1027E000E11CF11CA481B0E0119720E831E541E043
:1027F00050E00E94041CC60ED71EE81EF91EC80C2D
:10280000D91CEA1CFB1CC701B601DF91CF911F91B7
:102810000F91FF90EF90DF90CF90BF90AF909F907F
:102820008F907F906F9008951F920F920FB60F9226
:1028300011242F933F938F939F93AF93BF938091D6
:102840005C0690915D06A0915E06B0915F063091A6
:102850005B0623E0230F2D3720F40196A11DB11D47
:1028600005C026E8230F0296A11DB11D20935B062B
:1028700080935C0690935D06A0935E06B0935F061E
:102880008091600690916106A0916206B091630606
:102890000196A11DB11D8093600690936106A093DF
:1028A0006206B0936306BF91AF919F918F913F9164
:1028B0002F910F900FBE0F901F9018953FB7F8946F
:1028C0008091600690916106A0916206B0916306C6
:1028D00026B5A89B05C02F3F19F00196A11DB11D7B
:1028E0003FBF6627782F892F9A2F620F711D811D98
:1028F000911D42E0660F771F881F991F4A95D1F7F7
:102900000895CF92DF92EF92FF92CF93DF936B0106
:102910007C010E945E14EB01C114D104E104F104B6
:1029200089F00E94ED1A0E945E146C1B7D0B683EBC
:10293000734090F381E0C81AD108E108F108C8514A
:10294000DC4FEACFDF91CF91FF90EF90DF90CF90F7
:1029500008958230910538F0880F991F880F991FCC
:1029600005970197F1F70895789484B5826084BD46
:1029700084B5816084BD85B5826085BD85B5816083
:1029800085BDEEE6F0E0808181608083E1E8F0E0E3
:102990001082808182608083808181608083E0E812
:1029A000F0E0808181608083E1EBF0E080818460F1
:1029B0008083E0EBF0E0808181608083EAE7F0E0F3
:1029C0008081846080838081826080838081816057
:1029D00080838081806880831092C10008958E304A
:1029E00008F08E50877020910E0190E4299F90018D
:1029F0001124822B80937C0080917A0080648093E4
:102A00007A0080917A0086FDFCCF80917800209139
:102A1000790090E0922B0895833081F028F4813082
:102A200099F08230A1F008958730A9F08830B9F08C
:102A30008430D1F4809180008F7D03C0809180002C
:102A40008F7780938000089584B58F7702C084B516
:102A50008F7D84BD08958091B0008F7703C08091F1
:102A6000B0008F7D8093B0000895CF93DF9390E006
:102A7000FC01E752FA4F2491FC01E351FA4F849193
:102A8000882349F190E0880F991FFC01EB5EF94F14
:102A9000A591B491855F994FFC01C591D4919FB7E1
:102AA000611108C0F8948C91209582238C938881C1
:102AB00082230AC0623051F4F8948C91322F309501
:102AC00083238C938881822B888304C0F8948C9113
:102AD000822B8C939FBFDF91CF9108950F931F930B
:102AE000CF93DF931F92CDB7DEB7282F30E0F901E7
:102AF000EB53FA4F8491F901E752FA4F1491F9011F
:102B0000E351FA4F04910023C9F0882321F069832F
:102B10000E940C156981E02FF0E0EE0FFF1FE55FCA
:102B2000F94FA591B4919FB7F8948C91611103C0AE
:102B30001095812301C0812B8C939FBF0F90DF9153
:102B4000CF911F910F910895CF93DF93282F30E0FD
:102B5000F901EB53FA4F8491F901E752FA4FD491FE
:102B6000F901E351FA4FC491CC2391F081110E94F5
:102B70000C15EC2FF0E0EE0FFF1FEF5FF94FA59162
:102B8000B4912C912D2381E090E021F480E002C0EB
:102B900080E090E0DF91CF910895FC01818D228D3E
:102BA00090E0805C9F4F821B91098F739927089555
:102BB000FC01918D828D981731F0828DE80FF11D07
:102BC000858D90E008958FEF9FEF0895FC01918D22
:102BD000828D981761F0828DDF01A80FB11D5D967F
:102BE0008C91928D9F5F9F73928F90E008958FEFED
:102BF0009FEF08958AE697E1892B49F080E090E005
:102C0000892B29F00E946A1781110C940000089505
:102C1000FC01848DDF01A80FB11DA35ABF4F2C9179
:102C2000848D90E001968F739927848FA689B78948
:102C30002C93A089B1898C9180648C93938D848D21
:102C4000981306C00288F389E02D80818F7D8083F0
:102C50000895CF93DF93EC01888D8823C9F0EA892A
:102C6000FB89808185FD05C0A889B9898C9186FD85
:102C70000FC00FB607FCF5CF808185FFF2CFA88982
:102C8000B9898C9185FFEDCFCE010E940816E7CF60
:102C9000DF91CF910895CF92DF92FF920F931F9310
:102CA000CF93DF931F92CDB7DEB76C0181E0D601E1
:102CB00058968C9358975B969C915B975C968C91F9
:102CC0005C97981307C05096ED91FC9151978081C5
:102CD00085FD2EC0F601038D10E00F5F1F4F0F73AF
:102CE0001127F02EF601848DF81211C00FB607FCE3
:102CF000F9CFD6015096ED91FC915197808185FFD7
:102D0000F1CFC60169830E9408166981EBCF838DDC
:102D1000E80FF11DE35AFF4F6083D6015B960C93D9
:102D20005B975296ED91FC915397808180620CC025
:102D3000D6015696ED91FC91579760835096ED9190
:102D4000FC91519780818064808381E090E00F90B6
:102D5000DF91CF911F910F91FF90DF90CF90089559
:102D6000BF92CF92DF92EF92FF92CF93DF93EC016D
:102D70006A017B01B22EE889F98982E080834115DE
:102D800081EE580761057105A1F060E079E08DE3FF
:102D900090E0A70196010E94A91B21503109410929
:102DA00051095695479537952795211580E13807A4
:102DB00098F0E889F989108260E874E88EE190E083
:102DC000A70196010E94A91B21503109410951090F
:102DD0005695479537952795EC85FD853083EE858B
:102DE000FF852083188EEC89FD89B082EA89FB89F2
:102DF000808180618083EA89FB898081886080830B
:102E0000EA89FB89808180688083EA89FB898081E7
:102E10008F7D8083DF91CF91FF90EF90DF90CF90F7
:102E2000BF9008951F920F920FB60F9211242F9307
:102E30008F939F93EF93FF93E0917406F091750643
:102E40008081E0917A06F0917B0682FD12C090812C
:102E500080917D068F5F8F7320917E06821751F0DF
:102E6000E0917D06F0E0EC59F94F958F80937D0657
:102E700001C08081FF91EF919F918F912F910F90D1
:102E80000FBE0F901F9018951F920F920FB60F92C2
:102E900011242F933F934F935F936F937F938F935F
:102EA0009F93AF93BF93EF93FF9384E696E00E94C6
:102EB0000816FF91EF91BF91AF919F918F917F91F4
:102EC0006F915F914F913F912F910F900FBE0F9097
:102ED0001F90189584E696E00E94CD1521E0892B7D
:102EE00009F420E0822F089510926706109266067A
:102EF00088EE93E0A0E0B0E08093680690936906C6
:102F0000A0936A06B0936B0689E993E090936506F7
:102F10008093640685EC90E0909371068093700630
:102F200084EC90E0909373068093720680EC90E0BE
:102F3000909375068093740681EC90E090937706E9
:102F40008093760682EC90E09093790680937806E1
:102F500086EC90E090937B0680937A0610927D0633
:102F600010927E0610927F06109280060895CF92EE
:102F7000DF92EF92FF920F931F93CF93DF937C0129
:102F80006A01EB0100E010E00C151D0571F069917C
:102F9000D701ED91FC910190F081E02DC7010995D9
:102FA000892B19F00F5F1F4FEFCFC801DF91CF9131
:102FB0001F910F91FF90EF90DF90CF9008956115D2
:102FC000710581F0DB010D900020E9F7AD01415062
:102FD0005109461B570BDC01ED91FC910280F381F6
:102FE000E02D099480E090E008950C94DF17DC0157
:102FF000ED91FC910190F081E02D099465EA73E078
:103000000C94DF170F931F93CF93DF93EC010E9473
:10301000DF178C01CE010E94FE17800F911FDF91F8
:10302000CF911F910F9108958F929F92AF92BF926F
:10303000CF92DF92EF92FF920F931F93CF93DF9384
:10304000CDB7DEB7A1970FB6F894DEBF0FBECDBFE8
:103050007C01C42EE52FCB01D22E19A221E02D1523
:1030600010F02AE0D22E8E010F5D1F4F8D2C912C77
:10307000A12CB12C6C2D7E2FA50194010E94A91BBF
:103080008C2DD29E80191124015011098A3014F41C
:10309000805D01C0895CF8018083211531054105FF
:1030A000510521F0C22EE32FCA01E4CFB801C701B8
:1030B0000E94DF17A1960FB6F894DEBF0FBECDBFFA
:1030C000DF91CF911F910F91FF90EF90DF90CF9004
:1030D000BF90AF909F908F900895CF92DF92EF9224
:1030E000FF920F931F93CF93DF93EC016A017B0153
:1030F0002115310579F4E881F9810190F081E02D05
:10310000642FDF91CF911F910F91FF90EF90DF908F
:10311000CF9009942A303105E9F477FF1AC06DE2A7
:103120000E94F7178C0144275527BA014C195D09F5
:103130006E097F092AE0CE010E941418800F911FAA
:10314000DF91CF911F910F91FF90EF90DF90CF9083
:1031500008952AE0B701A601CE01DF91CF911F911A
:103160000F91FF90EF90DF90CF900C9414189A017C
:10317000AB01662757FD6095762F0C946D180F9361
:103180001F93CF93DF93EC019A01AB01662757FDA4
:103190006095762F0E946D188C01CE010E94FE175B
:1031A000800F911FDF91CF911F910F9108952115ED
:1031B000310541F4DC01ED91FC910190F081E02DAD
:1031C000642F09940C9414189A01462F50E060E083
:1031D00070E00C94D7184F925F926F927F92AF92EB
:1031E000BF92CF92DF92EF92FF920F931F93CF93F4
:1031F000DF93CDB7DEB729013A01621B730B840B55
:10320000950B29893A894B895C892A193B094C0914
:103210005D09298B3A8B4B8B5C8B9B01AC016989D7
:103220007A898B899C890E94851BE418F508060918
:103230001709A80197010E94CB1B2A0D3B1D4C1DAD
:103240005D1DCA01B901DF91CF911F910F91FF90D0
:10325000EF90DF90CF90BF90AF907F906F905F9096
:103260004F900895FC01808191810C94BE1CCF93F6
:10327000DF93EC0188819981009711F00E94BE1CB8
:10328000198218821D821C821B821A82DF91CF91C3
:1032900008950F931F93CF93DF93EC018B016F5F22
:1032A0007F4F888199810E944D1D009731F099834D
:1032B00088831B830A8381E001C080E0DF91CF9186
:1032C0001F910F910895CF93DF93EC01888199812D
:1032D000892B29F08A819B818617970760F4CE019C
:1032E0000E944919882341F08C819D81892B19F412
:1032F000E881F981108281E0DF91CF910895EF920A
:10330000FF920F931F93CF93DF93EC017B018A0110
:10331000BA010E946319811104C0CE010E943719BD
:1033200007C01D830C83B701888199810E94251EE7
:10333000CE01DF91CF911F910F91FF90EF900895F3
:10334000CF93DF93EC01FB018617970761F0608153
:1033500071816115710529F0448155810E947F19A1
:1033600002C00E943719CE01DF91CF910895FC0170
:103370001182108213821282158214820C94A01979
:10338000CF93DF93EC016115710561F0FB010190B2
:103390000020E9F7AF0141505109461B570B0E942D
:1033A0007F1902C00E943719CE01DF91CF91089595
:1033B0000F931F93CF93DF93CDB7DEB729970FB647
:1033C000F894DEBF0FBECDBF8C01862FF8011182AD
:1033D0001082138212821582148250E0BE016F5F48
:1033E0007F4F90E00E94511EBE016F5F7F4FC8016A
:1033F0000E94C01929960FB6F894DEBF0FBECDBF4C
:10340000DF91CF911F910F9108950F931F93CF9349
:10341000DF93CDB7DEB762970FB6F894DEBF0FBE6D
:10342000CDBF8C01CB01F801118210821382128270
:103430001582148250E0BE016F5F7F4F0E943B1ED9
:10344000BE016F5F7F4FC8010E94C01962960FB620
:10345000F894DEBF0FBECDBFDF91CF911F910F91CA
:103460000895EF92FF920F931F93CF93DF93EC0198
:103470007B010C811D816115710511F480E016C07E
:103480004115510591F0040F151FB8010E946319F1
:103490008823A1F3288139818C819D81B701820F16
:1034A000931F0E94251E1D830C8381E0DF91CF9125
:1034B0001F910F91FF90EF900895EF92FF920F935D
:1034C0001F93CF93DF9300D000D0CDB7DEB77C0140
:1034D000862F4AE08E010F5F1F4FB80190E00E94D7
:1034E000461EF80101900020E9F7AF014150510953
:1034F000401B510BB801C7010E94311A0F900F9069
:103500000F900F90DF91CF911F910F91FF90EF904F
:103510000895CF93DF93EC016115710569F0FB010C
:1035200001900020E9F7AF0141505109461B570BAC
:103530000E94311A811103C0CE010E943719CE01B9
:10354000DF91CF910895CF93DF93EC010E945D1A34
:10355000811103C0CE010E943719CE01DF91CF91B6
:1035600008950F931F93CF93DF93EB0141155105FE
:10357000E9F02097D9F0FC0164817581261737079F
:10358000A0F4621B730B8A010150110960177107C7
:1035900008F48B01FC0160817181620F731FA80127
:1035A000CE010E942C1EC00FD11F1882DF91CF9137
:1035B0001F910F9108950E94171E08950E94B41440
:1035C0000E94DD1A0E940D04CAEFD5E10E94690431
:1035D0002097E1F30E94FA15F9CF089504D068947A
:1035E000B1118DC0089570D088F09F5790F0B92F19
:1035F0009927B751A0F0D1F0660F771F881F991F48
:103600001AF0BA95C9F712C0B13081F077D0B1E0A5
:10361000089574C0672F782F8827B85F39F0B93FB5
:10362000CCF3869577956795B395D9F73EF4909549
:103630008095709561957F4F8F4F9F4F0895E894C7
:1036400009C097FB3EF490958095709561957F4FEA
:103650008F4F9F4F9923A9F0F92F96E9BB27939598
:10366000F695879577956795B795F111F8CFFAF4A8
:10367000BB0F11F460FF1BC06F5F7F4F8F4F9F4FD9
:1036800016C0882311F096E911C0772321F09EE837
:10369000872F762F05C0662371F096E8862F70E09D
:1036A00060E02AF09A95660F771F881FDAF7880F77
:1036B0009695879597F9089557FD9058440F551F93
:1036C00059F05F3F71F04795880F97FB991F61F0A4
:1036D0009F3F79F087950895121613061406551F1B
:1036E000F2CF4695F1DF08C0161617061806991F87
:1036F000F1CF86957105610508940895E894BB277C
:1037000066277727CB0197F90895DB018F939F9365
:103710000E94F91BBF91AF91A29F800D911DA39FA5
:10372000900DB29F900D1124089597FB072E16F46B
:10373000009407D077FD09D00E940C1C07FC05D02F
:103740003EF4909581959F4F0895709561957F4FB8
:103750000895A1E21A2EAA1BBB1BFD010DC0AA1FD2
:10376000BB1FEE1FFF1FA217B307E407F50720F0EA
:10377000A21BB30BE40BF50B661F771F881F991F65
:103780001A9469F760957095809590959B01AC01AE
:10379000BD01CF010895052E97FB1EF400940E94F1
:1037A000E21B57FD07D00E94A91B07FC03D04EF473
:1037B0000C94E21B50954095309521953F4F4F4F0B
:1037C0005F4F089590958095709561957F4F8F4FCD
:1037D0009F4F0895A29FB001B39FC001A39F700D9A
:1037E000811D1124911DB29F700D811D1124911D09
:1037F00008950E94EA1BA59F900DB49F900DA49F71
:10380000800D911D11240895B7FF0C94F91B0E949F
:10381000F91B821B930B0895AA1BBB1B51E107C028
:10382000AA1FBB1FA617B70710F0A61BB70B881F50
:10383000991F5A95A9F780959095BC01CD010895DF
:10384000EE0FFF1F0590F491E02D0994CF93DF93C5
:103850008230910510F482E090E0E0910307F0914E
:10386000040720E030E0A0E0B0E0309739F140817B
:10387000518148175907B8F04817590771F48281E8
:103880009381109729F013969C938E9312972CC0D6
:10389000909304078093030727C02115310531F069
:1038A0004217530718F0A901DB0101C0EF019A018B
:1038B000BD01DF010280F381E02DD7CF2115310555
:1038C000F9F0281B390B2430310580F48A819B8163
:1038D0006115710521F0FB019383828304C09093ED
:1038E000040780930307FE01329644C0FE01E20FF5
:1038F000F31F8193919322503109398328833AC071
:103900002091010730910207232B41F420910201FD
:1039100030910301309302072093010720910001A9
:10392000309101012115310541F42DB73EB7409189
:10393000040150910501241B350BE0910107F09122
:103940000207E217F307A0F42E1B3F0B28173907D5
:1039500078F0AC014E5F5F4F2417350748F04E0FEB
:103960005F1F50930207409301078193919302C018
:10397000E0E0F0E0CF01DF91CF910895CF93DF93A6
:10398000009709F487C0FC01329713821282C0911C
:103990000307D0910407209781F420813181280FFB
:1039A000391F80910107909102078217930779F5DB
:1039B000F0930207E09301076DC0DE0120E030E0E4
:1039C000AE17BF0750F412964D915C9113979D016D
:1039D0004115510509F1DA01F3CFB383A283408188
:1039E0005181840F951F8A179B0771F48D919C91CB
:1039F0001197840F951F02969183808312968D9163
:103A00009C911397938382832115310529F4F093B8
:103A10000407E09303073EC0D9011396FC93EE938D
:103A200012974D915D91A40FB51FEA17FB0779F42A
:103A300080819181840F951F0296D90111969C93E4
:103A40008E938281938113969C938E931297E0E0DC
:103A5000F0E08A819B81009719F0FE01EC01F9CF1B
:103A6000CE01029628813981820F931F2091010790
:103A7000309102072817390769F4309729F410921A
:103A800004071092030702C013821282D093020728
:103A9000C0930107DF91CF910895A0E0B0E0E3E586
:103AA000FDE10C948A1EEC01CB01209719F40E94D1
:103AB000261CB8C0FE01E60FF71F9E0122503109F7
:103AC000E217F30708F4ACC0D9010D911C911197CE
:103AD00006171707B8F00530110508F49FC0A801B4
:103AE000445051094617570708F498C0025011096D
:103AF000061B170B019311936D937C93CF010E94CA
:103B0000BE1C8CC05B01A01AB10A4E01800E911E32
:103B1000A0910307B0910407612C712C60E070E064
:103B2000109709F449C0A815B905C9F5ED90FC90A6
:103B30001197670142E0C40ED11CCA14DB0478F16E
:103B400047018A189B08640142E0C40ED11C1296FA
:103B5000BC9012971396AC91B5E0CB16D10440F00F
:103B6000B282A38391828082D9018D939C9309C0F4
:103B70000E5F1F4F0E0D1F1DF90111830083EB2DEA
:103B8000FA2F6115710531F0DB011396FC93EE936A
:103B9000129744C0F0930407E09303073FC06D9170
:103BA0007C9111976616770608F43B01BD011296C9
:103BB0000D90BC91A02DB4CF6091010770910207C8
:103BC00068157905E9F468167906D0F4409100018A
:103BD000509101014115510541F44DB75EB7609117
:103BE000040170910501461B570BE417F507C0F45B
:103BF000F0930207E0930107F901918380830EC0DF
:103C00000E94261C7C01009759F0A801BE010E9469
:103C10001C1ECE010E94BE1CC70104C0CE0102C002
:103C200080E090E0CDB7DEB7EEE00C94A61E81E018
:103C300090E0F8940C94BD1EFB01DC0102C00190E1
:103C40000D9241505040D8F70895FB01DC010190DE
:103C50000D920020E1F70895FB01DC014150504036
:103C600048F001900D920020C9F701C01D9241500B
:103C70005040E0F708954532510520F4423010F0ED
:103C80000C94461EFB011082CB010895BB274A30DD
:103C900031F4992322F4BDE2909581959F4F0C94C5
:103CA0005D1E4532510520F4423010F00C945C1E2C
:103CB000FB011082CB010895BB27FB015527AA27E2
:103CC000880F991FAA1FA41710F0A41B83955051A9
:103CD000B9F7A05DAA3308F0A95DA193009779F721
:103CE000B111B1931192CB010C94761EDC01FC0151
:103CF000672F71917723E1F7329704C07C916D9320
:103D000070836291AE17BF07C8F308952F923F9258
:103D10004F925F926F927F928F929F92AF92BF92DB
:103D2000CF92DF92EF92FF920F931F93CF93DF9387
:103D3000CDB7DEB7CA1BDB0B0FB6F894DEBF0FBEE4
:103D4000CDBF09942A88398848885F846E847D8431
:103D50008C849B84AA84B984C884DF80EE80FD8033
:103D60000C811B81AA81B981CE0FD11D0FB6F894A9
:0E3D7000DEBF0FBECDBFED010895F894FFCF6A
:103D7E00000005078000010000000E001E00014437
:103D8E00617461202020202020204F726100556D2B
:103D9E006964697461600054656D706572617475F3
:103DAE0072610043616D70696F6E616D656E746FE7
:103DBE00006D696E2E00496E206D656D6F726961C2
:103DCE00003530202D20202D20202D20202D2020AC
:103DDE002D20202D20202D003430202D20202D2090
:103DEE00202D20202D20202D20202D20202D003391
:103DFE0030202D20202D20202D20202D20202D2064
:103E0E00202D20202D003230202D20202D20202D61
:103E1E0020202D20202D20202D20202D003130205F
:103E2E002D20202D20202D20202D20202D20202D36
:103E3E0020202D003000250A2000430A2000445384
:103E4E0031333032525443205265616420546573CD
:103E5E0074002D2D2D2D2D2D2D2D2D2D2D2D2D2D6A
:103E6E002D2D2D2D2D00525443206D6F64756C65D4
:103E7E0020616374697661746564005468652044DA
:103E8E0053313330322069732073746F70706564F0
:103E9E002E2020506C656173652072756E207468DB
:103EAE00652053657454696D65006578616D706C3D
:103EBE006520746F20696E697469616C697A65201A
:103ECE007468652074696D6520616E642062656733
:103EDE00696E2072756E6E696E672E00546865206D
:103EEE004453313330322069732077726974652000
:103EFE0070726F7465637465642E205468697320E4
:103F0E006E6F726D616C2E00554E49582054696D5E
:103F1E00653A2000202054696D65203D20002C203C
:103F2E00446174652028442F4D2F5929203D2000CF
:103F3E002C20446F57203D20004453313330322023
:103F4E0072656164206572726F72212020506C65FB
:103F5E0061736520636865636B20746865206369AF
:103F6E00726375697472792E0044485431312C2075
:103F7E0009004F4B2C0900436865636B73756D2008
:103F8E006572726F722C090054696D65206F7574BD
:103F9E00206572726F722C0900556E6B6E6F776EA4
:103FAE00206572726F722C09003A00000000005DED
:103FBE000BB717AE0ED008060F720F8709DE0F066D
:103FCE000C050D570A000000005D0BB717DB1AD069
:103FDE0008D609ED098709030A380A560A570A0056
:103FEE000000005D0BB717AE0ED008060F720F87DC
:103FFE0009DE0F060C050D570A1F1C1F1E1F1E1F64
:10400E001F1E1F1E1F000000004B16B717CD15E612
:10401E0015D81529160D0A006E616E00696E6600C0
:04402E006F76660043
:107E0000112484B714BE81FFF0D085E080938100F7
:107E100082E08093C00088E18093C10086E0809377
:107E2000C20080E18093C4008EE0C9D0259A86E02C
:107E300020E33CEF91E0309385002093840096BBD3
:107E4000B09BFECF1D9AA8958150A9F7CC24DD24C4
:107E500088248394B5E0AB2EA1E19A2EF3E0BF2EE7
:107E6000A2D0813461F49FD0082FAFD0023811F036
:107E7000013811F484E001C083E08DD089C08234E0
:107E800011F484E103C0853419F485E0A6D080C0E4
:107E9000853579F488D0E82EFF2485D0082F10E0AE
:107EA000102F00270E291F29000F111F8ED06801E7
:107EB0006FC0863521F484E090D080E0DECF843638
:107EC00009F040C070D06FD0082F6DD080E0C81688
:107ED00080E7D80618F4F601B7BEE895C0E0D1E017
:107EE00062D089930C17E1F7F0E0CF16F0E7DF06D8
:107EF00018F0F601B7BEE89568D007B600FCFDCFD4
:107F0000A601A0E0B1E02C9130E011968C91119780
:107F100090E0982F8827822B932B1296FA010C0160
:107F200087BEE89511244E5F5F4FF1E0A038BF0790
:107F300051F7F601A7BEE89507B600FCFDCF97BE46
:107F4000E89526C08437B1F42ED02DD0F82E2BD052
:107F50003CD0F601EF2C8F010F5F1F4F84911BD097
:107F6000EA94F801C1F70894C11CD11CFA94CF0C13
:107F7000D11C0EC0853739F428D08EE10CD085E9AC
:107F80000AD08FE07ACF813511F488E018D01DD067
:107F900080E101D065CF982F8091C00085FFFCCF94
:107FA0009093C60008958091C00087FFFCCF809118
:107FB000C00084FD01C0A8958091C6000895E0E648
:107FC000F0E098E1908380830895EDDF803219F02E
:107FD00088E0F5DFFFCF84E1DECF1F93182FE3DFCA
:107FE0001150E9F7F2DF1F91089580E0E8DFEE27F6
:047FF000FF270994CA
:027FFE00040479
:0400000300007E007B
:00000001FF
