:100000000C9412030C943A030C943A030C943A03A4
:100010000C943A030C943A030C943A030C943A036C
:100020000C943A030C943A030C943A030C943A035C
:100030000C943A030C943A030C943A030C943A034C
:100040000C945D140C943A030C9467170C94991754
:100050000C943A030C943A030C943A030C943A032C
:100060000C943A030C943A0300000000003E5B4FEE
:100070005B3E3E6B4F6B3E1C3E7C3E1C183C7E3C08
:10008000181C577D571C1C5E7F5E1C00183C180016
:10009000FFE7C3E7FF0018241800FFE7DBE7FF30A6
:1000A000483A060E2629792926407F050507407F14
:1000B00005253F5A3CE73C5A7F3E1C1C08081C1C87
:1000C0003E7F14227F22145F5F005F5F06097F017D
:1000D0007F006689956A606060606094A2FFA29468
:1000E00008047E040810207E201008082A1C080836
:1000F0001C2A08081E101010100C1E0C1E0C303884
:100100003E3830060E3E0E06000000000000005F84
:1001100000000007000700147F147F14242A7F2AA0
:100120001223130864623649562050000807030062
:10013000001C2241000041221C002A1C7F1C2A08AE
:10014000083E080800807030000808080808000011
:1001500060600020100804023E5149453E00427F85
:10016000400072494949462141494D331814127FD4
:100170001027454545393C4A494931412111090774
:100180003649494936464949291E000014000000F5
:1001900040340000000814224114141414140041C7
:1001A00022140802015909063E415D594E7C121184
:1001B000127C7F494949363E414141227F414141BC
:1001C0003E7F494949417F090909013E4141517337
:1001D0007F0808087F00417F41002040413F017FA8
:1001E000081422417F404040407F021C027F7F0470
:1001F00008107F3E4141413E7F090909063E4151B9
:10020000215E7F09192946264949493203017F01A8
:10021000033F4040403F1F2040201F3F4038403FA9
:10022000631408146303047804036159494D4300BF
:100230007F4141410204081020004141417F0402F6
:10024000010204404040404000030708002054548D
:1002500078407F284444383844444428384444286B
:100260007F385454541800087E090218A4A49C78BE
:100270007F0804047800447D40002040403D007F1A
:100280001028440000417F40007C047804787C08FA
:100290000404783844444438FC18242418182424CE
:1002A00018FC7C08040408485454542404043F44B3
:1002B000243C4040207C1C2040201C3C4030403CE2
:1002C00044281028444C9090907C4464544C440042
:1002D00008364100000077000000413608000201A6
:1002E0000204023C2623263C1EA1A161123A404092
:1002F000207A385454555921555579412154547810
:1003000041215554784020545579400C1E527212A8
:100310003955555559395454545939555454580030
:1003200000457C410002457D420001457C40F029AA
:100330002429F0F0282528F07C54554500205454F9
:100340007C547C0A097F493249494932324848483D
:1003500032324A4848303A4141217A3A4240207884
:10036000009DA0A07D39444444393D4040403D3C7F
:1003700024FF2424487E4943662B2FFC2F2BFF09A2
:1003800029F620C0887E0903205454794100004496
:100390007D413048484A32384040227A007A0A0A81
:1003A000727D0D19317D2629292F282629292926F4
:1003B00030484D4020380808080808080808382F39
:1003C00010C8ACBA2F102834FA00007B00000814C3
:1003D0002A142222142A1408AA005500AAAA55AAEF
:1003E00055AA000000FF00101010FF00141414FFA5
:1003F000001010FF00FF1010F010F0141414FC0097
:100400001414F700FF0000FF00FF1414F404FC14A0
:100410001417101F10101F101F1414141F00101099
:1004200010F0000000001F101010101F101010100E
:10043000F010000000FF101010101010101010FF2E
:1004400010000000FF140000FF00FF00001F101745
:100450000000FC04F414141710171414F404F4002E
:1004600000FF00F714141414141414F700F71414F4
:1004700014171410101F101F141414F4141010F07B
:1004800010F000001F101F0000001F14000000FCEF
:10049000140000F010F01010FF10FF141414FF14DB
:1004A0001010101F00000000F010FFFFFFFFFFF012
:1004B000F0F0F0F0FFFFFF0000000000FFFF0F0F63
:1004C0000F0F0F38444438447C2A2A3E147E02021F
:1004D0000606027E027E0263554941633844443C6D
:1004E00004407E201E2006027E020299A5E7A599FF
:1004F0001C2A492A1C4C7201724C304A4D4D303036
:1005000048784830BC625A463D3E494949007E0120
:1005100001017E2A2A2A2A2A44445F444440514A3F
:10052000444040444A51400000FF0103E080FF0086
:100530000008086B6B083612362436060F090F06C2
:10054000000018180000001010003040FF010100EA
:100550001F01011E00191D1712003C3C3C3C00000D
:1005600000000013018032118064260104B1020BE7
:1005700014C0020800C10105C5024130C701C1EC29
:10058000011B3A8155642A040000007F2B040000FF
:10059000009F3601C8B70100F20100E08F28242235
:1005A000312B0E53A5421618121A140332E18F177D
:1005B0001B1D0E14112CA53D09272D252B3C321394
:1005C000800A2980FF0000000800020100000304E7
:1005D0000700000000000000000102040810204095
:1005E0008001020408102001020408102004040401
:1005F00004040404040202020202020303030303CC
:100600000300000000230026002900000000002550
:100610000028002B0000000000240027002A000012
:100620002F04C91711241FBECFEFD8E0DEBFCDBF06
:1006300012E0A0E0B1E0EAE1FEE302C005900D9215
:10064000AE35B107D9F725E0AEE5B2E001C01D92A5
:10065000A73CB207E1F716E0C4E2D6E004C0229757
:10066000FE010E946D1CC032D107C9F70E94C01B59
:100670000C940B1F0C94000020E840E860E88AEC22
:1006800094E00E94B50B61E08AEC94E00E94990B23
:1006900020E030E040E050E06FE171E08AEC94E06F
:1006A0000E94C90B20E130E040E050E06EE271E0D2
:1006B0008AEC94E00E94C90B20E230E040E050E078
:1006C00067E371E08AEC94E00E94C90B20E330E01C
:1006D00040E050E063E471E08AEC94E00E94C90BD2
:1006E00020E330E047E650E061E571E08AEC94E019
:1006F0000E94C90B28E330E040E050E066E571E07D
:100700008AEC94E00E94C90B28E330E047E650E011
:1007100061E571E08AEC94E00E94C90B20E440E4BA
:1007200060E48AEC94E00E94B50B2AE430E040E0FB
:1007300050E061E671E08AEC94E00E94C90B24E588
:1007400030E040E050E068E771E08AEC94E00E941D
:10075000C90B2EE530E040E050E06FE871E08AEC34
:1007600094E00E94C90B28E630E040E050E066EAE1
:1007700071E08AEC94E00E94C90B22E730E040E08F
:1007800050E06DEB71E08AEC94E00E94C90B28E721
:1007900030E040E050E064ED71E08AEC94E00E94CB
:1007A000C90B20E840E860E88AEC94E00E94B50BB1
:1007B00062E08AEC94E00E94990B20E130E047E689
:1007C00050E066ED71E08AEC94E00E94C90B20E2F3
:1007D00030E047E650E06AED71E08AEC94E00C947A
:1007E000C90BEF92FF920F931F93E0901401F090CA
:1007F00015010091160110911701209118013091F7
:10080000190140910E0150910F01609110017091FA
:10081000110180911201909113010E94391426E078
:1008200040E855E260E070E086E295E00E9405173E
:100830008AEC94E00E94AD0820E040E060E08AECA1
:1008400094E00E94A60B0E943C0360ED77E080E0FC
:1008500090E01F910F91FF90EF900C94D61429E037
:1008600048E06AE08AEC94E00C949908AF92BF9259
:10087000CF92DF92EF92FF920F931F93CF93DF936C
:10088000CDB7DEB7EC970FB6F894DEBF0FBECDBF85
:1008900064E070E086EC94E00E94C210892B81F441
:1008A0008091C8049091C9049093C3048093C204BA
:1008B0008091C6049091C7049093C5048093C404AA
:1008C0008091C4049091C5042091C0043091C1046A
:1008D0008217930781F02091BC043091BD04281742
:1008E000390729F09093BD048093BC0404C0309371
:1008F000C1042093C0048091C2049091C30420914C
:10090000BE043091BF048217930781F02091BA048E
:100910003091BB042817390729F09093BB048093CA
:10092000BA0404C03093BF042093BE046091C00495
:100930007091C1044AE0CE01C7960E949C1A609152
:10094000BE047091BF044AE0CE01C1960E949C1A79
:1009500020E030E043E050E060EB74E0CE01C79669
:100960000E94931B20E030E043E050E063EB74E032
:10097000CE01C1960E94931B86E295E00E9422164A
:10098000181619060CF063C04AE066E275E0CE0165
:1009900007960E9471196EED71E0CE0101960E94DA
:1009A0004E1ABE016F5F7F4FCE0107960E94841BD7
:1009B000182FCE0101960E94E019112309F442C0BC
:1009C00041E060E070E086E295E00E9401197093DA
:1009D00019016093180141E060E070E086E295E063
:1009E0000E940119709317016093160141E060E0C5
:1009F00070E086E295E00E94011970931501609302
:100A0000140141E060E070E086E295E00E94011987
:100A1000709313016093120141E060E070E086E2A0
:100A200095E00E940119709311016093100141E05B
:100A300060E070E086E295E00E94011970930F017A
:100A400060930E01CE0107960E94E01995CF809128
:100A5000120190911301209178043091790482174A
:100A60009307F1F0E0901401F09015010091160148
:100A700010911701209118013091190140910E0138
:100A800050910F0160911001709111010E94391471
:100A900080911201909113019093790480937804CE
:100AA0000E9435144AE0BC01CE018B960E949C1A2C
:100AB0000E942D148C01BE01655D7F4FCE01019611
:100AC0000E947B1A64E571E0CE0101960E94381BFA
:100AD000B8010E94521BBC01CE0185960E947B1A70
:100AE000CE0101960E94E0190E9425148C01BE01DE
:100AF0006B5D7F4FCE0101960E947B1A64E571E029
:100B0000CE0101960E94381BB8010E94521BBC0105
:100B1000CE014F960E947B1ACE0101960E94E019E9
:100B20000E940D144AE0BC01CE0149960E949C1A15
:100B30000E9415148C01BE01675E7F4FCE010196A5
:100B40000E947B1A62EE71E0CE0101960E94381B72
:100B5000B8010E94521BBC01CE0143960E947B1A31
:100B6000CE0101960E94E0190E941D148C01BE0165
:100B70006D5E7F4FCE0101960E947B1A62EE71E09E
:100B8000CE0101960E94381BB8010E94521BBC0185
:100B9000CE010D960E947B1ACE0101960E94E019AB
:100BA00020E030E04BE050E065EA74E0CE014F9683
:100BB0000E94931B20E030E049E050E06CE974E0D3
:100BC000CE010D960E94931B61E08AEC94E00E9496
:100BD000990B209118013091190180917604909120
:100BE00077042817390781F120E040E060E08AECC3
:100BF00094E00E94B50B28E030E040E050E065E86A
:100C000074E08AEC94E00E94C90B20E04FEF6FEF94
:100C10008AEC94E00E94B50B28E030E040E050E020
:100C200065EA74E08AEC94E00E94C90B8091180197
:100C300090911901909377048093760465EA74E0AB
:100C400085E894E00E94701E0E941D1420917A0491
:100C500030917B048217930771F120E040E060E05F
:100C60008AEC94E00E94B50B28E030E042E450E0CA
:100C70006CE774E08AEC94E00E94C90B20E04FEF2F
:100C80006FEF8AEC94E00E94B50B28E030E042E47C
:100C900050E06CE974E08AEC94E00E94C90B0E9479
:100CA0001D1490937B0480937A046CE974E08CE7C4
:100CB00094E00E94701E62E08AEC94E00E94990B1E
:100CC0002091C0043091C1048091B8049091B9047E
:100CD0002817390781F120E040E060E08AEC94E0D9
:100CE0000E94B50B20E130E04CE450E066E974E08E
:100CF0008AEC94E00E94C90B20E04FEF60E08AECA0
:100D000094E00E94B50B20E130E04CE450E060EB51
:100D100074E08AEC94E00E94C90B8091C004909129
:100D2000C1049093B9048093B80460EB74E086E941
:100D300094E00E94701E2091BE043091BF04809107
:100D4000B6049091B70428173907B1F120E040E0CC
:100D500060E08AEC94E00E94B50B20E230E04CE4C5
:100D600050E060E974E08AEC94E00E94C90B20E056
:100D700040E06FEF8AEC94E00E94B50B20E230E097
:100D80004CE450E063EB74E08AEC94E00E94C90B01
:100D900063EB74E086E295E00E9450188091BE04F7
:100DA0009091BF049093B7048093B60463EB74E012
:100DB00080E994E00E94701E61E08AEC94E00E9459
:100DC000990B80910A010E944415909373028093BD
:100DD0007202BC01882777FD8095982F1F921F9281
:100DE0001F922FE12F93A12CB12C6501A394EE2427
:100DF000EA9413E0F12E00E010E020E030E0A901D9
:100E00000E94991970937102609370024AE0CE01BA
:100E100007960E949C1A20E030E043E050E06BE629
:100E200072E0CE0107960E94931B60917002709150
:100E300071027695762F6627779567954AE0CE0101
:100E400001960E949C1A20E030E045E050E063E605
:100E500072E0CE0101960E94931B0F900F900F90AD
:100E60000F90209170023091710280916E029091EA
:100E70006F022817390709F44AC020E040E060E01B
:100E80008AEC94E00E94B50B20E330E048E550E0A6
:100E900068E672E08AEC94E00E94C90B28E330E037
:100EA0004CE450E06EE572E08AEC94E00E94C90BDD
:100EB0002FEF40E060E08AEC94E00E94B50B20E365
:100EC00030E048E550E06BE672E08AEC94E00E9486
:100ED000C90B28E330E04CE450E063E672E08AECB2
:100EE00094E00E94C90B80917002909171029093DE
:100EF0006F0280936E026BE672E088E692E00E94D9
:100F0000701E63E672E08EE592E00E94701E0E9401
:100F1000151420910C0130910D018217930759F09F
:100F20000E94151460917002709171020E94E01B82
:100F3000892B09F43FC06CE271E080E090E00E94F0
:100F4000D614CE0101960E94E019CE0107960E94A8
:100F5000E019CE010D960E94E019CE0143960E9441
:100F6000E019CE0149960E94E019CE014F960E94E9
:100F7000E019CE0185960E94E019CE018B960E9461
:100F8000E019CE01C1960E94E019CE01C7960E94D9
:100F9000E019EC960FB6F894DEBF0FBECDBFDF911F
:100FA000CF911F910F91FF90EF90DF90CF90BF9066
:100FB000AF90089520E040E060E08AEC94E00E9469
:100FC000B50B8FE790E090937502809374020FE762
:100FD00010E0609174027091750277FD2AC0FB01E8
:100FE000EE0FFF1FEA58FD4F80819181A801481B39
:100FF000590B8AEC94E00E94DC0B609174027091B2
:101000007502FB01EE0FFF1FEA58FC4F80819181B2
:10101000A801481B590B8AEC94E00E94DC0B8091DC
:1010200074029091750201979093750280937402F7
:10103000D0CF80E090E020E030E00196F901EA585E
:10104000FD4F4281538151834083F901EA58FC4F9F
:1010500042815381518340832E5F3F4F8F379105EB
:1010600064F39093750280937402880F991FFC01BA
:10107000EA58FD4F2091C0043091C1043183208390
:10108000FC01EA58FC4F2091BE043091BF0431832B
:1010900020830E94151490930D0180930C018FE71B
:1010A00090E090937502809374020FE710E08091B6
:1010B00074029091750297FD3ECF20E04FEF60E003
:1010C0008AEC94E00E94B50B6091740270917502F5
:1010D000FB01EE0FFF1FEA58FD4F80819181A801AF
:1010E000481B590B8AEC94E00E94DC0B20E040E0A6
:1010F0006FEF8AEC94E00E94B50B609174027091DE
:101100007502FB01EE0FFF1FEA58FC4F80819181B1
:10111000A801481B590B8AEC94E00E94DC0B8091DB
:1011200074029091750201979093750280937402F6
:10113000BECFCF93DF93EC010E944A0C88EE91E082
:101140009983888380EA90E09987888780E890E097
:101150009B878A87DF91CF910895CF93DF93EC012E
:101160000E94480E61E0CE01DF91CF910C945C109B
:101170002F923F924F925F926F927F928F929F92A7
:10118000AF92BF92CF92DF92EF92FF920F931F9395
:10119000CF93DF9300D000D0CDB7DEB74C017C8376
:1011A0006B836A015901C8018701AC014C195D09C3
:1011B00057FF03C051954195510995016B817C8181
:1011C000261B370B37FF03C03195219531092224A7
:1011D0002394312C2417350714F0212C312C2114A1
:1011E000310459F03A2D2B2D5C01832F922F3B8136
:1011F0002C81DC82CB82C32ED22EAB81BC81AA167D
:10120000BB065CF43C2D2D2D6C01832F922F3B816E
:101210002C81BC82AB82A32EB22E2501EB81FC81F6
:101220004E1A5F0A3C016C187D0877FE03C071946A
:1012300061947108720157FE03C0FFEFEF1AFF0AB5
:10124000F594E794C816D9062CF421E030E03A83EF
:10125000298324C06FEF7FEF7A8369831FC0D40195
:10126000ED91FC910480F581E02D98012114310469
:10127000D9F04B815C81B601C4010995E618F708E5
:10128000F7FE06C0E981FA81CE0EDF1EE40CF51CE4
:101290002B813C812F5F3F4F3C832B836B817C8173
:1012A000A616B706E4F604C0A6016B817C81E4CFE4
:1012B0000F900F900F900F90DF91CF911F910F9192
:1012C000FF90EF90DF90CF90BF90AF909F908F9066
:1012D0007F906F905F904F903F902F9008956F9206
:1012E0007F928F929F92AF92BF92CF92DF92EF92B6
:1012F000FF920F931F93CF93DF93EC015B016A0181
:1013000039014801E881F9810284F385E02D8701E4
:101310000995E881F981A601480D591D41505109EF
:101320000284F385E02D9301B501CE010995E88192
:10133000F9810084F185E02D9401A601B501CE016B
:101340000995E881F981B501660D771D6150710934
:101350000084F185E02D9401A601CE010995DF916D
:10136000CF911F910F91FF90EF90DF90CF90BF90A2
:10137000AF909F908F907F906F900895EF92FF9223
:101380000F931F93DC01ED91FC91240F351F215029
:1013900031090680F781E02D780189019B010995CB
:1013A0001F910F91FF90EF900895EF92FF920F938E
:1013B0001F93DC01ED91FC91260F371F215031095D
:1013C0000680F781E02D78018A0109951F910F9120
:1013D000FF90EF9008956F927F928F929F92AF92BD
:1013E000BF92CF92DF92EF92FF920F931F93CF9312
:1013F000DF935C014A0169013801EB01C60ED71E7B
:10140000CC15DD0574F4D501ED91FC910084F185D6
:10141000E02D87019301A401BE01C5010995219624
:10142000EFCFDF91CF911F910F91FF90EF90DF9061
:10143000CF90BF90AF909F908F907F906F900895C6
:10144000EF92FF920F931F93DC01ED91FC911197A6
:101450001A960D911C911B9718962D913C911997F6
:101460000684F785E02D7B0140E050E060E070E00D
:1014700009951F910F91FF90EF90089508954C7F6B
:1014800038E0439FC001112430E073E03595279583
:101490007A95E1F7822B932B687F962B0895FC01B8
:1014A0001382128282E092E0918380837583648349
:1014B000578346837187608753874287158A1586CD
:1014C00014861786168621E0248B8FEF9FEF938B6F
:1014D000828B918B808B268B08952F923F924F9217
:1014E0005F926F927F928F929F92AF92BF92CF92B4
:1014F000DF92EF92FF920F931F93CF93DF93CDB7BD
:10150000DEB72C970FB6F894DEBF0FBECDBF9C8719
:101510008B873A0118870F83FA86E986CD82DC0132
:1015200018968D919C911997681779070CF094C0C3
:101530001A968D919C911B97481759070CF08CC0F7
:101540008C2C912CCB01B6E0CB9E800D911D1124EB
:10155000181619060CF080C0C40113E0880F991FFB
:101560001A95E1F7840F951F181619060CF074C030
:10157000F5E02F9F200111245B016B011C82920179
:1015800028593F4F2901461A570A3C81353031F01E
:10159000F201EA0DFB1D44914B8301C01B827A824C
:1015A000698213011E828B8180FF13C0AB85BC85CD
:1015B000ED91FC91BD81B13031F40480F581E02DD5
:1015C0002F81388519C00684F785E02DEF80F884D7
:1015D0001EC0E985FA852F813885E217F307F9F0F7
:1015E000AB85BC85ED91FC91BD81B13059F404808F
:1015F000F581E02D29853A85A101B5018B859C8572
:1016000009950DC00684F785E02DE984FA848401EC
:10161000940149815A81B6018B859C850995EB819E
:10162000E695EB83FE81FF5FFE8329813A81280DD9
:10163000391D3A8329833FEF231A330AF83009F022
:10164000B2CF4C814F5F4C83C80CD91C8FEFA81AC6
:10165000B80A463009F099CF2C960FB6F894DEBF41
:101660000FBECDBFDF91CF911F910F91FF90EF90F3
:10167000DF90CF90BF90AF909F908F907F906F90B2
:101680005F904F903F902F900895CF92EF92FF92EE
:101690000F931F93CF93DF93EC01262F6A3049F409
:1016A0002C898E859F8538E0239F800D911D112404
:1016B00032C06D30A1F1EA88FB88088919894E850E
:1016C0005F856C857D85CC880E946D0A2C89422FB0
:1016D00050E08C859D8536E0239F800D911D11245F
:1016E0009D878C872E892223D1F06AEF64039001B5
:1016F000659F300D112468857985260F371F2817BF
:1017000039076CF403E0440F551F0A95E1F78E8505
:101710009F85840F951F9F878E871D861C8681E07D
:1017200090E0DF91CF911F910F91FF90EF90CF90BC
:101730000895611101C061E0FC01648B0895DC0132
:10174000ED91FC910088F189E02D0994CF93DF930E
:10175000EC01E881F9810488F589E02D0995BC0147
:10176000CE01DF91CF910C949F0BCF93DF93EC01CF
:10177000E881F9810488F589E02D099521E0298F18
:10178000988F8F8B998B888B9B8B8A8BDF91CF91D6
:101790000895FC01818D882371F0168A8789908DC8
:1017A000918B808B938B828B5587448737872687D5
:1017B000CF010C944A180895DC0159962C91599741
:1017C000222359F0ED91FC91119757962D913C9160
:1017D00058970480F581E02D09940895EF92FF92C7
:1017E0000F931F93DC01ED91FC9111971A960D91C7
:1017F0001C911B9718962D913C9119970684F7859B
:10180000E02D7B0140E050E060E070E009951F9121
:101810000F91FF90EF90089520910005222399F0F9
:101820003FB7F89420910005213059F42DB320934F
:10183000FE044DB32091FF04209524232DBB3FBF10
:1018400002C03093FE048CBD9DBD089580910005BB
:10185000882361F09FB7F894209100058091FE04E1
:10186000213019F48DBB9FBF08958FBF08959C014F
:10187000207E3770AC01542F4427550F550F550F5C
:10188000242B352B892F9927869586958695822B33
:10189000932B0895EF92FF920F931F93CF93DF93B3
:1018A0001F92CDB7DEB77C01062F142F40EA50E01F
:1018B00060E870E029830E944F0A8CE192E0F70112
:1018C0009183808380E5878F10A201A712A72981C9
:1018D00023A781E0868F15A614A60F90DF91CF91E4
:1018E0001F910F91FF90EF900895FC01868D882342
:1018F00039F06EBD00000DB407FEFDCF8EB5089522
:1019000088E090E030E8A1A1B2A126A5432F4623AC
:1019100021F04C91422B4C9304C04C9120952423F0
:101920002C93A3A1B4A12C9147A5242B2C93A3A164
:10193000B4A14C9127A5209524232C93369501978B
:1019400011F708950F931F93CF93DF931F92CDB795
:10195000DEB78C01DC015E968C915E97882341F0A6
:101960005F968D919C91909769830E940C0C698180
:10197000D8019796ED91FC9198979081D1968C9192
:10198000D1978095892380839596ED91FC919697C8
:101990009081D0968C91809589238083C8010E9484
:1019A000750CD8019596ED91FC9196978081D09613
:1019B0009C91D097892B80835E968C91882339F0F7
:1019C0000F90DF91CF911F910F910C94260C0F90E7
:1019D000DF91CF911F910F910895662311F061E27D
:1019E00001C060E20C94A20C0F931F93CF93DF937E
:1019F0001F92CDB7DEB78C01DC015E968C915E97AD
:101A0000882341F05F968D919C91909769830E9405
:101A10000C0C6981D8019796ED91FC919897808183
:101A2000D1969C91D197892B80839596ED91FC91CD
:101A300096979081D0968C91809589238083C80158
:101A40000E94750CD8019596ED91FC919697808136
:101A5000D0969C91D097892B80835E968C91882319
:101A600039F00F90DF91CF911F910F910C94260CBC
:101A70000F90DF91CF911F910F910895AF92BF9278
:101A8000CF92DF92EF92FF920F931F93CF93DF934A
:101A90007C01EB012196FB01B490BB2009F435C019
:101AA000FE016491C7010E94A20C6E01F2E0CF0E0C
:101AB000D11CFE013196C4918C2F8078A82ECF774F
:101AC0008601DC2FDC0DD01741F0F8016491C701CD
:101AD0000E94F40C0F5F1F4FF6CFC6018C0F911DB3
:101AE000EC01AA2081F08C010F5F1F4FFC01649173
:101AF00070E06F3F710511F464EF71E080E090E0F9
:101B00000E94D614E801BA94C8CFDF91CF911F91FB
:101B10000F91FF90EF90DF90CF90BF90AF9008951E
:101B20000F931F93CF93DF93EC018B011BAA1AAA8B
:101B300061E08AA50E948A1561E089A50E948A1544
:101B400089A590E0FC01E351FA4FE491F0E0EE0F3B
:101B5000FF1FE55FF94F259134913EA32DA3FC01B2
:101B6000E752FA4F849188AB8AA590E0FC01E351DB
:101B7000FA4FE491F0E0EE0FFF1FE55FF94F25917A
:101B8000349138A72FA3FC01E752FA4F849189AB17
:101B90008E8D882331F00E948C1080E58F8F18A2E3
:101BA0003CC061E08DA50E948A1561E08CA50E9471
:101BB0008A158DA590E0FC01E351FA4FE491F0E025
:101BC000EE0FFF1FE55FF94FA591B491BCA3ABA346
:101BD000FC01E752FA4F84918FA78CA590E0FC019D
:101BE000E351FA4FE491F0E0EE0FFF1FE55FF94F8C
:101BF000259134913AA329A3FC01E752FA4F84912D
:101C00008EA78C919FA5909589238C93E9A1FAA129
:101C100090818EA5809589238083EDA1FEA190817E
:101C200088A98095892380838BA5882309F161E0A9
:101C30000E948A1561E08BA50E94C31564EF71E0D4
:101C400080E090E00E94D61460E08BA50E94C3154E
:101C500064EF71E080E090E00E94D61461E08BA513
:101C60000E94C31564EF71E080E090E00E94D614FA
:101C70000115110541F0B801CE01DF91CF911F91FF
:101C80000F910C943E0DDF91CF911F910F9108950C
:101C900063E675E00C94900DEF92FF920F931F9303
:101CA000CF93DF9300D0CDB7DEB77C01162F6AE269
:101CB00029834A830E94A20C60E0C7010E94F40CB1
:101CC000F70162A9610FC7010E94F40C60E0C7012F
:101CD0000E94F40CF70162A92981620FC7010E94DA
:101CE000F40C6BE2C7010E94A20C60E0C7010E94E5
:101CF000F40CF70163A94A81640FC7010E94F40C38
:101D000060E0C7010E94F40CF70163A9600FC701EE
:101D10000E94F40C6CE2C7010F900F90DF91CF91FD
:101D20001F910F91FF90EF900C94A20CFF920F93D4
:101D30001F93CF93DF93EC01122FF32E77FD48C052
:101D4000A885B9856A177B070CF042C057FD40C0D3
:101D5000AA85BB854A175B07DCF501E0040F21E08B
:101D6000260F0E944C0E8E8D882321F08F8D98A116
:101D70000E940C0CEFA1F8A5808199A9892B808382
:101D8000EDA1FEA1808148A94095482340838D8D17
:101D9000823031F4812F9F2D0E94370C182FF92E9D
:101DA0006F2DCE010E94750C612FCE010E94750C23
:101DB000EDA1FEA1808198A9892B80838E8D882337
:101DC00039F0DF91CF911F910F91FF900C94260C69
:101DD000DF91CF911F910F91FF900895DF92EF92C5
:101DE000FF920F931F93CF93DF93EC017901D02ED5
:101DF00088859985681779070CF054C02A853B853A
:101E0000421753070CF04EC0CA018E0D9F1D2817B4
:101E100039071CF47901E41AF50A0FEF040F0E0DCF
:101E2000262FCE010E944C0E8D8D823031F48D2DE7
:101E3000912F0E94370CD82E192F8E8D882321F0D8
:101E40008F8D98A10E940C0CEFA1F8A5808199A913
:101E5000892B8083EDA1FEA1908188A9809589239B
:101E60008083E114F10461F0612FCE010E94750CB2
:101E70006D2DCE010E94750C81E0E81AF108F1CFBA
:101E8000EDA1FEA1808198A9892B80838E8D882366
:101E900049F0DF91CF911F910F91FF90EF90DF906C
:101EA0000C94260CDF91CF911F910F91FF90EF9032
:101EB000DF900895DF92EF92FF920F931F93CF93DD
:101EC000DF93EC017901D02E2885398562177307DD
:101ED0000CF054C08A859B85481759070CF04EC0FA
:101EE000CB018E0D9F1D281739071CF47901E61AC6
:101EF000F70A2FEF260F2E0D042FCE010E944C0E55
:101F00008D8D823031F48D2D912F0E94370CD82E7B
:101F1000192F8E8D882321F08F8D98A10E940C0C93
:101F2000EFA1F8A5808199A9892B8083EDA1FEA15D
:101F3000908188A9809589238083E114F10461F060
:101F4000612FCE010E94750C6D2DCE010E94750C83
:101F500081E0E81AF108F1CFEDA1FEA1808198A9F6
:101F6000892B80838E8D882349F0DF91CF911F913B
:101F70000F91FF90EF90DF900C94260CDF91CF91A2
:101F80001F910F91FF90EF90DF9008956F927F92D5
:101F90008F929F92AF92BF92CF92DF92EF92FF9279
:101FA0000F931F93CF93DF93EC016B015A0149010B
:101FB000380128853985621773070CF06EC08A8551
:101FC0009B85481759070CF068C0AB01480D591D97
:101FD000241735071CF44901861A970A9501260D26
:101FE000371D821793071CF43C016A187B088D8DFE
:101FF000823021F4C7010E94370C7C010FEF0A0DDB
:10200000060D2FEF2C0D280D4A2D6C2DCE010E94B0
:102010004C0E8E8D882321F08F8D98A10E940C0C80
:10202000EFA1F8A5808199A9892B8083EDA1FEA15C
:10203000908188A980958923808316141704A4F4BD
:1020400064011C141D0464F46F2DCE010E94750CF4
:102050006E2DCE010E94750C81E0C81AD108F1CF17
:1020600081E0681A7108E9CFEDA1FEA1808198A9ED
:10207000892B80838E8D882381F0DF91CF911F91F2
:102080000F91FF90EF90DF90CF90BF90AF909F9017
:102090008F907F906F900C94260CDF91CF911F91C1
:1020A0000F91FF90EF90DF90CF90BF90AF909F90F7
:1020B0008F907F906F9008951F93CF93DF93EC01E3
:1020C000162F66E30E94A20C612F63706D8B623045
:1020D00041F0633089F0613011F068EC03C068EAC8
:1020E0000CC068E0CE010E94F40C80E890E0998773
:1020F000888780EA90E00AC068E6CE010E94F40C6E
:1021000080EA90E09987888780E890E09B878A87BB
:10211000DF91CF911F910895CF93CFB7F89480911D
:102120000105811127C0E7EFF5E08491E3EEF5E0CA
:102130009491E82FF0E0EE0FFF1FEB5EF94FA591B1
:10214000B4918C91892321F461E08AE00E94C31547
:1021500061E08AE00E948A158CB580618CBD8CB5E7
:1021600080648CBD61E08DE00E948A1561E08BE0A7
:102170000E948A15809101058F5F80930105CFBF72
:10218000CF9108953F924F925F926F927F928F927C
:102190009F92AF92BF92CF92DF92EF92FF920F93F6
:1021A0001F93CF93DF9300D000D01F92CDB7DEB73F
:1021B0005C01562E19821A821B821C821D8261E0EC
:1021C000852D0E948A1560E0852D0E94C31562E16D
:1021D00070E080E090E00E94D61461E0852D0E94BE
:1021E000C31588E290E00E94FE1460E0852D0E94F5
:1021F0008A1501E117E2852D0E94F915892B31F42A
:1022000001501109C1F78EEF9FEF6EC001E117E297
:10221000852D0E94F915019721F401501109C1F78C
:10222000F2CF08E210E0312C37E0432E882483946B
:10223000912C21E1E22E27E2F22E852D0E94F91544
:10224000892B29F481E0E81AF108B9F7DCCF0E9464
:10225000B3146B017C0191E1692E97E2792E852DF3
:102260000E94F915019729F4E1E06E1A7108B9F797
:10227000CACF0E94B3146C197D098E099F09693277
:1022800071058105910578F0E1E0F0E0EC0FFD1FAC
:10229000E30DF11D2081C401042C01C0880F0A94B4
:1022A000EAF7282B2083411004C0339487E0482E9E
:1022B00001C04A940150110909F0BBCF2981822F36
:1022C00090E0F501918380833B81832F90E093839D
:1022D0008283230F81E090E03D81321302C080E0D1
:1022E00090E09195819591090F900F900F900F902C
:1022F0000F90DF91CF911F910F91FF90EF90DF90A2
:10230000CF90BF90AF909F908F907F906F905F9095
:102310004F903F9008956F927F928F929F92AF92CD
:10232000BF92CF92DF92EF92FF920F931F93CF93C2
:10233000DF93EA012CE3C22ED12CE12CF12CA70172
:1023400096010E94F41B6883CA01B901A701960196
:102350000E94F41B6983CA01B90128E130E040E022
:1023600050E00E94F41B49015A016A83CA01B90175
:102370006C5F7F4F8F4F9F4F27E030E040E050E091
:102380000E94F41B6F5F6B8300E010E0980140E057
:1023900054E6652E712C60E9C62EDD24D394E42F1B
:1023A000F0E0EE54F84F7F0183E0E822FF24E114CF
:1023B000F10489F4CF01B3010E94E01B892B29F0BD
:1023C0008EE691E0A0E0B0E00AC0CF01B6010E9425
:1023D000E01B892BA9F38DE691E0A0E0B0E0080FA7
:1023E000191F2A1F3B1FD901C801AA27BB2788161E
:1023F0009906AA06BB0610F04F5FD1CF4E83E114B9
:10240000F10499F4CF0164E670E00E94E01B892B8F
:1024100029F08EE691E0A0E0B0E00BC0CF0160E9CA
:1024200071E00E94E01B892BA1F38DE691E0A0E012
:10243000B0E0081B190B2A0B3B0B801A910AA20A69
:10244000B30ACF0164E670E00E94E01B9C01CF015B
:1024500060E971E00E94E01BE2E3F2E0A0E0A1305D
:1024600059F4E114F10451F42115310511F04DE155
:1024700006C00097E1F302C0408101C04CE150E08A
:1024800060E070E084169506A606B70640F0841A50
:10249000950AA60AB70AAF5F3196AC3001F7AF5F75
:1024A000AD8383948C82DF91CF911F910F91FF9028
:1024B000EF90DF90CF90BF90AF909F908F907F90E4
:1024C0006F900895CF92DF92EF92FF926B017C01A3
:1024D0008091120590911305A0911405B0911505F6
:1024E000C816D906EA06FB0671F046E155E0C701B9
:1024F000B6010E948B11C0921205D0921305E09292
:102500001405F0921505FF90EF90DF90CF9008959D
:102510000E94621280911C0590E08E54984F08959D
:102520006F927F928F929F92AF92BF92CF92DF92E3
:10253000EF92FF920F931F93CF93DF93FC01C6801E
:10254000AC2DB0E020E833E341EE51E00E94441CA2
:102550004B015C0122EB37E06D01C4E6D0E000E9FD
:1025600011E0C901825B97408C159D05DCF4C9011F
:1025700083709927892B99F4C901BE010E94E01B41
:10258000892B31F4C901B8010E94E01B892B39F471
:1025900080E8880E81E5981E81E0A81EB11C2F5F9F
:1025A0003F4FDFCF6580712C8EE4C81A88EFD80AC0
:1025B000C60164E670E00E94E01B8C01C60160E980
:1025C00071E00E94E01B7C01C1E0D0E083E0C82202
:1025D000DD24C615D7052CF5C230D10589F4C11408
:1025E000D10471F40115110519F4E114F10441F459
:1025F00080E8880E8BE3981E86E2A81EB11C0FC0EF
:10260000DE01AF5CBD4FAC91B0E020E831E541E0C8
:1026100050E00E94441C860E971EA81EB91E2196EB
:10262000D8CF4181228130E0A0E1BEE00E94351C7C
:102630006B017C01242F30E0ACE3B0E00E94351C3C
:10264000C60ED71EE81EF91E8081C80ED11CE11CE3
:10265000F11CA481B0E0119720E831E541E050E0A1
:102660000E944F1CC60ED71EE81EF91EC80CD91CAE
:10267000EA1CFB1CC701B601DF91CF911F910F919E
:10268000FF90EF90DF90CF90BF90AF909F908F9092
:102690007F906F9008950F931F9360930E05709332
:1026A0000F05809310059093110500911A01109168
:1026B0001B0120911C0130911D01060F171F281FBF
:1026C000391F0093060510930705209308053093E2
:1026D000090582E090E090930505809304050E942F
:1026E000A71460930A0570930B0580930C059093D3
:1026F0000D051F910F910895CF92DF92EF92FF92F7
:102700000F931F930E94A714C0900A05D0900B0549
:10271000E0900C05F0900D056C197D098E099F095C
:1027200000910E0510910F052091100530911105B3
:10273000683E734081059105D8F00F5F1F4F2F4F02
:102740003F4F00930E0510930F0520931005309313
:10275000110548EEC40E43E0D41EE11CF11CC092EA
:102760000A05D0920B05E0920C05F0920D05CACF38
:102770008091060590910705A0910805B091090583
:10278000081719072A073B07C8F1E0910205F091E5
:102790000305309799F1099561157105810591053A
:1027A00019F00E944B132AC080911A0190911B01CD
:1027B000A0911C01B0911D0140910E0550910F0593
:1027C0006091100570911105840F951FA61FB71F0A
:1027D0008093060590930705A0930805B09309051B
:1027E00081E090E02091040530910505232B11F440
:1027F00080E090E0909305058093040560910E05BC
:1028000070910F0580911005909111051F910F9106
:10281000FF90EF90DF90CF9008950E947C130E946C
:1028200062128091180590E008950E947C130E9426
:1028300062128091170590E008950E947C130E9417
:1028400062128091160590E008950E947C130E9408
:10285000621280911A0590E008950E947C130E94F4
:10286000621280911B0590E008950E947C130C94E5
:102870008812EF92FF920F9394E6E916F1042CF080
:1028800092EBE91A97E0F90A03C09EE1E90EF11C08
:10289000E0921C0500931B0520931A0580931805F0
:1028A000609317054093160586E195E00E9490120B
:1028B0000F91FF90EF900C944B131F920F920FB655
:1028C0000F9211242F933F938F939F93AF93BF93B6
:1028D00080911E0590911F05A0912005B0912105C2
:1028E00030911D0523E0230F2D3720F40196A11D03
:1028F000B11D05C026E8230F0296A11DB11D20932E
:102900001D0580931E0590931F05A0932005B0938D
:1029100021058091220590912305A0912405B09175
:1029200025050196A11DB11D8093220590932305D5
:10293000A0932405B0932505BF91AF919F918F91EE
:102940003F912F910F900FBE0F901F9018952FB7AA
:10295000F89460911E0570911F058091200590915B
:1029600021052FBF08953FB7F894809122059091DB
:102970002305A0912405B091250526B5A89B05C087
:102980002F3F19F00196A11DB11D3FBF6627782F7B
:10299000892F9A2F620F711D811D911D42E0660FD4
:1029A000771F881F991F4A95D1F70895CF92DF921C
:1029B000EF92FF92CF93DF936B017C010E94B314DF
:1029C000EB01C114D104E104F10489F00E94CF1B92
:1029D0000E94B3146C1B7D0B683E734090F381E042
:1029E000C81AD108E108F108C851DC4FEACFDF91DD
:1029F000CF91FF90EF90DF90CF90089582309105B6
:102A000038F0880F991F880F991F05970197F1F7E4
:102A10000895789484B5826084BD84B5816084BD56
:102A200085B5826085BD85B5816085BDEEE6F0E047
:102A3000808181608083E1E8F0E0108280818260A3
:102A40008083808181608083E0E8F0E08081816024
:102A50008083E1EBF0E0808184608083E0EBF0E054
:102A6000808181608083EAE7F0E0808184608083F8
:102A700080818260808380818160808380818068A2
:102A800080831092C10008958E3008F08E508770B8
:102A900020911E0190E4299F90011124822B8093A4
:102AA0007C0080917A00806480937A0080917A0023
:102AB00086FDFCCF809178002091790090E0922BE8
:102AC0000895833081F028F4813099F08230A1F0AC
:102AD00008958730A9F08830B9F08430D1F480911E
:102AE00080008F7D03C0809180008F77809380006D
:102AF000089584B58F7702C084B58F7D84BD089515
:102B00008091B0008F7703C08091B0008F7D80935B
:102B1000B0000895CF93DF9390E0FC01E752FA4FA5
:102B20002491FC01E351FA4F8491882349F190E00C
:102B3000880F991FFC01EB5EF94FA591B491855F59
:102B4000994FFC01C591D4919FB7611108C0F894C9
:102B50008C91209582238C93888182230AC06230D5
:102B600051F4F8948C91322F309583238C93888183
:102B7000822B888304C0F8948C91822B8C939FBF06
:102B8000DF91CF9108950F931F93CF93DF931F92FF
:102B9000CDB7DEB7282F30E0F901EB53FA4F84911F
:102BA000F901E752FA4F1491F901E351FA4F0491F8
:102BB0000023C9F0882321F069830E94611569818F
:102BC000E02FF0E0EE0FFF1FE55FF94FA591B49104
:102BD0009FB7F8948C91611103C01095812301C0B7
:102BE000812B8C939FBF0F90DF91CF911F910F91FD
:102BF0000895CF93DF93282F30E0F901EB53FA4F7C
:102C00008491F901E752FA4FD491F901E351FA4F57
:102C1000C491CC2391F081110E946115EC2FF0E05A
:102C2000EE0FFF1FEF5FF94FA591B4912C912D236B
:102C300081E090E021F480E002C080E090E0DF914C
:102C4000CF910895FC01818D228D90E0805C9F4F93
:102C5000821B91098F7399270895FC01918D828DB4
:102C6000981731F0828DE80FF11D858D90E0089561
:102C70008FEF9FEF0895FC01918D828D981761F081
:102C8000828DDF01A80FB11D5D968C91928D9F5FA3
:102C90009F73928F90E008958FEF9FEF08958FEBD1
:102CA00097E1892B49F080E090E0892B29F00E9480
:102CB000BF1781110C9400000895FC01848DDF0181
:102CC000A80FB11DA35ABF4F2C91848D90E001969F
:102CD0008F739927848FA689B7892C93A089B1898E
:102CE0008C9180648C93938D848D981306C0028898
:102CF000F389E02D80818F7D80830895CF93DF93CA
:102D0000EC01888D8823C9F0EA89FB89808185FDE3
:102D100005C0A889B9898C9186FD0FC00FB607FC44
:102D2000F5CF808185FFF2CFA889B9898C9185FF85
:102D3000EDCFCE010E945D16E7CFDF91CF910895D0
:102D4000CF92DF92FF920F931F93CF93DF931F9247
:102D5000CDB7DEB76C0181E0D60158968C935897B9
:102D60005B969C915B975C968C915C97981307C0DF
:102D70005096ED91FC915197808185FD2EC0F60112
:102D8000038D10E00F5F1F4F0F731127F02EF60118
:102D9000848DF81211C00FB607FCF9CFD6015096FA
:102DA000ED91FC915197808185FFF1CFC601698338
:102DB0000E945D166981EBCF838DE80FF11DE35A08
:102DC000FF4F6083D6015B960C935B975296ED9113
:102DD000FC915397808180620CC0D6015696ED918C
:102DE000FC91579760835096ED91FC9151978081AB
:102DF0008064808381E090E00F90DF91CF911F91FC
:102E00000F91FF90DF90CF900895BF92CF92DF9205
:102E1000EF92FF92CF93DF93EC016A017B01B22E18
:102E2000E889F98982E08083411581EE58076105C0
:102E30007105A1F060E079E08DE390E0A7019601D3
:102E40000E94F41B215031094109510956954795BB
:102E500037952795211580E1380798F0E889F98999
:102E6000108260E874E88EE190E0A70196010E946C
:102E7000F41B215031094109510956954795379561
:102E80002795EC85FD853083EE85FF852083188EA0
:102E9000EC89FD89B082EA89FB8980818061808329
:102EA000EA89FB89808188608083EA89FB89808147
:102EB00080688083EA89FB8980818F7D8083DF91B0
:102EC000CF91FF90EF90DF90CF90BF9008951F9229
:102ED0000F920FB60F9211242F938F939F93EF931E
:102EE000FF93E0913605F09137058081E0913C0534
:102EF000F0913D0582FD12C0908180913F058F5F6A
:102F00008F7320914005821751F0E0913F05F0E06A
:102F1000EA5DFA4F958F80933F0501C08081FF9154
:102F2000EF919F918F912F910F900FBE0F901F9057
:102F300018951F920F920FB60F9211242F933F9363
:102F40004F935F936F937F938F939F93AF93BF93B1
:102F5000EF93FF9386E295E00E945D16FF91EF915B
:102F6000BF91AF919F918F917F916F915F914F91A1
:102F70003F912F910F900FBE0F901F90189586E2F2
:102F800095E00E94221621E0892B09F420E0822F8F
:102F90000895109229051092280588EE93E0A0E08C
:102FA000B0E080932A0590932B05A0932C05B09355
:102FB0002D0582E492E0909327058093260585EC09
:102FC00090E0909333058093320584EC90E09093E9
:102FD00035058093340580EC90E09093370580931D
:102FE000360581EC90E0909339058093380582ECAA
:102FF00090E090933B0580933A0586EC90E09093A7
:103000003D0580933C0510923F05109240051092BB
:103010004105109242050895CF92DF92EF92FF9200
:103020000F931F93CF93DF937C016A01EB0100E0C4
:1030300010E00C151D0571F06991D701ED91FC911F
:103040000190F081E02DC7010995892B19F00F5FE0
:103050001F4FEFCFC801DF91CF911F910F91FF90CC
:10306000EF90DF90CF9008956115710581F0DB013D
:103070000D900020E9F7AD0141505109461B570B57
:10308000DC01ED91FC910280F381E02D099480E058
:1030900090E008950C9434186EE472E00C943418A7
:1030A0000F931F93CF93DF93EC010E9434188C0190
:1030B000CE010E944C18800F911FDF91CF911F917C
:1030C0000F9108950F931F93CF93DF93EC010E940C
:1030D000A714688779878A879B87E881F9810680AA
:1030E000F781E02DCE01099597FF15C00E94A71426
:1030F000088519852A853B85601B710B820B930B14
:103100000C811D812E813F81601771078207930713
:1031100020F38FEF9FEFDF91CF911F910F910895D3
:103120000F931F93CF93DF93EC010E94A71468873E
:1031300079878A879B87E881F9810084F185E02D72
:10314000CE01099597FF15C00E94A714088519851F
:103150002A853B85601B710B820B930B0C811D81B3
:103160002E813F81601771078207930720F38FEF4D
:103170009FEFDF91CF911F910F910895FF920F93D1
:103180001F93CF93DF93EC018B01F42ECE010E94AD
:1031900090189C0197FD28C08D32910519F1C097B8
:1031A0000A9710F1FF2019F02E323105F9F00130A5
:1031B0001105F9F00230110569F42D30310551F097
:1031C00034F4295031092230310520F012C0203268
:1031D000310579F4E881F9810680F781E02DCE018F
:1031E0000995D4CF8DE203C0C90105C08EE290E0FD
:1031F00002C08FEF9FEFDF91CF911F910F91FF9052
:103200000895CF92DF92FF920F931F93CF93DF9396
:1032100000D000D0CDB7DEB76C01042F40E00E9493
:10322000BE18FC0197FD4BC020E030E0A901F12C55
:10323000112707FD1095E017F107E9F0ED32F105D0
:10324000C1F0CF01C0970A97B0F4AAE0B0E00E94A5
:10325000441C9B01AC01CF01AA2797FDA095BA2F72
:10326000280F391F4A1F5B1F20533109410951099B
:1032700002C0FF24F394D601ED91FC910680F78102
:10328000E02DC60129833A834B835C830995C601EF
:103290000E949018FC01C09729813A814B815C8182
:1032A0000A9748F2E017F10731F2FF2061F0662734
:1032B0007727CB01621B730B840B950B06C060E074
:1032C00070E0CB0102C0CA01B9010F900F900F90BE
:1032D0000F90DF91CF911F910F91FF90DF90CF90D2
:1032E0000895EF92FF920F931F93CF93DF93EC011A
:1032F0008B01E42E60E572E00E944E1AC8010E9424
:103300006218FF24E7FCF09497FD0BC08E159F0513
:1033100041F0682FCE010E94F41AC8010E94621881
:10332000F3CFCE01DF91CF911F910F91FF90EF90DE
:1033300008954F925F926F927F92AF92BF92CF9219
:10334000DF92EF92FF920F931F93CF93DF93CDB74E
:10335000DEB729013A01621B730B840B950B298997
:103360003A894B895C892A193B094C095D09298BEB
:103370003A8B4B8B5C8B9B01AC0169897A898B8979
:103380009C890E94D01BE418F50806091709A801BA
:1033900097010E94161C2A0D3B1D4C1D5D1DCA0184
:1033A000B901DF91CF911F910F91FF90EF90DF90C6
:1033B000CF90BF90AF907F906F905F904F900895A7
:1033C000FC01808191810C94091DCF93DF93EC0166
:1033D00088819981009711F00E94091D1982188235
:1033E0001D821C821B821A82DF91CF9108950F9358
:1033F0001F93CF93DF93EC018B016F5F7F4F888129
:1034000099810E94981D009731F0998388831B83CE
:103410000A8381E001C080E0DF91CF911F910F917D
:103420000895CF93DF93EC0188819981892B29F04E
:103430008A819B818617970760F4CE010E94F71955
:10344000882341F08C819D81892B19F4E881F981D1
:10345000108281E0DF91CF910895EF92FF920F9358
:103460001F93CF93DF93EC017B018A01BA010E9485
:10347000111A811104C0CE010E94E51907C01D83F5
:103480000C83B701888199810E94701ECE01DF9163
:10349000CF911F910F91FF90EF900895FC01118241
:1034A000108213821282158214826115710559F0FF
:1034B000FB0101900020E9F7AF0141505109461B83
:1034C000570B0C942D1A0895CF93DF93EC01FB0159
:1034D0008617970761F0608171816115710529F088
:1034E000448155810E942D1A02C00E94E519CE0127
:1034F000DF91CF910895FC01118210821382128214
:10350000158214820C94641ACF93DF93EC01611539
:10351000710561F0FB0101900020E9F7AF01415016
:103520005109461B570B0E942D1A02C00E94E51933
:10353000CE01DF91CF9108950F931F93CF93DF9327
:10354000CDB7DEB762970FB6F894DEBF0FBECDBF22
:103550008C01CB01F8011182108213821282158234
:10356000148250E0BE016F5F7F4F0E94941EBE0127
:103570006F5F7F4FC8010E94841A62960FB6F8945D
:10358000DEBF0FBECDBFDF91CF911F910F91089588
:10359000EF92FF920F931F93CF93DF93EC017B0188
:1035A0000C811D816115710511F480E016C0411573
:1035B000510591F0040F151FB8010E94111A8823BC
:1035C000A1F3288139818C819D81B701820F931FDE
:1035D0000E94701E1D830C8381E0DF91CF911F91AB
:1035E0000F91FF90EF900895CF93DF9300D0CDB768
:1035F000DEB769831A8241E050E0BE016F5F7F4F02
:103600000E94C81A0F900F90DF91CF910895EF920A
:10361000FF920F931F93CF93DF93CDB7DEB7289719
:103620000FB6F894DEBF0FBECDBF7C01CB014AE0E0
:103630008E010F5F1F4FB8010E949F1EF80101907D
:103640000020E9F7AF0141505109401B510BB8016F
:10365000C7010E94C81A28960FB6F894DEBF0FBEA5
:10366000CDBFDF91CF911F910F91FF90EF90089503
:10367000CF93DF93EC016115710569F0FB010190B7
:103680000020E9F7AF0141505109461B570B0E943A
:10369000C81A811103C0CE010E94E519CE01DF9145
:1036A000CF910895CF93DF93EC010E94071B811106
:1036B00003C0CE010E94E519CE01DF91CF9108959C
:1036C000FA01DB0114964D915C911597DC0114967B
:1036D0002D913C911597241B350B2E173F0788F031
:1036E0008D919C91009769F0DB016D917C91611542
:1036F000710539F08E0F9F1F0E94771E21E0892BE4
:1037000009F020E0822F0895FC0144815581FB01DE
:10371000248135814217530720F040E050E00C949B
:10372000601B80E008950F931F93CF93DF93EB010D
:1037300041155105E9F02097D9F0FC0164817581AC
:1037400026173707A0F4621B730B8A010150110979
:103750006017710708F48B01FC0160817181620FB1
:10376000731FA801CE010E94851EC00FD11F1882B1
:10377000DF91CF911F910F9108950E94621E0895CD
:103780000E9409150E94BF1B0E94F103CFE4D6E1FD
:103790000E9436042097E1F30E944F16F9CF089556
:1037A000DB018F939F930E94441CBF91AF91A29F16
:1037B000800D911DA39F900DB29F900D112408952F
:1037C00097FB072E16F4009407D077FD09D00E94CE
:1037D000571C07FC05D03EF4909581959F4F0895A6
:1037E000709561957F4F0895A1E21A2EAA1BBB1B0D
:1037F000FD010DC0AA1FBB1FEE1FFF1FA217B307BD
:10380000E407F50720F0A21BB30BE40BF50B661FD2
:10381000771F881F991F1A9469F760957095809596
:1038200090959B01AC01BD01CF010895052E97FB3A
:103830001EF400940E942D1C57FD07D00E94F41B1B
:1038400007FC03D04EF40C942D1C509540953095F8
:1038500021953F4F4F4F5F4F0895909580957095FC
:1038600061957F4F8F4F9F4F0895A29FB001B39FE7
:10387000C001A39F700D811D1124911DB29F700D79
:10388000811D1124911D08950E94351CA59F900D46
:10389000B49F900DA49F800D911D11240895B7FF32
:1038A0000C94441C0E94441C821B930B0895AA1B79
:1038B000BB1B51E107C0AA1FBB1FA617B70710F01B
:1038C000A61BB70B881F991F5A95A9F7809590954D
:1038D000BC01CD010895EE0FFF1F0590F491E02D7E
:1038E0000994CF93DF938230910510F482E090E049
:1038F000E091C505F091C60520E030E0A0E0B0E021
:10390000309739F14081518148175907B8F048176D
:10391000590771F482819381109729F013969C9333
:103920008E9312972CC09093C6058093C50527C02F
:103930002115310531F04217530718F0A901DB01B9
:1039400001C0EF019A01BD01DF010280F381E02D8A
:10395000D7CF21153105F9F0281B390B243031055B
:1039600080F48A819B816115710521F0FB019383AD
:10397000828304C09093C6058093C505FE013296EC
:1039800044C0FE01E20FF31F81939193225031094D
:10399000398328833AC02091C3053091C405232B75
:1039A00041F420910201309103013093C40520932A
:1039B000C30520910001309101012115310541F429
:1039C0002DB73EB74091040150910501241B350BE2
:1039D000E091C305F091C405E217F307A0F42E1B94
:1039E0003F0B2817390778F0AC014E5F5F4F241763
:1039F000350748F04E0F5F1F5093C4054093C30531
:103A00008193919302C0E0E0F0E0CF01DF91CF918C
:103A10000895CF93DF93009709F487C0FC01329794
:103A200013821282C091C505D091C605209781F4FA
:103A300020813181280F391F8091C3059091C405E1
:103A40008217930779F5F093C405E093C3056DC021
:103A5000DE0120E030E0AE17BF0750F412964D9122
:103A60005C9113979D014115510509F1DA01F3CFDE
:103A7000B383A28340815181840F951F8A179B07CE
:103A800071F48D919C911197840F951F02969183EB
:103A9000808312968D919C91139793838283211535
:103AA000310529F4F093C605E093C5053EC0D90160
:103AB0001396FC93EE9312974D915D91A40FB51F51
:103AC000EA17FB0779F480819181840F951F029694
:103AD000D90111969C938E938281938113969C9326
:103AE0008E931297E0E0F0E08A819B81009719F0B5
:103AF000FE01EC01F9CFCE01029628813981820FB7
:103B0000931F2091C3053091C4052817390769F424
:103B1000309729F41092C6051092C50502C0138291
:103B20001282D093C405C093C305DF91CF9108954D
:103B3000A0E0B0E0EEE9FDE10C94D81EEC01CB0171
:103B4000209719F40E94711CB8C0FE01E60FF71F00
:103B50009E0122503109E217F30708F4ACC0D901E5
:103B60000D911C91119706171707B8F00530110534
:103B700008F49FC0A801445051094617570708F49C
:103B800098C002501109061B170B019311936D93F6
:103B90007C93CF010E94091D8CC05B01A01AB10A61
:103BA0004E01800E911EA091C505B091C605612CF5
:103BB000712C60E070E0109709F449C0A815B905B0
:103BC000C9F5ED90FC901197670142E0C40ED11C3D
:103BD000CA14DB0478F147018A189B08640142E0AB
:103BE000C40ED11C1296BC9012971396AC91B5E0FE
:103BF000CB16D10440F0B282A38391828082D90196
:103C00008D939C9309C00E5F1F4F0E0D1F1DF90170
:103C100011830083EB2DFA2F6115710531F0DB0163
:103C20001396FC93EE93129744C0F093C605E0936D
:103C3000C5053FC06D917C9111976616770608F413
:103C40003B01BD0112960D90BC91A02DB4CF6091A7
:103C5000C3057091C40568157905E9F468167906FD
:103C6000D0F440910001509101014115510541F4FA
:103C70004DB75EB76091040170910501461B570B6B
:103C8000E417F507C0F4F093C405E093C305F90108
:103C9000918380830EC00E94711C7C01009759F0B3
:103CA000A801BE010E94671ECE010E94091DC70126
:103CB00004C0CE0102C080E090E0CDB7DEB7EEE0F8
:103CC0000C94F41E81E090E0F8940C940B1FFB011F
:103CD000DC0102C001900D9241505040D8F7089588
:103CE000FB01DC0101900D920020E1F70895FB013A
:103CF000DC014150504030F08D910190801919F451
:103D00000020B9F7881B990B0895FB01DC01415095
:103D1000504048F001900D920020C9F701C01D925B
:103D200041505040E0F708954532510520F44230AB
:103D300010F00C949F1EFB011082CB010895BB274D
:103D40004A3031F4992322F4BDE2909581959F4F3A
:103D50000C94AB1EBB27FB015527AA27880F991F80
:103D6000AA1FA41710F0A41B83955051B9F7A05DAA
:103D7000AA3308F0A95DA193009779F7B111B19327
:103D80001192CB010C94C41EDC01FC01672F7191D0
:103D90007723E1F7329704C07C916D937083629131
:103DA000AE17BF07C8F308952F923F924F925F92CC
:103DB0006F927F928F929F92AF92BF92CF92DF923B
:103DC000EF92FF920F931F93CF93DF93CDB7DEB7A0
:103DD000CA1BDB0B0FB6F894DEBF0FBECDBF099434
:103DE0002A88398848885F846E847D848C849B848B
:103DF000AA84B984C884DF80EE80FD800C811B8199
:103E0000AA81B981CE0FD11D0FB6F894DEBF0FBEC7
:0A3E1000CDBFED010895F894FFCF37
:103E1A000000C7058000010000000E00010001003B
:103E2A0001000100E007010001002C01000001442B
:103E3A00617461202020202020204F726100556D7E
:103E4A006964697461600054656D70657261747546
:103E5A0072610043616D70696F6E616D656E746F3A
:103E6A00006D696E2E00496E206D656D6F72696115
:103E7A00003530202D20202D20202D20202D2020FF
:103E8A002D20202D20202D003430202D20202D20E3
:103E9A00202D20202D20202D20202D20202D0033E4
:103EAA0030202D20202D20202D20202D20202D20B7
:103EBA00202D20202D003230202D20202D20202DB5
:103ECA0020202D20202D20202D20202D00313020B3
:103EDA002D20202D20202D20202D20202D20202D8A
:103EEA0020202D003000250A2000430A20004461CA
:103EFA0074653A0000000000450B0C18960EB808CD
:103F0A00EE0E5A0F6F09C60FEE0BED0C3F0A0000BA
:103F1A000000450B0C18BD1BB808BE09D5096F096E
:103F2A00EB09200A3E0A3F0A00000000450B0C1864
:103F3A00960EB808EE0E5A0F6F09C60FEE0BED0C6F
:103F4A003F0A1F1C1F1E1F1E1F1F1E1F1E1F0000B1
:103F5A000000A0160C1822163B162D167E160D0A06
:0E3F6A00006E616E00696E66006F7666000084
:107E0000112484B714BE81FFF0D085E080938100F7
:107E100082E08093C00088E18093C10086E0809377
:107E2000C20080E18093C4008EE0C9D0259A86E02C
:107E300020E33CEF91E0309385002093840096BBD3
:107E4000B09BFECF1D9AA8958150A9F7CC24DD24C4
:107E500088248394B5E0AB2EA1E19A2EF3E0BF2EE7
:107E6000A2D0813461F49FD0082FAFD0023811F036
:107E7000013811F484E001C083E08DD089C08234E0
:107E800011F484E103C0853419F485E0A6D080C0E4
:107E9000853579F488D0E82EFF2485D0082F10E0AE
:107EA000102F00270E291F29000F111F8ED06801E7
:107EB0006FC0863521F484E090D080E0DECF843638
:107EC00009F040C070D06FD0082F6DD080E0C81688
:107ED00080E7D80618F4F601B7BEE895C0E0D1E017
:107EE00062D089930C17E1F7F0E0CF16F0E7DF06D8
:107EF00018F0F601B7BEE89568D007B600FCFDCFD4
:107F0000A601A0E0B1E02C9130E011968C91119780
:107F100090E0982F8827822B932B1296FA010C0160
:107F200087BEE89511244E5F5F4FF1E0A038BF0790
:107F300051F7F601A7BEE89507B600FCFDCF97BE46
:107F4000E89526C08437B1F42ED02DD0F82E2BD052
:107F50003CD0F601EF2C8F010F5F1F4F84911BD097
:107F6000EA94F801C1F70894C11CD11CFA94CF0C13
:107F7000D11C0EC0853739F428D08EE10CD085E9AC
:107F80000AD08FE07ACF813511F488E018D01DD067
:107F900080E101D065CF982F8091C00085FFFCCF94
:107FA0009093C60008958091C00087FFFCCF809118
:107FB000C00084FD01C0A8958091C6000895E0E648
:107FC000F0E098E1908380830895EDDF803219F02E
:107FD00088E0F5DFFFCF84E1DECF1F93182FE3DFCA
:107FE0001150E9F7F2DF1F91089580E0E8DFEE27F6
:047FF000FF270994CA
:027FFE00040479
:0400000300007E007B
:00000001FF
