:100000000C94F1000C9419010C9419010C94190131
:100010000C9419010C9419010C9419010C941901F8
:100020000C9419010C9419010C9419010C941901E8
:100030000C9419010C9419010C9419010C941901D8
:100040000C94E5070C9419010C94D20A0C94040B3F
:100050000C9419010C9419010C9419010C941901B8
:100060000C9419010C9419015254432073657420A7
:100070006661696C65642100525443207365742085
:10008000746F3A20004572726F723A20596561723E
:10009000206D7573742062652074776F20646967C2
:1000A000697473206F7220666F7572206469676966
:1000B00074732100204641494C2100204F6B2100E0
:1000C0005254432053796E63005468652044533181
:1000D0003330322069732077726974652070726FD3
:1000E0007465637465642E2054686973206E6F7242
:1000F0006D616C2E00746F20696E697469616C6942
:100100007A65207468652074696D6520616E64206D
:10011000626567696E2072756E6E696E672E005437
:100120006865204453313330322069732073746F13
:10013000707065642E2020506C6561736520736556
:10014000742074696D6500525443206D6F64756C42
:100150006520616374697661746564004572724AF2
:10016000616E4665624D61724170724D61794A758A
:100170006E4A756C4175675365704F63744E6F7648
:10018000446563000000000800020100000304074A
:100190000000000000000000010204081020408060
:1001A00001020408102001020408102004040404C1
:1001B0000404040402020202020203030303030311
:1001C0000000000023002600290000000000250098
:1001D00028002B0000000000240027002A000F0246
:1001E000340B11241FBECFEFD8E0DEBFCDBF11E02E
:1001F000A0E0B1E0EAEAFBE102C005900D92A8336D
:10020000B107D9F722E0A8E3B1E001C01D92AB30FD
:10021000B207E1F711E0C2EED1E004C02297FE017F
:100220000E94CF0DCE3DD107C9F70E94450D0C9419
:10023000D30D0C94000026E040E052EC61E070E049
:100240008EE691E00E94700A60E081E20E942E0931
:1002500061E081E20E94F50861E083E20E942E09DC
:1002600061E083E20E94F50867E471E08EE691E0C8
:100270000E94B50B8EE691E00E94E10B64EF71E005
:1002800080E090E00E945E088CE391E00E94D10340
:10029000882381F06FE171E08EE691E00E94B50B5A
:1002A00065EF70E08EE691E00E94B50B8EE691E07E
:1002B0000E94E10B0E94D80381110AC069EC70E032
:1002C0008EE691E00E94B50B8EE691E00E94E10B74
:1002D00068E873E180E090E00E945E088EEE94E0B2
:1002E0000E94CF0760EC70E08EE691E00E94B50BB3
:1002F0000E94C807029719F46BEB70E002C064EB30
:1003000070E08EE691E00E94B50B8EE691E00C94D1
:10031000E10B0F931F93CF938C01C62F8A30910569
:100320002CF460E38EE691E00E94DA0BA8016627C8
:1003300057FD6095762F2AE030E08EE691E00E942E
:100340003E0C1C1644F46C2F8EE691E0CF911F9169
:100350000F910C94DA0BCF911F910F910895CF92CA
:10036000DF92EF92FF926B017C010E9425066AE307
:100370000E948901C701B6010E942B066AE30E9410
:100380008901C701B6010E94310660E2FF90EF903B
:10039000DF90CF900C948901CF92DF92EF92FF9281
:1003A000CF93DF936B017C010E94370660E00E94CF
:1003B0008901C701B6010E944306EC01C701B601DD
:1003C0000E943D060E940F05BC018EE691E00E944E
:1003D000D80BAE01662757FD6095762F2AE030E0F6
:1003E0008EE691E0DF91CF91FF90EF90DF90CF907C
:1003F0000C943E0CCF92DF92EF92FF926B017C0146
:100400000E94CC0160E28EE691E00E94DA0BC70107
:10041000B601FF90EF90DF90CF900C94AF0127E0F2
:1004200046E065E08CE391E00C94BA02CF92DF9253
:10043000EF92FF92CF93DF93CDB7DEB727970FB63A
:10044000F894DEBF0FBECDBF8EE691E00E948D090D
:100450000C970CF465C08EE691E00E94410D9B0163
:10046000245631092438334058F465E870E08EE6AC
:1004700091E00E94B50B8EE691E00E94E10B50C026
:10048000683E23E0720714F0625B01C0625E6F8316
:100490008EE691E00E94410D6E838EE691E00E940F
:1004A000410D6D838EE691E00E94410D6B838EE6D7
:1004B00091E00E94410D6A838EE691E00E94410D19
:1004C0006983CE0101960E944B066B017C010E945C
:1004D0005B0481110FC0C701B6010E94060768E7DF
:1004E00070E08EE691E00E94B50BC701B6010E9454
:1004F000FA0106C068E670E08EE691E00E94B50B56
:100500008EE691E00E94E10B8EE691E00E948D095B
:10051000181619062CF48EE691E00E94A609F4CF75
:100520000E943707C0903801D0903901E0903A011D
:10053000F0903B016C157D058E059F0571F0609371
:1005400038017093390180933A0190933B010E94E6
:10055000FA018EE691E00E94E10B27960FB6F8941F
:10056000DEBF0FBECDBFDF91CF91FF90EF90DF9048
:10057000CF90089560933F0140933E0120933D0149
:10058000089560E080913F010E942E0961E0809112
:100590003F010E94F50860E080913D010E942E0914
:1005A00061E080913D010E94F50861E080913E018B
:1005B0000E94F50861E080913F010E942E0984E0CD
:1005C00090E00C94860860E080913F010E942E0923
:1005D00084E090E00C948608CF92DF92EF92FF9235
:1005E0001F93CF93DF9360E080913E010E94F50856
:1005F000C0E0D0E010E0C12CD12C7601C3948091F2
:100600003E010E946409B701A601892B51F00C2E0E
:1006100004C0440F551F661F771F0A94D2F7142B8E
:100620000AC00C2E04C0440F551F661F771F0A9482
:10063000D2F74095142361E080913D010E942E097C
:1006400081E090E00E94860860E080913D010E9478
:100650002E0981E090E00E9486082196C830D105DD
:1006600071F6812FDF91CF911F91FF90EF90DF9076
:10067000CF9008950F931F93CF93DF93C0E0D0E006
:10068000082F10E0B8010C2E02C0759567950A94EA
:10069000E2F7617080913E010E942E0981E090E0B6
:1006A0000E94860861E080913D010E942E0981E050
:1006B00090E00E94860860E080913D010E942E0932
:1006C00081E090E00E9486082196C830D105D1F6DD
:1006D000DF91CF911F910F910895EF92FF920F93A9
:1006E0001F93CF93DF931F92CDB7DEB7182F998357
:1006F0000E94C1028FEB0E943A03E12E9981F92EEC
:100700008701085F1F4F0E94EC02F70181937F0170
:10071000E017F107C1F70F90DF91CF911F910F9173
:10072000FF90EF900C94E302EF92FF920F931F93D0
:10073000CF93DF931F92CDB7DEB7182F99830E9416
:10074000C1028EEB0E943A03E12E9981F92E8701B6
:10075000085F1F4FF70181917F010E943A03E01665
:10076000F106C1F70F90DF91CF911F910F91FF908C
:10077000EF900C94E302CF93DF931F92CDB7DEB7D7
:1007800089830E94C102898181600E943A030E948C
:10079000EC0289830E94E30289810F90DF91CF915F
:1007A000089580E80E94BB03881F8827881F08954A
:1007B0008EE80E94BB03982F9095991F9927991F47
:1007C000892F0895CF93DF9300D0CDB7DEB76A832A
:1007D00089830E94C10289818E7F0E943A036A81C7
:1007E000862F0E943A030F900F90DF91CF910C94C7
:1007F000E302CF93C82F8EE80E94BB03682FC1117C
:1008000002C0606801C06F778EE8CF910C94E2035C
:100810006AE00E94550D20E1829F900D1124892FDE
:1008200008950F931F93CF93DF93CDB7DEB728972B
:100830000FB6F894DEBF0FBECDBF8C0181E00E94E1
:10084000F9030E94D803882351F1F80180810E94A6
:1008500008048983F80181810E9408048A83F801D1
:1008600082810E9408048B83F80184810E9408041D
:100870008C83F80185810E9408048D83F8018381AF
:100880008E8386818E510E9408048F8380E888873A
:10089000CE0101960E9494030E94D80301C08FEFFD
:1008A00028960FB6F894DEBF0FBECDBFDF91CF9173
:1008B0001F910F910895CF93DF93CDB7DEB72797A0
:1008C0000FB6F894DEBF0FBECDBFAE014F5F5F4FD6
:1008D0000E942805CE0101960E94110427960FB6AA
:1008E000F894DEBF0FBECDBFDF91CF910895982F52
:1008F00092959F708F702AE0929F800D1124089529
:10090000BF92CF92DF92EF92FF920F931F93CF93FC
:10091000DF93CDB7DEB729970FB6F894DEBF0FBED1
:10092000CDBF8C01CE0101960E946D0389818F7726
:100930000E947704B82EF80180838A818F770E9405
:100940007704C82EF80181838B818F730E9477040E
:10095000D82EF80182838C818F730E947704E82E51
:10096000F80184838D818F710E947704F82EF8013D
:1009700085839E81977093838F8199870E947704E6
:100980002EE1280FF80126839985FBE3FB15A8F0DB
:10099000FC1598F087E18D1580F08FEF8E0D8F316B
:1009A00060F48FEF8F0D8C3040F4915081E09730E0
:1009B00028F4243618F480E001C081E029960FB6AF
:1009C000F894DEBF0FBECDBFDF91CF911F910F9185
:1009D000FF90EF90DF90CF90BF900895CF93DF937B
:1009E000CDB7DEB727970FB6F894DEBF0FBECDBFE9
:1009F000CE0101960E948004811105C0CE010196AE
:100A00000E944B0603C060E070E0CB0127960FB652
:100A1000F894DEBF0FBECDBFDF91CF91089523E0E4
:100A2000829FC0011124A0E4B1E020E030E0845AAC
:100A30009E4FFC01E20FF31FE491ED932F5F3F4FB8
:100A400023303105B1F71092430180E491E008951D
:100A50006F927F928F929F92AF92BF92CF92DF92CE
:100A6000EF92FF920F931F93CF93DF93EA012CE352
:100A7000C22ED12CE12CF12CA70196010E94750DFC
:100A80006883CA01B901A70196010E94750D6983A7
:100A9000CA01B90128E130E040E050E00E94750D44
:100AA00049015A016A83CA01B9016C5F7F4F8F4FB8
:100AB0009F4F27E030E040E050E00E94750D6F5FEF
:100AC0006B8300E010E0980140E054E6652E712C45
:100AD00060E9C62EDD24D394E42FF0E0EE54F84F05
:100AE0007F0183E0E822FF24E114F10489F4CF01BF
:100AF000B3010E94610D892B29F08EE691E0A0E000
:100B0000B0E00AC0CF01B6010E94610D892BA9F3A4
:100B10008DE691E0A0E0B0E0080F191F2A1F3B1FEF
:100B2000D901C801AA27BB2788169906AA06BB06C1
:100B300010F04F5FD1CF4E83E114F10499F4CF014F
:100B400064E670E00E94610D892B29F08EE691E049
:100B5000A0E0B0E00BC0CF0160E971E00E94610D40
:100B6000892BA1F38DE691E0A0E0B0E0081B190B02
:100B70002A0B3B0B801A910AA20AB30ACF0164E642
:100B800070E00E94610D9C01CF0160E971E00E945C
:100B9000610DEAE0F1E0A0E0A13059F4E114F104C4
:100BA00051F42115310511F04DE106C00097E1F334
:100BB00002C0408101C04CE150E060E070E084166A
:100BC0009506A606B70640F0841A950AA60AB70A43
:100BD000AF5F3196AC3001F7AF5FAD8383948C8209
:100BE000DF91CF911F910F91FF90EF90DF90CF9009
:100BF000BF90AF909F908F907F906F900895CF920D
:100C0000DF92EF92FF926B017C0180915A019091EB
:100C10005B01A0915C01B0915D01C816D906EA069E
:100C2000FB0671F04EE551E0C701B6010E942805B0
:100C3000C0925A01D0925B01E0925C01F0925D019A
:100C4000FF90EF90DF90CF9008950E94FF05809174
:100C5000600190E008950E94FF0580915F0190E09F
:100C600008950E94FF0580915E0190E008950E9422
:100C7000FF058091620190E008950E94FF05809138
:100C8000630190E008950E94FF058091640190E067
:100C90008E54984F08956F927F928F929F92AF9249
:100CA000BF92CF92DF92EF92FF920F931F93CF9359
:100CB000DF93FC01C680AC2DB0E020E833E341EEC9
:100CC00051E00E94A60D4B015C0122EB37E06D0163
:100CD000C4E6D0E000E911E0C901825B97408C15C1
:100CE0009D05DCF4C90183709927892B99F4C9010A
:100CF000BE010E94610D892B31F4C901B8010E9427
:100D0000610D892B39F480E8880E81E5981E81E019
:100D1000A81EB11C2F5F3F4FDFCF6580712C8EE482
:100D2000C81A88EFD80AC60164E670E00E94610D17
:100D30008C01C60160E971E00E94610D7C01C1E097
:100D4000D0E083E0C822DD24C615D7052CF5C230DB
:100D5000D10589F4C114D10471F40115110519F4F8
:100D6000E114F10441F480E8880E8BE3981E86E2DA
:100D7000A81EB11C0FC0DE01A75FBE4FAC91B0E052
:100D800020E831E541E050E00E94A60D860E971E56
:100D9000A81EB91E2196D8CF4181228130E0A0E162
:100DA000BEE00E94970D6B017C01242F30E0ACE384
:100DB000B0E00E94970DC60ED71EE81EF91E808176
:100DC000C80ED11CE11CF11CA481B0E0119720E8F1
:100DD00031E541E050E00E94B10DC60ED71EE81E7D
:100DE000F91EC80CD91CEA1CFB1CC701B601DF9117
:100DF000CF911F910F91FF90EF90DF90CF90BF9018
:100E0000AF909F908F907F906F9008950F931F9356
:100E10006093560170935701809358019093590144
:100E200000910601109107012091080130910901FC
:100E3000060F171F281F391F00934E0110934F01F3
:100E4000209350013093510182E090E090934D0146
:100E500080934C010E942F086093520170935301BC
:100E600080935401909355011F910F910895CF9253
:100E7000DF92EF92FF920F931F930E942F08C09072
:100E80005201D0905301E0905401F09055016C193B
:100E90007D098E099F0900915601109157012091FB
:100EA000580130915901683E734081059105D8F091
:100EB0000F5F1F4F2F4F3F4F009356011093570165
:100EC000209358013093590148EEC40E43E0D41EDC
:100ED000E11CF11CC0925201D0925301E0925401E6
:100EE000F0925501CACF80914E0190914F01A0918F
:100EF0005001B0915101081719072A073B07C8F1A3
:100F0000E0914A01F0914B01309799F109956115F3
:100F100071058105910519F00E9406072AC080918C
:100F2000060190910701A0910801B091090140913B
:100F30005601509157016091580170915901840FE9
:100F4000951FA61FB71F80934E0190934F01A0934A
:100F50005001B093510181E090E020914C0130911B
:100F60004D01232B11F480E090E090934D0180938C
:100F70004C016091560170915701809158019091F8
:100F800059011F910F91FF90EF90DF90CF9008953E
:100F90000E94370780914C0190914D0108959093E4
:100FA0004B0180934A018091560190915701A09185
:100FB0005801B091590180934E0190934F01A09335
:100FC0005001B09351010C9437071F920F920FB646
:100FD0000F9211242F933F938F939F93AF93BF93BF
:100FE0008091660190916701A0916801B0916901BB
:100FF0003091650123E0230F2D3720F40196A11DC8
:10100000B11D05C026E8230F0296A11DB11D209336
:1010100065018093660190936701A0936801B09386
:10102000690180916A0190916B01A0916C01B0916E
:101030006D010196A11DB11D80936A0190936B0112
:10104000A0936C01B0936D01BF91AF919F918F916F
:101050003F912F910F900FBE0F901F9018952FB7B3
:10106000F894609166017091670180916801909198
:1010700069012FBF08953FB7F89480916A0190915C
:101080006B01A0916C01B0916D0126B5A89B05C0C4
:101090002F3F19F00196A11DB11D3FBF6627782F84
:1010A000892F9A2F620F711D811D911D42E0660FDD
:1010B000771F881F991F4A95D1F70895CF92DF9225
:1010C000EF92FF92CF93DF936B017C010E943B086C
:1010D000EB01C114D104E104F10489F00E94540D24
:1010E0000E943B086C1B7D0B683E734090F381E0CF
:1010F000C81AD108E108F108C851DC4FEACFDF91E6
:10110000CF91FF90EF90DF90CF90089582309105BE
:1011100038F0880F991F880F991F05970197F1F7ED
:101120000895789484B5826084BD84B5816084BD5F
:1011300085B5826085BD85B5816085BDEEE6F0E050
:10114000808181608083E1E8F0E0108280818260AC
:101150008083808181608083E0E8F0E0808181602D
:101160008083E1EBF0E0808184608083E0EBF0E05D
:10117000808181608083EAE7F0E080818460808301
:1011800080818260808380818160808380818068AB
:1011900080831092C1000895833081F028F481305B
:1011A00099F08230A1F008958730A9F08830B9F025
:1011B0008430D1F4809180008F7D03C080918000C5
:1011C0008F7780938000089584B58F7702C084B5AF
:1011D0008F7D84BD08958091B0008F7703C080918A
:1011E000B0008F7D8093B0000895CF93DF9390E09F
:1011F000FC01E856FE4F2491FC01E455FE4F84911A
:10120000882349F190E0880F991FFC01EC52FE4FB2
:10121000A591B49186539E4FFC01C591D4919FB77F
:10122000611108C0F8948C91209582238C93888159
:1012300082230AC0623051F4F8948C91322F309599
:1012400083238C938881822B888304C0F8948C91AB
:10125000822B8C939FBFDF91CF9108950F931F93A3
:10126000CF93DF931F92CDB7DEB7282F30E0F9017F
:10127000EC57FE4F8491F901E856FE4F1491F901A5
:10128000E455FE4F04910023C9F0882321F06983BF
:101290000E94CC086981E02FF0E0EE0FFF1FE653BB
:1012A000FE4FA591B4919FB7F8948C91611103C042
:1012B0001095812301C0812B8C939FBF0F90DF91EC
:1012C000CF911F910F910895CF93DF93282F30E096
:1012D000F901EC57FE4F8491F901E856FE4FD49185
:1012E000F901E455FE4FC491CC2391F081110E9485
:1012F000CC08EC2FF0E0EE0FFF1FE054FE4FA5915D
:10130000B4912C912D2381E090E021F480E002C083
:1013100080E090E0DF91CF910895FC01818D228DD6
:1013200090E0805C9F4F821B91098F7399270895ED
:10133000FC01918D828D981731F0828DE80FF11D9F
:10134000858D90E008958FEF9FEF0895FC01918DBA
:10135000828D981761F0828DDF01A80FB11D5D9617
:101360008C91928D9F5F9F73928F90E008958FEF85
:101370009FEF08958AE29BE0892B49F080E090E09E
:10138000892B29F00E942A0B81110C9400000895EA
:10139000FC01848DDF01A80FB11DA35ABF4F2C9112
:1013A000848D90E001968F739927848FA689B789E1
:1013B0002C93A089B1898C9180648C93938D848DBA
:1013C000981306C00288F389E02D80818F7D808389
:1013D0000895CF93DF93EC01888D8823C9F0EA89C3
:1013E000FB89808185FD05C0A889B9898C9186FD1E
:1013F0000FC00FB607FCF5CF808185FFF2CFA8891B
:10140000B9898C9185FFEDCFCE010E94C809E7CF45
:10141000DF91CF910895CF92DF92FF920F931F93A8
:10142000CF93DF931F92CDB7DEB76C0181E0D60179
:1014300058968C9358975B969C915B975C968C9191
:101440005C97981307C05096ED91FC91519780815D
:1014500085FD2EC0F601038D10E00F5F1F4F0F7347
:101460001127F02EF601848DF81211C00FB607FC7B
:10147000F9CFD6015096ED91FC915197808185FF6F
:10148000F1CFC60169830E94C8096981EBCF838DC2
:10149000E80FF11DE35AFF4F6083D6015B960C9372
:1014A0005B975296ED91FC915397808180620CC0BE
:1014B000D6015696ED91FC91579760835096ED9129
:1014C000FC91519780818064808381E090E00F904F
:1014D000DF91CF911F910F91FF90DF90CF900895F2
:1014E000BF92CF92DF92EF92FF92CF93DF93EC0106
:1014F0006A017B01B22EE889F98982E08083411577
:1015000081EE580761057105A1F060E079E08DE397
:1015100090E0A70196010E94750D21503109410903
:1015200051095695479537952795211580E138073C
:1015300098F0E889F989108260E874E88EE190E01B
:10154000A70196010E94750D2150310941095109E9
:101550005695479537952795EC85FD853083EE8523
:10156000FF852083188EEC89FD89B082EA89FB898A
:10157000808180618083EA89FB89808188608083A3
:10158000EA89FB89808180688083EA89FB89808180
:101590008F7D8083DF91CF91FF90EF90DF90CF9090
:1015A000BF9008951F920F920FB60F9211242F93A0
:1015B0008F939F93EF93FF93E0917E01F0917F01D2
:1015C0008081E0918401F091850182FD12C09081BB
:1015D000809187018F5F8F7320918801821751F06E
:1015E000E0918701F0E0E259FE4F958F80938701EB
:1015F00001C08081FF91EF919F918F912F910F906A
:101600000FBE0F901F9018951F920F920FB60F925A
:1016100011242F933F934F935F936F937F938F93F7
:101620009F93AF93BF93EF93FF938EE691E00E9459
:10163000C809FF91EF91BF91AF919F918F917F91D9
:101640006F915F914F913F912F910F900FBE0F902F
:101650001F9018958EE691E00E948D0921E0892B5C
:1016600009F420E0822F0895109271011092700108
:1016700088EE93E0A0E0B0E0809372019093730154
:10168000A0937401B09375018AE191E090936F018A
:1016900080936E0185EC90E090937B0180937A01BA
:1016A00084EC90E090937D0180937C0180EC90E04D
:1016B00090937F0180937E0181EC90E09093810173
:1016C0008093800182EC90E090938301809382016B
:1016D00086EC90E0909385018093840110928701BD
:1016E000109288011092890110928A010895CF9278
:1016F000DF92EF92FF920F931F93CF93DF937C01C2
:101700006A01EB0100E010E00C151D0571F0699114
:10171000D701ED91FC910190F081E02DC701099571
:10172000892B19F00F5F1F4FEFCFC801DF91CF91C9
:101730001F910F91FF90EF90DF90CF90089561156A
:10174000710581F0DB010D900020E9F7AD014150FA
:101750005109461B570BDC01ED91FC910280F3818E
:10176000E02D099480E090E00895EF92FF920F93AE
:101770001F93CF93DF938C017B01C0E0D0E0F70192
:10178000EC0FFD1F6491662359F0F801A081B1812F
:10179000ED91FC91C8010995892B11F02196EFCFAD
:1017A000CE01DF91CF911F910F91FF90EF9008959F
:1017B0000C949F0BDC01ED91FC910190F081E02DE8
:1017C000099466E271E00C949F0B8F929F92AF9206
:1017D000BF92CF92DF92EF92FF920F931F93CF931E
:1017E000DF93CDB7DEB7A1970FB6F894DEBF0FBE7B
:1017F000CDBF7C01C42EE52FCB01D22E19A221E052
:101800002D1510F02AE0D22E8E010F5D1F4F8D2C6A
:10181000912CA12CB12C6C2D7E2FA50194010E943E
:10182000750D8C2DD29E80191124015011098A301A
:1018300014F4805D01C0895CF801808321153105B5
:101840004105510521F0C22EE32FCA01E4CFB801B2
:10185000C7010E949F0BA1960FB6F894DEBF0FBE82
:10186000CDBFDF91CF911F910F91FF90EF90DF904F
:10187000CF90BF90AF909F908F900895CF92DF92BE
:10188000EF92FF920F931F93CF93DF93EC016A01C6
:101890007B012115310579F4E881F9810190F0810E
:1018A000E02D642FDF91CF911F910F91FF90EF906A
:1018B000DF90CF9009942A303105E9F477FF1AC000
:1018C0006DE20E94DA0B8C0144275527BA014C19AE
:1018D0005D096E097F092AE0CE010E94E50B800FA9
:1018E000911FDF91CF911F910F91FF90EF90DF90AB
:1018F000CF9008952AE0B701A601CE01DF91CF91E4
:101900001F910F91FF90EF90DF90CF900C94E50B1B
:101910000F931F93CF93DF93EC010E942F086887EA
:1019200079878A879B87E881F9810084F185E02D9A
:10193000CE01099597FF15C00E942F0808851985CB
:101940002A853B85601B710B820B930B0C811D81DB
:101950002E813F81601771078207930720F38FEF75
:101960009FEFDF91CF911F910F910895CF93DF9358
:10197000EC01CE010E94880C97FD11C08D329105BB
:1019800071F09C01205331092A30310540F0E88183
:10199000F9810680F781E02DCE010995EACFDF912C
:1019A000CF910895CF92DF92FF920F931F93CF9321
:1019B000DF9300D000D0CDB7DEB76C01062F0E94B8
:1019C000B60CFC0197FD4BC020E030E0A901F12CE2
:1019D000112707FD1095E017F107E9F0ED32F10549
:1019E000C1F0CF01C0970A97B0F4AAE0B0E00E941E
:1019F000A60D9B01AC01CF01AA2797FDA095BA2F98
:101A0000280F391F4A1F5B1F205331094109510913
:101A100002C0FF24F394D601ED91FC910680F7817A
:101A2000E02DC60129833A834B835C830995C60167
:101A30000E94880CFC01C09729813A814B815C810E
:101A40000A9748F2E017F10731F2FF2061F06627AC
:101A50007727CB01621B730B840B950B06C060E0EC
:101A600070E0CB0102C0CA01B9010F900F900F9036
:101A70000F90DF91CF911F910F91FF90DF90CF904A
:101A8000089561E00C94D20C08950E9491080E9480
:101A9000440D0E941B01CAEBD9E00E941602209758
:101AA000E1F30E94BA09F9CF0895991B79E004C0C7
:101AB000991F961708F0961B881F7A95C9F780958D
:101AC000089597FB072E16F4009407D077FD09D0F0
:101AD0000E94B90D07FC05D03EF4909581959F4F6B
:101AE0000895709561957F4F0895A1E21A2EAA1B63
:101AF000BB1BFD010DC0AA1FBB1FEE1FFF1FA217BE
:101B0000B307E407F50720F0A21BB30BE40BF50BBA
:101B1000661F771F881F991F1A9469F76095709543
:101B2000809590959B01AC01BD01CF010895A29FC6
:101B3000B001B39FC001A39F700D811D1124911DA1
:101B4000B29F700D811D1124911D08950E94970D63
:101B5000A59F900DB49F900DA49F800D911D112401
:101B60000895B7FF0C94A60D0E94A60D821B930B3F
:101B70000895AA1BBB1B51E107C0AA1FBB1FA617D4
:101B8000B70710F0A61BB70B881F991F5A95A9F726
:101B900080959095BC01CD010895EE0FFF1F059033
:0A1BA000F491E02D0994F894FFCFB2
:101BAA0000000B0280002C0100001F1C1F1E1F1EBC
:101BBA001F1F1E1F1E1F000000000B0A770B8D0936
:101BCA00A6099809E9090D0A006E616E00696E6638
:081BDA00006F7666002E00008A
:00000001FF
