:100000000C9492030C94BA030C94BA030C94BA03A4
:100010000C94BA030C94BA030C94BA030C94BA036C
:100020000C94BA030C94BA030C94BA030C94BA035C
:100030000C94BA030C94BA030C94BA030C94BA034C
:100040000C941B160C94BA030C9419190C944B19AC
:100050000C94BA030C94BA030C94BA030C94BA032C
:100060000C94BA030C94BA0300000000003E5B4FEE
:100070005B3E3E6B4F6B3E1C3E7C3E1C183C7E3C08
:10008000181C577D571C1C5E7F5E1C00183C180016
:10009000FFE7C3E7FF0018241800FFE7DBE7FF30A6
:1000A000483A060E2629792926407F050507407F14
:1000B00005253F5A3CE73C5A7F3E1C1C08081C1C87
:1000C0003E7F14227F22145F5F005F5F06097F017D
:1000D0007F006689956A606060606094A2FFA29468
:1000E00008047E040810207E201008082A1C080836
:1000F0001C2A08081E101010100C1E0C1E0C303884
:100100003E3830060E3E0E06000000000000005F84
:1001100000000007000700147F147F14242A7F2AA0
:100120001223130864623649562050000807030062
:10013000001C2241000041221C002A1C7F1C2A08AE
:10014000083E080800807030000808080808000011
:1001500060600020100804023E5149453E00427F85
:10016000400072494949462141494D331814127FD4
:100170001027454545393C4A494931412111090774
:100180003649494936464949291E000014000000F5
:1001900040340000000814224114141414140041C7
:1001A00022140802015909063E415D594E7C121184
:1001B000127C7F494949363E414141227F414141BC
:1001C0003E7F494949417F090909013E4141517337
:1001D0007F0808087F00417F41002040413F017FA8
:1001E000081422417F404040407F021C027F7F0470
:1001F00008107F3E4141413E7F090909063E4151B9
:10020000215E7F09192946264949493203017F01A8
:10021000033F4040403F1F2040201F3F4038403FA9
:10022000631408146303047804036159494D4300BF
:100230007F4141410204081020004141417F0402F6
:10024000010204404040404000030708002054548D
:1002500078407F284444383844444428384444286B
:100260007F385454541800087E090218A4A49C78BE
:100270007F0804047800447D40002040403D007F1A
:100280001028440000417F40007C047804787C08FA
:100290000404783844444438FC18242418182424CE
:1002A00018FC7C08040408485454542404043F44B3
:1002B000243C4040207C1C2040201C3C4030403CE2
:1002C00044281028444C9090907C4464544C440042
:1002D00008364100000077000000413608000201A6
:1002E0000204023C2623263C1EA1A161123A404092
:1002F000207A385454555921555579412154547810
:1003000041215554784020545579400C1E527212A8
:100310003955555559395454545939555454580030
:1003200000457C410002457D420001457C40F029AA
:100330002429F0F0282528F07C54554500205454F9
:100340007C547C0A097F493249494932324848483D
:1003500032324A4848303A4141217A3A4240207884
:10036000009DA0A07D39444444393D4040403D3C7F
:1003700024FF2424487E4943662B2FFC2F2BFF09A2
:1003800029F620C0887E0903205454794100004496
:100390007D413048484A32384040227A007A0A0A81
:1003A000727D0D19317D2629292F282629292926F4
:1003B00030484D4020380808080808080808382F39
:1003C00010C8ACBA2F102834FA00007B00000814C3
:1003D0002A142222142A1408AA005500AAAA55AAEF
:1003E00055AA000000FF00101010FF00141414FFA5
:1003F000001010FF00FF1010F010F0141414FC0097
:100400001414F700FF0000FF00FF1414F404FC14A0
:100410001417101F10101F101F1414141F00101099
:1004200010F0000000001F101010101F101010100E
:10043000F010000000FF101010101010101010FF2E
:1004400010000000FF140000FF00FF00001F101745
:100450000000FC04F414141710171414F404F4002E
:1004600000FF00F714141414141414F700F71414F4
:1004700014171410101F101F141414F4141010F07B
:1004800010F000001F101F0000001F14000000FCEF
:10049000140000F010F01010FF10FF141414FF14DB
:1004A0001010101F00000000F010FFFFFFFFFFF012
:1004B000F0F0F0F0FFFFFF0000000000FFFF0F0F63
:1004C0000F0F0F38444438447C2A2A3E147E02021F
:1004D0000606027E027E0263554941633844443C6D
:1004E00004407E201E2006027E020299A5E7A599FF
:1004F0001C2A492A1C4C7201724C304A4D4D303036
:1005000048784830BC625A463D3E494949007E0120
:1005100001017E2A2A2A2A2A44445F444440514A3F
:10052000444040444A51400000FF0103E080FF0086
:100530000008086B6B083612362436060F090F06C2
:10054000000018180000001010003040FF010100EA
:100550001F01011E00191D1712003C3C3C3C00000D
:1005600000000013018032118064260104B1020BE7
:1005700014C0020800C10105C5024130C701C1EC29
:10058000011B3A8155642A040000007F2B040000FF
:10059000009F3601C8B70100F20100E08F28242235
:1005A000312B0E53A5421618121A140332E18F177D
:1005B0001B1D0E14112CA53D09272D252B3C321394
:1005C000800A2980FF005EBCE2613FDD83C29C7E21
:1005D00020A3FD1F419DC3217FFCA2401E5F01E3BC
:1005E000BD3E6082DC237D9FC1421CFEA0E1BF5D59
:1005F0000380DE3C62BEE0025CDF81633D7C22C0A2
:100600009E1D43A1FF4618FAA427799BC584DA38BA
:1006100066E5BB5907DB856739BAE406581947A573
:10062000FB7826C49A653BD987045AB8E6A7F91B1C
:1006300045C6987A24F8A6441A99C7257B3A648659
:10064000D85B05E7B98CD2306EEDB3510F4E10F286
:10065000AC2F7193CD114FADF3702ECC92D38D6F23
:1006600031B2EC0E50AFF1134DCE90722C6D33D1F0
:100670008F0C52B0EE326C8ED0530DEFB1F0AE4C09
:100680001291CF2D73CA947628ABF517490856B44A
:10069000EA6937D58B5709EBB536688AD495CB29EB
:1006A00077F4AA4816E9B7550B88D6346A2B7597A4
:1006B000C94A14F6A8742AC896154BA9F7B6E80AD1
:1006C00054D7896B350000000800020100000304C4
:1006D0000700000000000000000102040810204094
:1006E0008001020408102001020408102004040400
:1006F00004040404040202020202020303030303CB
:10070000030000000023002600290000000000254F
:100710000028002B0000000000240027002A000011
:100720008A097B1911241FBECFEFD8E0DEBFCDBFF1
:1007300014E0A0E0B1E0E6E7F6E402C005900D9217
:10074000A232B107D9F726E0A2E2B4E001C01D92BF
:10075000A736B207E1F717E0C4E2D7E004C022975A
:10076000FE010E949E20C032D107C9F70E94D21D0F
:100770000C9439230C940000DC01ED91FC91019064
:10078000F081E02D099420E840E860E882E895E0F7
:100790000E94B90C61E082E895E00E949D0C20E087
:1007A00030E040E050E06FE071E082E895E00E94C8
:1007B000CD0C20E230E040E050E06EE171E082E8F4
:1007C00095E00E94CD0C20E330E040E050E06AE28A
:1007D00071E082E895E00E94CD0C20E330E047E62E
:1007E00050E068E371E082E895E00E94CD0C28E3D8
:1007F00030E040E050E06DE371E082E895E00E9477
:10080000CD0C28E330E047E650E068E371E082E891
:1008100095E00E94CD0C20E440E460E482E895E09D
:100820000E94B90C2AE430E040E050E068E471E056
:1008300082E895E00E94CD0C24E530E040E050E0F5
:100840006FE571E082E895E00E94CD0C2EE530E086
:1008500040E050E066E771E082E895E00E94CD0C50
:1008600028E630E040E050E06DE871E082E895E095
:100870000E94CD0C22E730E040E050E064EA71E0F5
:1008800082E895E00E94CD0C28E730E040E050E09F
:1008900065E373E082E895E00E94CD0C20E840E833
:1008A00060E882E895E00E94B90C62E082E895E099
:1008B0000E949D0C20E230E047E650E06BEB71E0D7
:1008C00082E895E00C94CD0CCF93DF93EC018A3055
:1008D000910530F460E370E086EC95E00E94BC0383
:1008E0004AE050E0BE0186EC95E0DF91CF910C9498
:1008F000BE1A26E040E855E260E070E086EC95E044
:100900000E94B7186FEB71E086EC95E00E94091A1F
:1009100063ED71E086EC95E00E94091A67EE71E0E4
:1009200086EC95E00E94091A86EC95E00E94051A73
:1009300064EF71E080E090E00E9488168FE695E019
:100940000E94B612882381F06CEF71E086EC95E08E
:100950000E94091A6BE272E086EC95E00E94091A87
:1009600086EC95E00E94051A0E94BD1281110AC012
:100970006DE572E086EC95E00E94091A86EC95E040
:100980000E94051A82E895E00E94B10920E040E04B
:1009900060E082E895E00E94AA0C0E94C30360ED2B
:1009A00077E080E090E00C948816AF92BF92CF92EF
:1009B000DF92EF92FF920F931F93CF93DF93CDB708
:1009C000DEB7C155D1090FB6F894DEBF0FBECDBF5B
:1009D00069E872E086EC95E00E94FC190E943E13E3
:1009E000AB01BC012AE030E086EC95E00E94DE1A03
:1009F0007E0185E1E80EF11CC7010E94D012811131
:100A00005AC065E972E086EC95E00E94FC198F8976
:100A100090E00E9464046AE370E086EC95E00E9436
:100A2000BC038E8990E00E9464046AE370E086EC67
:100A300095E00E94BC038D8990E00E9464046FE9F8
:100A400072E086EC95E00E94FC194AE050E0698D66
:100A500086EC95E00E94EB1A6FE270E086EC95E080
:100A60000E94BC034AE050E06A8D86EC95E00E944B
:100A7000EB1A6FE270E086EC95E00E94BC036B8D90
:100A800070E06E54784F4AE050E086EC95E00E94AA
:100A9000BE1A61EB72E086EC95E00E94FC194AE018
:100AA00050E0688D86EC95E00E94EB1A86EC95E0AC
:100AB0000E94051A10C06AEB72E086EC95E00E9475
:100AC000091A86EC95E00E94051A68E273E280E05C
:100AD00090E00E94881641E0BE01635F7F4F84E78B
:100AE00095E00E947215811115C06AEE72E086ECE5
:100AF00095E00E94091A86EC95E00E94051A84E7A9
:100B000095E00E943D156AEF70E080E090E00E9461
:100B10008816EEC36DEF72E086EC95E00E94FC193A
:100B20008E01035F1F4F60E270E086EC95E00E944B
:100B3000BC03F80161918F0140E150E086EC95E043
:100B40000E94EB1A0E151F0571F767E0CE010D9696
:100B50000E940F169C89891719F063E073E021C089
:100B600086EC95E00E94051A8D85823281F08832EC
:100B700059F08031A1F465E173E086EC95E00E94C4
:100B8000091ADD24D39412C066E273E002C067E361
:100B900073E086EC95E00E94091AD12C07C067E447
:100BA00073E086EC95E00E94091AA2C384E795E001
:100BB0000E941A14BE01635F7F4F84E795E00E9494
:100BC000151541E064E484E795E00E94B71468EEEF
:100BD00073E080E090E00E94881684E795E00E9430
:100BE0001A14182FBE01635F7F4F84E795E00E94BF
:100BF000151540E06EEB84E795E00E94B7146EE6B1
:100C000073E086EC95E00E94FC1940E150E0612F12
:100C100086EC95E00E94EB1A6DEB71E086EC95E0B6
:100C20000E94FC198E010F5F1F4F7E01FAE0EF0E4C
:100C3000F11CB02EC12E84E795E00E94F914682FB4
:100C4000F80181938F0140E150E086EC95E00E942D
:100C5000EB1A6DEB71E086EC95E00E94FC190E1525
:100C60001F0549F768E773E086EC95E00E94FC19E0
:100C700068E08B2D9C2D0E940F1640E150E0682FFC
:100C800086EC95E00E94EB1A86EC95E00E94051A2E
:100C90006A8170E0762F66278981682BDD2089F0D4
:100CA000E3E0660F771FEA95E1F788858031A9F4C4
:100CB0002F818CE090E0821B9109607F680F791F83
:100CC0000CC08D81807611F4687F07C0803211F4EA
:100CD0006C7F03C0803409F46E7F882777FD809590
:100CE000982F0E94E61E20E030E040E85DE30E947D
:100CF0009A1F6B017C016EE773E086EC95E00E9421
:100D0000FC1922E030E0B701A60186EC95E00E94D4
:100D1000DD1B6FE873E086EC95E00E94FC1926E687
:100D200036E646EE5FE3C701B6010E949A1F20E057
:100D300030E040E052E40E94E31DAB01BC0122E040
:100D400030E086EC95E00E94DD1B6AE973E086ECFA
:100D500095E00E94091AC701B6010E94B31E709364
:100D600073056093720541E050E086EC95E00E94C7
:100D7000C61A60917205709173054AE0CE01845BDA
:100D80009F4F0E94F91C20E030E043E050E06CE609
:100D900075E0CE01845B9F4F0E94A51D6B8D70E0B6
:100DA0006E54784F4AE0CE018A5B9F4F0E94F91C37
:100DB0001A8DBE016A5B7F4FCE014C960E94AB1C20
:100DC00069EB71E0CE014C960E947D1D612F0E945F
:100DD000971DBC01CE01805C9F4F0E94AB1CCE01D1
:100DE0004C960E94261C198DBE01605C7F4FCE017F
:100DF0004C960E94AB1C69EB71E0CE014C960E94B0
:100E00007D1D612F0E94971DBC01CE01CA960E94D4
:100E1000AB1CCE014C960E94261C4AE06F89CE0185
:100E2000C4960E94CC1C1E89BE016C5C7F4FCE0113
:100E30004C960E94AB1C66EA73E0CE014C960E9471
:100E40007D1D612F0E94971DBC01CE018E960E94D0
:100E5000AB1CCE014C960E94261C1D89BE01625D12
:100E60007F4FCE014C960E94AB1C66EA73E0CE0128
:100E70004C960E947D1D612F0E94971DBC01CE01E2
:100E800088960E94AB1CCE014C960E94261C20E046
:100E900030E04BE050E061E675E0CE01CA960E947A
:100EA000A51D20E030E049E050E068E575E0CE01A6
:100EB00088960E94A51D61E082E895E00E949D0C45
:100EC000298D30E080913A0590913B05281739072C
:100ED00071F120E040E060E082E895E00E94B90C0A
:100EE00028E030E040E050E067E475E082E895E01B
:100EF0000E94CD0C20E04FEF6FEF82E895E00E945A
:100F0000B90C28E030E040E050E061E675E082E8AE
:100F100095E00E94CD0C898D90E090933B058093E5
:100F20003A0561E675E087E495E00E94A1222D89EB
:100F300030E080913C0590913D052817390771F10B
:100F400020E040E060E082E895E00E94B90C28E0F3
:100F500030E042E450E06EE375E082E895E00E9404
:100F6000CD0C20E04FEF6FEF82E895E00E94B90CC6
:100F700028E030E042E450E068E575E082E895E082
:100F80000E94CD0C8D8990E090933D0580933C05A7
:100F900068E575E08EE395E00E94A12262E082E8B8
:100FA00095E00E949D0C209172053091730580910F
:100FB0007005909171052817390781F120E040E014
:100FC00060E082E895E00E94B90C20E230E04CE459
:100FD00050E062E575E082E895E00E94CD0C20E0EB
:100FE00040E06FEF82E895E00E94B90C20E230E02B
:100FF0004CE450E06CE675E082E895E00E94CD0C90
:10100000809172059091730590937105809370059E
:101010006CE675E082E595E00E94A12261E082E83D
:1010200095E00E949D0C80910A010E94F616909313
:10103000370480933604BC01882777FD8095982F6C
:101040001F921F921F922FE12F93A12CB12C6501AB
:10105000A394EE24EA9413E0F12E00E010E020E0E7
:1010600030E0A9010E94DF1B7093350460933404C3
:101070004AE0CE0182960E94F91C20E030E043E075
:1010800050E06FE274E0CE0182960E94A51D60914F
:101090003404709135047695762F66277795679599
:1010A0004AE0CE014C960E94F91C20E030E045E079
:1010B00050E067E274E0CE014C960E94A51D0F90AF
:1010C0000F900F900F90209134043091350480914F
:1010D0003204909133042817390709F44AC020E0FC
:1010E00040E060E082E895E00E94B90C20E330E047
:1010F00048E550E06CE274E082E895E00E94CD0C97
:1011000028E330E04CE450E062E274E082E895E0ED
:101110000E94CD0C2FEF40E060E082E895E00E9455
:10112000B90C20E330E048E550E06FE274E082E87B
:1011300095E00E94CD0C28E330E04CE450E067E2FB
:1011400074E082E895E00E94CD0C80913404909187
:10115000350490933304809332046FE274E08CE2A0
:1011600094E00E94A12267E274E082E294E00E948F
:10117000A1228E8990E020910C0130910D018217FF
:10118000930771F56CE271E080E090E00E948816B0
:10119000CE014C960E94261CCE0182960E94261CEF
:1011A000CE0188960E94261CCE018E960E94261C97
:1011B000CE01C4960E94261CCE01CA960E94261C0F
:1011C000CE01805C9F4F0E94261CCE018A5B9F4F00
:1011D0000E94261CCE01845B9F4F0E94261C88C063
:1011E00060913404709135040E941120892B51F6CE
:1011F00020E040E060E082E895E00E94B90C8FE7D3
:1012000090E090933904809338040FE710E06091E8
:1012100038047091390477FD18C0FB01EE0FFF1FF1
:10122000E65CFB4F80819181A801481B590B82E845
:1012300095E00E94E00C8091380490913904019768
:101240009093390480933804E2CF80E090E0E0E0AE
:10125000F0E03196DC01A65CBB4F12962D913C91DB
:1012600013972D933C930296EF37F10594F3EE0F0D
:10127000FF1FE65CFB4F809172059091730591838F
:1012800080838E8990E090930D0180930C018FE70D
:1012900090E090933904809338040FE710E0809138
:1012A00038049091390497FD6DCF20E040E06FEF56
:1012B00082E895E00E94B90C60913804709139047D
:1012C000FB01EE0FFF1FE65CFB4F80819181A801BF
:1012D000481B590B82E895E00E94E00C809138048D
:1012E0009091390401979093390480933804D7CFB3
:1012F000CF5ADF4F0FB6F894DEBF0FBECDBFDF91E0
:10130000CF911F910F91FF90EF90DF90CF90BF9002
:10131000AF90089529E048E06AE082E895E00E94F5
:101320009D0964E084E795E00E944F1527E046E0C0
:1013300065E08FE695E00C94C611CF93DF93EC0146
:101340000E944E0D8CEA93E09983888380EA90E0B6
:101350009987888780E890E09B878A87DF91CF9183
:101360000895CF93DF93EC010E944C0F61E0CE0112
:10137000DF91CF910C9460112F923F924F925F9228
:101380006F927F928F929F92AF92BF92CF92DF9295
:10139000EF92FF920F931F93CF93DF9300D000D073
:1013A000CDB7DEB74C017C836B836A015901C8015C
:1013B0008701AC014C195D0957FF03C05195419558
:1013C000510995016B817C81261B370B37FF03C0C8
:1013D00031952195310922242394312C2417350786
:1013E00014F0212C312C2114310459F03A2D2B2DDD
:1013F0005C01832F922F3B812C81DC82CB82C32E18
:10140000D22EAB81BC81AA16BB065CF43C2D2D2DDF
:101410006C01832F922F3B812C81BC82AB82A32E47
:10142000B22E2501EB81FC814E1A5F0A3C016C183B
:101430007D0877FE03C0719461947108720157FEB4
:1014400003C0FFEFEF1AFF0AF594E794C816D90618
:101450002CF421E030E03A83298324C06FEF7FEF42
:101460007A8369831FC0D401ED91FC910480F581DA
:10147000E02D980121143104D9F04B815C81B60133
:10148000C4010995E618F708F7FE06C0E981FA815C
:10149000CE0EDF1EE40CF51C2B813C812F5F3F4FED
:1014A0003C832B836B817C81A616B706E4F604C0CF
:1014B000A6016B817C81E4CF0F900F900F900F906D
:1014C000DF91CF911F910F91FF90EF90DF90CF9020
:1014D000BF90AF909F908F907F906F905F904F9054
:1014E0003F902F9008956F927F928F929F92AF922C
:1014F000BF92CF92DF92EF92FF920F931F93CF9301
:10150000DF93EC015B016A0139014801E881F9814F
:101510000284F385E02D87010995E881F981A60110
:10152000480D591D415051090284F385E02D930166
:10153000B501CE010995E881F9810084F185E02D9E
:101540009401A601B501CE010995E881F981B501A3
:10155000660D771D615071090084F185E02D9401BD
:10156000A601CE010995DF91CF911F910F91FF90B8
:10157000EF90DF90CF90BF90AF909F908F907F9033
:101580006F900895EF92FF920F931F93DC01ED91FE
:10159000FC91240F351F215031090680F781E02D81
:1015A000780189019B0109951F910F91FF90EF90A0
:1015B0000895EF92FF920F931F93DC01ED91FC9140
:1015C000260F371F215031090680F781E02D780161
:1015D0008A0109951F910F91FF90EF9008956F92E6
:1015E0007F928F929F92AF92BF92CF92DF92EF92B3
:1015F000FF920F931F93CF93DF935C014A01690120
:101600003801EB01C60ED71ECC15DD0574F4D501EB
:10161000ED91FC910084F185E02D87019301A401F7
:10162000BE01C50109952196EFCFDF91CF911F91A2
:101630000F91FF90EF90DF90CF90BF90AF909F9071
:101640008F907F906F900895EF92FF920F931F936A
:10165000DC01ED91FC9111971A960D911C911B974D
:1016600018962D913C9119970684F785E02D7B0102
:1016700040E050E060E070E009951F910F91FF900D
:10168000EF90089508954C7F38E0439FC0011124E6
:1016900030E073E0359527957A95E1F7822B932B0F
:1016A000687F962B0895FC011382128286EC93E0EA
:1016B00091838083758364835783468371876087B2
:1016C00053874287158A158614861786168621E069
:1016D000248B8FEF9FEF938B828B918B808B268B4C
:1016E00008952F923F924F925F926F927F928F92C6
:1016F0009F92AF92BF92CF92DF92EF92FF920F93A1
:101700001F93CF93DF93CDB7DEB72C970FB6F89426
:10171000DEBF0FBECDBF9C878B873A0118870F8332
:10172000FA86E986CD82DC0118968D919C911997F5
:10173000681779070CF094C01A968D919C911B97AD
:10174000481759070CF08CC08C2C912CCB01B6E0BB
:10175000CB9E800D911D1124181619060CF080C027
:10176000C40113E0880F991F1A95E1F7840F951FA4
:10177000181619060CF074C0F5E02F9F20011124F3
:101780005B016B011C82920128593F4F2901461AC7
:10179000570A3C81353031F0F201EA0DFB1D4491CE
:1017A0004B8301C01B827A82698213011E828B8166
:1017B00080FF13C0AB85BC85ED91FC91BD81B1303C
:1017C00031F40480F581E02D2F81388519C006841D
:1017D000F785E02DEF80F8841EC0E985FA852F811A
:1017E0003885E217F307F9F0AB85BC85ED91FC91E4
:1017F000BD81B13059F40480F581E02D29853A8509
:10180000A101B5018B859C8509950DC00684F785DE
:10181000E02DE984FA848401940149815A81B6015A
:101820008B859C850995EB81E695EB83FE81FF5FB7
:10183000FE8329813A81280D391D3A8329833FEFA0
:10184000231A330AF83009F0B2CF4C814F5F4C8332
:10185000C80CD91C8FEFA81AB80A463009F099CFE6
:101860002C960FB6F894DEBF0FBECDBFDF91CF919F
:101870001F910F91FF90EF90DF90CF90BF90AF90AE
:101880009F908F907F906F905F904F903F902F90A0
:101890000895CF92EF92FF920F931F93CF93DF9310
:1018A000EC01262F6A3049F42C898E859F8538E01B
:1018B000239F800D911D112432C06D30A1F1EA8863
:1018C000FB88088919894E855F856C857D85CC8864
:1018D0000E94710B2C89422F50E08C859D8536E04B
:1018E000239F800D911D11249D878C872E89222393
:1018F000D1F06AEF64039001659F300D1124688573
:101900007985260F371F281739076CF403E0440F39
:10191000551F0A95E1F78E859F85840F951F9F8738
:101920008E871D861C8681E090E0DF91CF911F910C
:101930000F91FF90EF90CF900895611101C061E089
:10194000FC01648B0895DC01ED91FC910088F18924
:10195000E02D0994CF93DF93EC01E881F9810488AD
:10196000F589E02D0995BC01CE01DF91CF910C9452
:10197000A30CCF93DF93EC01E881F9810488F5890A
:10198000E02D099521E0298F988F8F8B998B888B7B
:101990009B8B8A8BDF91CF910895FC01818D8823E9
:1019A00071F0168A8789908D918B808B938B828BB7
:1019B0005587448737872687CF010C94FC190895F3
:1019C000DC0159962C915997222359F0ED91FC9105
:1019D000119757962D913C9158970480F581E02DF1
:1019E00009940895EF92FF920F931F93DC01ED91FC
:1019F000FC9111971A960D911C911B9718962D9199
:101A00003C9119970684F785E02D7B0140E050E07A
:101A100060E070E009951F910F91FF90EF9008959D
:101A20002091B805222399F03FB7F8942091B8058A
:101A3000213059F42DB32093B6054DB32091B7054D
:101A4000209524232DBB3FBF02C03093B6058CBD2B
:101A50009DBD08958091B805882361F09FB7F894E3
:101A60002091B8058091B605213019F48DBB9FBF38
:101A700008958FBF08959C01207E3770AC01542FCC
:101A80004427550F550F550F242B352B892F992798
:101A9000869586958695822B932B0895EF92FF92DB
:101AA0000F931F93CF93DF931F92CDB7DEB77C01C7
:101AB000062F142F40EA50E060E870E029830E946E
:101AC000530B80EE93E0F7019183808380E5878F4D
:101AD00010A201A712A7298123A781E0868F15A64E
:101AE00014A60F90DF91CF911F910F91FF90EF906F
:101AF0000895FC01868D882339F06EBD00000DB479
:101B000007FEFDCF8EB5089588E090E030E8A1A1F2
:101B1000B2A126A5432F462321F04C91422B4C9392
:101B200004C04C91209524232C93A3A1B4A12C9103
:101B300047A5242B2C93A3A1B4A14C9127A52095B4
:101B400024232C933695019711F708950F931F9333
:101B5000CF93DF931F92CDB7DEB78C01DC015E9689
:101B60008C915E97882341F05F968D919C91909720
:101B700069830E94100D6981D8019796ED91FC91BF
:101B800098979081D1968C91D19780958923808365
:101B90009596ED91FC9196979081D0968C91809539
:101BA00089238083C8010E94790DD8019596ED9113
:101BB000FC9196978081D0969C91D097892B8083B9
:101BC0005E968C91882339F00F90DF91CF911F9111
:101BD0000F910C942A0D0F90DF91CF911F910F91CF
:101BE0000895662311F061E201C060E20C94A60D35
:101BF0000F931F93CF93DF931F92CDB7DEB78C0166
:101C0000DC015E968C915E97882341F05F968D9102
:101C10009C91909769830E94100D6981D8019796D5
:101C2000ED91FC9198978081D1969C91D197892BC9
:101C300080839596ED91FC9196979081D0968C91AA
:101C4000809589238083C8010E94790DD8019596DB
:101C5000ED91FC9196978081D0969C91D097892B9D
:101C600080835E968C91882339F00F90DF91CF911D
:101C70001F910F910C942A0D0F90DF91CF911F911E
:101C80000F910895AF92BF92CF92DF92EF92FF92A1
:101C90000F931F93CF93DF937C01EB012196FB0100
:101CA000B490BB2009F435C0FE016491C7010E94C5
:101CB000A60D6E01F2E0CF0ED11CFE013196C4914B
:101CC0008C2F8078A82ECF778601DC2FDC0DD017E3
:101CD00041F0F8016491C7010E94F80D0F5F1F4F9A
:101CE000F6CFC6018C0F911DEC01AA2081F08C016A
:101CF0000F5F1F4FFC01649170E06F3F710511F49D
:101D000064EF71E080E090E00E948816E801BA94E8
:101D1000C8CFDF91CF911F910F91FF90EF90DF908F
:101D2000CF90BF90AF9008950F931F93CF93DF9301
:101D3000EC018B011BAA1AAA61E08AA50E943C173C
:101D400061E089A50E943C1789A590E0FC01E35160
:101D5000F94FE491F0E0EE0FFF1FE55FF84F25919A
:101D600034913EA32DA3FC01E752F94F849188AB37
:101D70008AA590E0FC01E351F94FE491F0E0EE0F09
:101D8000FF1FE55FF84F2591349138A72FA3FC0181
:101D9000E752F94F849189AB8E8D882331F00E94F0
:101DA000901180E58F8F18A23CC061E08DA50E9444
:101DB0003C1761E08CA50E943C178DA590E0FC01CA
:101DC000E351F94FE491F0E0EE0FFF1FE55FF84FAC
:101DD000A591B491BCA3ABA3FC01E752F94F849148
:101DE0008FA78CA590E0FC01E351F94FE491F0E05E
:101DF000EE0FFF1FE55FF84F259134913AA329A319
:101E0000FC01E752F94F84918EA78C919FA5909584
:101E100089238C93E9A1FAA190818EA580958923CD
:101E20008083EDA1FEA1908188A98095892380837C
:101E30008BA5882309F161E00E943C1761E08BA526
:101E40000E94751764EF71E080E090E00E948816B0
:101E500060E08BA50E94751764EF71E080E090E070
:101E60000E94881661E08BA50E94751764EF71E0EF
:101E700080E090E00E9488160115110541F0B8013C
:101E8000CE01DF91CF911F910F910C94420EDF9103
:101E9000CF911F910F91089563E675E00C94940E15
:101EA000EF92FF920F931F93CF93DF9300D0CDB7A4
:101EB000DEB77C01162F6AE229834A830E94A60DB1
:101EC00060E0C7010E94F80DF70162A9610FC70128
:101ED0000E94F80D60E0C7010E94F80DF70162A9A9
:101EE0002981620FC7010E94F80D6BE2C7010E94B1
:101EF000A60D60E0C7010E94F80DF70163A94A81B1
:101F0000640FC7010E94F80D60E0C7010E94F80D40
:101F1000F70163A9600FC7010E94F80D6CE2C701C9
:101F20000F900F90DF91CF911F910F91FF90EF9045
:101F30000C94A60DFF920F931F93CF93DF93EC01A8
:101F4000122FF32E77FD48C0A885B9856A177B0745
:101F50000CF042C057FD40C0AA85BB854A175B07FD
:101F6000DCF501E0040F21E0260F0E94500F8E8D5A
:101F7000882321F08F8D98A10E94100DEFA1F8A564
:101F8000808199A9892B8083EDA1FEA1808148A938
:101F90004095482340838D8D823031F4812F9F2DD1
:101FA0000E943B0D182FF92E6F2DCE010E94790D46
:101FB000612FCE010E94790DEDA1FEA1808198A92B
:101FC000892B80838E8D882339F0DF91CF911F91EB
:101FD0000F91FF900C942A0DDF91CF911F910F91DB
:101FE000FF900895DF92EF92FF920F931F93CF938C
:101FF000DF93EC017901D02E8885998568177907E0
:102000000CF054C02A853B85421753070CF04EC094
:10201000CA018E0D9F1D281739071CF47901E41A97
:10202000F50A0FEF040F0E0D262FCE010E94500F60
:102030008D8D823031F48D2D912F0E943B0DD82E45
:10204000192F8E8D882321F08F8D98A10E94100D5D
:10205000EFA1F8A5808199A9892B8083EDA1FEA12C
:10206000908188A9809589238083E114F10461F02F
:10207000612FCE010E94790D6D2DCE010E94790D48
:1020800081E0E81AF108F1CFEDA1FEA1808198A9C5
:10209000892B80838E8D882349F0DF91CF911F910A
:1020A0000F91FF90EF90DF900C942A0DDF91CF916C
:1020B0001F910F91FF90EF90DF900895DF92EF92C4
:1020C000FF920F931F93CF93DF93EC017901D02EF2
:1020D00028853985621773070CF054C08A859B8563
:1020E000481759070CF04EC0CB018E0D9F1D2817C5
:1020F00039071CF47901E61AF70A2FEF260F2E0D87
:10210000042FCE010E94500F8D8D823031F48D2D21
:10211000912F0E943B0DD82E192F8E8D882321F0F0
:102120008F8D98A10E94100DEFA1F8A5808199A92B
:10213000892B8083EDA1FEA1908188A980958923B8
:102140008083E114F10461F0612FCE010E94790DCA
:102150006D2DCE010E94790D81E0E81AF108F1CFD2
:10216000EDA1FEA1808198A9892B80838E8D882383
:1021700049F0DF91CF911F910F91FF90EF90DF9089
:102180000C942A0DDF91CF911F910F91FF90EF904A
:10219000DF9008956F927F928F929F92AF92BF923D
:1021A000CF92DF92EF92FF920F931F93CF93DF9323
:1021B000EC016B015A014901380128853985621704
:1021C00073070CF06EC08A859B85481759070CF081
:1021D00068C0AB01480D591D241735071CF449018F
:1021E000861A970A9501260D371D821793071CF44E
:1021F0003C016A187B088D8D823021F4C7010E9452
:102200003B0D7C010FEF0A0D060D2FEF2C0D280D55
:102210004A2D6C2DCE010E94500F8E8D882321F007
:102220008F8D98A10E94100DEFA1F8A5808199A92A
:10223000892B8083EDA1FEA1908188A980958923B7
:10224000808316141704A4F464011C141D0464F4A0
:102250006F2DCE010E94790D6E2DCE010E94790D59
:1022600081E0C81AD108F1CF81E0681A7108E9CF7E
:10227000EDA1FEA1808198A9892B80838E8D882372
:1022800081F0DF91CF911F910F91FF90EF90DF9040
:10229000CF90BF90AF909F908F907F906F900C9455
:1022A0002A0DDF91CF911F910F91FF90EF90DF905A
:1022B000CF90BF90AF909F908F907F906F90089538
:1022C0001F93CF93DF93EC01162F66E30E94A60DB8
:1022D000612F63706D8B623041F0633089F0613043
:1022E00011F068EC03C068EA0CC068E0CE010E94FF
:1022F000F80D80E890E09987888780EA90E00AC02E
:1023000068E6CE010E94F80D80EA90E09987888700
:1023100080E890E09B878A87DF91CF911F91089595
:10232000CF93CFB7F8948091B905811127C0E7EF1B
:10233000F6E08491E3EEF6E09491E82FF0E0EE0F02
:10234000FF1FEB5EF84FA591B4918C91892321F486
:1023500061E08AE00E94751761E08AE00E943C1704
:102360008CB580618CBD8CB580648CBD61E08DE0E6
:102370000E943C1761E08BE00E943C178091B905F8
:102380008F5F8093B905CFBFCF9108956093BC054F
:102390004093BB052093BA05089560E08091BC0589
:1023A0000E94751761E08091BC050E943C1760E0B7
:1023B0008091BA050E94751761E08091BA050E946C
:1023C0003C1761E08091BB050E943C1761E0809161
:1023D000BC050E94751784E090E00C94B01660E094
:1023E0008091BC050E94751784E090E00C94B016B3
:1023F000CF92DF92EF92FF921F93CF93DF9360E033
:102400008091BB050E943C17C0E0D0E010E0C12CD9
:10241000D12C7601C3948091BB050E94AB17B70104
:10242000A601892B51F00C2E04C0440F551F661FC6
:10243000771F0A94D2F7142B0AC00C2E04C0440F45
:10244000551F661F771F0A94D2F74095142361E049
:102450008091BA050E94751781E090E00E94B01645
:1024600060E08091BA050E94751781E090E00E94BB
:10247000B0162196C830D10571F6812FDF91CF912A
:102480001F91FF90EF90DF90CF9008950F931F93CF
:10249000CF93DF93C0E0D0E0082F10E0B8010C2EFE
:1024A00002C0759567950A94E2F761708091BB054B
:1024B0000E94751781E090E00E94B01661E0809163
:1024C000BA050E94751781E090E00E94B01660E0A6
:1024D0008091BA050E94751781E090E00E94B016C5
:1024E0002196C830D105D1F6DF91CF911F910F9180
:1024F0000895EF92FF920F931F93CF93DF931F9254
:10250000CDB7DEB7182F99830E94CD118FEB0E94B3
:102510004612E12E9981F92E8701085F1F4F0E9414
:10252000F811F70181937F01E017F107C1F70F90D0
:10253000DF91CF911F910F91FF90EF900C94EF11CD
:10254000CF93DF931F92CDB7DEB789830E94CD1161
:10255000898181600E9446120E94F81189830E943D
:10256000EF1189810F90DF91CF91089580E80E944B
:10257000A012881F8827881F08958EE80E94A01245
:10258000982F9095991F9927991F892F0895982F13
:1025900092959F708F702AE0929F800D112408956C
:1025A000BF92CF92DF92EF92FF920F931F93CF9340
:1025B000DF93CDB7DEB729970FB6F894DEBF0FBE15
:1025C000CDBF8C01CE0101960E94791289818F774F
:1025D0000E94C712B82EF80180838A818F770E94EB
:1025E000C712C82EF80181838B818F730E94C71296
:1025F000D82EF80182838C818F730E94C712E82E37
:10260000F80184838D818F710E94C712F82EF80122
:1026100085839E81977093838F8199870E94C712CB
:102620002EE1280FF80126839985FBE3FB15A8F01E
:10263000FC1598F087E18D1580F08FEF8E0D8F31AE
:1026400060F48FEF8F0D8C3040F4915081E0973023
:1026500028F4243618F480E001C081E029960FB6F2
:10266000F894DEBF0FBECDBFDF91CF911F910F91C8
:10267000FF90EF90DF90CF90BF900895CF93DF93BE
:10268000CDB7DEB727970FB6F894DEBF0FBECDBF2C
:10269000CE0101960E94D012811105C0CE01019693
:1026A0000E945F1303C060E070E0CB0127960FB675
:1026B000F894DEBF0FBECDBFDF91CF9108956F922A
:1026C0007F928F929F92AF92BF92CF92DF92EF92C2
:1026D000FF920F931F93CF93DF93FC01C680AC2D25
:1026E000B0E020E833E341EE51E00E9475204B0159
:1026F0005C0122EB37E06D01C4E6D0E000E911E0B7
:10270000C901825B97408C159D05DCF4C90183707B
:102710009927892B99F4C901BE010E941120892BA8
:1027200031F4C901B8010E941120892B39F480E8E5
:10273000880E81E5981E81E0A81EB11C2F5F3F4FD7
:10274000DFCF6580712C8EE4C81A88EFD80AC601E5
:1027500064E670E00E9411208C01C60160E971E01E
:102760000E9411207C01C1E0D0E083E0C822DD247A
:10277000C615D7052CF5C230D10589F4C114D10492
:1027800071F40115110519F4E114F10441F480E824
:10279000880E8BE3981E86E2A81EB11C0FC0DE01D6
:1027A000AB50BC4FAC91B0E020E831E541E050E0E7
:1027B0000E947520860E971EA81EB91E2196D8CF9E
:1027C0004181228130E0A0E1BEE00E9466206B01E1
:1027D0007C01242F30E0ACE3B0E00E946620C60EFE
:1027E000D71EE81EF91E8081C80ED11CE11CF11C09
:1027F000A481B0E0119720E831E541E050E00E946B
:102800008020C60ED71EE81EF91EC80CD91CEA1C73
:10281000FB1CC701B601DF91CF911F910F91FF9073
:10282000EF90DF90CF90BF90AF909F908F907F9070
:102830006F900895FF920F931F93CF93DF93FC0146
:102840000081C181D281F8948981F02EF0948F218A
:10285000898378941DE7115029F182E090E00E946D
:10286000B01688818023B9F3F8948A818F218A83F6
:102870008981802B8983789480EE91E00E94B01644
:10288000F89489818F21898386E490E00E94B016B4
:102890008881802311E009F010E078948AE991E0C2
:1028A0000E94B016812FDF91CF911F910F91FF9061
:1028B00008951F93CF93DF93FC011081C181D281D2
:1028C000912F909560FF12C0F8948A8189238A83A2
:1028D0008981812B89838AE090E00E94B0168A81E9
:1028E000812B8A83789487E390E011C0F8948A81E1
:1028F00089238A838981812B898381E490E00E94E6
:10290000B0168A81812B8A83789485E090E0DF91EC
:10291000CF911F910C94B0160F931F93CF93DF9319
:10292000FC011081C181D281F8948981812B898336
:102930008A81012F009580238A8383E090E00E94A2
:10294000B0168981802389838AE090E00E94B016C6
:10295000C881789485E390E00E94B0161C2381E042
:1029600009F480E0DF91CF911F910F910895CF92EC
:10297000DF92EF92FF920F931F93CF93DF931F92FB
:10298000CDB7DEB76C01E62E08E010E0FF24F3942B
:1029900061E09F2D9E2109F460E0C60149830E94F9
:1029A0005914FF0C0150110949810115110581F7D6
:1029B000411115C0F894D6011196ED91FC91129732
:1029C00091818C918095892381831196ED91FC9161
:1029D000129792818C9180958923828378940F90AD
:1029E000DF91CF911F910F91FF90EF90DF90CF90EB
:1029F0000895EF92FF920F931F93CF93DF938C0173
:102A0000C8E0D0E0F12CEE24E394C8010E948C14BD
:102A10008111FE28EE0C2197C1F78F2DDF91CF9108
:102A20001F910F91FF90EF900895CF92DF92FF9248
:102A30000F931F93CF93DF931F92CDB7DEB78C0117
:102A4000F62E40E065E579830E94B714CF2C79819A
:102A5000D72E88E0F82EF60161916F0140E0C801A1
:102A60000E94B714FA94B9F70F90DF91CF911F919C
:102A70000F91FF90DF90CF900895FC01138615868B
:102A8000148627E030E0DF01A20FB31F13961C92DB
:102A90002115310519F021503109F5CF08951F9303
:102AA000CF93DF93EC01162F60E0812F0E943C173B
:102AB000612F70E0FB01E752F94FE491E883FB01DD
:102AC000E351F94FE491F0E0EE0FFF1FEF5FF84F95
:102AD000859194919A838983CE01DF91CF911F9143
:102AE0000C943D15AF92BF92CF92DF92EF92FF927E
:102AF0000F931F93CF93DF931F92CDB7DEB75C0187
:102B0000D62EE72EFC018585811164C0C50149835D
:102B10000E941A144981811105C0F501138615869A
:102B2000148671C0442319F040E060EF02C040E019
:102B30006CEEC5010E94B71401E0F12CC12C11E02C
:102B4000C5010E948C14682FC50169830E948C14F2
:102B50006981613019F48130B9F433C02F2D30E030
:102B600068131BC0F5018385181730F4E20FF31FBB
:102B70008381802349F402C0181731F060E01930D6
:102B800058F4F501148708C0F501EF0DF11D83819C
:102B9000802B838361E009C0C12EF501E20FF31F92
:102BA0008381902F909589238383C5010E945914B6
:102BB0001F5F000F11F4F39401E0F7E0FF1508F038
:102BC000BFCF113438F0F501C386C11009C081E0D0
:102BD000858706C0F50113861586148680E013C02C
:102BE000F50183818823B1F3ED2DFE2D80E090E087
:102BF000D501A80FB91F13962C9121930196883007
:102C00009105B1F781E00F90DF91CF911F910F9166
:102C1000FF90EF90DF90CF90BF90AF900895DC01D0
:102C200080E0615038F0ED91E827F0E0EB53FA4F87
:102C30008491F7CF08951F920F920FB60F9211242F
:102C40002F933F938F939F93AF93BF938091BE0534
:102C50009091BF05A091C005B091C1053091BD050F
:102C600023E0230F2D3720F40196A11DB11D05C0CF
:102C700026E8230F0296A11DB11D2093BD05809368
:102C8000BE059093BF05A093C005B093C105809188
:102C9000C2059091C305A091C405B091C5050196E8
:102CA000A11DB11D8093C2059093C305A093C405D7
:102CB000B093C505BF91AF919F918F913F912F9197
:102CC0000F900FBE0F901F9018953FB7F89480910A
:102CD000C2059091C305A091C405B091C50526B564
:102CE000A89B05C02F3F19F00196A11DB11D3FBF44
:102CF0006627782F892F9A2F620F711D811D911DD4
:102D000042E0660F771F881F991F4A95D1F70895F3
:102D1000CF92DF92EF92FF92CF93DF936B017C0112
:102D20000E946516EB01C114D104E104F10489F09D
:102D30000E94E11D0E9465166C1B7D0B683E73406E
:102D400090F381E0C81AD108E108F108C851DC4FBE
:102D5000EACFDF91CF91FF90EF90DF90CF90089571
:102D60008230910538F0880F991F880F991F0597B9
:102D70000197F1F70895789484B5826084BD84B595
:102D8000816084BD85B5826085BD85B5816085BD66
:102D9000EEE6F0E0808181608083E1E8F0E010827F
:102DA000808182608083808181608083E0E8F0E0C0
:102DB000808181608083E1EBF0E0808184608083AA
:102DC000E0EBF0E0808181608083EAE7F0E08081E1
:102DD0008460808380818260808380818160808341
:102DE0008081806880831092C10008958E3008F041
:102DF0008E50877020910E0190E4299F900111243C
:102E0000822B80937C0080917A00806480937A008A
:102E100080917A0086FDFCCF809178002091790026
:102E200090E0922B0895833081F028F4813099F05E
:102E30008230A1F008958730A9F08830B9F084304D
:102E4000D1F4809180008F7D03C0809180008F77C6
:102E500080938000089584B58F7702C084B58F7DFC
:102E600084BD08958091B0008F7703C08091B00039
:102E70008F7D8093B0000895CF93DF9390E0FC01A5
:102E8000E752F94F2491FC01E351F94F84918823D3
:102E900049F190E0880F991FFC01EB5EF84FA59176
:102EA000B491855F984FFC01C591D4919FB7611192
:102EB00008C0F8948C91209582238C93888182237A
:102EC0000AC0623051F4F8948C91322F30958323EC
:102ED0008C938881822B888304C0F8948C91822BF8
:102EE0008C939FBFDF91CF9108950F931F93CF9342
:102EF000DF931F92CDB7DEB7282F30E0F901EB53F7
:102F0000F94F8491F901E752F94F1491F901E35116
:102F1000F94F04910023C9F0882321F069830E94AE
:102F200013176981E02FF0E0EE0FFF1FE55FF84F08
:102F3000A591B4919FB7F8948C91611103C010953D
:102F4000812301C0812B8C939FBF0F90DF91CF9184
:102F50001F910F910895CF93DF93282F30E0F9014F
:102F6000EB53F94F8491F901E752F94FD491F901EC
:102F7000E351F94FC491CC2391F081110E941317B2
:102F8000EC2FF0E0EE0FFF1FEF5FF84FA591B4912B
:102F90002C912D2381E090E021F480E002C080E0BC
:102FA00090E0DF91CF910895FC01818D228D90E01A
:102FB000805C9F4F821B91098F7399270895FC01B4
:102FC000918D828D981731F0828DE80FF11D858DDE
:102FD00090E008958FEF9FEF0895FC01918D828D11
:102FE000981761F0828DDF01A80FB11D5D968C915D
:102FF000928D9F5F9F73928F90E008958FEF9FEF68
:10300000089581E799E1892B49F080E090E0892BD0
:1030100029F00E94711981110C9400000895FC019F
:10302000848DDF01A80FB11DA35ABF4F2C91848D51
:1030300090E001968F739927848FA689B7892C9386
:10304000A089B1898C9180648C93938D848D981321
:1030500006C00288F389E02D80818F7D80830895EA
:10306000CF93DF93EC01888D8823C9F0EA89FB892F
:10307000808185FD05C0A889B9898C9186FD0FC026
:103080000FB607FCF5CF808185FFF2CFA889B989FB
:103090008C9185FFEDCFCE010E940F18E7CFDF9115
:1030A000CF910895CF92DF92FF920F931F93CF930A
:1030B000DF931F92CDB7DEB76C0181E0D601589641
:1030C0008C9358975B969C915B975C968C915C97E0
:1030D000981307C05096ED91FC915197808185FD22
:1030E0002EC0F601038D10E00F5F1F4F0F731127E5
:1030F000F02EF601848DF81211C00FB607FCF9CF3F
:10310000D6015096ED91FC915197808185FFF1CFCA
:10311000C60169830E940F186981EBCF838DE80F88
:10312000F11DE35AFF4F6083D6015B960C935B97CA
:103130005296ED91FC915397808180620CC0D6012C
:103140005696ED91FC91579760835096ED91FC91C6
:10315000519780818064808381E090E00F90DF91BF
:10316000CF911F910F91FF90DF90CF900895BF9264
:10317000CF92DF92EF92FF92CF93DF93EC016A013F
:103180007B01B22EE889F98982E08083411581EEC6
:10319000580761057105A1F060E079E08DE390E0EA
:1031A000A70196010E9425202150310941095109AA
:1031B0005695479537952795211580E1380798F062
:1031C000E889F989108260E874E88EE190E0A7014F
:1031D00096010E9425202150310941095109569537
:1031E000479537952795EC85FD853083EE85FF85DE
:1031F0002083188EEC89FD89B082EA89FB89808161
:1032000080618083EA89FB89808188608083EA8984
:10321000FB89808180688083EA89FB8980818F7D3A
:103220008083DF91CF91FF90EF90DF90CF90BF90A0
:1032300008951F920F920FB60F9211242F938F9320
:103240009F93EF93FF93E091D605F091D70580818E
:10325000E091DC05F091DD0582FD12C09081809146
:10326000DF058F5F8F732091E005821751F0E091A9
:10327000DF05F0E0EA53FA4F958F8093DF0501C038
:103280008081FF91EF919F918F912F910F900FBEB1
:103290000F901F9018951F920F920FB60F92112446
:1032A0002F933F934F935F936F937F938F939F934E
:1032B000AF93BF93EF93FF9386EC95E00E940F18B6
:1032C000FF91EF91BF91AF919F918F917F916F91FE
:1032D0005F914F913F912F910F900FBE0F901F90D4
:1032E000189586EC95E00E94D41721E0892B09F40B
:1032F00020E0822F08951092C9051092C80588EE2B
:1033000093E0A0E0B0E08093CA059093CB05A09332
:10331000CC05B093CD0586E094E09093C7058093EB
:10332000C60585EC90E09093D3058093D20584EC9C
:1033300090E09093D5058093D40580EC90E0909335
:10334000D7058093D60581EC90E09093D9058093C2
:10335000D80582EC90E09093DB058093DA0586EC4B
:1033600090E09093DD058093DC051092DF051092CC
:10337000E0051092E1051092E2050895CF92DF92E8
:10338000EF92FF920F931F93CF93DF937C016A011B
:10339000EB0100E010E00C151D0571F06991D701FB
:1033A000ED91FC910190F081E02DC7010995892BE9
:1033B00019F00F5F1F4FEFCFC801DF91CF911F9121
:1033C0000F91FF90EF90DF90CF90089561157105F8
:1033D00081F0DB010D900020E9F7AD01415051096A
:1033E000461B570BDC01ED91FC910280F381E02D2F
:1033F000099480E090E008950C94E619DC01ED91C9
:10340000FC910190F081E02D099462E174E00C944C
:10341000E6190F931F93CF93DF93EC010E94E619F7
:103420008C01CE010E94051A800F911FDF91CF9170
:103430001F910F9108958F929F92AF92BF92CF925A
:10344000DF92EF92FF920F931F93CF93DF93CDB74D
:10345000DEB7A1970FB6F894DEBF0FBECDBF7C01DB
:10346000C42EE52FCB01D22E19A221E02D1510F08C
:103470002AE0D22E8E010F5D1F4F8D2C912CA12C96
:10348000B12C6C2D7E2FA50194010E9425208C2D3E
:10349000D29E80191124015011098A3014F4805DE4
:1034A00001C0895CF8018083211531054105510572
:1034B00021F0C22EE32FCA01E4CFB801C7010E9458
:1034C000E619A1960FB6F894DEBF0FBECDBFDF910F
:1034D000CF911F910F91FF90EF90DF90CF90BF9011
:1034E000AF909F908F900895CF92DF92EF92FF92CE
:1034F0000F931F93CF93DF93EC016A017B0121159A
:10350000310579F4E881F9810190F081E02D642F93
:10351000DF91CF911F910F91FF90EF90DF90CF90AF
:1035200009942A303105E9F477FF1AC06DE20E9450
:10353000FE198C0144275527BA014C195D096E0903
:103540007F092AE0CE010E941B1A800F911FDF9194
:10355000CF911F910F91FF90EF90DF90CF90089542
:103560002AE0B701A601CE01DF91CF911F910F9103
:10357000FF90EF90DF90CF900C941B1A9A01AB0153
:10358000662757FD6095762F0C94741A0F931F933E
:10359000CF93DF93EC019A01AB01662757FD60954D
:1035A000762F0E94741A8C01CE010E94051A800F9A
:1035B000911FDF91CF911F910F9108952115310532
:1035C00041F4DC01ED91FC910190F081E02D642F3C
:1035D00009940C941B1A9A01462F50E060E070E0A9
:1035E0000C94DE1A4F925F926F927F928F929F920D
:1035F000AF92BF92CF92DF92EF92FF920F931F9301
:10360000CF93DF93EC016A017B01B22E9A01AB01EB
:10361000C701B6010E94FD1F882319F065E174E01F
:1036200027C026013701E89477F82FEF3FEF4FE7E7
:103630005FE7C301B2010E94FD1F81110DC02FEF92
:103640003FEF4FE75FE7C301B2010E94471E181624
:103650001CF469E174E00CC02FEF3FEF4FE75FE42B
:10366000C701B6010E94961F1816ACF46DE174E014
:10367000CE01DF91CF911F910F91FF90EF90DF90DE
:10368000CF90BF90AF909F908F907F906F905F9002
:103690004F900C94E6192FEF3FEF4FE75FECC70117
:1036A000B6010E94471E87FDE1CF20E030E0A9016E
:1036B000C701B6010E94471E87FF0AC06DE2CE0116
:1036C0000E94FE198C01F7FAF094F7F8F09402C00A
:1036D00000E010E0A12C60E070E080E09FE3AB141C
:1036E00041F020E030E040E251E40E944B1EA39400
:1036F000F6CF9B01AC01C701B6010E94E31D6B012F
:103700007C010E94B81E2B013C010E94E41E9B011B
:10371000AC01C701B6010E94E21D6B017C012AE0E9
:10372000B301A201CE010E941B1A080F191FBB2072
:1037300039F06CE673E0CE010E94E619080F191FFC
:103740007B2C772041F120E030E040E251E4C701DA
:10375000B6010E949A1F6B017C010E94B31E4B01AF
:10376000AA2497FCA094BA2C2AE030E0B501A40169
:10377000CE010E94741A080F191FC501B4010E94DE
:10378000E61E9B01AC01C701B6010E94E21D6B0160
:103790007C017A94D6CFC801DF91CF911F910F9110
:1037A000FF90EF90DF90CF90BF90AF909F908F9061
:1037B0007F906F905F904F9008950C94F21A4F9203
:1037C0005F926F927F92AF92BF92CF92DF92EF9211
:1037D000FF920F931F93CF93DF93CDB7DEB72901ED
:1037E0003A01621B730B840B950B29893A894B892B
:1037F0005C892A193B094C095D09298B3A8B4B8B53
:103800005C8B9B01AC0169897A898B899C890E94B8
:103810000120E418F50806091709A80197010E947C
:1038200047202A0D3B1D4C1D5D1DCA01B901DF91CA
:10383000CF911F910F91FF90EF90DF90CF90BF90AD
:10384000AF907F906F905F904F900895FC018081C2
:1038500091810C943A21CF93DF93EC018881998177
:10386000009711F00E943A21198218821D821C8251
:103870001B821A82DF91CF9108950F931F93CF93EC
:10388000DF93EC018B016F5F7F4F888199810E94EC
:10389000C921009731F0998388831B830A8381E0D3
:1038A00001C080E0DF91CF911F910F910895CF93D8
:1038B000DF93EC0188819981892B29F08A819B8192
:1038C0008617970760F4CE010E943D1C882341F0C3
:1038D0008C819D81892B19F4E881F981108281E026
:1038E000DF91CF910895EF92FF920F931F93CF93A3
:1038F000DF93EC017B018A01BA010E94571C811100
:1039000004C0CE010E942B1C07C01D830C83B7018D
:10391000888199810E94A122CE01DF91CF911F91D0
:103920000F91FF90EF900895CF93DF93EC01FB018F
:103930008617970761F0608171816115710529F023
:10394000448155810E94731C02C00E942B1CCE0131
:10395000DF91CF910895FC011182108213821282AF
:10396000158214820C94941CCF93DF93EC016115A3
:10397000710561F0FB0101900020E9F7AF014150B2
:103980005109461B570B0E94731C02C00E942B1C3E
:10399000CE01DF91CF9108950F931F93CF93DF93C3
:1039A000CDB7DEB729970FB6F894DEBF0FBECDBFF7
:1039B0008C01862FF80111821082138212821582E7
:1039C000148250E0BE016F5F7F4F90E00E94CD22D5
:1039D000BE016F5F7F4FC8010E94B41C29960FB6CD
:1039E000F894DEBF0FBECDBFDF91CF911F910F9135
:1039F00008950F931F93CF93DF93CDB7DEB76297F0
:103A00000FB6F894DEBF0FBECDBF8C01CB01F8011D
:103A100011821082138212821582148250E0BE013C
:103A20006F5F7F4F0E94B722BE016F5F7F4FC8015B
:103A30000E94B41C62960FB6F894DEBF0FBECDBFD5
:103A4000DF91CF911F910F910895EF92FF920F9305
:103A50001F93CF93DF93EC017B010C811D816115D6
:103A6000710511F480E016C04115510591F0040F65
:103A7000151FB8010E94571C8823A1F328813981A2
:103A80008C819D81B701820F931F0E94A1221D830B
:103A90000C8381E0DF91CF911F910F91FF90EF9008
:103AA0000895EF92FF920F931F93CF93DF9300D06F
:103AB00000D0CDB7DEB77C01862F4AE08E010F5FC4
:103AC0001F4FB80190E00E94C222F801019000202F
:103AD000E9F7AF0141505109401B510BB801C70133
:103AE0000E94251D0F900F900F900F90DF91CF91A6
:103AF0001F910F91FF90EF900895CF93DF93EC010A
:103B00006115710569F0FB0101900020E9F7AF0133
:103B100041505109461B570B0E94251D811103C0BE
:103B2000CE010E942B1CCE01DF91CF910895CF933F
:103B3000DF93EC010E94511D811103C0CE010E9450
:103B40002B1CCE01DF91CF9108950F931F93CF933C
:103B5000DF93EB0141155105E9F02097D9F0FC0105
:103B60006481758126173707A0F4621B730B8A01E5
:103B7000015011096017710708F48B01FC01608185
:103B80007181620F731FA801CE010E94A822C00F8D
:103B9000D11F1882DF91CF911F910F9108950E943C
:103BA000932208950E94BB160E94D11D0E947904A1
:103BB000C1E0D8E10E94D5042097E1F30E940118EA
:103BC000F9CF08955058BB27AA270ED075C166D1EA
:103BD00030F06BD120F031F49F3F11F41EF45BC143
:103BE0000EF4E095E7FB51C1E92F77D180F3BA17C6
:103BF000620773078407950718F071F49EF58FC16B
:103C00000EF4E0950B2EBA2FA02D0B01B9019001F7
:103C10000C01CA01A0011124FF27591B99F0593F3B
:103C200050F4503E68F11A16F040A22F232F342F83
:103C30004427585FF3CF469537952795A795F040D1
:103C40005395C9F77EF41F16BA0B620B730B840BE6
:103C5000BAF09150A1F0FF0FBB1F661F771F881F9E
:103C6000C2F70EC0BA0F621F731F841F48F48795F6
:103C700077956795B795F7959E3F08F0B3CF9395E5
:103C8000880F08F09927EE0F979587950895D9D05A
:103C900008F481E008950CD00FC107D140F0FED0A8
:103CA00030F021F45F3F19F0F0C0511139C1F3C079
:103CB00014D198F39923C9F35523B1F3951B550BF0
:103CC000BB27AA2762177307840738F09F5F5F4FEF
:103CD000220F331F441FAA1FA9F333D00E2E3AF030
:103CE000E0E830D091505040E695001CCAF729D04A
:103CF000FE2F27D0660F771F881FBB1F2617370799
:103D00004807AB07B0E809F0BB0B802DBF01FF27C8
:103D100093585F4F2AF09E3F510568F0B6C000C12E
:103D20005F3FECF3983EDCF3869577956795B79502
:103D3000F7959F5FC9F7880F911D9695879597F91D
:103D40000895E1E0660F771F881FBB1F6217730796
:103D50008407BA0720F0621B730B840BBA0BEE1FAB
:103D600088F7E095089504D06894B111D9C00895FA
:103D7000BCD088F09F5790F0B92F9927B751A0F089
:103D8000D1F0660F771F881F991F1AF0BA95C9F7EF
:103D900012C0B13081F0C3D0B1E00895C0C0672F28
:103DA000782F8827B85F39F0B93FCCF3869577959F
:103DB0006795B395D9F73EF4909580957095619588
:103DC0007F4F8F4F9F4F0895E89409C097FB3EF4B3
:103DD00090958095709561957F4F8F4F9F4F992358
:103DE000A9F0F92F96E9BB279395F69587957795D6
:103DF0006795B795F111F8CFFAF4BB0F11F460FF96
:103E00001BC06F5F7F4F8F4F9F4F16C0882311F0ED
:103E100096E911C0772321F09EE8872F762F05C001
:103E2000662371F096E8862F70E060E02AF09A959C
:103E3000660F771F881FDAF7880F9695879597F991
:103E40000895990F0008550FAA0BE0E8FEEF16162B
:103E50001706E807F907C0F012161306E407F5077E
:103E600098F0621B730B840B950B39F40A2661F0F2
:103E7000232B242B252B21F408950A2609F4A14095
:103E8000A6958FEF811D811D089597F99F6780E8A2
:103E900070E060E008959FEF80EC089500240A949C
:103EA0001616170618060906089500240A94121615
:103EB0001306140605060895092E0394000C11F448
:103EC000882352F0BB0F40F4BF2B11F460FF04C0F5
:103ED0006F5F7F4F8F4F9F4F089557FD9058440F4E
:103EE000551F59F05F3F71F04795880F97FB991F59
:103EF00061F09F3F79F08795089512161306140616
:103F0000551FF2CF4695F1DF08C0161617061806A2
:103F1000991FF1CF86957105610508940895E8947D
:103F2000BB2766277727CB0197F908958ADF08F426
:103F30008FEF08950BD0C0CFB1DF28F0B6DF18F0B7
:103F4000952309F0A2CFA7CF1124EACFC6DFA0F3B3
:103F5000959FD1F3950F50E0551F629FF001729F1E
:103F6000BB27F00DB11D639FAA27F00DB11DAA1F3D
:103F7000649F6627B00DA11D661F829F2227B00D8A
:103F8000A11D621F739FB00DA11D621F839FA00D15
:103F9000611D221F749F3327A00D611D231F849F65
:103FA000600D211D822F762F6A2F11249F575040BC
:103FB0008AF0E1F088234AF0EE0FFF1FBB1F661F57
:103FC000771F881F91505040A9F79E3F510570F010
:103FD0005CCFA6CF5F3FECF3983EDCF386957795F8
:103FE0006795B795F795E7959F5FC1F7FE2B880F0B
:103FF000911D9695879597F9089523DF880B990B66
:104000000895DB018F939F930E947520BF91AF911C
:10401000A29F800D911DA39F900DB29F900D112422
:10402000089597FB072E16F4009407D077FD09D06A
:104030000E94882007FC05D03EF4909581959F4F03
:104040000895709561957F4F0895A1E21A2EAA1BDD
:10405000BB1BFD010DC0AA1FBB1FEE1FFF1FA21738
:10406000B307E407F50720F0A21BB30BE40BF50B35
:10407000661F771F881F991F1A9469F760957095BE
:10408000809590959B01AC01BD01CF010895052E4F
:1040900097FB1EF400940E945E2057FD07D00E94FB
:1040A000252007FC03D04EF40C945E2050954095DB
:1040B000309521953F4F4F4F5F4F089590958095D4
:1040C000709561957F4F8F4F9F4F0895A29FB001CC
:1040D000B39FC001A39F700D811D1124911DB29F3C
:1040E000700D811D1124911D08950E946620A59FC9
:1040F000900DB49F900DA49F800D911D11240895E3
:10410000B7FF0C9475200E947520821B930B0895B5
:10411000AA1BBB1B51E107C0AA1FBB1FA617B707ED
:1041200010F0A61BB70B881F991F5A95A9F7809509
:104130009095BC01CD010895EE0FFF1F0590F491FD
:10414000E02D0994CF93DF938230910510F482E043
:1041500090E0E0916506F091660620E030E0A0E096
:10416000B0E0309739F14081518148175907B8F0D4
:104170004817590771F482819381109729F013969B
:104180009C938E9312972CC090936606809365063D
:1041900027C02115310531F04217530718F0A90146
:1041A000DB0101C0EF019A01BD01DF010280F38153
:1041B000E02DD7CF21153105F9F0281B390B24301C
:1041C000310580F48A819B816115710521F0FB0125
:1041D0009383828304C09093660680936506FE01F4
:1041E000329644C0FE01E20FF31F81939193225057
:1041F0003109398328833AC02091630630916406DF
:10420000232B41F420910201309103013093640685
:1042100020936306209100013091010121153105A1
:1042200041F42DB73EB74091040150910501241B84
:10423000350BE0916306F0916406E217F307A0F4F2
:104240002E1B3F0B2817390778F0AC014E5F5F4FEC
:104250002417350748F04E0F5F1F509364064093B4
:1042600063068193919302C0E0E0F0E0CF01DF911B
:10427000CF910895CF93DF93009709F487C0FC0195
:10428000329713821282C0916506D09166062097FC
:1042900081F420813181280F391F8091630690912C
:1042A00064068217930779F5F0936406E09363063A
:1042B0006DC0DE0120E030E0AE17BF0750F412966B
:1042C0004D915C9113979D014115510509F1DA015A
:1042D000F3CFB383A28340815181840F951F8A1746
:1042E0009B0771F48D919C911197840F951F0296F5
:1042F0009183808312968D919C91139793838283EF
:104300002115310529F4F0936606E09365063EC059
:10431000D9011396FC93EE9312974D915D91A40FE2
:10432000B51FEA17FB0779F480819181840F951FEF
:104330000296D90111969C938E9382819381139654
:104340009C938E931297E0E0F0E08A819B81009726
:1043500019F0FE01EC01F9CFCE01029628813981D6
:10436000820F931F20916306309164062817390746
:1043700069F4309729F4109266061092650602C01F
:1043800013821282D0936406C0936306DF91CF91AB
:104390000895A0E0B0E0EFECF1E20C940623EC010C
:1043A000CB01209719F40E94A220B8C0FE01E60FAD
:1043B000F71F9E0122503109E217F30708F4ACC041
:1043C000D9010D911C91119706171707B8F0053008
:1043D000110508F49FC0A80144505109461757071A
:1043E00008F498C002501109061B170B0193119392
:1043F0006D937C93CF010E943A218CC05B01A01A7F
:10440000B10A4E01800E911EA0916506B09166061C
:10441000612C712C60E070E0109709F449C0A81578
:10442000B905C9F5ED90FC901197670142E0C40E03
:10443000D11CCA14DB0478F147018A189B08640177
:1044400042E0C40ED11C1296BC9012971396AC9108
:10445000B5E0CB16D10440F0B282A3839182808272
:10446000D9018D939C9309C00E5F1F4F0E0D1F1D28
:10447000F90111830083EB2DFA2F6115710531F0DD
:10448000DB011396FC93EE93129744C0F0936606FB
:10449000E09365063FC06D917C9111976616770693
:1044A00008F43B01BD0112960D90BC91A02DB4CF34
:1044B000609163067091640668157905E9F46816E1
:1044C0007906D0F440910001509101014115510548
:1044D00041F44DB75EB76091040170910501461B30
:1044E000570BE417F507C0F4F0936406E0936306F6
:1044F000F901918380830EC00E94A2207C01009765
:1045000059F0A801BE010E949822CE010E943A21D2
:10451000C70104C0CE0102C080E090E0CDB7DEB795
:10452000EEE00C94222381E090E0F8940C9439237F
:10453000FB01DC0102C001900D9241505040D8F7C0
:104540000895FB01DC0101900D920020E1F7089530
:10455000FB01DC014150504048F001900D920020D9
:10456000C9F701C01D9241505040E0F7089545320F
:10457000510520F4423010F00C94C222FB0110824D
:10458000CB010895BB274A3031F4992322F4BDE2D0
:10459000909581959F4F0C94D9224532510520F476
:1045A000423010F00C94D822FB011082CB01089508
:1045B000BB27FB015527AA27880F991FAA1FA417FD
:1045C00010F0A41B83955051B9F7A05DAA3308F0F1
:1045D000A95DA193009779F7B111B1931192CB0125
:1045E0000C94F222DC01FC01672F71917723E1F733
:1045F000329704C07C916D9370836291AE17BF07B0
:10460000C8F308952F923F924F925F926F927F92DC
:104610008F929F92AF92BF92CF92DF92EF92FF92D2
:104620000F931F93CF93DF93CDB7DEB7CA1BDB0B7E
:104630000FB6F894DEBF0FBECDBF09942A88398823
:1046400048885F846E847D848C849B84AA84B9842A
:10465000C884DF80EE80FD800C811B81AA81B98136
:10466000CE0FD11D0FB6F894DEBF0FBECDBFED014A
:064670000895F894FFCF4D
:10467600000067068000010000000E001E000144D5
:10468600617461202020202020204F726100546533
:104696006D70657261747572610043616D70696FEA
:1046A6006E616D656E746F006D696E2E00496E20C9
:1046B6006D656D6F726961003530202D20202D20CB
:1046C600202D20202D20202D20202D20202D0034AF
:1046D60030202D20202D20202D20202D20202D2083
:1046E600202D20202D003330202D20202D20202D80
:1046F60020202D20202D20202D20202D003230207E
:104706002D20202D20202D20202D20202D20202D55
:1047160020202D003130202D20202D20202D20205E
:104726002D20202D20202D20202D00430A2000445E
:1047360053313330325254432052656164205465FC
:104746007374002D2D2D2D2D2D2D2D2D2D2D2D2D33
:104756002D2D2D2D2D2D00525443206D6F64756C1B
:1047660065206163746976617465640054686520C8
:104776004453313330322069732073746F7070651F
:10478600642E2020506C656173652072756E2074EE
:1047960068652053657454696D65006578616D7050
:1047A6006C6520746F20696E697469616C697A65DD
:1047B600207468652074696D6520616E6420626589
:1047C60067696E2072756E6E696E672E0054686535
:1047D600204453313330322069732077726974650F
:1047E6002070726F7465637465642E2054686973F3
:1047F600206E6F726D616C2E00554E4958205469BB
:104806006D653A2000202054696D65203D20002CFE
:1048160020446174652028442F4D2F5929203D20BE
:10482600002C20446F57203D200044533133303252
:104836002072656164206572726F72212020506C4F
:104846006561736520636865636B207468652063C2
:1048560069726375697472792E004E6F206D6F727E
:1048660065206164647265737365732E00524F4DE3
:10487600203D00435243206973206E6F7420766199
:104886006C69642100202043686970203D204453F0
:10489600313853323000202043686970203D20446F
:1048A60053313842323000202043686970203D2061
:1048B6004453313832320044657669636520697342
:1048C600206E6F7420612044533138783230206670
:1048D600616D696C79206465766963652E002020B8
:1048E60044617461203D2000204352433D00202056
:1048F60054656D7065726174757265203D20002087
:1049060043656C736975732C200020466168726577
:104916006E68656974003A0000000000490CBE1913
:104926009A0FBC09F20F5E10730ACA10F20CF10D51
:10493600430B00000000490CBE19CF1DBC09C20A7A
:10494600D90A730AEF0A240B420B430B000000003E
:10495600490CBE199A0FBC09F20F5E10730ACA10F1
:10496600F20CF10D430B1F1C1F1E1F1E1F1F1E1FC7
:104976001E1F000000005218BE19D417ED17DF17CE
:1049860030180D0A006E616E00696E66006F7666FD
:0249960000001F
:00000001FF
